:0400000508000000EF
:020000040800F2
:10000000F0FF0120C5010008E16D05082DE8010899
:10001000251406082514060825140608000000000B
:100020000000000000000000000000002514060889
:10003000E56D0508000000008D8C0508DD960108BF
:100040002514060825140608251406082514060894
:1000500025140608251406088DA5000895A5000896
:100060009DA50008A5A50008ADA500087DA2000873
:100070008DA20008A1A20008B5A20008C9A200082C
:10008000DDA20008F1A200082514060825140608C0
:10009000251406082514060825140608B5A5000829
:1000A000DDB4000825140608EDB400089DB400086E
:1000B000ADB4000825140608F18C050825140608BF
:1000C0002514060825140608251406082514060814
:1000D0002514060879920108251406087D93010865
:1000E000BDA5000825140608E96D0508FDB4000843
:1000F000251406080DB50008CDB4000805A30008B6
:100100002514060825140608BDB4000825140608A1
:100110008194010825140608B1C40008E9C4000848
:1001200019A300082DA3000841A3000855A3000847
:1001300069A3000800000000000000002514060864
:100140002514060825140608251406082D6E050832
:100150007DA3000891A30008A5A3000885950108C8
:100160002514060825140608251406082514060873
:1001700025140608251406082514060800000000AA
:100180000000000025140608000000000000000028
:1001900025140608000000000000000025140608D1
:1001A0000000000000000000000000002514060808
:1001B0002514060825140608251406082514060823
:1001C000251406080AF0F8FC0AF0CCFF002103E031
:1001D000144B5B58435004311348144B42189A4255
:1001E000F6D3134A02E0002342F8043B114B9A4233
:1001F000F9D3114A03E05FF0A53342F8043B0F4BFB
:100200009A42F8D30E48016841F4700101600CF085
:10021000D9FA61F009F97047FEE70A48D0F800D032
:1002200040680047F8970708C4010020781B0020A9
:10023000781B002030270120F0FB0120F0FF012077
:1002400088ED00E00000FF1F0055407D5057545DD1
:10025000F575DD7FDD15F505550100000055407D84
:10026000505D547DF55DDD7DDD55F50555010000E2
:1002700000014007400740074007400700014007D2
:10028000000100004004D01DD01DF47FD01DF47F7C
:10029000D01DD01D400400000000000000005015DB
:1002A000F47F501500000000000000000000000076
:1002B0000000000000000005401F401F0005000076
:1002C000000010007400D0014007001D00740010F1
:1002D000000000004005D01F7475F4757477747DBC
:1002E0007475D01F4005000000014007401F400703
:1002F000400740074007D01F400500004005D01FC1
:1003000074757410D0014007501DF47F5015000023
:100310005015F47FD0154007D00174107475D01FAC
:10032000400500004000D001D007D01DD075F47FFB
:10033000D015D001400000005015F47F5075D07FDB
:10034000741574107475D01F400500004001D0076B
:10035000401D4075D07F74757475D01F4005000036
:100360005015F47F7415D0014007001D001D001DBD
:10037000000400004005D01F74757475D01F74759B
:100380007475D01F400500004005D01F747574754A
:10039000F41F7405D005401F000500000000000098
:1003A0000005401F401F0005401F401F00050000C2
:1003B000000000005015F47F5015F47F5015000028
:1003C000000000004005D01F74757415741F747709
:1003D0007477D01F400500004005D01F74757474F9
:1003E0007475F47F74757474101000004015D07F1C
:1003F00074757475D07F74757475D07F4015000066
:100400004005D01F74751074007410747475D01F7B
:10041000400500000015407FD075747474747474C6
:10042000D075407F001500005015F47F5075407561
:10043000D07F40755075F47F501500005015F47F43
:1004400050754075D07F4075007400740010000036
:100450004005D01F74755075D07774757475F41F8E
:10046000500500001010747474747475F47F747502
:1004700074747474101000004005D01F40074007CA
:10048000400740074007D01F400500005001F40717
:10049000D001D001D001D011D075401F000500005F
:1004A00010107474D0754077007D4077D0757474E7
:1004B00010100000001000740074007400740074C8
:1004C0005075F47F5015000010107474F47D74772B
:1004D0007477747574747474101000001010747450
:1004E0007474747D7477F4757474747410100000EF
:1004F0004005D01F74757474747474747475D01F4F
:10050000400500004015D07F74757475D07F40752C
:1005100000740074001000004005D01F74757474DE
:1005200074747477D075741F100500004015D07F67
:1005300074757475D07F4077D07574741010000096
:100540004005D01F74755075D01F74157475D01F79
:10055000400500005015F47F501740074007400742
:100560004007400700010000101074747474747424
:10057000747474747475D01F400500001010747486
:100580007474747474747474D01D40070001000096
:100590001010747474747475747774777477D01DD4
:1005A00040040000101074747474D01D4007D01DF6
:1005B0007474747410100000101074747474747473
:1005C000D01D400740074007000100005015F47F90
:1005D0007415D0014007001D5075F47F50150000C0
:1005E0004005D01F401D001D001D001D401DD01FD7
:1005F00040050000000000100074001D4007D001FD
:1006000074001000000000004005D01FD005D0018C
:10061000D001D001D005D01F40050000000000002F
:100620004005D01F7405F41F7475F41F50050000B9
:100630000010007400744075D07F74757475D07F9D
:1006400040150000000000005005F41F50750074B4
:100650005075F41F500500001000740074007405FC
:10066000F41F74757475F41F50050000000000003D
:100670004005D01F7475F47F5075F41F50050000BD
:100680004000D00174075017F47F5017400740070F
:1006900000010000000000005005F41F7475F41FF5
:1006A0007415D07F40150000001000740074407570
:1006B000D07F747574747474101000000000000111
:1006C00040070001400740074007400700010000C5
:1006D0004000D0014000D001D001D011D075401FA2
:1006E000000500000004001D101D741DD01D401FDA
:1006F000D01D741D100400000005401F4007400776
:10070000400740074007D01F4005000000000000E0
:100710004014D07D7477747774757474501400002D
:10072000000000004011D077747D74747474747488
:1007300010100000000000004005D01F7475747494
:100740007475D01F40050000000000004015D07FE8
:100750007475D07F40750074001000000000000028
:100760005005F41F7475F41F740574001000000028
:10077000000000004011D077747D10740074007484
:1007800000100000000000005005F41F5075D01F3D
:100790007415D07F40150000000140075017F47F0A
:1007A000501750077407D0014000000000000000FF
:1007B00010107474747474747475D01F4005000044
:1007C000000000001010747474747474D01D40071D
:1007D000000100000000000010107474747574773C
:1007E0007477D01D400400000000000010107474E5
:1007F000D01D4007D01D74741010000000000000D0
:1008000010107474D01D40074007001D0004000044
:10081000000000005015F47FD0154007501DF47FF4
:100820005015000000000001400740074007400746
:1008300040074007400700010000000000000000E2
:10084000000000000000000000000000FF0001FFA9
:10085000FFFFFFFFFFFFFFFFFFFFFFFFFFFFFFFFA8
:10086000FFFFFFFFFFFFFFFFFFFFFFFFFF02FF0391
:10087000FFFFFFFFFFFFFFFFFF0405060708090A50
:100880000B0C0D0E0F1011FFFF12FFFF13141516A6
:100890001718191A1B1C1D1E1F2021222324252670
:1008A0002728292A2B2C2D2E2F30FFFFFF31323302
:1008B0003435363738393A3B3C3D3E3F4041424380
:1008C0004445464748494AFF4BFFFFFFFFFFFFFFF4
:1008D000FFFFFFFFFFFFFFFFFFFFFFFFFFFFFFFF28
:1008E000FFFFFFFFFFFFFFFFFFFFFFFFFFFFFFFF18
:1008F000FFFFFFFFFFFFFFFFFFFFFFFFFFFFFFFF08
:10090000FFFFFFFFFFFFFFFFFFFFFFFFFFFFFFFFF7
:10091000FFFFFFFFFFFFFFFFFFFFFFFFFFFFFFFFE7
:10092000FFFFFFFFFFFFFFFFFFFFFFFFFFFFFFFFD7
:10093000FFFFFFFFFFFFFFFFFFFFFFFFFFFFFFFFC7
:10094000FFFFFFFFFFFFFFFFFFFFFFFF4005400727
:100950004007400740054007400500001010747430
:100960007474101000000000000000004004D01D4E
:10097000F47FD01DF47FD01D40040000000140072B
:1009800040070001000000000000000000014007D7
:10099000001D001D001D4007000100000004001D97
:1009A000400740074007001D000400004004D01D20
:1009B0004007D01D40040000000000004005400733
:1009C0005457F47F545740074005000000000000D2
:1009D0004015401F401F4017400500000000000068
:1009E0005455F47F54550000000000000000000042
:1009F00000004015401F401F40150000100074000B
:100A0000D0014007001D0074001000005015D45F95
:100A1000747574777475D45F501500005005D01745
:100A2000D05DD075D455F47F545500005055D47F17
:100A30007455D47F5475F47F545500005455F47F99
:100A40007455F41F7455F47F545500005454747455
:100A50007475F45F74157400540000005055F47FF1
:100A60005475D47F7455D47F505500005455F47F8D
:100A70005475F47F7475F47F545500005455F47F19
:100A8000D4554007001D0074005000005015D45F7D
:100A90007475F47F7475D45F501500005455F47F5D
:100AA0007475F47F7455F41F541500004015401FF1
:100AB000401F4015401F401F401500004000D0015E
:100AC0004007001D4007D001400000005455F47F4E
:100AD000545500005455F47F545500000004001D87
:100AE0004007D0014007001D000400005015D45FEE
:100AF0007475D45750054007400500005455F47FE5
:100B00007475F47F74757474545400005055D47F18
:100B10007475F47F7475D47F505500005455F47F7C
:100B2000547500745475F47F545500005055D47FAB
:100B3000747574747475D47F505500005455F47FE7
:100B40005475D07F5475F47F545500005455F47F8C
:100B50005475D07F50750074005400005455F47FD4
:100B60005475F4777475F47F5455000054547474BC
:100B70007475F47F74757474545400005455F47F84
:100B8000545740075457F47F545500005455F47F90
:100B9000D455D001D055D07F5055000014547474F2
:100BA000D075407FD07574741454000000540074E4
:100BB000007400745475F47F545500005014D45DD3
:100BC0007477747774777475545400005454747542
:100BD000747D7477F4757475545400005455F47F23
:100BE000747574747475F47F545500005455F47F13
:100BF0007475F47F54750074005400005455F47FEC
:100C000074757474D075747F145500005455F47F56
:100C10007475F47F5477D075405400005415F45F18
:100C20005475F47F7455D47F505500005455F47FAB
:100C3000545740074007400740050000545474745F
:100C4000747474747475D45F5015000054547474C3
:100C500074747475D45D5017400500005455747752
:100C6000747774777477D45D50140000545474759D
:100C7000D45D5017D45D7475545400005454747589
:100C8000D45D501740074007400500005455F47FDD
:100C9000D4554017545DF47F545500004005D01FD3
:100CA000401D001D401DD01F4005000000100074B5
:100CB000001D4007D0017400100000004005D01F47
:100CC000D005D001D005D01F400500000000000075
:100CD000000000005455F47F545500000001400707
:100CE000D01F747754574007400500005405F4079F
:100CF000F4017407141D0074001000000001400787
:100D0000D055F47FD055400700010000001000745A
:100D1000141D7407F401F407540500004005400752
:100D200054577477D01F4007000100001000740072
:100D3000D0514077007D407F4055000000014007C2
:100D4000541DF47F541D4007000100004055407FB2
:100D5000007D4077D05174001000000000000000BA
:100D6000000000000000000000000000FFFFFFFF87
:100D7000FFFFFFFFFFFFFFFFFFFFFFFFFFFFFFFF83
:100D8000FFFFFFFFFFFFFFFFFFFFFFFFFF0001026D
:100D9000FFFFFF030405060708090A0B0C0D0E0FE1
:100DA00010111213141516FF1718191AFF1B1C1D0A
:100DB0001E1F202122232425262728292A2B2C2DDB
:100DC0002E2F3031323334353637FF38FFFFFFFFF7
:100DD000FFFFFFFFFFFFFFFFFFFFFFFFFFFFFFFF23
:100DE000FFFFFFFFFFFFFFFFFFFFFFFF393A3B3C25
:100DF0003D3E3F40FFFFFFFFFFFFFFFFFFFFFFFF05
:100E0000FFFFFFFFFFFFFFFFFFFFFFFFFFFFFFFFF2
:100E1000FFFFFFFFFFFFFFFFFFFFFFFFFFFFFFFFE2
:100E2000FFFFFFFFFFFFFFFFFFFFFFFFFFFFFFFFD2
:100E3000FFFFFFFFFFFFFFFFFFFFFFFFFFFFFFFFC2
:100E4000FFFFFFFFFFFFFFFFFFFFFFFFFFFFFFFFB2
:100E5000FFFFFFFFFFFFFFFFFFFFFFFFFFFFFFFFA2
:0C0E6000FFFFFFFFFFFFFFFFFFFFFFFF92
:102800000828000808280008000000000000000058
:1028100000000000000000000000000000000000B8
:1028200000000000000000000000000000000000A8
:102830000000000000000000000000000000000098
:102840000000000000000000000000000000000088
:103610000000000000000000A00F010028000000D2
:10362000603B0020903B002000000000203907088C
:103630008C3B00200E02010002000000343B002001
:10364000BC3B00200000000048390708B83B0020C0
:103650000A02010014000000143B0020C43B0020BB
:103660000000000099840008C03B002006200100F3
:1036700028000000C8320020DC3B002000000000D1
:1036800015E60008D83B0020160215003F00000098
:1036900078310020083C00200000000059E70008B5
:1036A000043C002015001000700000005885002028
:1036B000CC8500200000000000000000C88500202C
:1036C0002A00080060000000F884002040860020E6
:1036D00000000000E98F03083C8600202102010061
:1036E000F000000008840020A486002000000000F4
:1036F0009DAF0408A08600202C00040010000000EC
:10370000F88300209887002000000000459A0308F5
:103710009487002025201E002C010000CC82002070
:10372000AC8700200000000000000000A8870020F7
:103730002B0012002400000084820020DC8800207E
:1037400000000000559A0308D888002027000100D7
:1037500004000000B46B0020048900200000000079
:103760004C390708008900200C6004007800000034
:10377000205F00200C890020000000008D7A0208E4
:103780000889002005300100080000004C6B002073
:103790008889002000000000503907088489002033
:1037A000031101000A000000206A00209489002013
:1037B00000000000DD0E050890890020292014007B
:1037C00078000000B0670020A489002000000000FD
:1037D00000000000A0890020012001000C00000072
:1037E000A4670020208A0020000000005839070844
:1037F0001C8A002023200100100000009467002094
:10380000308A002000000000B5A603082C8A0020A2
:103810000B3001001A00000068670020448A002075
:103820000000000064390708408A00200E80040070
:1038300090020000985F0020648A002000000000D1
:1038400065F60208608A00201E4001004D0000005D
:10385000D4660020F88C0020000000007E390708A4
:10386000F48C00200D100100400000009066002044
:103870004C8D00200000000019FD0108488D00203B
:10388000220201001C0100002C6A0020908D002003
:1038900000000000C5FA00088C8D00201F020B00FC
:1038A00016000000C88E0020B08E0020000000002E
:1038B00031E70008AC8E00201B0201001000000060
:1038C000F48E0020E48E00200000000009E70008CC
:1038D000E08E002028020400040000000C8F00206D
:1038E000088F002000000000FDE60008048F002083
:1038F0002702040004000000188F0020148F00200D
:1039000000000000F1E60008108F00200012010006
:103910000A0000002C8F0020208F002000000000F3
:10392000EDE500081C8F00201A0201003C00000099
:10393000488200203C8F002000000000E1ED0008DC
:10394000388F002004000800800000004C6E00202A
:103950007C8F00200000000000000000788F002015
:103960001C0201000E00000084670020009000206F
:1039700000000000B9ED0008FC8F00202630010097
:1039800008000000EC6E00201490002000000000F1
:1039900085A9040810900020081203000F00000001
:1039A000DC6E00202090002000000000B9E5000837
:1039B0001C9000200A9001002400000028620020D2
:1039C0003490002000000000C9A6030830900020B9
:1039D000031201003D000000606F00205C90002099
:1039E00000000000CC3907085890002001020100B7
:1039F0000A00000054720020A09000200000000087
:103A000005E600089C9000200C0201000400000064
:103A100014AB0020B09000200000000089E50008F1
:103A2000AC900020FD170100A0000000687200208B
:103A3000B8900020000000004DA70408B4900020BA
:103A40001310010004000000606700205C9100205A
:103A5000000000000C3A070858910020F5C1010051
:103A600074000000AC690020649100200000000098
:103A7000EDAE040860910020020201000300000086
:103A80004C720020DC91002000000000B1E700082B
:103A9000D8910020FF21010005000000546B002098
:103AA000E4910020000000001DE70008E0910020E4
:103AB000F62101000C00000044680020F091002075
:103AC00000000000103A0708EC91002012120100DB
:103AD0000400000018AB002000920020000000004D
:103AE000CDE60008FC910020110201000800000052
:103AF0001CAB00200892002000000000D9E600085E
:103B000004920020340001001000000024AB0020CB
:103B10001492002000000000D18F030810920020B2
:103B2000F8310100060000004066002028920020C5
:103B3000000000001C3A0708249200200210010037
:103B40000C000000F46E0020349200200000000001
:103B5000243A070830920020FE0101001400000002
:103B60002868002044920020000000008DE5000835
:103B700040920020F7010100060000003C68002090
:103B80005C92002000000000303A070858920020A4
:103B90001A0001000E000000CC6E00206892002088
:103BA00000000000363A070864920020141001005B
:103BB00005000000506600207C92002000000000FC
:103BC00051F6020878920020FD010100210000005A
:103BD000296E002088920020000000008B6F0108F1
:103BE0008492002018400100380000005866002030
:103BF000B0920020000000004DEE0008AC920020C2
:103C0000F90101000400000034AB0020EC92002018
:103C100000000000416F0108E8920020123001000E
:103C200011000000A4540020F492002000000000C5
:103C3000443A0708F09200201F50010024000000C1
:103C400078BC0020CCBE002000000000583A0708D5
:103C5000C8BE0020384001000600000054AC00201F
:103C6000F4BE0020000000007C3A0708F0BE0020EF
:103C70003750010028000000A0BA002000BF00203B
:103C800000000000823A0708FCBE00201900010075
:103C900005000000B8B300202CBF00200000000089
:103CA000AA3A070828BF0020206201000C0000008B
:103CB000FCAC002038BF002000000000B03A07082C
:103CC00034BF00202F2001002200000048BF002048
:103CD000CCBD002000000000BC3A070844BF002013
:103CE000010101000400000058C2002068C3002048
:103CF000000000000000000064C30020000101007B
:103D00000400000054C2002070C300200000000026
:103D1000DE3A07086CC30020020101000300000026
:103D200050C2002078C30020000000007D7A020805
:103D300074C300202902010040000000F4C20020EA
:103D400080C3002000000000E23A07087CC3002086
:103D50002A12010008000000E0C00020C4C30020B7
:103D600000000000223B0708C0C300201B300100F8
:103D700010000000C8C00020D0C3002000000000D8
:103D80001DA00408CCC3002016300100080000006C
:103D900038C00020E4C30020000000002A3B0708D0
:103DA000E0C30020101001000200000034C0002019
:103DB000F0C3002000000000323B0708ECC30020E5
:103DC000A10F01000400000000C00020F8C3002083
:103DD00000000000343B0708F4C300201302010078
:103DE00004000000C4C0002000C400200000000047
:103DF000383B0708FCC30020050201000400000056
:103E000028C4002030DE0020000000003C3B0708F2
:103E10002CDE00202C1201000600000088C70020C4
:103E200058DE002000000000403B070854DE002060
:103E30002D02010001000000FCC6002064DE00200D
:103E4000000000000000000060DE002023320100BE
:103E500014000000A8DF0020F4E0002000000000B3
:103E6000483B0708F0E000200300010001000000CB
:103E700068E60020A8EB0020000000000000000021
:103E8000A4EB00201002010001000000E425012045
:103E9000E0250120000000005C3B0708DC25012034
:103EA0000902010001000000BD250120EC250120D0
:0C3EB000000000005E3B0708E825012030
:108000001B4B01681B4A03F5727C03E063452CD0CF
:1080100053F82C2F9142F9D170B593F804E04279CE
:1080200096450AD0634505D053F82C2F9142F4D0E1
:108030006345F9D14FF0FF3070BD9E468468DEF88D
:108040000C50A5424FF0000208D00132032A0EF175
:108050000C0EE7D0DEF80C50A542F6D1DEF8105039
:10806000C668B542F1D150B270BD4FF0FF307047D5
:10807000AC2D06080000014030B5EAB18E464FEA4B
:10808000014C034600F1C005002419689A6841EAD2
:108090000C0142EA0E029A60C3E900140C33AB42B1
:1080A000F3D1D0F8C030C0F8C44043EA0E03C0F8A2
:1080B000C030C0F8C84030BD4FEA014E8C46E0E702
:1080C00083691969B3F80CC00A6830B49C6822F05F
:1080D000010224680A60A28992B222EA0C02A281FB
:1080E000027D04681F2A06D96568203A082090405E
:1080F000284245D0FEE72568082090402842F9D163
:10810000202000FA02F2A260264A1278002A35D016
:108110001A7E012A39D0D3F8F4200132C3F8F420B2
:10812000EFF31181502282F3128858685C6C026868
:1081300022EA04029C6C2243C9B2026081F31188D6
:10814000D3E90C401A6999681D6C09681460506184
:10815000D3E90E40546090600024B3F8A800D560C5
:108160004C62C86210680124204310601C7683F8BA
:10817000F1408A899B8913439BB28B8130BC704745
:10818000202000FA02F2E260BEE7002283F8F1202C
:10819000D3F8F8000A68013022F00102C3F8F800B1
:1081A0000A60EBE7781B002010B40C4C6368002BCE
:1081B00011DD002004F1080C0146DCF8A03003F1C9
:1081C000C00259600C339342FBD163680130834293
:1081D0000CF5807CF1DC5DF8044B7047781B0020C7
:1081E00070B5484C04EB401393F8242402B970BDD9
:1081F0008C2202FB004294F8685994F869E992F8DD
:108200000A6583F80A6475454FF000034FEA401C85
:1082100082F80A350CD00EEB4E0304EBC30393F83F
:108220006C29561E012E4FEA4E035CD9032A54D006
:1082300004EB0C00A0F80814EFF31182902383F3F1
:10824000128890F80A34B0F8081443EA4103002178
:10825000D2B29BB280F80A1482F311881A092178ED
:1082600082EA13225A40D9B1D0F82044D0F80C1435
:10827000D4F8A040D2431B019BB202F00F020120B0
:108280008840134304F1C0015A0013F4004F93B225
:1082900002D16268024362600C348C42F4D170BD3A
:1082A000D0F82014D0F80C04D1F8A0401B0100F144
:1082B00010019BB202F00F0201208840134304F129
:1082C000C0015A0013F4004F93B202D16268024316
:1082D00062600C34A142F4D170BD0EF1010202F0D3
:1082E0000302AA42A4D0734404EBC303184490F8D9
:1082F000791900299CD004EB0C03012283F80A248D
:1083000096E700BF781B0020704700BF024B03EBCD
:10831000401090F825047047781B00204368B0F89F
:10832000502010B41A83EFF31182502383F3128884
:108330004168446C0B6823EA0403C46C2343D2B243
:108340000B6082F31188D0E90741826803691268E3
:108350001C605961D0E909415C60C46A9960B0F859
:108360006010DC600023D1625DF8044B0376704737
:10837000704700BF0B4890F8001A89B101EB41012A
:10838000002310B4490000F608201C4650F82320B2
:10839000063302B114608B42F8D15DF8044B70478C
:1083A000704700BF781B00200B4890F8001A89B175
:1083B00001EB4101002310B4490000F608201C46DF
:1083C00050F82320063302B114609942F8D15DF8C9
:1083D000044B7047704700BF781B00200120704796
:1083E000034B00EB400003EBC00090F8190A704704
:1083F000781B0020204890F8003A002B3AD0002249
:108400002DE9F04300F608231C4E4FF0500E4FF0BC
:108410002C0C154607E053F8181B0D6090F8001A55
:108420000132914224DD197C0029F4D05C68A10A54
:10843000A1F5801106EB010852294FF0FE0798BF05
:1084400098F8F473EFF311888EF31288D4F824901F
:10845000A18A0CFB070789B209F1010941F001016A
:10846000C7F8F09A5FFA88F7A18287F31188D2E7FC
:10847000BDE8F083704700BF781B0020AC2D0608D4
:1084800007EE900AB8EE670A704700BFBCEEC00A5C
:1084900010EE103A98B27047B422828029224FF42D
:1084A000A57C4FF4EB7102814FF487720023A0F892
:1084B00002C0C1804FF4E17C962182814422037086
:1084C000A0F80AC0C18102824382704782B0314B5A
:1084D000002201920193019B2F4A04330193019BD7
:1084E0001968936803F00C03082B0CD00C2B25D0D3
:1084F000042B18BF294A2A4B14BFC3F8302DC3F8E8
:10850000301D02B07047536850685B0200F03F00B6
:1085100037D45168214BB3FBF0F0C1F3881100FB55
:1085200001F11D4B1E4A5B68C3F3014301335B003D
:10853000B1FBF3F1C2F8301D02B0704753685068C8
:108540005B0200F03F0014D45168144BB3FBF0F011
:10855000C1F3881100FB01F10F4B114A5B68C3F3B3
:10856000027301335B00B1FBF3F1C2F8301D02B0BE
:1085700070475368B1FBF0F1C3F3881303FB01F1BB
:10858000EAE75368B1FBF0F1C3F3881303FB01F191
:10859000C7E700BF50280040003802400024F40024
:1085A000781B0020034B93F8580D003818BF0120AA
:1085B000704700BF781B0020826D136A5B681B78D0
:1085C000FF2B08D090F8F030013BDBB280F8F030A0
:1085D0001BB10120704700207047126A52680220C8
:1085E00013707047836D1B6A5B681B78FF2B0AD181
:1085F00090F8F030002B03F1FF3280F8F02014BF28
:108600000120022070470020704700BF034B93F801
:10861000580D032894BF002001207047781B0020CC
:1086200000487047D428002030B4194B00209C7BB0
:1086300014B11D688D4206D001300B2803F11003E0
:10864000F5D130BC70479AB1124B03EB40218A42FE
:1086500019D0114B93F8E4278AB1104B01225A70BC
:1086600000F5B17003EB00100123837130BC70473B
:108670000A4B00F5B17003EB00108271E1E70122B3
:1086800083F8E427E9E7022CE3D1183BE8E700BFD1
:1086900060520020603C0020484C0020483C0020F4
:1086A00030B41D4C002384F8D03604F5C36004E0D8
:1086B00001330B2B00F1100015D005688D42F7D166
:1086C00090F80EC0BCF1030FF2D1C2B1134901EB17
:1086D0004320824209D1A1F1180203F5B17302EBE4
:1086E000031301229A7130BC704794F8E42712B941
:1086F000012284F8E4270A4A01215170EDE7084974
:10870000D4F8CC2603F5B17301EB03130132042135
:108710009971C4F8CC26E6E7484C0020603C002064
:10872000483C0020A8B183681BB10E4B07229A7009
:1087300070470C4A1178D36003294FF004000CBF36
:1087400080214FF48071C2E901111361137590709B
:108750007047044A02F580510123537081F8E437D1
:10876000704700BF483C002070B5214C94F8682940
:1087700094F869399A4236D194F8283EE3B194F8D6
:10878000295E1C4B002040F20D3CB5B19A689989D6
:1087900051601668196846F001061660A1F848C0D5
:1087A0008A8992B242F480728A8194F8282E01302C
:1087B000824203F11803E8DC70BD1A68118821F0C9
:1087C00080010904090C11809988D162118889B24D
:1087D00041F0800111805562998A9689314389B2AE
:1087E00091819D82E1E755F0F1FB0028C4D170BD75
:1087F000781B0020A42900202DE9F0411D4D95F89B
:10880000682995F869399A422DD16E68002E11DDDC
:1088100000242F781848A046013417B1037E012B9D
:108820001CD002691368B44243F0010300F5807064
:108830001360F1D110F09CFFD5F8EC4E002C0BDD4D
:108840000E4A02EBC40411689388888908320343F6
:108850009BB294428B81F6D1BDE8F08180F8F08024
:10886000FFF75CFDDDE755F0B1FB0028CDD1BDE899
:10887000F08100BF781B0020801B0020682A0020A8
:108880002DE9F84F037D02681F2B044608D9506874
:10889000A3F120052021A940014206D1BDE8F88FAF
:1088A0001068202199400142F8D04B494B4D49684E
:1088B000C5F8101F95F8291EA669F9B98C2101FB8E
:1088C0000651D1F81005D1F888C50768DCF800001A
:1088D000B1F814E520F00100CCF80000B98989B2A4
:1088E00021EA0E01B9812978E1B91F2B67D9A3F1DB
:1088F000200120238B40D360BDE8F88F8C2101FB41
:108900000651D1F810150F690868396821F0010186
:108910003960818921F480710904090C81812978E9
:108920000029E2D08C2706FB07F705EB070B2C4943
:10893000DBF88895DBF8103507F118084846D3F8BE
:1089400000A088444DF02EFFD5F8183F244901229D
:108950008BF85C25002B38D0BAF800309BB243F07E
:108960008003AAF8003074374FF0FF333944CAF857
:108970002C3050464EF070F98C2303FB0656002332
:108980004146C6F82C3548464DF0A2FFD6F888354A
:1089900016225A601A6842F001021A60D6F81025B1
:1089A000B6F81435126891890B439BB293810A493A
:1089B000237D49682268C5F8141F1F2B97D82021F2
:1089C00001FA03F39360BDE8F88F10F0D1FE04497B
:1089D000C5F8180FC0E700BF001000E0781B0020AA
:1089E000802000202DE9F04110F0C2FE1E4F1F4EE6
:1089F00005464FF000087C68002C29DD00231A464C
:108A000007EB0321013391F8F9109C4242EA01027D
:108A1000F6D142EA0804E4B290467368C3F308034F
:108A20009BB9EFF3118383B914F064FA431BB3F5D8
:108A3000FA6F02DCB8F1000FDDD11CB197F81C3FD2
:108A4000542B09D02046BDE8F08110F065FEEDE71B
:108A500044464FF00008E0E7B7F8243F0133A7F899
:108A6000243F2046BDE8F081781B002000ED00E0A7
:108A7000C44B1B780BB901207047C248C249D0F8DB
:108A8000302FC24B2DE9F04FA1FB02125209A3FB7C
:108A9000023A4FEADA0A0AEB8A0ABD4B85B0A2EB2A
:108AA0004A0A5FFA8AF200F634770193039207EBE1
:108AB0008A0A00F581690025A3F58E7BDBF82C324C
:108AC000AB4240F31281D9F81830D9F80460D3E9E9
:108AD0003A8410F04DFEAB4B02904FEA860E0EF139
:108AE000085E0EEB481E93F81C8F9BF8240204F1DD
:108AF00080613939B8F1540F0EEB81110EEB801300
:108B000002D1A04AA2F8260F994240F261811A6868
:108B1000002A00F055811A6C002A00F06881D3F811
:108B20008020002A00F06581D3F8C02003F580730F
:108B3000002AE9D1A3EB0E0E99424FEAAE1E40F295
:108B40004781A4EB0E0145294FF0000428BF4521C1
:108B500003EB81119C46204626460DE01A6C002A44
:108B600040F0CA80D3F88020002A40F0F080D3F88B
:108B7000C02003F580732AB9994206D91A68002AE1
:108B8000ECD04033994200F2BB80112E344640F2C3
:108B90002381D6F1150200F11F817E49029E0B68E8
:108BA0009E45DBF8283238BFC1F800E0F11A0029F1
:108BB00017DB03F5F42303F590739E4288BF029BF5
:108BC000744988BF0533CBF82832724B1B68052BDC
:108BD00086BF053BDBB200238BF824324FF0FF3316
:108BE0000B6042B100FA02F2C4F11404012000FA51
:108BF00004F444EA0200684BC0F3C43203EB82027F
:108C0000D2F8484400F01F0203EB8202D2F8481465
:108C1000C0F3441203EB8202C0F3842003EB800014
:108C2000D2F8483441EA043141EA0311D0F848341B
:108C300041EA032181EA112383EA131303F00F03AE
:108C40000F2B40F0AD80B1F5803F80F0A980B8F1E6
:108C5000540F4FEA111105D14A4AB2F8203F0133AF
:108C6000A2F8203FDBF82431B1F5606F03F1010376
:108C7000CBF8243100F0CF80019B998197F85830D0
:108C80000398834210D0DAF808203B689B1A3B60B7
:108C9000DAF830207B689B1A7B600023CAF8083022
:108CA000CAF8303087F858003B6801333B60DAF887
:108CB00008300133CAF808304FF6FF73994207D1E4
:108CC0007B6801337B60DAF830300133CAF830302A
:108CD000019B01351433082D07F15C070AF15C0A8A
:108CE000019309F120097FF4E9AE012301208BF8FB
:108CF000203205B0BDE8F08F803399427FF645AF52
:108D0000A3EB0C029211541C244A82FB04C2A2EB76
:108D1000E472012AB8BF0122904001241644013AAE
:108D200004FA02F210431C46226892B1226C002A17
:108D300061D0D4F88020002A5FD0D4F8C02004F598
:108D400080743AB1A142EFD89C46234614E7C03361
:108D500018E74034A142F7D9E31A9B115A1C0F4B74
:108D600083FB02C3A3EBE273012BB8BF012398403E
:108D70001E440122013B02FA03F3184323469C469A
:108D80002346F9E6781B00201F85EB51CDCCCCCCD7
:108D90008C2D0020C4010020AC2D060856555555D9
:108DA000B8F1540F2BD0DBF824310133CBF8243148
:108DB000DBF820310133CBF820314FF6FF715DE74E
:108DC0004033A3EB0E0E99424FEAAE1E3FF6B9AE0A
:108DD00010B101388BF82402B8F1540F7FF478AF4A
:108DE000154AB2F8223F0133A2F8223F70E78033E0
:108DF000A0E6C0339EE68034ACE7C034AAE70E4A52
:108E0000B2F8203F0133A2F8203FDBF824310133D0
:108E1000CBF82431CCE7084A92F8693903EB4303D5
:108E200002EBC3032B4493F879390D2B7FF424AF65
:108E3000019A8023937721E7781B002010B5044620
:108E400058F098FB81B22046BDE81040FFF7C8B942
:108E500038B50B4D00EB400005F6082303EBC003CB
:108E600093ED027AD3ED037AE7EE007AC4002C4446
:108E7000B0EE670A58F07EFBD4F8083A186038BDA7
:108E8000781B0020038A2DE9F047B0F80C901FFAF8
:108E900089F919EA03092BD005460E464FF0004721
:108EA0004FF00008B9FA89F327FA03F2D24391B2DE
:108EB0001B3B298209EA0209042B16D8DFE803F0DC
:108EC000352C231A0300B36A002B37D003F1FF3A85
:108ED0001FFA8AFAC6F82880746A34B123682046DB
:108EE000514698476468002CF8D1B9F1000FD9D1E8
:108EF000BDE8F0877068696B036889B29847B9F17B
:108F0000000FCFD1F4E7B068A96B036889B2984726
:108F1000B9F1000FC6D1EBE7F068E96B036889B2DD
:108F20009847B9F1000FBDD1E2E73069296C0368B9
:108F300089B29847B9F1000FB4D1D9E7E96A1FFAAD
:108F400081FAC9E72DE9F843214FB7F8DC224FF049
:108F50000043B2FA82F2D3400342804624D11D4E30
:108F6000356873691D4005EA0805756185B14FF0E4
:108F70000109B5FA85F4C4F11F0407EB840309FA6B
:108F800004F4D3F8880403689847A5437461F0D1CA
:108F9000B7F8DC224FF00043B2FA82F2D34013EA72
:108FA000080F09D1BDE8F88372B6D7F85034013301
:108FB000C7F8503462B6D2E772B6074B5B681B0540
:108FC00002D462B6BDE8F883BDE8F8434FF06CBE4A
:108FD000702C0020003C014000ED00E010B5164C64
:108FE000D4F8883D6BB11A689B88116994F8852D77
:108FF0000B4022B12BB1002384F8583D10BD002B4B
:10900000F9D094F8583D032B0FD894F84C3D013318
:10901000DBB2072B84F84C3DEDD8D4F8302FC4F8E0
:10902000482D012384F8583D10BD04480FF028FB5B
:10903000A4F8900DE9E700BF781B0020801A060015
:1090400010B5124C12498CB0002384460DF1070074
:109050000122CDE90230069104F68C5002A9049257
:109060008DF82820CDE907338DF8143009930B9340
:1090700084F824CE0FF07EFAD4F88C2D136A002BDE
:10908000FCD19DF807000CB010BD00BF781B00207C
:10909000E585000870B5054690B008200C46FFF73E
:1090A000CFFFFF2826D0FE2802D0022010B070BDCE
:1090B000124E039400230220CDE90730012201A9BA
:1090C00006F68C50CDE90135CDE90533CDE90A33FB
:1090D000CDE90C338DF810308DF824300F938DF8D6
:1090E00038200FF047FAD6F88C3D186A0028FCD1DA
:1090F00010B070BD012010B070BD00BF781B002003
:1091000030B51E4D91B00023FD200DF10301012269
:10911000CDE905318DF8030001A905F68C50CDE9A4
:109120000133CDE90732CDE90A33CDE90C33C5F877
:10913000543D8DF810308DF824300F9303928DF844
:1091400038200FF017FAD5F88C3D1C6A002CFCD1A2
:109150000120FFF775FFFF2809D0D5F8303FC5F88B
:10916000483D0922204685F8582D11B030BD042312
:10917000022085F8583D11B030BD00BF781B00209B
:1091800010B592B00A0E04468DF805200A0A002395
:10919000080C44F0400C8DF807200122CDE907337C
:1091A000CDE90D338DF804C08DF806004FF0950C15
:1091B00017488DF8081004938DF818300A928DF82E
:1091C0002C300F938DF84020119301A906220DF148
:1091D00003038DF809C00C9003910592099353F095
:1091E0006FFC00B98CB90B4C082303A904F68C5012
:1091F00084F8243E0FF0BEF9D4F88C2D136A002BAE
:10920000FCD19DF8030012B010BDFF2012B010BDBC
:10921000E5850008781B0020817899B10C48D0F8CA
:10922000C834102B0FD003EB430202444FF0200C44
:10923000013382F8CC14012182F8CDC482F8CE1417
:10924000C0F8C83470470521002014F049B900BFA8
:10925000702C00202DE9F041B74C94F8846D92B049
:10926000002E00F0BA8194F8583D04F674575A1E47
:10927000082A00F24E81DFE812F03C007600C100BF
:109280004C013A0163011C004C01090053F018FC29
:109290000546002840F00283D4F8483DD4F8302F2A
:1092A000FA33934280F03281FFF798FE94F8583DEC
:1092B000DDE753F005FC0028EED0D4F8542D002350
:1092C000012A84F84C3D40F21483D4F8501D013A31
:1092D00001310823C4F8542DC4F8501D84F8583DBA
:1092E000A3F10806B6FA86F67609304612B0BDE854
:1092F000F08100210846FFF743FFD4F88C2D054686
:10930000136A002BFCD10A2013F016FED4F8943D0A
:1093100013B11A689B881383012D40F0F7804FF03A
:10932000000840F2AB11082084F84D8DFFF728FFAC
:10933000052800F0B581012800F06981D4F88C2D52
:10934000136A002BFCD10A2013F0F6FDD4F8943DEB
:1093500013B11A689B88138394F84D3D002BBDD040
:10936000022384F8583D94F84D3D0021022B0CBF98
:109370004FF080450D463720FFF702FF2946292090
:10938000FFF7FEFED4F88C2D0546136A002BFCD1A6
:109390000A2013F0D1FDD4F8943D13B11A689B88CC
:1093A0001383002D40F0B28094F84D3D022B00F065
:1093B000E58184F84E5D00210920FFF7E1FE0028D9
:1093C00000F073810025D4F88C2D136A002BFCD19A
:1093D0000A2013F0B1FDD4F8943D13B11A689B88AC
:1093E0001383002D00F0928000210A20FFF7C8FEB1
:1093F000002840F08E81032384F8583D102103A8F3
:10940000FFF748FE002840F08180BDF80D209DF850
:1094100014309DF80C1084F8621D52BAA4F8602D27
:109420009DF80F2084F8632D9DF8102084F8642D9A
:109430009DF8112084F8652D9DF8122084F8662D82
:109440009DF8132084F8672D03F00F011A099DF889
:10945000193084F86C2D1B019DF81A20DDF81500D9
:1094600084F86D1DDBB243EA121302F00F0200BA5A
:1094700003F5FA6384F8702DD4F88C2DC4F8680DC8
:10948000A4F86E3D136A002BFCD10A2013F054FDA2
:10949000D4F8943D13B11A689B88138394F84E3D19
:1094A000B3B94FF400711020FFF76AFED4F88C2D89
:1094B0000546136A002BFCD10A2013F03DFDD4F8B9
:1094C000943D13B11A689B881383002D7FF4ECAE92
:1094D0001A480FF0D5F800220423A4F8900D304666
:1094E000C4F8542D84F8583D12B0BDE8F081D4F88A
:1094F000340D4FF40071FFF7CDFD012800F0A88076
:10950000022800F0AD80002800F0148194F8583D46
:109510005A1ED2B2022A0BD8D4F8302FD4F8481DE4
:10952000521AC82A7FF6DCAEFFF758FD94F8583D72
:10953000042B7FF4D5AED8E6781B002040787D015F
:10954000D4F88C2D117B136A00294CD05269002A63
:1095500049D094F8142E002A45D0B3FA83F35B095E
:10956000002BD3D002AA002303920222CDE90432B9
:109570000DF107020992C548ADF80830012203A990
:10958000CDE90733CDE90C33CDE90E338DF8183032
:109590008DF82C3011930A928DF840200EF0EAFFDE
:1095A000D4F88C3D1D6A002DFCD19DF8073003F0E6
:1095B0001F03052B00F08581FFF710FDD4F8408DC7
:1095C000B8F1000F69D0D4F8443DD4F8381D2A46CC
:1095D0000120C04794F8583D49E6304684F8586D5C
:1095E00012B0BDE8F081D4F8343D94F83C0D03EBA3
:1095F000002053F019FA94F83C3D0133DBB284F8B3
:109600003C3DA3F10203B3FA83F35B09A8E702AB85
:1096100004939E488DF82C50042303A9CDE90788B4
:10962000CDE90988CDF80C808DF81880CDF8308010
:1096300005930EF09FFFD4F88C2D136A002BFCD1FC
:109640009DF80B30AB2B04BF022384F84D3D77E629
:10965000D4F8483DD4F8302F64339342BFF456AF6A
:10966000D4F88C2D136A002BFCD10A2013F064FC73
:10967000D4F8943D13B11A689B881383FFF7AEFCAE
:10968000D4F8405D4DB10022D4F8443DD4F8381DE3
:109690001046A84794F8583DE9E594F8583DE6E5AA
:1096A000D4F88C2D84F84D5D4AE610213846FFF73A
:1096B000F1FC00287FF486AE94F8833DDB077FF54C
:1096C00081AE94F8741D891100F0928001297FF415
:1096D00079AE94F87B2DDFF8B8C192000546D2B27E
:1096E00016210220C0F108038B4228BF0B46C3F1AC
:1096F000080002419D40C91A45EA02054FF00000EA
:109700001CF8012FEED16B1C9B02C4F85C3D354662
:1097100059E6D4F88C2D136A002BFCD10A2013F0E3
:109720000BFCD4F8943D002B3FF4BEAD1A689B8827
:109730001383B9E5D4F88C2D136A002BFCD10A20D1
:1097400013F0FAFBD4F8943D13B11A689B88138385
:10975000D4F8405D0423002084F8583D84F84C0D73
:10976000002D3FF4C2ADD4F8443DD4F8342DD4F8E4
:10977000381DA84794F8583D5A1ECAE629463A2093
:10978000FFF7FEFC02AB04930423059380460123FC
:109790003E488DF82C3003A9CDE90755CDE9095590
:1097A00003958DF818500C950EF0E4FED4F88C3D1E
:1097B0001A6A002AFCD1B8F1000F12D11A6A002AE5
:1097C000FCD10A2013F0B8FBD4F8943D13B11A6809
:1097D0009B881383029B1BBAC3F3807384F84E3DAE
:1097E000E9E51A6A002A99D01A6A002AF9D195E7A0
:1097F00094F8793D94F87D0DDFF898E003F00F03BD
:10980000800101255FFA80FC9D4006200323C0F102
:1098100008029A4228BF1A46C2F108004CFA00F02A
:1098200091409B1A41EA00011EF801CF4FF0000061
:10983000EDD194F87AEDDFF860804FEA8E1E0231A8
:109840005FFA8EFE4FF00C0C062200E00022C2F1FF
:109850000802624528BF6246C2F108004EFA00F0D5
:109860009340BCEB020C18F801EF43EA0003EDD182
:1098700001338B40E917A3FB055203FB01226D0A5C
:1098800045EAC255C4F85C5D35469CE504290020D4
:10989000F3280020F5280020F2280020D4F88C2D91
:1098A000136A002BFCD10A2013F046FBD4F8943D38
:1098B00013B11A689B881383042384F8583D2E46FD
:1098C00013E5D4F8405DD4F8302FC4F8482D0723B1
:1098D00084F8583D002D3FF403ADD4F8443DD4F84E
:1098E000342DD4F8381D0120A84794F8583D5A1E4D
:1098F0000FE616D00423D4F88C2D84F8583D136A53
:10990000002BFCD10A2013F017FBD4F8943D002B58
:109910003FF4FCAD1A689B88138394F8583D5A1E97
:10992000F7E5FFF7EDFB02287FF4F0ADD4F88C3DAE
:109930001A6A002AFCD1E5E72DE9F041324C0546D0
:10994000884617461E4694F8580D04283AD0082831
:1099500007D1D4F8503DAB4206D0FFF7D1FB022827
:10996000F1D00120BDE8F081FC21284BD4F88C2DEA
:1099700083F8FC14264B117BC3F82C8051B152693B
:1099800042B194F8142E002A0CBF4FF480724FF4A9
:10999000007201E04FF480725A631E491E480EF0B7
:1099A000E9FD01220623C4F8348DC4F8385DC4F8FB
:1099B000407DC4F8446D84F83C2D84F8583D002067
:1099C000BDE8F08194F84E3D53B969021820FFF7C5
:1099D000D7FB38B994F8583D082BC5D0FE21C4E711
:1099E0002946F3E7D4F88C2D136A002BFCD10A200A
:1099F00013F0A2FAD4F8943D13B11A689B8813832C
:109A0000FFF7ECFA0320ADE7781B0020702C002054
:109A1000C4010020C80100200429002070B5234E95
:109A200096F8583D042B05460C4609D0082B21D149
:109A3000D6F8503D834237D0FFF762FB022819D198
:109A400000213720FFF79CFB21461720FFF798FBEA
:109A5000C0B996F84E3D7BB969021920FFF790FB1B
:109A600080B9082386F8583DC6F8544DC6F8505DB5
:109A7000022070BD012070BD29461920FFF780FB30
:109A80000028EED0D6F88C2D136A002BFCD10A20CA
:109A900013F052FAD6F8943D13B11A689B881383D9
:109AA000FFF79CFA032070BD022070BD781B0020D8
:109AB0002DE9F843224D95F8584D042C80468946EF
:109AC00017461E4608D0082C02D00020BDE8F883B7
:109AD000FFF716FB0228F8D195F84E3DB3B1414689
:109AE0001120FFF74DFBC0B9D5F8303FC5F8349DC4
:109AF000052285F8582DC5F8388DC5F8407DC5F884
:109B0000446DC5F8483D0120BDE8F8834FEA48217F
:109B10001120FFF735FB0028E6D0D5F88C3D1C6AF4
:109B2000002CFCD10A2013F007FAD5F8943D002B45
:109B3000CBD01A689B8813832046BDE8F88300BF0A
:109B4000781B002008B5044B044AD3F8D0339A613F
:109B50004DF0F0FC52F058FC702C0020D8A4060800
:109B6000274A92F8283E7BB3D2F82C1E884237D081
:109B7000012B29D0D2F8441E814235D0022B23D0AC
:109B8000D2F85C1E884231D0032B1DD0D2F8741E4F
:109B900088422DD0042B17D0D2F88C1E884229D0B1
:109BA000052B11D0D2F8A41E884225D0062B0BD04D
:109BB000D2F8BC1E884221D0072B05D0D2F8D41E83
:109BC000814208BF07230CD003EB430102EBC10124
:109BD00003F1010CC1F82C0E82F828CE184670470C
:109BE0000023DBB2184670470123FAE70223F8E7A7
:109BF0000323F6E70423F4E70523F2E70623F0E75F
:109C0000781B002038B5424C8C2303FB004393F8AB
:109C1000173503B938BD94F868C994F869399C457B
:109C20000ED003EB430204EBC20292F86CE90EF192
:109C3000FF35012D4FEA430247D9BEF1030F3FD054
:109C40008C2202FB0042A2F80815EFF31181902349
:109C500083F31288B2F808C592F80A3543EA4C0338
:109C60004FF0000CC9B29BB282F80AC581F311888B
:109C70001A09217882EA13225A4001B1D2431B010A
:109C80009BB294F8291E02F00F021A438C2303FBA7
:109C9000004449BB1F4BD4F89005D3F8003501218F
:109CA0009847D4F88C15B4F814558A8AD4F88835B6
:109CB0002A438A8258601A6842F001021A6038BD4D
:109CC0005D1C05F003056545BAD0134404EBC303DE
:109CD000034493F879190029B2D08C2303FB004385
:109CE000012283F80A25ABE7D4F81035D4F88C05A7
:109CF0005B790849006903F0FC031844D1F800358A
:109D000004219847D4F88C358000988138BD00BF75
:109D1000781B0020702C002043680B4A23F040730E
:109D200023F4807343F48073436083681A4042F0E5
:109D300002028260C36A0139CAB223F4700141EAA7
:109D40000251C162704700BFFDF7FFC0704700BFFE
:109D500010B404698269E468416814604024D460E6
:109D6000446900230C31C2E90433C2E90633C2E975
:109D70000833C2E90A33C2E90C339360936351603C
:109D800084B1C269E0689363C2E90233C2E9043373
:109D9000C2E90633C2E90833C2E90A33C2E90C3327
:109DA000C2E900015DF8044B704700BF4368002220
:109DB0001A60037D1F2B08D9203B2022016802FA7C
:109DC00003F343F01803CB6070472022016802FAC6
:109DD00003F343F018038B60704700BF0268136AF7
:109DE00011B1D96901B3143330B49C681D6891690D
:109DF000DDB14FF4806088618D60104640690C6170
:109E000080B15968D369C9B10A464FF480619A603C
:109E10009961224312F0010F14BF00224FF4005247
:109E20001A621C6130BC704770478D61054D4FF060
:109E3000FF0C05F854CF00688D60DFE7024A9A6096
:109E40009961E6E7C4010020743100200168F8B58B
:109E5000D1E9042304465568002B49D09861107D50
:109E60005E681F2831D81768202202FA00F040F0FF
:109E70001800B8601A7D1F2A32D91868203A2023AA
:109E800003FA02F242F01802C26000232B60336032
:109E90003368896943F01003336028464CF018FD9D
:109EA00023683046D9694CF013FD2B68226843F0D3
:109EB00001032B603368526843F0010333609388D9
:109EC0009BB243F003039380F8BD1768203820222B
:109ED00002FA00F040F01800F8601A7D1F2ACCD872
:109EE0001868202303FA02F242F018028260CCE7DD
:109EF000137D90611F2B1CD81068202202FA03F3F7
:109F000043F01803836000232B602B68896943F0BA
:109F100010032B6028464CF0DBFC2B68226843F0D2
:109F2000010352682B6093889BB243F00203938035
:109F3000F8BD1068203B202202FA03F343F0180317
:109F4000C360E0E72DE9F0417F4D804E07463C6855
:109F500097F888806368B888012284F824201A88DA
:109F600022F040021204120C1A802289824223D06D
:109F7000198821F038010904AB424FEA114100F081
:109F8000BF80734A934200F0BB800246B2F5807FE7
:109F9000A8BF4FF48072022AB8BF0222002A92FAA8
:109FA000A2F2B2FA82F208BF4FF0FF32013A41EA60
:109FB000C20292B21A802081397BA27A8A420CD0E6
:109FC0001A8822F003021204120C1A801A8892B224
:109FD000002900F092801A80A1721A8892B242F091
:109FE00040021A80226A9168002900F0A3804FF095
:109FF000000C1432E64652F8100C8E4400EA0601BA
:10A0000020B1B1F1805F23D0616909B352F8140C1B
:10A01000143200EA060110B1B1F1805F18D052F895
:10A020000C1C0CF1010C0029E5D1227B82B1B8F1A6
:10A03000000F0DD0BCF1010F6FD8BEF1070F6CD827
:10A040000CEB8C018900226A11440A7B002A64D03F
:10A05000226A92684FF00008002A53D0B8F1000F2E
:10A0600002D098F80C2022B1BA6812B11168928817
:10A070004A83226AD2F800E0226A5168226A926812
:10A08000501E9AB1BEF1000F23D01EF801CB1A89E1
:10A090009207FCD5A3F80CC01A89D207FCD59A897F
:10A0A00092B209B101F8012B0138EBD2236A1B7B74
:10A0B000E3B9236A1B697BB1236AD7F894001B6953
:10A0C000984701280DD0022806D100232362BDE85D
:10A0D000F0814FF0FF0CDAE7D4F82080236A1433C4
:10A0E0002362236A9B686BB16368B7E7BB68002B88
:10A0F000DFD01A689B881383DBE742F003026AE72C
:10A10000420843E7236A1B68DBB1236AD3E9007284
:10A1100022620022C3E9002219E700213846FFF736
:10A120005DFEBB6813B11A689B8853833846BDE84F
:10A13000F0418BE6227B002A8AD0B8F1000F82D151
:10A1400086E72362C3E700BF003800400000FFFF3E
:10A15000003C004010B1036882881A83704700BF3A
:10A1600010B1036882885A83704700BF08B51D206C
:10A170000EF042FD08B183794BB11E200EF03CFD7C
:10A1800008B1837903B108BD5523C38008BD5523A9
:10A19000C380F2E7D3B2012B23D870B502EB4202A1
:10A1A000114C4FEA820E4FF0000C22460EF10805CA
:10A1B000634604E00133152B11D012F81CCF604523
:10A1C000F8D192F801C08C45F4D15659002EF1D047
:10A1D000C3EBC3030EEB83030433E01870BD002010
:10A1E00070BD0020704700BF7432060810B40C4CDC
:10A1F000002304F5A16C01E0152B0CD003EB430206
:10A2000001331CF802108142F6D122445DF8044B60
:10A2100092F90A0570474FF0FF305DF8044B704724
:10A22000702C0020D3B2022B21D830B502EB4202B1
:10A23000104D114C4FEA820C0CF10C0E2A460023F3
:10A2400004E00133172B10D052F82C4FA042F8D164
:10A2500014798C42F5D152F80E40002CF1D02C220A
:10A2600002FB03C30833E81830BD002030BD0020D6
:10A27000704700BFAC2D0608000001400248836E05
:10A280000BB1583018477047C40100200348D0F87C
:10A290008C300BB17C301847704700BFC4010020E0
:10A2A0000348D0F8B0300BB1A0301847704700BF5A
:10A2B000C40100200348D0F8D4300BB1C430184793
:10A2C000704700BFC40100200348D0F8F8300BB13C
:10A2D000E8301847704700BFC40100200348D0F899
:10A2E0001C3113B100F5867018477047C401002077
:10A2F0000348D0F8403113B100F598701847704703
:10A30000C40100200348D0F8643113B100F5AA70ED
:10A3100018477047C40100200348D0F8883113B1B2
:10A3200000F5BC7018477047C40100200348D0F8FE
:10A33000AC3113B100F5CE7018477047C40100204E
:10A340000348D0F8D03113B100F5E07018477047DA
:10A35000C40100200348D0F8F43113B100F5F270C5
:10A3600018477047C40100200348D0F8183213B1D1
:10A3700000F5027018477047C40100200348D0F868
:10A380003C3213B100F50B7018477047C401002030
:10A390000348D0F8603213B100F5147018477047C5
:10A3A000C40100200348D0F8843213B100F51D70B9
:10A3B00018477047C4010020094B0A4A013800EBD6
:10A3C000C00003EB8000116B836D074883420CBF14
:10A3D0004FF400134FF480030B431363704700BF27
:10A3E000C4010020003802400060024070B501380E
:10A3F0003C4C3D4D00EBC00C04EB8C0C9646DCF85D
:10A4000058603A4AAE420CBF4FF400154FF4800535
:10A41000166B35431563CCF86810CCF870303449AE
:10A42000DCF85C308B424FEAC0023ED001F580611F
:10A430008B423AD0A1F57A718B4246D001F580610A
:10A440008B4242D0A1F57A718B4240D001F58061F8
:10A450008B423CD0A1F57A718B4234D001F58061FA
:10A460008B4230D0A1F57A718B4232D001F58061F8
:10A470008B422ED0A1F57A718B422CD001F58061F0
:10A480008B4228D0A1F57A718B4226D001F58061EC
:10A490008B4222D0A1F57A718B4220D0154D01F567
:10A4A00080618B4218BF002500E0134D104404EB7F
:10A4B0008003CEF387119D6793F86D00BDE870406F
:10A4C000002250F0ABBF0D4DF0E70D4DEEE70D4D06
:10A4D000ECE70D4DEAE70D4DE8E70D4DE6E7054DDC
:10A4E000E4E700BFC40100200060024000380240E1
:10A4F00010600240008000282080001000800018BA
:10A50000008800100080201020800020008800209B
:10A5100000802020800AA0F58010522808D8054B22
:10A52000184490F8F4330D2B02D8034AD0567047E4
:10A5300000207047AC2D0608E8A40608094910B5AC
:10A540004B6C094C43F480434B644022002104F5DA
:10A55000916058F0C6FB4FF0FF33C4F84835C4F89B
:10A560004B3510BD00380240702C002058B1838854
:10A570004FF00042B3FA83F332FA03F303D00249F7
:10A580000A6813430B607047003C01400120FEF74E
:10A59000D9BC00BF0220FEF7D5BC00BF0420FEF7E7
:10A5A000D1BC00BF0820FEF7CDBC00BF1020FEF7D5
:10A5B000C9BC00BF4FF47870FEF7C4BC4FF47C40B8
:10A5C000FEF7C0BC30B1036882881B691A4214BF11
:10A5D00001200020704700BF30B50C4683B005460F
:10A5E00018B3036803F13F4303F57E039B0A104A47
:10A5F000134493F8140752F09BFCA988009104F0CF
:10A600000303C4F381028DF8043028688DF8052017
:10A61000C4F300136946C4F341148DF806308DF875
:10A6200007404CF003F803B030BD4FF0FF33DEE7D6
:10A63000AC2D060800B1CFE7704700BF0E4B70B5D8
:10A64000D3F82C62002E14DD0C4C002503E0B5423B
:10A6500004F120040DD0237F0135002BF7D0E068F2
:10A660000028F4D0217DFFF7B7FFB54204F12004A4
:10A67000F1D1012070BD00BF702C0020801F002090
:10A68000F8B5037D85691F2B04464DD90168A3F1F8
:10A6900020024E6820209040064234D01023934080
:10A6A000C860CB604B68D340DE0700F18380EFF3D6
:10A6B0001183502282F312882A6C1168C9075AD478
:10A6C000516889B271B9D5E90960864250D0AF6945
:10A6D0000744D76073D9301A80B25060AE6200214F
:10A6E00085F86410116841F00101DBB2116083F359
:10A6F000118895F86430002B44D1237D1F2B27D976
:10A700002168A3F120024C6808209040044200D048
:10A71000C8604C68042000FA02F2224203D0203BB9
:10A7200000FA03F3CB60F8BD026820201668984059
:10A73000064219460ED01021994090609160116830
:10A74000D940C807B3D5012101FA03F39360AEE7FE
:10A7500022681946106808238B40184200D0936085
:10A760001068042303FA01F10142DCD09160F8BDC6
:10A77000012285F86420DBB283F3118895F86430F8
:10A78000002BBAD095F87C30002BB6D195F871002B
:10A790000EF032FA2A6E938923F008031B0401217C
:10A7A0001B0C938185F87C100028A6D02021FFF790
:10A7B00013FFA2E7012303FA02F2CA6077E72E69CA
:10A7C000301A80B25060A96289E700BF70B5037982
:10A7D0002D4C002B14BF012200228AB084F8842D56
:10A7E00003D184F8583D0AB070BD054604F68C5676
:10A7F00090F9001030460DF06DFFAD78002D37D187
:10A80000224B2348C4F8203E012284F8982DC4F836
:10A81000945D0DF035FF03464FF47A70A4F8903D37
:10A8200012F040FDD4F8943D13B11A689B8813834D
:10A83000184D0FCDEC46ACE80F000FCDACE80F0083
:10A8400095E803008CE80300694630460DF092FE5F
:10A85000D4F88C2D136A002BFCD1D4F8301FC4F827
:10A86000481D012284F8582D84F84C3D0AB070BD73
:10A8700028460EF0C1F905460028C1D01E23C3802A
:10A880000921FFF7A9FEBBE7781B0020AC280020B8
:10A89000801A0600C834060870B50C4682B015460A
:10A8A0000646002839D0036803F13F4303F57E03D1
:10A8B0009B0A1B4A134493F8140752F039FBB288E1
:10A8C0000092B2FA82F304F003028DF80420C4F37C
:10A8D000810230688DF80520C3F11F03C4F3001214
:10A8E000C4F341148DF80740C3F3CC0400EB840497
:10A8F00003F007038DF806209B00226A0F269D4077
:10A9000006FA03F322EA03032362226A1543694627
:10A9100025624BF08BFE02B070BD4FF0FF33C8E7ED
:10A92000AC2D060800B1B7E7704700BF2DE9F04332
:10A93000774D05EB001683B0D6F85035002B00F0AC
:10A94000938004464FEA001896F8580552F0F0FA42
:10A9500096F85835590903F01F0203294FF00103F7
:10A9600003FA02F300F09880042900F085800229A0
:10A970007DD005EB0803013493F854050EF03CF943
:10A98000E4B2814610B112238371C47105EB080350
:10A9900093F855050EF030F9074610B11323C47132
:10A9A000837105EB080393F856050EF025F906466A
:10A9B00010B11423C47183714544484695F8572556
:10A9C00001924A21FFF7AEFF019A38462A21FFF78C
:10A9D000A9FF019A0A213046FFF7A4FFD5F85025B8
:10A9E0004C4B9A425DD04C4B9A424AD04B4B9A42C8
:10A9F00062D04B4B9A426AD04A4B9A4272D04A4B31
:10AA00009A427AD049499088B1F89A42B1F898327E
:10AA1000B1F8A2522343B1F89C422343B1F89E42BD
:10AA200020F003002343B1F8A0420004000C2343AC
:10AA3000B1F8A44290802B4310882343B1F8A6427A
:10AA4000B1F8A81200F44150234303439BB2138092
:10AA5000938B23F400631B041B0C938311821388D4
:10AA60009BB243F04003138003B0BDE8F083304A4B
:10AA7000516A0B4353627CE72D4A11690B43136102
:10AA800077E703F50033196A41F480411962196AC6
:10AA900021F480411962B5E7254A116A0B4313621C
:10AAA00067E703F58433596A41F480515962596A62
:10AAB00021F480515962A5E703F5FE33196A41F488
:10AAC00000411962196A21F4004119629AE703F5FD
:10AAD0008233596A41F400515962596A21F4005194
:10AAE00059628FE703F56843596A41F4801159624E
:10AAF000596A21F48011596284E703F56443596A65
:10AB000041F400115962596A21F40011596279E740
:10AB1000702C00200030014000380040003C004014
:10AB2000003401400050014000540140C4010020A5
:10AB300000380240F8B590F871301C09013C032C34
:10AB40000FD81B4E06EB44020546B2F8440703F04B
:10AB50000F0340FA03F2D20703D595F87C70012F5A
:10AB600001D00120F8BD07FA03F3013B184034443B
:10AB700056F0DAFA94F84C270E4C104454F8302072
:10AB800004EBC0041069A3881840EBD0EB6E0022E0
:10AB900085F87C2093F8212020460221FFF77CFED7
:10ABA0002A6E93899BB243F0080338469381F8BD1F
:10ABB000AC2D0608A02E00201D4B1E48196C1E4A05
:10ABC00010B441F080510124196404625321FF2420
:10ABD000CA205462506251625B6FDB0085B017D4AB
:10ABE00016480423002102910290029A1A4402920C
:10ABF000029A04331C2B1160F5D103910390039B3F
:10AC00000393039B0E4A1A6005B05DF8044B70472E
:10AC10000A4B002201920193019B0193019A084B78
:10AC200012689A42DCD105B05DF8044B704700BF52
:10AC30000038024000000E4200280040502800402A
:10AC40003166654270B5056E8668AB8923F40053A2
:10AC50001B041B0CAB8142790446007912F0040FEF
:10AC600014BF4FF4805C4FF0000C110310F0010F83
:10AC70004FEA02220CBF0023042302F48062800703
:10AC800048BF43F0080342EA0C0213432A8A92B2F7
:10AC900001F4005122F440520A432A82AA8922F484
:10ACA000B05222F00C021204120C1A43AA81AB8A91
:10ACB00023F440731B041B0C90B0AB8201A84BF033
:10ACC000FFFCA84B9D4205D003F580639D4201D057
:10ACD000039A00E0049AAB89A349A8891B0402EBFC
:10ACE00082024CBF7300B30002EB8202B2FBF3F3AB
:10ACF000A1FB03625209642606FB123306044FEAE5
:10AD0000021200F1A8801B013233A1FB0313C3F32D
:10AD1000431313439BB22B816179236EC80753D52C
:10AD2000924A934200F09F80914A934200F0C08083
:10AD30000D0750D59A8A92B242F008029A829A89F7
:10AD400092B242F400529A812279D00732D5E06B58
:10AD5000002800F0A1800023CDE90833CDE90C33B1
:10AD6000CDE90E334FF4807204930693E3680A92A0
:10AD70000593E26D636CCDE90132636903934FF48F
:10AD800080314FF4806307930B914BF00BFD01A9C9
:10AD9000E06B4BF09DFDE26B216E136843F0010305
:10ADA00013608B8A9BB243F040038B8253682279F5
:10ADB0009BB26365910715D4226E93899BB243F4CD
:10ADC0000053938110B070BD694A9342B0D10E0711
:10ADD00000F1D480664B9A8A22F008021204120C09
:10ADE0009A82ACE7206C002800F08F80A36D02935C
:10ADF0004FF480330B934FF48063079323690593DB
:10AE0000A36C0193002540230493CDE90855CDE9B7
:10AE10000C55CDE90E55039506950A954BF0C2FCED
:10AE2000206C01A94BF054FD236C226E586940F050
:10AE300080005861186840F0160018605D60938AC1
:10AE40009BB243F0800302F10C0193820B6843F044
:10AE500040030B60B1E7DB003233A1FB0313C3F304
:10AE60004213134356E7434E96F8815596F88125D1
:10AE700005F0FE0545F0010595423FF459AF01216B
:10AE80002A4686F8815506F28C500DF0A3FB236EFE
:10AE9000617986F8815547E74FF6DF711980D968E7
:10AEA00041F02001D960D96841F01001D96081E7F3
:10AEB0000A0732D52F4D95F8816595F8812506F062
:10AEC000F90646F00606964240D0324685F881657E
:10AED000012105F28C500DF07DFB85F8816595F818
:10AEE000816595F8813506F0E70646F008069E4232
:10AEF00063D00121204885F8816532460DF06AFB58
:10AF0000617985F88165236E12E7226ED36843F07C
:10AF1000800302F10C01D36098E7164E96F8815534
:10AF200096F8813505F0F90545F004059D423FF49A
:10AF300051AF01212A4686F8815506F28C500DF05A
:10AF400049FB6179236E86F88155F1E695F88165B4
:10AF500095F8812506F0E70646F00806B242C8D10A
:10AF6000E8E600BF001001401F85EB51004800409B
:10AF700000140140702C0020FC310020164D95F883
:10AF8000816595F8812506F0F90646F0020696429D
:10AF900016D0324685F88165012105F28C500DF0FE
:10AFA00019FB85F8816595F8816595F8813506F07E
:10AFB000E70646F018069E429BD16179236EB7E6FC
:10AFC00095F8816595F8812506F0E70646F01806A4
:10AFD000B2428ED1AEE600BF702C00202DE9F84FB2
:10AFE000514C04EB8004D4F82446002C7ED0E56E4E
:10AFF000002D77D01F46EB6A6361AB6AA3616B8E4D
:10B00000E3602B8E23616B682366484B2360484BBB
:10B01000A160A3660646204690460DF077FF94F89F
:10B0200071000DF0E9FD814695F8200094F870B0AC
:10B03000A246002853D102213A0784F87C1036D466
:10B0400018F0020F10D0B9F1000F0DD00B2389F8C2
:10B050000630731C89F807303B0649D495F8212047
:10B0600048462221FFF718FC18F0010F04D1E26BCB
:10B070009AB15046BDE8F88F58460DF0BDFD002846
:10B08000F5D00C220136C671827195F8212022215B
:10B09000FFF702FCE26B002AEBD195F8241095F83B
:10B0A0002200890950F0BAF95046BDE8F88F013600
:10B0B000F6B2B9F1000FDAD00B2389F8063089F81F
:10B0C00007601C4B226E9A4226D017F0500F95F85D
:10B0D000212000D112214846FFF7DEFBC7E751F0DF
:10B0E00027FFA8E7AA465046BDE8F88FA246C0E76A
:10B0F00094F871000DF080FD226E938923F008030F
:10B100001B0401211B0C938184F87C100028ABD018
:10B110002021FFF761FAA7E795F821204846222170
:10B12000FFF7BAFBA3E700BF702C0020FC34060831
:10B1300035AB000800140140BFF34F8F0549064BA3
:10B14000CA6802F4E0621343CB60BFF34F8F00BFC5
:10B15000FDE700BF00ED00E00400FA0508B572B697
:10B16000FFF7EAFF00B583B00D490022009200917D
:10B17000009B0C330093009B1B68012B02D003B093
:10B180005DF804FB01920191019B06490C33019388
:10B19000019B1A600B6883F308884B689847FEE7A9
:10B1A000502800400000FF1F70B5FFF705FDFFF7B6
:10B1B000D9FF01204BF00EFC8E4A8F4C9368A4FB04
:10B1C000001423F003030546A40C9360936813F066
:10B1D0000C0FFBD113688749002D41D143F00103C7
:10B1E000136041F288330A68960759D4013BFAD1BB
:10B1F000824E834C7F4B834AE260596F824AC6F885
:10B200005416A2605A6B814D22F080025A63586F27
:10B210007F4A40F080705867186B40F4CE00186386
:10B22000596B5963196C29431964596C0A435A6460
:10B230000EF02AFA774B784AD3F8303DA2FB03236D
:10B240009B09013BB3F1807F09D24FF0E022F0204F
:10B2500053610021072384F823009161136170BDBD
:10B2600043F4803313600A68900341F2883304D4B6
:10B27000013BBDD00A689003FAD5604E674BB5FB21
:10B28000F3F3B4EB430F18BF23464FF48002C6F824
:10B290003C36C6F85026B4FBF3F3C6F8403609E056
:10B2A000564E08230022C6F83C360223C6F8502624
:10B2B000C6F8403602204BF08DFB03280FD8584BC0
:10B2C00003EBC0008288C6F84826C2884388C6F8C7
:10B2D0004C26D6F84026B3FBF2F3C6F84436454B6D
:10B2E00050491A6C42F080521A640A6842F4404293
:10B2F0000A609A689A609A6842F400429A609A6872
:10B3000042F4A0529A60D6F84826D6F85006520861
:10B31000511ED6F83C26024342EA0142D6F84416B2
:10B3200042EA8112D6F84C1642EA016242F0E0424B
:10B330005A601A6842F080721A601A689201FCD54D
:10B34000384A136843F4803313605368DB03FCD539
:10B35000136843F400331360324A53689803FCD5F2
:10B36000314B40F205721A60224A936823F00303BE
:10B370009360936843F002039360936803F00C03B7
:10B38000082BFAD11B4A2949D2F8943043F00063C4
:10B39000C2F89430002D4FF0000308BF10240B6753
:10B3A00013689900FCD444F00074204B44F49834A2
:10B3B000C2F8884001210F4A196713689B00FCD529
:10B3C000D2F89430194843F00063C2F89430D6F8AC
:10B3D0003C36D6F84046D821B1FBF4F143EA81135C
:10B3E00043F008530121C2F884308166FDF76EF8FE
:10B3F000FFE600BF0038024083DE1B43702C0020B4
:10B4000000ED00E00005FA0500000020FFC9FE364F
:10B41000335F0700781B0020D34D621080841E002C
:10B420002C35060800700040003C024000004742F6
:10B4300010B5174C84B00139002389B2A042ADF891
:10B440000C30ADF806308DF80E30029113D0114B50
:10B45000984210D003F5804398420CD003F58063E6
:10B46000984208D003F58063984204D00A4BD3F881
:10B47000303D5B0802E0084BD3F8303DB3FBF2F2FD
:10B4800001A9013AADF804204BF098FB04B010BDBF
:10B490000004014000000140781B002001490248DF
:10B4A000FDF7F0BC402600200000014002494FF0AB
:10B4B0008040FDF7E7BC00BF6C2600200149024830
:10B4C000FDF7E0BCF0260020000C004001490248D6
:10B4D000FDF7D8BC74270020000401400149024850
:10B4E000FDF7D0BCA02700200040014001490248E0
:10B4F000FDF7C8BCF8270020004801400149024878
:10B50000FDF7C0BC24280020001800400149024873
:10B51000FDF7B8BC7C28002000200040F8B5154D90
:10B520001548164F164C00214FF41A7257F0D9FBEC
:10B5300005F688064FF080413A46002301E054F8B2
:10B54000332091420BD001330E2BF8D100201C3553
:10B5500051F0EEFCB5420CD055F81C1CECE7094A42
:10B5600002EBC3031C3513F8CC0C51F0E1FCB542DF
:10B57000F2D1F8BD683506084026002000000140E1
:10B58000D43D0608A43E060810B50C2937D8DFE8DC
:10B5900001F0973636366636363637363636070099
:10B5A000038C5488B2F80CE023F480531B041B0C6A
:10B5B0000384038CB0F804C0818B21F4E6414EEA89
:10B5C000040E0904148823F40053090C41EA0421F1
:10B5D0001B04754C1B0C43EA0E33A0421FFA8CFC73
:10B5E0009BB289B200F0AE8004F58064A04200F006
:10B5F000A9809268A0F804C081830264038410BD0E
:10B60000038CB2F80CC0548823F480731B041B0C09
:10B610000384038CB0F804E0818B23F400731B04D3
:10B620004CEA040C21F073011B0C43EA0C230904BF
:10B63000B2F800C0090C41EA0C0C5B4988421FFAC1
:10B640008EFE9BB268D001F58061884264D092681A
:10B65000A0F804E0A0F81CC0C263038410BD038CF2
:10B66000B2F80CC0548823F010031B041B0C038495
:10B67000038CB0F804E0018B23F020031B044CEA98
:10B68000040C21F4E6411B0C43EA0C130904B2F844
:10B6900000C0090C41EA0C211FFA81FC4249884292
:10B6A0001FFA8EFE9BB269D001F58061884265D099
:10B6B0009268A0F804E0A0F818C08263038410BD6B
:10B6C000038C5488B2F80CE023F001031B041B0C1C
:10B6D0000384038CB0F804C0018B21F073014EEA9F
:10B6E000040E0904148823F00203090C1B042143EF
:10B6F0002D4C1B0C43EA0E03A0421FFA8CFC9BB29C
:10B7000028D004F58064A04224D09268A0F804C038
:10B7100001834263038410BDD189548A23F40063FA
:10B7200043EA0121138A2EF4405E23434EEA031EAE
:10B7300094884FF6FF330B4043EA04231FFA8EFE32
:10B740009BB284E7148A2CF4804C4CEA841C1FFAC8
:10B750008CFC4EE7D489B2F810E023F008032343B1
:10B76000548A2CF4407C4EEA040E948823F004039F
:10B770004CEA0E0C1FFA8CFC2343C6E7D189548A8D
:10B7800023F0800343EA0111138A2EF4406E234311
:10B790004EEA830E94884FF6BF730B4043EA0413BE
:10B7A0001FFA8EFE9BB283E7000001402DE9F04FA7
:10B7B000A24BDFF8A49293F86A36A14EA14F8FB046
:10B7C000CDE90139013BDBB200930025DFF88CB2F3
:10B7D000DFF88CA25B46D3469A464FEA9A23A3F53C
:10B7E0008013522B4CD8334493F8F4330D2B47D8A5
:10B7F000FC56019B012B40F00281012C35D14FF00A
:10B8000000084146204612F0A9FE12F035FF0378E9
:10B8100013B1542B40F0FA8008F104081FFA88F89D
:10B82000B8F1100FEDD14FF0000E8DB34946002056
:10B830000CE0334493F8F4330D2B0ED8FB56A3429F
:10B840000ED00130A84201F580711EDA8A681368B3
:10B850009B0AA3F58013522BEBD90023A342F0D10E
:10B8600053799BF805209A42EBD1774B5B454BD03F
:10B870005BF81CAF4FEA9A23A3F58013522BB2D981
:10B88000009B012BF1D90024B9E7BEF1000FECD1E8
:10B890005846FCF7B5FBC3B2022B9BF805C000F27B
:10B8A0002F83431C5BB203EB43034FEA830E644BCD
:10B8B000664903F5727004E0984200F0218353F862
:10B8C0002C1F5145F8D11A796245F5D153F80E4035
:10B8D000002CF1D05E4800234268A24203F101032C
:10B8E00000F08A80102B00F12400F5D14FF0FF33D7
:10B8F000584A03EBC30302EB830393F87430002B25
:10B90000B3D1029BC3F808B0029B013503F58073E5
:10B91000042D02937FF45AAFDFF848B10BF5C063F2
:10B920000027ABF5816A9846444BD3F82C32BB42D2
:10B930005FDDDBF80C50002D5BD02B68A888DAF8AF
:10B940000460019303F13F41B0FA80F39BF81020AB
:10B95000039301F57E01C3F11F03002E4FEA9121ED
:10B960000292009340F38380002302E00133B3424C
:10B970007AD01C0259F804208A42F7D14C4400992D
:10B98000029B8BF8103003260137CBF80410CBF85C
:10B990000C50CBF81840AE71EF71636CE26C0D4641
:10B9A00049008E401E43012303FA01F111439AF826
:10B9B00000206664E1647AB303FA05F11A46236D48
:10B9C0000B432365019B89B21883D4F8A000FCF7D0
:10B9D00053FB2046FCF7A2FC0123082F8BF81C30F8
:10B9E0008BF81D3088F811300BF1200B08F1180886
:10B9F0009AD10FB0BDE8F08FDBB2013B78E7022BA4
:10BA00007FF4FDAE082C3FF4FAAE2EE74FF0010EA6
:10BA1000002D7FF40BAF28E70399C1F12F050099A2
:10BA200003FA05F58B4099B2236D2B432365019BE7
:10BA30005883D4F8A000FCF71FFBCAE7702C002045
:10BA4000AC2D0608E8A40608243F060800000140C3
:10BA50001C020020C4010020801B002000040140C3
:10BA6000443E0608801F0020032B00F31A820AEBD5
:10BA70000623320218690492002800F03A82996085
:10BA80000131CAB283F805210692542283F80421B9
:10BA90000136026805924479CAF80460FCF7B0FAEE
:10BAA000914AC3B2022B92F881E6844600F22882C2
:10BAB000461C76B206EB46068C498D48059AB600C0
:10BAC000002305E00133172B00F01A8251F82C0FE8
:10BAD0008242F7D10879A042F4D188590028F1D0E8
:10BAE0002C2101FB03F30CEB4C0C03EB8C0C7F4B78
:10BAF00063441969049B5344C3E906017D4B00214B
:10BB00001E461C466368984217D00131102904F183
:10BB10002404F7D1784B93F85020002A00F0E281FA
:10BB200071487649764A774BC0F8A816C0F8A02627
:10BB3000C0F8B0360FB0BDE8F08F4B1CDBB26E49D9
:10BB40000796013B03EBC30301EB830393F87410E7
:10BB500005910029E4D10498069983F87510C11164
:10BB6000694C6A4E01EB202101EB011104EB8101CC
:10BB7000041250444FF08C0CC0F8A81054210CFB58
:10BB800004F483F87410332306EB4404C0F8AC309B
:10BB9000019E5F4BC660C0E93C4C04989A4209EB99
:10BBA000000400F07481524B9A4200F0708103F55A
:10BBB00080439A4200F06B8103F580639A4200F063
:10BBC000668103F580639A4200F06181DAF8300DF6
:10BBD000BEF1060F4FEA500000F05F814D4B4E4919
:10BBE000BEF1070F18BF9C464C4B08BF8C464C4912
:10BBF00018BF1946B0FBF1F1B0FBFCFC1046049AEB
:10BC000001390AEB020389B20CF1FF3CA3F8B0C082
:10BC1000A3F868104FF000060193A165002302F11C
:10BC200054014944A4F85C6063654AF0C7FF019B76
:10BC30003C4A1B690193186803889BB243F0800358
:10BC40000380038809920A210B914FF4807202212C
:10BC500023F00103CDE90C121B04ADF828601B0C86
:10BC6000019E0380717909AAFFF78EFC30790028C4
:10BC700040F02081049B079E0AEB03020023106919
:10BC8000D2F818C001680A8892B242F001020A8014
:10BC90007268944503F1010300F00881102B06F14E
:10BCA0002406F5D14FF0FF33134A1F4E03EBC303B5
:10BCB00002EB83031D4A9B6DB3420CBF4FF400138C
:10BCC0004FF48003166B33431363427918480C2AF0
:10BCD0009BBF184B03EB42030026B3F89C60049B08
:10BCE00053449E8200232EE0702C0020AC2D0608C9
:10BCF000000001401C020020C4010020656F010803
:10BD0000616F01086D6F010830330020603600203C
:10BD1000000401404495080010552200D0DD0600C3
:10BD200040771B00600001000060024000380240C4
:10BD3000682A0020A43E0608914200F0DF8001330B
:10BD4000042B00F0E08050F83320002AF4D1DAF818
:10BD5000EC2E0132CAF8EC2E0AEBC302DB00C2F86B
:10BD6000F01E034469499A88059816439E80049BF7
:10BD70000AEB030690222346FEF738FBB0690268FF
:10BD8000002342F010020260C4E92533A367C4F81F
:10BD90008830C4F89C30F26962664FF48062E267D2
:10BDA00004214FF40032C4E9232140222267D6F84F
:10BDB000AC206267F268049B1832A2664FF480528E
:10BDC000C4F88020D6F8A820E26603F164014FF49D
:10BDD00080424944C4F884204AF07AFDB069049B4B
:10BDE000D0F800E0C4F81CE0D0F814E0C4F820E07B
:10BDF000D0F804E0C4F824E003F1AC01D0F808E086
:10BE0000C4F828E00023D0F80CE0C4F82CE0C4E922
:10BE10003733C4F8B830C4F8C030C4F8D030C4F8F0
:10BE2000E430F369C4F8AC304FF48063C4F8C43034
:10BE30004FF4403C0423C4E935C3D6F8F430C4F8C9
:10BE4000BC30F3681033C4F8B0304FF40063C4F86A
:10BE5000C830D6F8F030C4F8B4304FF48042C4F89B
:10BE6000CC2049444AF034FDB369A8881A6822639B
:10BE70005A6962635A68A2639A68E263DA68226464
:10BE80001A6842F010021A602B68019377E5BEF140
:10BE9000060FDAF8300D7FF4A1AEDFF87CC01C4944
:10BEA000A8E61C4A032382F8803639E6DBB2059304
:10BEB000013BF9E60CF0A0FE069038B1019B02218F
:10BEC000DA79FEF7E9FC069B5422DA80019B1A68B6
:10BED000B2F844306FEA43436FEA53439BB2A2F88F
:10BEE0004430C7E6542283F85020069A83F8512044
:10BEF00016E6084A022382F8803611E6DB0030E7B6
:10BF000000235B68FFDE00239B88FFDEC180000802
:10BF1000A0BB0D00702C0020882A11000C2911D81C
:10BF2000DFE801F02310101019101010111010107C
:10BF30000700838B23F400631B041B0C43EA0222DB
:10BF400092B282837047838B23F008031B041B0C7F
:10BF50001A4382837047038B23F400631B041B0C7A
:10BF600043EA022292B202837047038B23F0080354
:10BF70001B041B0C1A430283704700BF2DE9F04FCE
:10BF8000DFF884B29BF8004089B024B90124204630
:10BF900009B0BDE8F08FDBF8305F0DF0E9FB9549A3
:10BFA000049091F8843E002B00F02682924AA2FB76
:10BFB0000532924B5209A3FB0203DB0803EB830318
:10BFC000A2EB43030BF63479DAB209EB8303019356
:10BFD00001F58E7306920BF5AD6402934FF0000AE3
:10BFE00038E054F8587C266A3B680393019B5C3325
:10BFF0000193029B3046143302934AF0D3FB8C2307
:10C0000003FB0AB3002583F85C55039879792A4627
:10C01000FFF784FF22467979FFF7B6FA797908228B
:10C02000FFF77CFF402344F83C3CA4F14801304634
:10C030004AF04EFC336843F0100333606D4B93F8C5
:10C04000843E0AF1010A9A4509F15C0904F18C0465
:10C0500080F2DC80DBF8183F049AD31A04D454F839
:10C06000082C9342C0F2B3818C2303FB0AB393F8EC
:10C070005C35002BB5D054F8587C266A3968736853
:10C0800034F8542C03911FFA83FC8B89CCF1160CE5
:10C090009BB223EA0203BCF1070F8B81A6D9554A54
:10C0A0000594D2F824310133C2F82431A36A0793EE
:10C0B0001D46002155F8042B01208E461FE0D5F8BF
:10C0C00000804F4BA8EB02021E3283FB0243134455
:10C0D000BEF1140F4FEAE272C2EB631317DC9E4409
:10C0E000424603F1FF38013001FA03F3012101FA5E
:10C0F00008F1844541EA030105F1040507D38445AD
:10C10000DDD8CEF115032A684FF0150EE9E7BEF130
:10C11000150F059C60D13B48C1F38423C1F3441241
:10C1200000EB830300EB8202D3F8B830D2F8B820DA
:10C130001B0243EA021301F01F0200EB8202C1F36B
:10C14000C431D2F8B82000EB81011343D1F8B820F4
:10C1500043EA023383EA132282EA121202F00F0248
:10C160000F2A39D1C3F30F134FF6FF72934233D026
:10C17000B3F5606F00F03081029A938199F85820EE
:10C18000069DAA4211D00198D9F800208168521A60
:10C19000C9F80020016BD9F80420521AC9F804200C
:10C1A00000228260026389F85850D9F80020019972
:10C1B0000132C9F800208A6801328A604FF6FF72A6
:10C1C00093427FF413AFD9F804300133C9F8043037
:10C1D0000B6B01330B6309E7064AD2F820310133B8
:10C1E000C2F82031BAF1000F00F0E6804FF6FF737D
:10C1F000C4E700BF702C00201F85EB51CDCCCCCC08
:10C2000089888888A43E0608781B00207E49CBF8E0
:10C21000185F012281F82022002B3FF4B7AE9BF873
:10C220001815890700F1BE80DBF8101508684979F8
:10C230008A40018C92B289B221EA02010184018C08
:10C2400089B20A43012B02843FF4A0AE9BF8A425D7
:10C2500012F0020FDBF89C2510685479018C0CBF9A
:10C2600001220422A24092B289B221EA0201018491
:10C27000018C89B20A43022B02843FF487AE9BF8FB
:10C28000302612F0020FDBF8282610685479018C52
:10C290000CBF01220422A24092B289B221EA02011B
:10C2A0000184018C89B20A43032B02843FF46EAEF1
:10C2B0009BF8BC2612F0020FDBF8B4261068547904
:10C2C000018C0CBF01220422A24092B289B221EA61
:10C2D00002010184018C89B20A43042B02843FF4D9
:10C2E00055AE9BF8482712F0020FDBF84027106884
:10C2F0005479018C0CBF01220422A24092B289B26F
:10C3000021EA02010184018C89B20A43052B0284CF
:10C310003FF43CAE9BF8D42712F0020FDBF8CC2799
:10C3200010685479018C0CBF01220422A24092B201
:10C3300089B221EA02010184018C89B20A43062BE9
:10C3400002843FF423AE9BF8602812F0020FDBF862
:10C35000582810685479018C0CBF01220422A24095
:10C3600092B289B221EA02010184018C89B20A43A6
