:020000040800F2
:1000000000000120F19604088D97040869AF0108EB
:10001000BDAD01088D9704088D970408000000000D
:100020000000000000000000000000008D970408A0
:100030008D970408000000008D97040859C9000836
:100040008D9704088D9704088D9704088D970408F0
:100050008D9704088D970408E99E0008F19E00081A
:10006000F99E0008019F0008099F0008E19C000814
:10007000F59C0008099D00081D9D0008319D0008A1
:10008000459D0008599D00088D9704088D97040828
:100090008D9704088D9704088D970408119F000818
:1000A00091C000088DBF0008A1C000087DBF0008F6
:1000B000B5BF0008C5BF0008D5BF000801990008FA
:1000C000F598000835990008299900088D970408CB
:1000D0008D97040815DF030821DF03082DDF0308CF
:1000E000199F00088D9704088D970408B1C0000877
:1000F00069C000088D97040859C000086D9D00086C
:100100008D9704088D970408E5BF00088D970408B3
:1001100039DF030845DF0308F5BF000809190408A3
:10012000819D0008959D0008A99D0008BD9D0008BF
:10013000D19D000800000000000000000000000049
:10014000000000000000000000000000510E040844
:10015000E59D0008F99D00080D9E000851DF030889
:10016000699900085D9900088D9704088D97040827
:100170008D9704088D97040800000000000000001F
:100180008D9704088D9704088D9704088D970408AF
:100190008D9704088D970408000000008D970408CF
:1001A0000000000000000000000000008D9704081F
:1001B0008D9704088D9704080000000000000000DF
:1001C000000000000000000000000000000000002F
:1001D0000000000000000000000000008D970408EF
:10800000084A0346D0F8EC005268D3F8F810121A68
:1080100000209142B8BFC3F8F820012283F8242140
:10802000704700BF001000E030B4046900234168CD
:108030004025E46882690C3154624469956053605C
:1080400093631160C2E90333C2E90533C2E9073320
:10805000C2E90A33C2E90C3394B1C2694FF48030EB
:10806000E468116054629062C2E90133C2E90333EB
:10807000C2E90533C2E90733C2E90B33C2E90D3364
:1080800030BC7047114A037A0168D35C10B4CC58F5
:10809000CA1824F00104CC501368DB07FCD4037D1C
:1080A0001F2B09D9203B20225DF8044B02FA03F371
:1080B00043F01803CB60704720225DF8044B02FAAE
:1080C00003F343F018038B60704700BFC02E050810
:1080D0001B4B016803F57D7C02E02C3363452BD0FC
:1080E0001A688A42F9D170B593F804E0427996454E
:1080F0000BD02C33634505D01A688A42F4D02C3358
:108100006345F9D14FF0FF3070BD9E468468002270
:10811000DEF80C50A54208D001320EF10C0E032AF5
:10812000E7D0DEF80C50A542F6D1DEF81050C66854
:10813000B542F1D150B270BD4FF0FF30704700BF73
:1081400058B504084368426D30B49A61EFF3118268
:10815000502383F312884168D2B2856C0B68046D9A
:1081600023EA050323430B6082F311884369816886
:108170001A68096822F00102D0E908541A60826A7C
:108180001D605C615A60D0E90B429C60DA6000239C
:10819000B0F86C2030BCCA6203777047002A4FEAFF
:1081A000014C034630B508BFE64600F1C00514BFD8
:1081B0008E468C46002419680C3353F8042C43F87F
:1081C000084C41EA0C0142EA0E02AB4243F80C1C97
:1081D00043F8042CEFD1D0F8C03043EA0E03C0E9D5
:1081E0003144C0F8C03030BD83695969B3F810C05C
:1081F0000A6830B49C6822F0010224680A60E268D0
:1082000022EA0C02E260027D00681F2A06D9203AA9
:108210000824456894402C4242D0FEE708240568B3
:1082200094402C42F9D1202404FA02F28260254ABB
:108230001278002A32D01A7F012A36D0D3F80021D2
:108240000132C3F80021EFF31181502282F312882A
:108250005868C9B29D6C0268DC6C22EA05022243B0
:10826000026081F311885A699968D3E90D40096861
:1082700014605061D3E90F40546090605C6CB3F8B7
:10828000B400D4600124C8621068204310601A8AC8
:108290001C7783F8FD40CB681343CB6030BC70473C
:1082A000202404FA02F2C260C1E70022D3F80401DC
:1082B00083F8FD2001300A68C3F8040122F00102AE
:1082C0000A60EBE78C00002010B40C4C6368002BB4
:1082D00011DD002004F1080C0146DCF8AC3003F19C
:1082E000C00259600C339342FBD1013063680CF536
:1082F000867C8342F1DC5DF8044B70478C000020E3
:10830000704700BF024B03EB401393F855047047CE
:108310008C000020D0E90920131A584258417047B8
:1083200090F8573830B53BB990F85518012490F8BB
:108330005638DAB2914200D830BD04FA03F2B0F8F0
:108340005E5801332A43A0F85E28F2E7037902461B
:1083500013F0010006D0D2E90731D2685B1A013A66
:1083600003EA0200704710B50379044613F00103D5
:108370000ED0FFF7EBFF034650B1226A6369E16854
:108380009B5C0132B2FBF1F0DBB201FB10222262F6
:10839000184610BD03799B070AD5436A8269D154F8
:1083A000436A02690133B3FBF2F102FB113343620A
:1083B00070477047017170470379014613F002005E
:1083C00007D00B69D1E90921013B521A1A40D2B2F8
:1083D000981A704710B584464FEA810E102312F4A4
:1083E000004F4FEA420214BF0E240724013B92B211
:1083F000CCF80040F444F2D100EB81128C0103511F
:10840000122042F8213010BD10B584464FEA810E8B
:108410000424130B013C4FEA021203EB430392B214
:1084200003F11803CCF80030F444F2D100EB01134F
:108430000A018450062043F8214010BD704700BF58
:10844000704700BF00EB4000024B03EBC00393F802
:10845000490570478C000020064B93F8F8258242AE
:1084600006D900EB400003EBC003D3F84C0570477E
:10847000002070478C0000200B4890F8FC1589B153
:1084800001EB4101002300F5A760490010B41C4630
:1084900050F82320063302B114608B42F8D15DF806
:1084A000044B7047704700BF8C0000200B4890F8C9
:1084B000FC1589B101EB4101002300F5A7604900DB
:1084C00010B41C4650F82320063302B114608B42CE
:1084D000F8D15DF8044B7047704700BF8C00002056
:1084E000214B1B78002B3DD12DE9F0431F4C94F814
:1084F000FC25AAB304F5A7624FF0500E1C4F4FF0B5
:108500002C0C1C4E1D4607E0013394F8FC1552F864
:10851000180B8B42056023DA117C0029F4D05068D7
:108520004FF0FE08810AA1F580115229314498BF0D
:1085300091F8F483EFF311818EF31288D0F8249030
:108540000CFB0878C9B209F10109C8F82890D0F8E5
:10855000148048F00108C0F8148081F31188D3E733
:10856000BDE8F083704700BF000001208C000020B0
:108570001018012058B5040800EE100AB8EE400AA1
:10858000704700BFBCEEC00A10EE103A98B27047B8
:1085900007280AD800EB8000054B03EB4013B3F823
:1085A0000006B0FA80F0400970470020704700BF15
:1085B0008C000020072807D8044B00EB8000012224
:1085C00003EB401383F80226704700BF8C000020A5
:1085D000072808D8044B03EB401393F8542412B136
:1085E000012283F83A2470478C000020072808D81D
:1085F000054B03EB4013B3F83804B0FA80F04009A0
:1086000070470020704700BF8C000020054B93F896
:10861000F825824204D903EB4013D3F84404704791
:10862000002070478C0000200346012200205A776A
:10863000704700BF826908B50346006BD96A0244DF
:108640009A6101B18847002008BD00BF436A024615
:108650001B681B6A5B685B7813F0010008BF5077EA
:10866000704700BFC2628161704700BF704700BFA2
:10867000043070470C4B93F89822D3F894120244BC
:108680000144D2B2C3F8941283F8982293F8982246
:10869000120605D593F8982282F0800283F898227A
:1086A000024B01225A70704710180120000001206F
:1086B0002DE9F84F164FD7F89C52ED0A23D000262B
:1086C000DFF850A007F52879B0467419D7F8A01242
:1086D0004FF01003524648BF0134D1F828B0484645
:1086E000C7F8CC826410E102D8470F280BDD094B94
:1086F00003F1100153F8042B013207D18B42F9D159
:108700002546B542E1DCE802BDE8F88F661CF8E7D3
:108710001018012000000020194BD3F8D412D3F810
:10872000D8228A1A322A05DCD3F8EC228A1A002AC7
:1087300011DC7047D3F8DC1249B193F8E82288883D
:1087400002F001020968120100FA02F28A610022B5
:10875000C3F8EC227047D3F8DC226AB110683231DA
:10876000928810B44469C3F8EC1222425DF8044BBD
:1087700018BF1204826170473231C3F8EC1270479F
:1087800010180120074AD2F8DC324BB192F8E822E7
:108790009988186802F001031B0101FA03F3836151
:1087A0000020704710180120044B4FF4007C00207B
:1087B000D3F8F832A2F800C00B60704710180120FF
:1087C000002070470120704701207047002070474B
:1087D000134BD0F8E0105B68D0F8E82010B50446E1
:1087E000581A824200DC22B9D4F8EC200A44C4F8BA
:1087F000E42094F8D820C4F8E030012A05D0D4F859
:10880000DC300133C4F8DC3010BD04F1F001201D70
:1088100034F07CFDD4F8DC300133C4F8DC3010BD1A
:10882000001000E0CB070DD430B590F828308DB0A3
:10883000C468012B07D0B4F1807F01D901230377ED
:108840000DB030BD7047194B456AD3E9CA13B1EB7F
:10885000930F4FEA93024FF0020306D252085B00D7
:1088600091429BB201D2FF2BF8D9B4F1807FAB804B
:10887000E6D90122002301A9B724027728460492F1
:108880008DF814208DF828208DF804400B93CDE945
:10889000021302A9CDE90633CDE9083334F036FDE1
:1088A0002A68136A002BFCD1CAE700BF1018012008
:1088B00030B590F828308BB00446012B08D0407FAB
:1088C00010B901200BB030BD002363770BB030BD71
:1088D000456A2B681A7B22BB637F002BF1D01349BA
:1088E0000220002301220290081D8DF80C208DF833
:1088F00020200993CDE9001069462846CDE90433CC
:10890000CDE9063334F002FD2A68136A002BFCD14E
:10891000074B5B7DD84303F0010300F00100637750
:10892000D4E71B6A002BD7D00020CBE71000002033
:108930000000002030B504468BB094F82830012B9D
:1089400008D0637F0BB10023637701200BB030BDEB
:108950001B6A23B1656A2B681A7B002AF8D1637FF2
:10896000002BF2D010490220002301220290081DA2
:108970008DF80C208DF820200993CDE90010694670
:108980002846CDE90433CDE9063334F0BFFC2A682C
:10899000136A002BFCD1054B5B7D03F00102DB0762
:1089A0006277D2D5C9E700BF100000200000002088
:1089B000214A002330B5044695B0101D1F4D069383
:1089C000019002200B931093139311930290207F38
:1089D00000920495CDE90E3301238DF80C300793F6
:1089E0008DF820308DF834308DF8483002F10803CE
:1089F000083A0593031D0A920C93114B0993636A7D
:108A00001A68136A002BFCD1A0B10E480A0E00F1BF
:108A10001A0342760A0A9970080C69465A7018704F
:108A2000606A34F073FC636A1A68136A002BFCD125
:108A300015B030BD044BEDE7200000204D86000846
:108A400029860008000000201900002010B594B00D
:108A5000044650220749684642F0A8F96946606A10
:108A600034F054FC636A1A68136A002BFCD114B00A
:108A700010BD00BFA0B90408F8B50546406A0068FB
:108A8000046A002CFCD12C7FA869002C36D0234E20
:108A9000040E052786F82D402E36B0704FEA104C94
:108AA000000A1F4C86F800C0012B70704FF00000C8
:108AB0000E68676326641668A6642E63A06520D0DE
:108AC000022B1AD15368012220651E444968E365D0
:108AD000144B84F84C0061652E6384F86020636653
:108AE000114B6A7FA3F11401686A002A08BF194676
:108AF00034F00CFCEB6A5BB1286BF8BD04270B4E1D
:108B0000CBE7084A84F84C306065E0652265E7E70A
:108B10006B6A1A68136A002BFCD1EDE70000002095
:108B20000000012035860008180001202D000020DB
:108B300000B583B08161019201A9049A00930123D9
:108B4000C2626A46FFF798FF03B05DF804FB00BFFE
:108B500070B51D46436A94B006461B681C6A002C1B
:108B6000FCD1314B0B9203F13C0230480694009249
:108B700003F14002049003F13400019202220590B7
:108B8000029201228DF820408DF80C208DF83420BF
:108B90008DF84820327F0C95101D1394CDE90944BF
:108BA000CDE90E44CDE910440790002A3AD00A0ED0
:108BB000363303F8012C0A0C99701D4C090A1A70FF
:108BC0005970706AD4E9CA32B3EB920F4FEA92013E
:108BD0004FF0020206D2490852008B4292B201D2F3
:108BE000FF2AF8D9737F8280D3B1694634F08EFBB7
:108BF000706A03681A6A002AFCD10222D4E9CB34D5
:108C0000B4EB930F4FEA930106D2490852008C420D
:108C100092B201D2FF2AF8D98280284614B070BDE2
:108C200005A9E3E73533C6E7000000204D860008BC
:108C3000101801208369F0B593F8E4208BB0054645
:108C4000012A35D0023A012A2FD893F85421EC4654
:108C5000D3F89C1062F07F03224C0B708669D6F823
:108C6000A0305F1C0FCCACE80F00D6F89C30CDE9EB
:108C700000370FCCACE80F0094E803008CE8030049
:108C8000694606F1100034F041FBA9690A69136ACC
:108C9000002BFCD1D1F8A0305A8852BAEA819A88C8
:108CA00052BA2A82DB885BBA6B8201200BB0F0BD1E
:108CB00093F8542193F85701D3F8A010131A012008
:108CC0005B100133DBB231F8132001EB430352BADE
:108CD000EA815A8852BA2A829B885BBA6B820BB0AF
:108CE000F0BD00BFF0B90408F0B590F8E4308BB0E7
:108CF0000446D0F8A060012B4BD034D9023B012BA5
:108D00002ED890F85531EC46D0F89C2063F07F03C4
:108D1000504D1370D0F8A0305F1C0FCDACE80F00A1
:108D2000D4F89C30CDE900370FCDACE80F0095E8C2
:108D300003008CE80300694604F1100034F0E6FA01
:108D40002269136A002BFCD173885BBAA4F8D03077
:108D5000B3885BBAA4F8D230F3885BBAA4F8D430F5
:108D600001200BB0F0BDD0F89C304FF0FF32052150
:108D70001A605A609A60DA60D0F8E830C0F8F810EB
:108D8000B3F57A7F38D8032380F8E43001200BB0A4
:108D9000F0BD90F8571190F8553190F856215B1AB4
:108DA000D0ED366A521AD0ED377A5B10521001338B
:108DB0000132DBB2D2B236F8131006EB430349BAE4
:108DC000A0F8D010598849BAA0F8D2109B885BBA95
:108DD000A0F8D43036F81230DBBA07EE103AB8EE0D
:108DE000C77AE7EE267AFDEEE77A17EE903AA0F81A
:108DF000D63001200BB0F0BD03691A7B2AB35B6942
:108E00001BB390F8983003B390F857310122D0F893
:108E10009C0063F07F03C4F8A4400F49037094F8EA
:108E2000553194F8570184F808211B1A84F8E4207E
:108E3000D4F8A0200733C4F80C110132D4F89C10E8
:108E4000C4E94023C4F8FC108AE7022384F8E43024
:108E500086E700BFF0B9040801800008F8B50C4BA4
:108E60001D685A69154005405D617DB1094F0126B5
:108E7000B5FA85F4C4F11F0407EB840306FA04F481
:108E8000D3F8340303689847A543F1D1F8BD00BF78
:108E9000003C01401018012002692DE9F843C36825
:108EA00012EA030828D005460E464FF00047B8FAEC
:108EB00088F327FA03F21B3BD24308EA02082A612F
:108EC000042B16D8DFE803F03B30251A0300B36A01
:108ED000002B3FD003F1FF3900231FFA89F9B36259
:108EE000746A34B123682046494698476468002C68
:108EF000F8D1B8F1000FDAD1BDE8F8837068002826
:108F0000F7D0696B036889B29847B8F1000FCED1EA
:108F1000F2E7B0680028ECD0A96B036889B29847E3
:108F2000B8F1000FC3D1E7E7F0680028E1D0E96BA2
:108F3000036889B29847B8F1000FB8D1DCE730690F
:108F40000028D6D0296C036889B29847B8F1000F81
:108F5000ADD1D1E7EB6A1FFA83F9C1E72DE9F04102
:108F6000DFF8B48008EB401797F854340BB9BDE82C
:108F7000F08104460D46460142F0CAFAC0BB2448BF
:108F8000464400EB4410A6F8385442F0BDFA98F875
:108F90000030D6F85024A3B1D6F83C140124D2F8FE
:108FA000AC308C4003F1C001420010F4004F90B28D
:108FB00002D15A6822435A600C339942F4D1BDE879
:108FC000F081D6F83C140124D2F8AC3001F1100243
:108FD00003F1C0019440420010F4004F90B202D15E
:108FE0005A6822435A600C338B42F4D1BDE8F081B9
:108FF000084B93F8D42302EB420203EBC203234451
:1090000093F88153002DBAD0012387F83A34B6E79C
:10901000C4040020101801208C00002010B5044664
:1090200041F0ECF90146204689B2BDE8104095E7D1
:1090300038B50B4D00EB400005F5A763C40003EB0A
:10904000C003254493ED027AD3ED037AE7EE007A6C
:10905000B0EE670A41F0D2F9D5F83835186038BD5E
:109060008C000020836910B51A4C04EB8303D3F8FD
:10907000F80335F0C5F8B4F818340C2B0ED8DFE837
:1090800003F0220D0D0D1B0D0D0D070D0D0D140020
:10909000D4F8D823D36823F40063D36001220023DB
:1090A00084F8152484F81A3410BDD4F8D823D36872
:1090B00023F48053D360F1E7D4F8D823D36823F4A2
:1090C0008063D360EAE7D4F8D823D36823F400732D
:1090D000D360E3E71018012080699C3035F090B828
:1090E000F8B5A0F507642379DB0725D5657994F8F1
:1090F000543805F001073D46FBB1D4F848341A68EE
:10910000D36A5B08536294F8583823B1B4F86238D4
:109110000133A4F8623885F00101606C3AF022FC5A
:10912000012384F85738002384F8553884F85638DA
:10913000A4F85E3884F85438F8BD94F85768012EC6
:1091400003D194F8553884F856382046FFF7E8F8EC
:109150004EB9012385EA030184F85738606CBDE8F5
:10916000F8403AF0FFBB0023394684F85738F5E75A
:1091700070B505460726084C013E00D170BD94F934
:10918000000012F0DDFA031E04DB6178EA18917129
:10919000A278EA540434EFE718BA040838B58569B0
:1091A000002D3DD02C68236A1B7B5BBB204640F022
:1091B000D3F9236A5B6803B3236A5A68236A22F0EF
:1091C0001F025968236A01F01F019B681F3319446D
:1091D00021F01F01BFF34F8F00290ADD02F12003A8
:1091E000114410488B42C0F85C221A4603F1200358
:1091F000F8D1BFF34F8FBFF36F8F2846BDE83840DB
:1092000034F01CBCAB68002BD0D01A6820469B8879
:10921000936140F0A1F9236A5B68002BCCD1ECE7A5
:1092200038BD00BF00ED00E038B5846904B938BD31
:109230002568284640F090F92B6A1B7B23B920460D
:10924000BDE8384034F0FABBA368002BF7D01A68A9
:1092500020469B889361BDE8384034F0EFBB00BFE7
:109260002DE9F843DDF820800F4616460021202224
:1092700004461D4641F0F2FDB8F1000F0CD0D8F8BD
:109280000030B8F80A20E3811B0C2382D8F80430A0
:109290006282E3821B0C2383384640F0B7F9F30661
:1092A00019D4431EB8B107EB000C01E0013B12D307
:1092B0001CF801EDBEF12E0FF8D1C01A03F101091F
:1092C000421EB944032AA8BF0322082BA8BF0823C3
:1092D00090461A4606E008280246B9464FF00008B4
:1092E000A8BF08224FF02033394620462360636030
:1092F00041F05CFD164B04F10800424649462381CB
:10930000837041F053FD611EE21D11F801CFACF1F5
:109310006103ACF1200C192B98BF81F800C0914279
:10932000F3D104F10A0011F8013FA3F16102203BDF
:10933000192A98BF0B708142F5D1182365832D0C33
:10934000E6722373099BA582E361BDE8F88300BF41
:10935000202020002DE9F04FDFF8509485B0D9F897
:10936000D402C9F8D802002B5ED00C46154601F590
:10937000FE7603EB020B1DE0002D62D0D9F804331A
:10938000AB4200F0C580D9F80033AB4200F0F78063
:10939000D9E9C231AB424BD88D42C0F07281691A13
:1093A00020463AF0ABF9013504F5007406F5007675
:1093B0005D4539D0D9F81023AA42DDD8AA1AD9F8C8
:1093C0002073D308396B02F0070802338B4202D3B3
:1093D000BA6B93420BD93946184603933AF05EF9BB
:1093E000039B0746002800F06C81C9F820033A79F6
:1093F000002A40F01D81D7F828A0BAF1000F00F034
:1094000059813A6B013520464FF400719B1AFA6876
:1094100004F5007406F5007608EBC3083B4602EB42
:109420004822D0475D45C5D1002005B0BDE8F08F8A
:109430008D42B4D24FF400720021204641F00EFD5F
:10944000B1E74FF400722946204641F007FD802322
:10945000CA4A84F8BE310C2384F8C231D9F800130B
:10946000D9F8F8329142C4F8C611C4F8CA3100F3F1
:109470000D81C34A013BC34F82FB0102C81787FB22
:1094800001C70A44C0EB6212C0EB2730BE4F87FB16
:1094900002C7C2EB821C84F8C1018010A1EB0C0151
:1094A000174420F03F0001310843D117C1EBE71109
:1094B00084F8C0010A4484F8BF21B04A934200F303
:1094C000F180AF4AAF4882FB0312D91780FB0370CB
:1094D0001A44C1EB6212C1EB2031AB4880FB027031
:1094E000C2EB821784F8C5118910DB1B104421F0F0
:1094F0003F0101331943D317C3EBE01384F8C411C0
:109500001A4484F8C3214AF65523A4F8FE314AE7E9
:109510004FF0FF3300274FF4F072201D84F8EC3138
:10952000394684F8ED3184F8EE3184F8EF31522376
:10953000237063706123A37084F8E7314123E370E3
:1095400084F8E631722384F8E43184F8E531D9F8FF
:109550001833C4F8E83141F081FC5523C4F8F071A8
:1095600084F8FE316FF05503C4F8F471C4F8F87153
:1095700084F8FC7184F8FD7184F8FF3113E74FF42F
:1095800000720021204641F069FC804B022203CB8F
:1095900045F6EB032274227323809023A273A370F9
:1095A000F82384F82C200822C4F803006273C4F85E
:1095B00007106375D9F80013D9F8F8325B1A2362E3
:1095C000D9E9C2135B1A4AF6552163620023E3729C
:1095D000E3736377A377E37784F82D3084F82E3034
:1095E00084F82F3084F83130694BA3613E23237710
:1095F000012384F83030802384F84030654BC4F870
:109600004230654B84F84620A4F8FE11634A03CB30
:10961000C4F84B101988C4F847009B78A4F84F1081
:1096200084F8513003CAC4F85200C4F85610BAE6A0
:109630004FF400720021204641F010FC3B6CB8F161
:10964000000F45D104F1200A002B00F081803B6B14
:10965000112253492046CDE90088FFF701FE3B6CFB
:109660001A6C002A00F081801B6B504611224D4974
:10967000CDE90088FFF7F4FD04F1400A4FF4E078EB
:1096800071E0E91A20463AF039F88CE6FF22013BF6
:1096900084F8C1214FF6FF72A4F8BF21374A9342E4
:1096A0007FF70FAFFF2384F8C5314FF6FF73A4F89F
:1096B000C33128E751464FF40072204641F0CEFBFB
:1096C00071E6231F384A43F8042F9E42FBD16AE615
:1096D000002B7F6C14BF02230123C3EB0813002F60
:1096E0003FF461AE013BBF6C002B01DD002FF9D1CF
:1096F000A2464FF40078002F3FF455AE0AEB080362
:1097000003959A460BE00025A8F12008CDE900E575
:10971000FFF7A6FDBF6CCFB1B8F11F0F16D93D7989
:1097200007F11C0E112239683B6BAAEB0800002DD3
:10973000E9D17A79A8F120083D6942F02102CDE90A
:1097400000E5FFF78DFDBF6C002FE5D1039D2AE6F4
:10975000CDE9008843464FF4F0780822D9F8FC128E
:109760002046FFF77DFD7F6CC5E75046434611223A
:109770000C49CDE90088FFF773FD7DE7FF03FB008F
:109780008320088297554541818080800C2E0508F2
:109790003F00FF0029940E0D182E0508242E050801
:1097A000042E0508082E0508DEADBEEF10180120B6
:1097B00010B490F8443000F10801484A012BC2F877
:1097C0001C146DD08368464CD968A34221F4600113
:1097D000D960D96841F46001D960996B21F44011D6
:1097E0009963996B41F480119963996B21F4F84165
:1097F0009963996B41F488419963996821F47021C8
:10980000996099689960996821F440119960996804
:109810009960596821F480615960596821F4805138
:10982000596059696FF30B0159615969596148D001
:10983000D9682B4C21F0E061A342D960D96841F08E
:10984000E061D960996B21F440119963996B41F4FF
:1098500080119963996B21F478219963996B41F494
:1098600010219963996821F4702199609968996031
:10987000996821F44011996099689960596821F4B8
:1098800080615960596821F48051596099696FF37A
:109890000B019961996999611AD0002380F84430CD
:1098A0001048114B848DC18D408D091BC2F8244492
:1098B000C2F820045DF8044B93FBF1F3C2F828349E
:1098C0007047D4F8041341F40001C4F80413AFE75F
:1098D00006494B6843F400034B60DEE71018012093
:1098E00000200140007AF01F803801000023014071
:1098F000704700BF014834F057BD00BF501C012025
:10990000084810B4D0F84034D0F8744499691A6803
:109910002CB1234600F588605DF8044B18475DF8CC
:10992000044B704710180120014834F03DBD00BFC2
:10993000B01C0120084810B4D0F8A034D0F8D444AA
:1099400099691A682CB1234600F594605DF8044BC0
:1099500018475DF8044B704710180120014834F097
:1099600023BD00BF101D0120084810B4D0F80035F9
:10997000D0F8344599691A682CB1234600F5A060E7
:109980005DF8044B18475DF8044B70471018012030
:10999000F0B506688C680F68B569002F56D02E4B5D
:1099A0003B40B3F1005F4FD007F01F0C04F11F03E1
:1099B00027F01F029C442CF01F0CBFF34F8FBCF10B
:1099C000000F0BDD944402F12003DFF890E06345C3
:1099D000CEF868221A4603F12003F8D1BFF34F8F67
:1099E000BFF36F8F02684FF480636B6153696F60E0
:1099F0002C6243B34B68F56963B31E46164B334084
:109A0000B3F1005F1AD006F01F0226F01F011F32CB
:109A1000224422F01F02BFF34F8F002A0ADD0A44BE
:109A200001F120030D489342C0F87012194603F16A
:109A30002003F8D1BFF34F8FBFF36F8F4FF48063D4
:109A40006E606B612C62F0BD3246CCE73B4632461D
:109A5000034FCAE7034EF3E70000FFFF00ED00E00D
:109A600044000020480000202DE9F0410468D4E9BA
:109A700004351A7DD3E90061002D4DD01F2AA8615D
:109A800038D820202F6800FA02F242F01802B260A3
:109A90002A7D1F2A39D9203A202000FA02F242F00A
:109AA0001802FA606A680020086010603046116889
:109AB00041F01001116093F80880A26941463DF021
:109AC000E5F92D7AE269384629463DF0DFF9274B62
:109AD000626813F80800595D335843F001033350AE
:109AE0007B5843F001037B50536843F003035360FA
:109AF000BDE8F081203A20202F6800FA02F242F0FF
:109B00001802F2602A7D1F2AC5D8202000FA02F22E
:109B100042F01802BA60C5E71F2A98611ED82020BB
:109B200000FA02F242F01802B260002230460A60E7
:109B30000A6842F010020A601D7AA26929463DF0C7
:109B4000A5F90A4B6268595D735843F001037350DD
:109B5000536843F002035360BDE8F081203A2020AF
:109B600000FA02F242F01802F260DEE7C02E0508A9
:109B700010B1036882889A61704700BF18B183886A
:109B800002681B0493617047D3B2012B1DD802EB0E
:109B900042020F4B10B54FEA820E03F5217C0EF105
:109BA000080402E01C3363450DD01A788242F9D1D3
:109BB0005A788A42F6D11A59002AF3D00EF1040ECF
:109BC00003EB0E0010BD002010BD0020704700BF49
:109BD00030BA040810B40C4C002304F2AC5C01E071
:109BE000152B0CD003EB430201331CF80210814209
:109BF000F6D1144494F9AE055DF8044B70474FF06C
:109C0000FF305DF8044B704710180120D3B2022BCF
:109C100021D802EB420270B54FEA820E0F4C0022AF
:109C200023460EF10C0503E001322C33172A10D025
:109C30001E68B042F8D193F804C08C45F4D15E5947
:109C4000002EF1D02C210EF1080301FB0233E018A5
:109C500070BD002070BD0020704700BF58B50408DB
:109C6000002838D0002330B51B4D90F804C005F211
:109C7000AC5401E0152B2CD003EB43020133A15C63
:109C80006145F7D11544046890F805E095F9AE35C3
:109C9000DAB2022A1DD803EB4303104800224FEA30
:109CA000830C03460CF10C0503E001322C33172A18
:109CB0000FD019688C42F8D119797145F5D15959ED
:109CC0000029F2D02C210CF1080301FB02331844C7
:109CD00030BD002030BD70471018012058B5040871
:109CE0000348D0F88C300BB17C301847704700BF68
:109CF000000001200348D0F8B0300BB1A030184765
:109D0000704700BF000001200348D0F8D4300BB1E9
:109D1000C4301847704700BF000001200348D0F846
:109D2000F8300BB1E8301847704700BF0000012041
:109D30000348D0F81C3113B100F5867018477047FE
:109D4000000001200348D0F8403113B100F59870AD
:109D500018477047000001200348D0F8643113B160
:109D600000F5AA7018477047000001200348D0F89A
:109D7000883113B100F5BC7018477047000001200E
:109D80000348D0F8AC3113B100F5CE7018477047D6
:109D9000000001200348D0F8D03113B100F5E07085
:109DA00018477047000001200348D0F8F43113B180
:109DB00000F5F27018477047000001200348D0F802
:109DC000183213B100F502701847704700000120E7
:109DD0000348D0F83C3213B100F50B7018477047B8
:109DE000000001200348D0F8603213B100F5147070
:109DF00018477047000001200348D0F8843213B19F
:109E000000F51D7018477047000001200348D0F886
:109E1000A83213B100F526701847704700000120E2
:109E200001380D4B0D4A00EBC000116B03EB8003B2
:109E300010B4DB6F83B00A4CA34214BF4FF480030D
:109E40004FF4001319431163126B13400193019BEC
:109E500003B05DF8044B7047000001200038024059
:109E6000006002400138F8B500EBC000114C1D46FF
:109E7000114B04EB800417460E46E06F984214BF66
:109E8000962095203BF020FB94F99100B909C4F885
:109E90008C60C4F894503BF059FA94F99130002B3F
:109EA00007DB03F01F0001225B090449824041F8EF
:109EB0002320F8BD000001200060024000E100E026
:109EC000800AA0F58010522808D8054B034493F867
:109ED000F4330D2B02D8034AD05670470020704748
:109EE00058B50408B02E05080120FEF7B7BF00BF23
:109EF0000220FEF7B3BF00BF0420FEF7AFBF00BFD4
:109F00000820FEF7ABBF00BF1020FEF7A7BF00BFC1
:109F10004FF47870FEF7A2BF4FF47C40FEF79EBF6F
:109F200030B1036882881B691A4214BF01200020E7
:109F3000704700BF2DE9F04F0E4683B0044615462A
:109F4000002800F0C7800268644B13449B0A644AEF
:109F5000C6F34119134493F85C073BF0B5FAC6F316
:109F60008103B4F804E006F00301246801939EFA2B
:109F7000AEF0B0FA80F001F1FF383EFA00F367D09E
:109F800001220327009603E001303EFA00F35ED081
:109F900002FA00F313EA0E03F6D0D4F800C093FAE5
:109FA000A3FBBBFA8BFB93FAA3FABAFA8AFA4FEA3D
:109FB0004B0BB8F1010F4FEA4A0A07FA0BFB01FA03
:109FC0000AFA2CEA0B0C4CEA0A0CC4F800C04ED971
:109FD000D4F80CC093FAA3FBBBFA8BFB93FAA3FA59
:109FE000BAFA8AFA4FEA4B0B02294FEA4A0A07FAF1
:109FF0000BFB09FA0AFA2CEA0B0C4CEA0A0CC4F81F
:10A000000CC0C1D193FAA3FABAFA8AFA4FEA132C18
:10A01000BAF1070F45DCD4F820C093FAA3FABAFAD4
:10A020008AFA93FAA3F34FF00F0BB3FA83F34FEAD4
:10A030008A0A01309B000BFA0AFA05FA03F32CEAAC
:10A040000A0C4CEA030323623EFA00F3A0D1009EFF
:10A05000B8F1010F08D86268C6F3001322EA0E02B5
:10A060000EFB03F31343636003B0BDE8F08FD4F835
:10A0700008C093FAA3FBBBFA8BFB93FAA3FABAFAD4
:10A080008AFA4FEA4B0B019E4FEA4A0A07FA0BFB8A
:10A0900006FA0AFA2CEA0B0C4CEA0A0CC4F808C0BF
:10A0A00096E7D4F824A09CFAACFBBBFA8BFB9CFA95
:10A0B000ACF34FF00F0CB3FA83F34FEA8B0B9B001A
:10A0C0000CFA0BFC05FA03F32AEA0C0A4AEA03032A
:10A0D000636259E74FF0FF3339E700BF0000FEBF6E
:10A0E00058B5040800B125E770472DE9F84FBB4F7C
:10A0F0006023064603FB0073D3F82C44D3F8348462
:10A10000D3F83854002C00F05D81B8F1000F04D072
:10A1100098F90630002B40F0558125B195F90630AD
:10A12000002B40F04F81731CDBB2B8F1000F04D05C
:10A13000152288F8073088F8062015B11622EB7131
:10A14000AA714FF0600A207E3BF0BEF929460AFB57
:10A1500006FA40463EF092FD404607EB0A0904220B
:10A1600040F2145899F83C34002B0CBF4FF01E0BF2
:10A170004FF03E0B5946FFF7B5FF2846984D042295
:10A1800059465544FFF7AEFF4C220021284640F0C7
:10A1900065FED9F82C349FED937AB0EE084A5B68DF
:10A1A000F7EE003AB9F83EA44FF0000CC9F840347D
:10A1B0008D4B9FED8E5A9A688D4BC2F382221344C9
:10A1C00093F86427D7F82C33D34007EE903AF8EE93
:10A1D000677AC7EE275A07EE90AA9FED867AF8EEC7
:10A1E000E77AC7EE274ADFED847AB0EE007AE5EE33
:10A1F000877AA5EE875A25EE844A37EE856A74EE93
:10A20000E72ABAF5C87F0CF1010ED5BF4FF496725C
:10A2100078226423322307EE90EAD8BF4FF41679F0
:10A220001344A2F13202F8EEE76AC8BF4FF4827914
:10A2300007EE903AD4BF41464FF4FA7166EEA56A34
:10A24000B8EEE77AC7EE267A07EE102A01EB09028C
:10A25000B8EEC77A37EE447A77EEE37AFCEEE77A27
:10A2600017EE903AC7EE267AFCEEE77A17EE900AE0
:10A2700007EE909AB8EEE73A07EE902AF8EEE77A02
:10A2800023EE243A83EE277A37EE453A32EEC77A48
:10A29000C3EE267A77EEE37AFCEEE77A17EE901AB1
:10A2A000C7EE267A77EEE37AFCEEE77A17EE902A8D
:10A2B00002F1020909EB010BB0EE467A07EE90BA03
:10A2C000F8EE677AA6EEA77AF4EEC74AF1EE10FA36
:10A2D0007CDC43EA00095FFA89F9B9F10F0F77D8FE
:10A2E00041EA02091FFA89F9B9F1FF0F70D81B057D
:10A2F000000403F07F6392B200F47F0003433F4801
:10A3000043EA0C7300EA01210B4313436022284601
:10A3100002FB06760027C6F844340123C6F84874C9
:10A32000C6F84C34C6F85074C6F85474C6F85C7459
:10A33000C6F860743CF098FF96F88134202BD9B2AF
:10A340001AD196F88034012B16D0242386F8813454
:10A35000D6F840341A6822F001021A601A6822F412
:10A3600080521A601A681A601A6842F001021A6074
:10A3700086F8811486F88074002194F91A003AF066
:10A38000E5FF94F91A20A37E002A08DB590901226F
:10A3900003F01F0302FA03F3194A42F821300021A7
:10A3A00094F919003AF0D2FF94F91920637E002A3B
:10A3B00008DB5909012203F01F0302FA03F3104AD4
:10A3C00042F82130BDE8F88FF4461AE7013171E711
:10A3D000BEF10F0FF8D1002398E700BF101801203D
:10A3E000501C0120286B6E4E0038024000001643BE
:10A3F00058B50408002474490000704200FFFF00B3
:10A4000000E100E008B1002294E5704770B50E4C01
:10A4100094F8F865AEB104F58764002503E00135D2
:10A420002034B5420DD0237F002BF8D0E068002205
:10A430000028F4D00135217DFFF77CFD2034B542A2
:10A44000F1D1012070BD00BF8C00002070B590F8E4
:10A45000B2311C09013C052C0FD81A4E054603F0F9
:10A460000F0306EB4402B2F86C0740FA03F2D2077E
:10A4700003D595F8B521012A01D0012070BD9A407D
:10A480002644013A104040F087FE96F878370E4A8D
:10A49000034402EBC30452F83320A3881069184028
:10A4A000ECD0002395F8B3210221204685F8B53180
:10A4B000FFF740FDD5F82021136843F0080313602F
:10A4C000DBE700BF58B50408FC1D0120014B53F821
:10A4D0002000704750280040014B43F8201070477F
:10A4E00050280040204B2148196C214A41F08051EE
:10A4F00030B482B01964196CFF2401F080510191CD
:10A500000199016841F480710160CA20196C41F41D
:10A5100080611964196C01F4806100915321009DE0
:10A520005462506251625B6FDB0013D4114B002206
:10A530001149C3F85428C3F85828C3F85C28C3F855
:10A540006028C3F86428C3F86828C3F8501802B01C
:10A5500030BC7047A2F50062074BD2F850289A42EF
:10A56000E4D102B030BC70470038024000700040B7
:10A570000028004000200040316665422DE9F84F78
:10A58000D0F894700446524B00F16406FDB227F0F7
:10A59000FF09826800F1180A103D4846D2F8008091
:10A5A000A3FB05352D0929463CF0B8FC626D00235C
:10A5B000B2F5807F84F858307ED00DD8102A00F094
:10A5C00083805CD8012A45D0042A16BF6FF400614D
:10A5D0006FF008013C230EE0B2F5805F70D0B2F559
:10A5E000803F3AD0B2F5806F15BF6FF400616FF015
:10A5F00008013C230423324608F11806404656F869
:10A6000003C001EA0C01F150D4F854B059463CF0B3
:10A61000ADF9BBF5807F2DD023D8BBF1100F3ED014
:10A6200036D8BBF1010F02D0BBF1040F33D14FF08C
:10A63000080C336852462946484643EA0C03336007
:10A64000402323623CF022FC3B6843F010033B6054
:10A65000BDE8F88F6FF00801CDE76FF008013C23EB
:10A66000C9E7BBF5805F22D0BBF5803F1AD0BBF5B0
:10A67000806F10D108F11C064FF0080CD9E7402A72
:10A6800015BF6FF400616FF008013C230023B2E7AF
:10A69000BBF1400FCBD03C364FF4006CC9E74FF410
:10A6A000006CC6E708F154064FF0080CC1E708F14A
:10A6B0001C064FF4006CBCE76FF0080104239AE716
:10A6C0006FF40061042396E76FF4006193E700BF25
:10A6D000ABAAAAAA2DE9F0472422D0F820510023E2
:10A6E0008168C0F8942104462A6800F5907722F02A
:10A6F00001022A602B606B60AB604279C0F82411C4
:10A700009102C0F89C3180F8903101F48051C0F87A
:10A710009431C0F83831C0F828111103C0F89831CD
:10A7200001F40051C0F840310379C0F82C11110236
:10A7300013F0010601F48061C0F8301103F002014A
:10A7400040F0CA80002940F0F080C0F8346194F8ED
:10A75000B4314BB1D4F8443143F00803C4F8443168
:10A760004FF40043C4F8543112F00802D4F8943185
:10A7700000F0F080002B00F0248124233846C4F838
:10A7800094312B6823F001032B6036F077F9012810
:10A7900017D0D4F84431002B40F016816B6823F4B5
:10A7A00090436B60AB6823F02203AB60AB6843F06F
:10A7B0000803AB6038462B6843F001032B603CF084
:10A7C000D7FC002E5CD0D4F8FC60002E00F0DF80B7
:10A7D000D4F8043104F13C08C4E90F630023404677
:10A7E000C4E91133C4E91433C4E91833C4E91A3392
:10A7F0004FF48033E3654FF48063E3644FF4807378
:10A80000A3653DF0E1F8404633F020FCD4F898A170
:10A81000C4F88C81BAF1200F67672ED1E3686269B2
:10A8200099B252B3B1FA81F94FEA591929B394F8A0
:10A830009001012821D00B46A4F878112221C4F8F8
:10A840009C914046C4F87421C4F898116A49C4F830
:10A850008C90A1676949E1676949C4F8881005F1DE
:10A86000240133F08DFC002800F0B680102384F81A
:10A870009091C4F89C31C4F894A17368C4F8143161
:10A880002379980764D5D4F80051002D56D0D4F818
:10A890000821002304F19C06C4F8A8303046C4F80F
:10A8A000B030C4E927524022C4F8A4204FF480629B
:10A8B000C4F8AC204FF48032C4E92D33C4E93033FE
:10A8C000C4E93233C4F8BC203DF07EF8304633F0A2
:10A8D000BDFB00286ED0FEE70423C0F83431B1B1CF
:10A8E0000C23D107C0F834317FF531AFD4F84431AF
:10A8F0004FF4803143F00203C4F84C1143F00103DC
:10A90000C4F844314FF40033C4F848311FE7D3078B
:10A910007FF51DAFD0F8443143F00203C0F8443155
:10A920004FF48033C0F84C3111E70823C0F83431BC
:10A93000D3077FF50CAFD4F84431DFE7D4F8A0316A
:10A940001A6842F080021A601A6842F040021A60E7
:10A95000BDE8F0870BB194F89021242384F890216E
:10A960003846C4F894312B6823F001032B6036F08D
:10A9700085F801283FF425AFD4F8443143BB6B6818
:10A9800023F490436B60AB6823F02A0311E7D4F8FB
:10A99000A0311A6842F480721A609A6842F001028B
:10A9A0009A601A6842F020021A601A6842F0100297
:10A9B0001A6065E7C4F88861C4F8D4706860BDE8BF
:10A9C000F08784F89031D8E6384636F0CBF9E5E6E2
:10A9D000384636F0C7F9D2E784F890012B6843F483
:10A9E00080732B60AB6843F00103AB60AB6843F04E
:10A9F0004003AB6041E700BF55E5030885E5030868
:10AA000089E5030838B50409013C052C1AD80F4D17
:10AA100000F00F0305EB4402B2F86C0740FA03F2B2
:10AA200012F0010210D00122254402FA03F3013B87
:10AA3000184040F0B1FB95F87837054A034402EB23
:10AA4000C30038BD002038BD104638BD58B50408D5
:10AA5000FC1D01202DE9F04389B00024054600F5D6
:10AA6000887E0DF10C0CC0F80C41384E0794C0E9FB
:10AA70003F44C0E94144CDE90344CDE90544BCE885
:10AA80000F00AEE80F00CEF8004095F82901C5F898
:10AA9000546110B909B0BDE8F083FFF7B3FF074672
:10AAA00088B3818826234FF00048DFF8BC90C3802C
:10AAB000B1FA81F62648274B026845F80C3FC6F1EB
:10AAC0001F0328FA06F622EA060C234A1A4409EB69
:10AAD0008303C3F83453234692F88057C0F800C06C
:10AAE0001E4A46613868CDE900443CF00BFC09EB96
:10AAF000050393F8EC285AB9154A136833431360D9
:10AB000009B0BDE8F083134BEB6009B0BDE8F083FA
:10AB100083F8EC482146124B5E575C5D30463AF0B4
:10AB200015FC002EBE880CDB04F01F020123640913
:10AB3000B6FA86F693400B4A28FA06F642F8243015
:10AB4000DAE7B6FA86F628FA06F6D5E73B43413B44
:10AB5000003C0140D187000858B5040800001110DE
:10AB6000CC2E050800E100E0101801202DE9F84F77
:10AB70006D4EC0EB001306EBC303D3F8F448002C72
:10AB800000F08A8093F864890546070140463AF050
:10AB90009BFC01224FEA581308F01F08013B02FA00
:10ABA00008F2032B08D8DFE803F0ADB302B95F4920
:10ABB0000B6A23EA02030B627B1B05F1010B06EB18
:10ABC000C3035FFA8BFB93F8F808FFF71BFF80467F
:10ABD00018B1122380F807B083717B1B06EBC30307
:10ABE00093F8F908FFF70EFF824618B1132380F897
:10ABF00007B083717B1B06EBC30393F8FA08FFF7DA
:10AC000001FF814618B1142380F807B083717F1BC0
:10AC100050462E2106EBC70696F8FC28FFF762FA8D
:10AC200096F8FD2848460E21FFF75CFA96F8FB28B7
:10AC30002E214046FFF756FA23683D4A23F0400391
:10AC4000944223602AD03B4B9C4231D103F5003320
:10AC50001A6A42F480421A621A6A22F480421A6224
:10AC6000636843F48053636023685B060CD42068F8
:10AC700040F217323049314B01400A43226062688A
:10AC8000134043F4E0636360E36923F40063E3612A
:10AC9000236843F040032360BDE8F88F234B5A6AD2
:10ACA00042F480525A625A6A22F480525A62D7E7BA
:10ACB000234B9C421BD0234B9C420DD0224B9C42E9
:10ACC000CED103F568435A6A42F480125A625A6A36
:10ACD00022F480125A62C3E703F582335A6A42F4BF
:10ACE00000525A625A6A22F400525A62B8E703F5D7
:10ACF000FE331A6A42F400421A621A6A22F40042CF
:10AD00001A62ADE709494B6923EA02034B6153E735
:10AD100006494B6A23EA02034B624DE703490B697C
:10AD200023EA02030B6147E71018012000380240B4
:10AD300000300140003800404000FFFFFBF0FFFF03
:10AD4000003C0040003401400050014008B51D2087
:10AD5000FFF758FE10B190F9063053B11E20FFF7EF
:10AD600051FE10B190F9063003B108BD5523C380E0
:10AD700008BD5523C380F1E72DE9F04F002391B0C2
:10AD8000A24E0293A24BA6F68C0ADFF88C9293F89F
:10AD9000E6EAA04D0EF1FF37CDF80CE0FBB20193CF
:10ADA000DFF88CB2DBF80070BB0AA3F58013522BDE
:10ADB00000F2CF80534493F8F4330D2B00F2C98096
:10ADC00015F90380039B012B00F01681039B022BD6
:10ADD00002D1B8F1080F3AD10024214640460FF0C5
:10ADE00021F90FF0A7F990F900C0BCF1000F18BFCE
:10ADF000BCF1540F14BF4FF0010C4FF0000C40F0A9
:10AE0000F1800434A4B2102CE7D1029B002B00F097
:10AE1000AB80814A0CE0534493F8F4330D2B0ED8E9
:10AE2000EB5643450ED002F586724A4500F09880F5
:10AE300091680B689B0AA3F58013522BEBD9002372
:10AE40004345F0D14B799BF805109942EBD10BF1BA
:10AE50001C0B5E45A6D1029B09F586790133042BB4
:10AE600002939DD16D4A4FF0010B92F8F83502F52F
:10AE7000876A01330493049B5B4567D0644BDAF81F
:10AE80000C7093F8FA2A9AF810300193002F5DD0D5
:10AE900062493B684D686248B988002D18440393A5
:10AEA00002914FEA902040F3C8805B49002405E0FE
:10AEB000013401F58671AC4200F0BC800B6883421E
:10AEC000F6D1554B4FF48672029D02FB0434019B70
:10AED0000322CAF80C708AF81030029BCAF8184096
:10AEE000B3FA83F6C6F11F035800CAF80430BA71EA
:10AEF00087F807B002FA00F7A16C0122D4F854C019
:10AF0000394302FA00F002FA03F3A164216D014310
:10AF1000D4F8AC00216541490F7899B2002F00F0B8
:10AF2000708143EA0C036365039B9D61FDF736F96D
:10AF30000BF1010B2046FDF705F90AF1200A40F25A
:10AF40000113BBF1090F2AF8043C94D111B0BDE8FC
:10AF5000F08F019B012B7FF67AAF4FF000083BE7A3
:10AF6000BCF1000F7FF473AF5846FDF7B1F89BF8C2
:10AF700005E0C3B2022B00F2958300F1010C294ACF
:10AF80000CEB4C0C02F57D704FEA8C0C03E02C327C
:10AF9000904200F0878313689F42F8D1137973457C
:10AFA000F5D152F80C30002BF1D01F480021426837
:10AFB0009A4207D00131243010293FF448AF42684B
:10AFC0009A42F7D14B1C194ADBB2013B03EBC30396
:10AFD00002EB830393F99830002B7FF438AFC9F864
:10AFE00008B038E7029B002B7FF413AF0BF11C0B6A
:10AFF0005E457FF4D7AE2EE7B8F1010F3FF4ECAE1B
:10B000000BF11C0B5E457FF4CDAE24E7E4BD0408D4
:10B0100010180120B02E0508940000208C0000209C
:10B020000000FEBF58B504087C000120000001208C
:10B03000E8BC0408042C00F0F2804FF48671B54B94
:10B0400001FB053319690691002900F0FB82986025
:10B05000013054210792C4B2AE4A83F8101183F82C
:10B0600011416B1C5360069B18461E685B79059363
:10B07000FDF72EF8C3B2022B00F2148300F1010E8B
:10B08000A5494FF0000C079A0EEB4E0EDDF8149018
:10B090004FEA8E0E06E00CF1010C2C31BCF1170FBB
:10B0A00000F000830B689E42F5D10B794B45F2D13D
:10B0B00051F80E30002BEED098462C2300EB4000C8
:10B0C000954903FB0CF3DFF8809203EB8003914872
:10B0D0000B4419694FF4867303FB05034846C3E923
:10B0E000078143680021434507D0013124301029EE
:10B0F0003FF42CAF43684345F7D14B1C8749DBB283
:10B10000013B03EBC30301EB830393F99810002980
:10B110007FF41CAF4FF48671814883F899404FF05B
:10B120008C0C01FB05F17B4C062A07914FEAA1012B
:10B1300000FB01F17B4800F54C7E07982044039CFE
:10B14000C0F800C10CFB01FC01EB4101C46001EB44
:10B150000111744C0EEB4C0E04EB81044FF05401C2
:10B16000C0F8FCE083F898104FF033030799C0F85B
:10B17000B8306D4BC0F8B44003EB01046B4BD3F80F
:10B180002C1300F04D82072A694B6A486A4A18BF9F
:10B190001A466A4B18BF03465E48B1FBF3F3B1FB96
:10B1A000F2F2013B4FF48671013A01FB05019BB2BB
:10B1B000A1F8BC20A1F874302366079B03F1580165
:10B1C00000F10803304619440023A4F858306366A0
:10B1D000E3653BF013FD3368059A43F08003336069
:10B1E0000C2A23D8DFE812F0C3012200220022003B
:10B1F000A101220022002200E301220022002200FD
:10B200007D01C6F12F062D0402FA06F33A4643EA01
:10B210000C036365039B9D61FCF7C0FF88E6032375
:10B22000424A82F8FB3A11B0BDE8F08F394A4FF438
:10B230008673304603FB0523022259693368039164
:10B2400023F00103336000230A930D930F936023CF
:10B2500008934FF480730E93012309930A23CDE9D9
:10B260000B3208AA3BF082FB0399B1F5807F00F016
:10B27000FD8100F2D881102900F0028200F2E981FC
:10B28000012900F0FA81042915BF4FF40063082357
:10B290003C20002006F118010A5813430B50069B6E
:10B2A0001879002840F0AB81336843F00103336024
:10B2B0000023D9F804200133904500F09B81102B26
:10B2C00009F12409F5D14FF0FF334FF00008134A7C
:10B2D00003EBC30302EB8303D86F194B984214BFEF
:10B2E000962095203AF0F0F8059B0C2B00F27F8118
:10B2F000094A02EB4303B3F88CC84FF48673054A3E
:10B30000104803FB052300F26471A3F818C0002362
:10B3100023E000BF8C00002058B504080000012085
:10B320006B4CA40758110020940000201018012035
:10B3300044950800D0DD06001055220040771B0020
:10B3400000600240841100207C000120964200F041
:10B3500088810133042B00F0A88151F83320002AA2
:10B36000F4D1D0F884270132C0F8842700EBC30061
:10B37000DB00C0F8646719444046234690228E885B
:10B380004CEA060C0026A1F804C0BF49FEF76AFD8E
:10B390004FF48673BD4A40214FF4403CBC4803FB48
:10B3A00005280423D8F81C502A6842F010022A60AD
:10B3B0002A6842F014022A60C4F8A860C4E91F6633
:10B3C000C4E92866D8F82020A1674FF48061C4F84A
:10B3D00098C04FF4804CC4F88410E9B2C4F89C3093
:10B3E000C4F8942010390392D8F8B820A0FB0101CA
:10B3F00025F0FF00C4F890204FF48052D8F80C904C
:10B40000D940C4F88820079B09F1180209F11009F6
:10B41000226703F170029F4B1A44D8F8B430C4F885
:10B420008CC06367CDE905013BF030FDD5F800E045
:10B43000079BC4F820E0D5F814E003F1B802954B5F
:10B44000C4F824E0D5F804E01A44039BC4F828E0CB
:10B45000D5F808E0C4F82CE0D5F80CE0C4F8DC30EE
:10B460000423C4F8C860C4F8E4304FF48063C4F81F
:10B47000F060C4F8CC304FF40033C4F830E0C4F8C6
:10B48000E030C4E93066C4E93A664FF40066D8F8A3
:10B490000031C4F8B890C4F8D0604FF48046C4F8C6
:10B4A000D830D8F8FC30C4F8D460C4F8BC30DDE93A
:10B4B00005013BF0EBFC2B6863636B69A3636B686E
:10B4C000E363AB682364EB6863642B6843F01003A9
:10B4D0002B602B6843F014032B603B68BD880393FB
:10B4E000F5E433684FF4867268494FF0020E23F09A
:10B4F0000103304602FB05124FF48051516108AA46
:10B50000336000230A930D930F93602308934FF445
:10B5100080730E93012309930A23CDE90B3E3BF080
:10B5200025FA4FF400630420B4E633684FF48672C2
:10B530005649022023F0010302FB0512102151613C
:10B5400008AA336000230A930D930F936023089396
:10B550004FF480730E93012309930A23CDE90B3036
:10B5600030463BF003FA00204FF4006392E6336864
:10B570004FF486724549304623F0010302FB051261
:10B580000121516102223360002309910A930D9336
:10B590000F93602308934FF480730E930A23CDE931
:10B5A0000B3208AA3BF0E2F90020082372E6336868
:10B5B0004FF486723549022023F0010302FB051285
:10B5C0004FF4807151616022336000230E910A9321
:10B5D0000D930F930123CDE908230A2308AACDE98F
:10B5E0000B3030463BF0C2F90823042052E64FF0FE
:10B5F000000C82E65FFA83F808F1FF3367E6FFF795
:10B6000001FA039038B10699CA790221FEF792FC3B
:10B610005423039AD380736C43F40043736443E66A
:10B620001D4A1E4BB8E5B1F5805F22D0B1F5803FD1
:10B6300019D0B1F5806F15BF4FF4006308233C208B
:10B64000042027E60223164A82F8FB3A11B0BDE82F
:10B65000F08F402915BF4FF4006308233C200020E1
:10B6600018E6DB0087E608233C2013E608230420C5
:10B6700010E64FF4006304200CE60020082309E6DE
:10B6800000204FF4006305E6E98100088C000020EB
:10B69000ABAAAAAA94000020882A1100A0BB0D0022
:10B6A0001018012000235B68FFDE00239B88FFDE6B
:10B6B0002DE9F04F9A4C8BB094F8FC7A1FB900201A
:10B6C0000BB0BDE8F08F00222F2138460EF088FD28
:10B6D00006460028F3D090F80590D0F800A0A4F812
:10B6E0001894FEF7BDFA0028E9D0D0E9015B002DDF
:10B6F000E5D0DFF864820023424601E0102BDED063
:10B700005168013324328D42F8D1DBB2013B03EBA7
:10B71000C302844B03EB820292F998100029CED128
:10B720002F20C4F8D8A3A2F89800D4F82C037E4A9E
:10B73000904280F0D880000AC4F8DC137B490022D4
:10B74000A1FB00017A48C4F8E823C4F8E0230A0901
:10B750000909A0FB0202C4F8E4135208A4F8002B64
:10B760005200A4F8FE2A94F8152402F0FF01002AE2
:10B7700000F0C580022250466E4984F8152435F049
:10B7800073F80122384684F81524FFF73BF9654B1E
:10B79000C4F8040B30B12F21C1804E21F279FEF79D
:10B7A000C9FB604B644A0021C4F80CBBB9F10C0F13
:10B7B000C4F8141BC4F8241BC4F82C1BC4F8341B95
:10B7C000C4F8381B106BC4F8085B40F40010106319
:10B7D000106B00F4001000900098106B40F4800093
:10B7E0001063126B02F480020192019A4FF0400242
:10B7F000C4F8102B4FF48062C4F8182B4FF4805219
:10B80000C4F81C2B4FF48042C4F8202B4FF40032B4
:10B81000C4F8282B4FF00302C4F8302B72D8474AE3
:10B8200002EB4902B2F8A878BA46083744484146C4
:10B83000002204EB870CCCF8D803A0F5E660C4F82E
:10B84000400B486801322431854260D0102AF8D17B
:10B850004FF0FF3202EBC20203EB8203D86F394B89
:10B86000984214BF9620952039F02EFE0023D8F878
:10B870000420013308F12408954246D0102BF6D15C
:10B88000002004EB8704534660222F49FEF7EAFAB2
:10B89000D4F8D80332F0DAFB00287FF410AFB47983
:10B8A00000276026089063004A4602A9274803F053
:10B8B00002030493E300CDE9026703F008030026C6
:10B8C00000270593CDE9066738F090FB00287FF448
:10B8D000F6AEA30749461D481CD535F0ABF8B0FAC3
:10B8E00080F04009ECE61A4A1A490244A1FB022101
:10B8F000890D013989B24A1CB0FBF2F01BE784F8CC
:10B90000141437E78A460F468FE7D8B2B9E7D2B2A8
:10B91000013A9FE734F078FFB0FA80F04009CFE6B3
:10B920001018012000000120006CDC02598B4F012F
:10B93000ABAAAAAAEC1B01200038024058B50408A3
:10B94000182301200060024065900008E81B0120D8
:10B9500000366E01819F5E167C000120F8B50E4C0A
:10B9600094F8F8759FB104F5C064C7F1090709257B
:10B97000013D0ED0A6683079FFF744F8217DF279B9
:10B9800008B1FEF7D7FAAF4204F1A004F0D10120CC
:10B99000F8BDAB68FFDE00BF8C0000202DE9F04150
:10B9A000EFF31185502383F31288D0F800311B6820
:10B9B00013F0010304D0EDB285F31188BDE8F081E6
:10B9C000D0F894210446D0F898110A4302F02102DD
:10B9D000212AF0D0D0E90912914250D090B23ED83D
:10B9E000194623691B1A9BB2D4F89461A162002105
:10B9F000202E84F8A411DED1A1698918DBD0B3FA16
:10BA000083F77F09002BD6D094F89021012AD2D059
:10BA10000122D4F88801A4F8723184F890212122FF
:10BA2000C4F89C71D4F82081C4F86C11A4F870316A
:10BA3000C4F89421B0B1144A0765C263134A026482
:10BA4000134AC26408F1280232F09AFB50B1102365
:10BA500084F89071C4F89C31C4F89461ABE7081A7B
:10BA600083B2C1E700234022C8F8202084F8903137
:10BA7000D8F8083043F08003C8F808309BE701236A
:10BA800080F8A43197E700BF2DE5030851E50308CE
:10BA900089E5030870B5D0F820410546E3699906A9
:10BAA00014D5606AEB6AC0B2002B73D0296B98473B
:10BAB000D5F82041236823F480732360A36823F022
:10BAC0000103A360A36943F00803A361E369DA07F4
:10BAD00001D501232362E3699B0701D50223236279
:10BAE000E3695E0701D504232362E369180701D5E2
:10BAF00008232362E369590615D54023236295F88C
:10BB0000B561002E30D0D5F80031D3B12846FFF70B
:10BB100045FF95F8A431002B48D095F8B561D5F8CC
:10BB20002041002E4AD0D5F8003153B1E369DB063D
:10BB300006D56B6B13B19847D5F8204110232362CB
:10BB400070BDE3691A06F1D5D5E90923934230D0D7
:10BB5000A969CA5C0133D2B2A2622A69B3FBF2F1CD
:10BB600002FB1133AB62E1E795F8B201FEF74AFF41
:10BB7000236823F008032360012385F8B5310028EA
:10BB8000C1D032462021FEF7D5F9D5F80031002B7F
:10BB9000BCD1D6E7EB696A69D054EB69EA68013336
:10BBA000B3FBF2F102FB1133EB6181E7D5F82041E1
:10BBB000B9E7236823F080032360B7E795F8B20163
:10BBC000FEF720FF236823F008032360012385F894
:10BBD000B5310028A7D032462021FEF7ABF9A2E705
:10BBE000BFF34F8F0549064BCA6802F4E062134366
:10BBF000CB60BFF34F8F00BFFDE700BF00ED00E05B
:10BC00000400FA0508B572B6FFF7EAFF30B583B055
:10BC1000FEF768FC0320FEF759FC01284CD0324C9B
:10BC20000025324A0523C4F89850C4F89C50C4F843
:10BC3000A020C4F89430BFF34F8FBFF36F8F4FF63F
:10BC4000FF01E2682A4B0A4013432A4AE360536F1C
:10BC500034F04EFB284B2949A3FB0023D4F8FC20E9
:10BC60009B0C42F08072C4F8FC20C1F8683BD1F80C
:10BC70002C332349234AA1FB031323499B09C2F810
:10BC8000B01F5560013B1168B3F1807F41F00101A5
:10BC9000116007D34FF0E022136943F004031361EE
:10BCA00003B030BD4FF0E022F0215361072384F848
:10BCB000231095611361EDE702210320FEF70CFCD0
:10BCC0000C4B12485A6C124942F480425A645B6C25
:10BCD00003F480430193019A02680B68026083F3C6
:10BCE00008884B689847FEE700ED00E01B0000065F
:10BCF0000005FA050038024083DE1B4310180120BE
:10BD0000D34D6210001000E055CEACC500380140A4
:10BD10000000F01F800AA0F5801052281CD80F4B9D
:10BD2000034493F8F4330D2B16D8013910B40C4C9E
:10BD300004EB831CD4F82C438BB2DCF86C0B0CF5B1
:10BD40003761CCF8783BB4FBF2F2013A5DF8044B72
:10BD5000CCF8702B34F088BD704700BF58B504088C
:10BD600010180120F8B5830AA3F58013522B52D87E
:10BD700004465748034493F8F4030D284BD8554D17
:10BD8000860105EB8013D3F86C7BA74243D00139C1
:10BD9000C3F86C4B89B2C3F8781BD5F82C13B1FBF0
:10BDA000F2F100220139C3F87C2BC3F8742BC3F8DD
:10BDB000802B93F8A92BC3F8701B02F0FF015AB334
:10BDC00045490223AF1901EB8011204687F8A93BB2
:10BDD000043134F049FD0123B4F1804F87F8A93BC9
:10BDE0003E4BA4EB0303B3FA83F34FEA531316D08D
:10BDF000ABB93B4A944257D002F58062944253D08B
:10BE0000384902F57C42944218BF8C422FD002F58B
:10BE1000705294422BD0F8BD83F8A81BD0E7AA1922
:10BE200092F8A81B0129F6D0022182F8A91B2E49FD
:10BE3000A06801400020A160012182F8A91BAA1975
:10BE4000022182F8A91B6268A16803B908B122F433
:10BE500070022E4422F0700221F0800101200023A4
:10BE60006260A16086F8A90B86F8A83BF8BDAA1904
:10BE700092F8A81B0129CED0022182F8A91B1A49E9
:10BE8000A06801401948A1600121201A82F8A91B6D
:10BE90000021B0FA80F082F8A81B124A40099442AF
:10BEA000CDD00028CBD1F8BDAB1993F8A82B012A2F
:10BEB000B1D002210C4A83F8A91BA0680240A260FD
:10BEC000012283F8A92B83F8A91B6268A168C0E747
:10BED00058B50408101801207C23012000000140FF
:10BEE00000040040000C00408800FEFF00040140F8
:10BEF00003689B0AA3F58013522B00D970470F4AA1
:10BF0000134493F8F4330D2BF8D8022210B40C4CE0
:10BF1000407904EB831C20FA02F3DCF86C0B02FA84
:10BF200003F3C26829B922EA03035DF8044BC36036
:10BF3000704713435DF8044BC360704758B504085D
:10BF40001018012003689B0AA3F58013522B10D808
:10BF5000084A134493F8F4230D2A0AD8407902239F
:10BF60000549D84001EB82128340D2F86C2BDB43A9
:10BF70001361704758B504081018012001490248A0
:10BF8000FCF78ABF101801200000014010B5064CD4
:10BF900006482146FCF780FF04F5C6710448BDE859
:10BFA0001040FCF779BF00BF1018012000000140CD
:10BFB0000044014002494FF08040FCF76DBF00BFD4
:10BFC0003C18012001490248FCF766BF68180120AF
:10BFD0000004004001490248FCF75EBF94180120AC
:10BFE0000008004001490248FCF756BFC018012074
:10BFF000000C0040F8B5164D164E2A69EB681A4041
:10C000004FF00040B2FA82F3EAB120FA03F3012ABA
:10C010006FEA030302EA03012B610A46F2D1D6F864
:10C0200004718FB1013F0023BFB2C6F80431D6F8C6
:10C03000004134B123682046394698476468002C93
:10C04000F8D10022DCE7F8BDEF6ABFB2EFE700BF2E
:10C05000001000401018012001490248FCF71CBFE5
:10C06000441901200004014010B5064C064804F5AF
:10C070009A71FCF711FF04F504710448BDE8104003
:10C08000FCF70ABF1018012000040140001C00400A
:10C0900001490248FCF700BF70190120004001402F
:10C0A00001490248FCF7F8BEC819012000480140C8
:10C0B00001490248FCF7F0BEF419012000180040C5
:10C0C0002DE9F0414FF425728EB000215E483EF01C
:10C0D000C5FE5E4B5E4E4FF000085A6C40F22227C0
:10C0E0005C4D06F1540442F001025A645A6C02F0AD
:10C0F00001020092009A1A6C42F001021A641A6C52
:10C1000002F001020192019A1A6C42F002021A64D2
:10C110001A6C02F002020292029A1A6C42F00402B5
:10C120001A641A6C02F004020392039A1A6C42F029
:10C1300008021A641A6C02F008020492049A1A6C3B
:10C1400042F010021A641A6C02F010020592059A6D
:10C150001A6C42F020021A641A6C02F02002069255
:10C16000069A5A6C42F002025A645A6C02F00202B9
:10C170000792079A5A6C42F480325A645A6C02F45D
:10C1800080320892089A5A6C42F400325A645A6C0F
:10C1900002F400320992099A5A6C42F480225A64DD
:10C1A0005A6C02F480220A920A9A1A6C42F04002F7
:10C1B0001A641A6C02F040020B920B9A1A6C42F04D
:10C1C00080021A641A6C02F080020C920C9A1A6CAB
:10C1D00042F480721A641B6C03F480730D930D9B00
:10C1E00055F82810002354F83320914226D001330B
:10C1F0000E2BF8D1002008F1070839F065F9B84591
:10C20000EED14FF0000840F2222755F82810002305
:10C2100054F8332091420CD001330E2BF8D100207A
:10C2200008F1070839F050F9B845EED10EB0BDE875
:10C23000F08106EBC30393F85800F1E706EBC30364
:10C2400093F85800D7E700BF1018012000380240CB
:10C2500050C604081CBE0408800AA0F580105228AD
:10C260000ED8084B034493F8F4230D2A08D8064B44
:10C2700003EB8213D3F86C2B136843F001031360B4
:10C28000704700BF58B504081018012037B590F862
:10C2900067380446032B2FD10023204D8DF807303B
:10C2A0009DF8073094F868289A4201D803B030BD51
:10C2B0009DF8073005EBC30393F8303F8BB181F055
:10C2C000010383B19DF8073005EBC303D3F82C0FAE
:10C2D000FDF74EFC9DF807300133DBB28DF80730D7
:10C2E000DEE70B46EDE79DF8073005EBC303D3F817
:10C2F0002C0FFDF743FCEDE7D0E910039B7903F029
:10C300000103994204D003B0BDE83040FDF730BCD2
:10C3100003B0BDE83040FDF731BC00BF101801206C
:10C3200038B5044600790D4650B1FEF76BFB08B1F5
:10C330000323C380E2792946BDE83840FDF7D2BE29
:10C3400038BD10B504462221FFF7EAFF2046FFF76B
:10C35000F9FD20460121BDE81040C9E510B50446AD
:10C360000121FFF7DDFF00212046BDE81040BFE5B9
:10C3700038B510F8133CA0F66C041BBB94F8583881
:10C380008BBBD4E909239A421CD05A1CA169A26232
:10C39000CB5C21695B008A4228BF002243F4007312
:10C3A000A262A4F85C380A2384F85A38012384F87E
:10C3B000583894F86738012B01D0042B02D1606CF7
:10C3C000FFF7CCFF94F85438002B6DD194F8553812
:10C3D0000133DBB2092B84F8553825D12046BDE85E
:10C3E0003840FBF79DBF94F95A586DB1B4F85C180A
:10C3F000013D20464B0801F00101A4F85C38FFF72D
:10C4000045FF84F85A58DDE7D4E9092384F85858E1
:10C410009A42D7D194F86738012B01D0042BD1D19F
:10C42000606CFFF78EFFCDE70A2B3DD194F85738AB
:10C430002BB9B4F85E3843F00103A4F85E382379D1
:10C44000D9070AD5B4F85E08820501D4C30718D409
:10C45000B4F864380133A4F864380122002384F866
:10C46000542894F8572884F85538012A1CD161794A
:10C47000606C84F8573801F00101BDE8384037F0AE
:10C4800071BAE36AC0F3470013B1216B9847E4E740
:10C49000E3696269D054E369E2680133B3FBF2F106
:10C4A00002FB1133E361D8E738BD00BF2DE9F0414D
:10C4B000A14CA4B0D4F85C38022B00F039829F481C
:10C4C0009F4AA049121A3EF071FC9F489F4AA0491A
:10C4D000121A3EF06BFCD4F85838012B00F2C080E1
:10C4E00003EB43039B4A9C4E02EB430032F81320BC
:10C4F00041888388C6E9AF21C6F8C432974C984D6D
:10C50000984BB2FBF1F2984901FB02F20021C5F809
:10C510002C23D4F8882042F47002C4F888201A68CA
:10C5200042F001021A609960904A186802409048EF
:10C530001A60C0F308078F4A5A601A6822F48022F2
:10C540001A60D96007B1FEE78B49A0604FF6FF0083
:10C550000A688A4B42F400720A60E26802401343A0
:10C56000E36038F0E5FFBFF34F8FBFF36F8FC4F880
:10C570005072BFF34F8FBFF36F8F636943F4003383
:10C580006361BFF34F8FBFF36F8FC4F88470BFF345
:10C590004F8FD4F8803043F6E07CC3F3C90EC3F369
:10C5A0004E33580100EA0C01734641EA8372013BA5
:10C5B0005F1CC4F86022F8D1203810F1200FF1D1AF
:10C5C000BFF34F8F636943F480336361BFF34F8FD1
:10C5D000BFF36F8F6849634B0A6842F480720A6048
:10C5E000196C674A41F080511964196C01F080514F
:10C5F00002910299116841F4404111601268D6F825
:10C60000BC4202F440420192019A9A6802F00C0284
:10C61000042AD6E9B07100F08B809A6802F00C020F
:10C62000082A00F081804F4A136843F48033136076
:10C63000D5F86C0F04E0D5F86C3F1B1A642B72D848
:10C6400013689B03F7D5474A936803F00C03082B44
:10C6500069D0136823F080731360D5F86C0F08E07D
:10C660003D4ED6E9AF2149E7D5F86C3F1B1A022BA6
:10C6700059D813689E01F7D40B06790843EA84134E
:10C68000013943EA01433F4919435160136843F0BC
:10C6900080731360334AD5F86C1F04E0D5F86C3F03
:10C6A0005B1A022B3FD813689801F7D5136C43F03F
:10C6B00080531364136C324A03F080530393039B3B
:10C6C000136843F480331360D5F86C1F05E0D5F888
:10C6D0006C3F5B1AB3F57A7F2DD85368DB03F6D530
:10C6E0001368274943F400331360D5F86C2F05E035
:10C6F000D5F86C3F9B1AB3F57A7F1CD84B689E0324
:10C70000F6D54FF400124FF0006304A804924FF4E2
:10C71000C07221930723CDE9082303230A9333F042
:10C720001BFE88B3FEE7FEE75B685A027FF57BAF2E
:10C730000C4B1B6887E7FEE700200040000000006C
:10C7400080370000D8B50508000000208C000020CC
:10C75000EC0E060814C704080000012000ED00E0FC
:10C76000101801200038024040420F00FFFFF6FE83
:10C770000000000810300024003C02400003FA05CD
:10C7800000700040080040206C4A136803F00F035B
:10C79000062B0AD8136823F00F0343F00703136036
:10C7A000136803F00F03072B69D1654B9A6842F4B5
:10C7B000E0529A609A6842F460429A609A6822F065
:10C7C000F0029A601A68900159D59A6841F288304F
:10C7D00022F0030242F002029A60D5F86C1F04E0D6
:10C7E000D5F86C2F521A824249D89A6802F00C028E
:10C7F000082AF5D1514A136819070AD5136823F09E
:10C800000F0343F007031360136803F00F03072BB4
:10C8100035D1DFF82C814B4ED8F8083023F4E053A3
:10C8200043F4A053C8F80830D8F8083023F4604324
:10C8300043F40043C8F8083033F05AFDD8F8083004
:10C84000C3F30313334493F8D03020FA03F3C5F84D
:10C850002C3338F06DFE002304A8CDE91333CDE965
:10C860001533CDE91733CDE91933CDE91B33CDE9C4
:10C870001D33354B049333F06FFD08B1FEE7FEE73F
:10C8800002234FF0007204A8CDE90633D823CDE986
:10C89000042301230B9333F05FFD00B1FEE7D8F8CA
:10C8A0008C3023F08073C8F88C30D8F88C3043F08B
:10C8B0008073C8F88C30D8F8083003F00C03042BD0
:10C8C00031D0082B12D0214B2149B4FBF7F201FBE8
:10C8D00002F21B498968C1F303110E4496F8D01087
:10C8E000CB409A42C5F82C331FD0FEE7D8F804306D
:10C8F000D8F8042013F4800FD8F8043002F03F0277
:10C9000018BF1449C3F3881308BF1049B1FBF2F2F2
:10C9100002FB03F30A4A5268C2F301420132520099
:10C92000B3FBF2F3D0E70B4BCEE724B0BDE8F081C8
:10C9300000210320FDF7D0FDFFF752F9003C024033
:10C940000038024050C60408C0FF03000024F40071
:10C9500040420F0000127A0010B4EFF3118210234E
:10C9600083F312880C4B4FF0E0200024D2B2D3F8AE
:10C97000D4120131C3F8D4128169C3F8701FC3F80F
:10C98000744F016982F31188D3F86C2F5DF8044B62
:10C990000132C3F86C2F70471018012010B4EFF368
:10C9A0001181102383F312884FF0E02294691369F8
:10C9B00013F4803F0D4B03D00120C3F8740F94692A
:10C9C000D3F8D402C9B2D3F8742F81F3118802448A
:10C9D000D3F8681B4FF47A7000FB01F31B1B5DF862
:10C9E000044BB3FBF1F300FB023070471018012039
:10C9F000134B5B68C3F3080303BBEFF31183EBB97D
:10CA0000104B4FF0E02C10B4D3F8D422DCF818000F
:10CA1000D3F8D4128A42F7D1D3F8701F8842F3D8E2
:10CA2000D3F8684B4FF47A7101FB04F31B1AB3FB84
:10CA3000F4F35DF8044B01FB02307047AEE700BF32
:10CA400000ED00E0101801202DE9F04F374C83B0C5
:10CA500023781BB9012003B0BDE8F08F344F04F5F3
:10CA60008764DFF8D0B04FF0000AD7F8D4324FF621
:10CA7000FF7894F8C0910BF53875ABF5F16601932A
:10CA800014E0B0F5606F43D0A881B0EB0801019AC3
:10CA9000584618BF01210BF087FD0AF1010A0BF17E
:10CAA0005C0B20341435BAF1080F2AD0CA4528D0BF
:10CAB000A0696268D0E93D013EF01AFD4FF6FE73B1
:10CAC00097F8792F984214D0542A04D1B7F87C2FC4
:10CAD0000132A7F87C2FD6F8702A404502F10102F6
:10CAE000C6F8702ACDD1D6F86C2A0132C6F86C2A65
:10CAF000CBE7542AD1D1B7F87E2F0132A7F87E2F89
:10CB0000CBE70123012086F86C3B03B0BDE8F08F32
:10CB100097F8D42302EB420207EBC202524492F888
:10CB200081230D2AB0D18022AA77AEE78C000020A5
:10CB3000101801200C19002070B53EF0F5FC80B3F0
:10CB40001A484568002D10DD002410F8086B16B156
:10CB5000037F012B1FD04269013400F586701368F2
:10CB6000AC4243F001031360F1D1FFF741FF104BDA
:10CB7000D3F88447002C0DDD03F2647303EBC40487
:10CB80001968083333F8042CC868A34242EA00024B
:10CB9000CA60F5D170BD002380F8FC30FBF7D2FAF3
:10CBA000D9E73CF0B3F90028CAD170BD8C00002051
:10CBB000841100202DE9F04F894C87B023781BB9F0
:10CBC000012007B0BDE8F08F864BD3F8D432049330
:10CBD000FFF70EFF94F8F8250192002A00F0F88084
:10CBE000814A04F5C0640027D2F8783B02F5F16B66
:10CBF00002F6682A2646A0EB03080594B8F1000F58
:10CC000003DBF36D434500F3C98007EB8703744AE8
:10CC100002EB431393F8583603F0FF0E002B00F09D
:10CC20008780D6F89410B36870481A68CBB221F0A8
:10CC3000FF01103BA0FB03036D481B09C35C0B44C1
:10CC4000B1895C68D368A4B223EA0103C4F1160475
:10CC5000D360072C6CD9644A0121D2F8703A894616
:10CC60000133C2F8703A0022D6F89C301546186895
:10CC70009C46CDE902E715E0142D1EDC17F1080EE5
:10CC800048BF07F1170E4FEA2E1705EB2E1507F1D7
:10CC9000FF3E013102FA07F709FA0EFE8C424EEA16
:10CCA00007020AD307468C425CF8040FA0EB070783
:10CCB000E2D8C5F115071525E9E7152DDDE902E7ED
:10CCC00062D14C4CC2F38421C2F3441004EB8101C5
:10CCD00004EB8000D1F86011D0F86001090241EA4C
:10CCE000001102F01F00C2F3C43204EB800004EB19
:10CCF0008202D0F86001D2F86021014341EA023299
:10CD000082EA122181EA111101F00F010F293BD1B2
:10CD1000C2F30F124FF6FF718A4235D0B2F5606F41
:10CD200040D0AAF80C207146049A58460BF03CFCFF
:10CD300030460137FDF722FC019BA0360BF15C0B5E
:10CD4000BB420AF1140A7FF459AF019B0121059CF3
:10CD5000002203EB8303244804EB431380F86C1B8D
:10CD6000C0F8782BA268A03414F8901C126854F80C
:10CD70004C0C11F0020F116A14BF41EA800101430B
:10CD8000A3421162EED11BE71749D1F86C2A013298
:10CD9000C1F86C2AB7B14FF0000EC4E7002007B00D
:10CDA000BDE8F08F0F4991F8D43303EB430301EB57
:10CDB000C3033B4493F881330D2BB2D180238AF80F
:10CDC0001E30B0E7194658220B483DF0EFFFE2E76E
:10CDD000054B0122019983F86C2BC3F8781BEFE611
:10CDE0008C0000201018012084110020ABAAAAAAF0
:10CDF000C02E050850C60408981C00202DE9F047F5
:10CE00002F4FFFF7F5FDDFF8C09080467E680020C9
:10CE10002C4C002E48DD00234FF486711D4601FB8B
:10CE20000372013392F805219E4245EA0205F6D1CC
:10CE300028435FFA80FAD9F80430C3F3080383BBB0
:10CE4000EFF311836BBB4FF0E02CD4F8D432DCF855
:10CE50001810D4F8D4229342F7D1D4F8702F91420D
:10CE6000F3D8D4F868CB4FF47A7202FB0CF0401A76
:10CE7000B0FBFCF002FB0300A0EB0803B3F5FA6F74
:10CE8000CCBF002005F001000028C2D1BAF1000F8C
:10CE900004D00C4B93F8792F542A08D05046BDE8A3
:10CEA000F087FFF77BFDE7E782460025C3E7B3F88D
:10CEB000802F50460132A3F8802FBDE8F08700BFD5
:10CEC0008C0000201018012000ED00E02DE9F04F4B
:10CED000874C83B00746D4F8E09294F8E832019189
:10CEE000B9F1000F0BD083F00202B9F80410C2F3BD
:10CEF0004002120101FA02F2D9F800108A61D4F856
:10CF0000DC82B8F1000F09D003F00103B8F8042067
:10CF10001B0102FA03F3D8F800209361013F754E1C
:10CF20004FF0E0254FF47A7BFBB20093B9F1000F8C
:10CF300008D0D9F80010B9F804304869034218BF86
:10CF40001B048B61B8F1000F00F0C980D8F8001005
:10CF5000B8F80430486903424FF0010018BF1B04C1
:10CF60008B610CF0B9FFDDF804A07368C3F308030C
:10CF7000002B40F0B080EFF31183002B40F0AB802A
:10CF8000D4F8D472A869D4F8D4128F42F8D1D4F866
:10CF9000701F8842F4D8D4F8683B0BFB03F1091AE0
:10CFA000B1FBF3F10BFB07177368C3F30803002B06
:10CFB00040F08A80EFF31183002B40F08580D4F895
:10CFC000D432A969D4F8D4028342F8D1D4F8700FCE
:10CFD0008142F4D8D4F8682B0BFB02F0401AB0FB66
:10CFE000F2F00BFB0300C31BB3F57A7FDCD3BAF17D
:10CFF000010ABAD1B9F1000F08D0D9F80010B9F878
:10D0000004304869034218BF1B048B61B8F1000F5C
:10D0100069D0D8F80010B8F80430486903424FF0DE
:10D02000000018BF1B048B610CF056FFDDF804A054
:10D030007368C3F30803002B49D1EFF31183002B6E
:10D0400045D1D4F8D472A869D4F8D4128F42F8D15B
:10D05000D4F8701F8842F4D8D4F8683B0BFB03F176
:10D06000091AB1FBF3F10BFB07177368C3F308034D
:10D070003BBBEFF3118323BBD4F8D432A969D4F8B6
:10D08000D4028342F8D1D4F8700F8142F4D8D4F896
:10D09000682B0BFB02F0401AB0FBF2F00BFB030015
:10D0A000C31BB3F57A7FE0D3BAF1010AC0D1009B6C
:10D0B0005F1EFBB2FF2B00937FF438AF03B0BDE8D7
:10D0C000F08FFFF76BFCEBE7FFF768FC8BE7FFF7F0
:10D0D00065FC0746C9E7FFF761FC074664E70120E6
:10D0E0000CF0FAFE3FE740460CF0F6FE9EE700BF6C
:10D0F0001018012000ED00E02DE9F0410746DFF8AF
:10D100006080FFF775FC154C4FF0E0250646D8F817
:10D110000430C3F30803EBB9EFF31183D3B9D4F8A8
:10D12000D432A969D4F8D4229342F8D1D4F8702F1C
:10D130009142F4D8D4F868CB4FF47A7202FB0CF029
:10D14000401AB0FBFCF002FB0300831BBB42DED3A2
:10D15000BDE8F081FFF722FCF7E700BF10180120BF
:10D1600000ED00E02DE9F041294F461E294C7B6877
:10D17000C3F30803002B47D1EFF31183002B43D1F6
:10D180004FF0E020D4F8D4328169D4F8D42293420D
:10D19000F8D1D4F8702F9142F4D8D4F8680B4FF43A
:10D1A0007A7202FB00F8A8EB0108B8FBF0F802FB6A
:10D1B00003884FF0E0257B68C3F308030BBBEFF354
:10D1C0001183F3B9D4F8D432A969D4F8D4229342A4
:10D1D000F8D1D4F8702F9142F4D8D4F868CB4FF43A
:10D1E0007A7202FB0CF0401AB0FBFCF002FB030069
:10D1F000A0EB0803B3F57A7FDDD3013EB7D2BDE8DB
:10D20000F081FFF7CBFBF3E7FFF7C8FB8046D0E7E1
:10D2100000ED00E01018012001302DE9F0475D4ECF
:10D220004D1E5D4C5FFA80FA4FF4FA7732210520EB
:10D23000FFF74CFE7368C3F30803002B40F0A18096
:10D24000EFF31183002B40F09C804FF0E020D4F8E6
:10D25000D4328169D4F8D4229342F8D1D4F8702F13
:10D260009142F4D8D4F8680B4FF47A7202FB00F9BB
:10D27000A9EB0109B9FBF0F902FB03994FF0E02893
:10D280007368C3F30803002B78D1EFF31183002BED
:10D2900074D1D4F8D432D8F81810D4F8D4229342E8
:10D2A000F7D1D4F8702F9142F3D8D4F868CB4FF46B
:10D2B0007A7202FB0CF0401AB0FBFCF002FB030098
:10D2C000A0EB0903B3F57A7FDAD3013FB2D14FF473
:10D2D0007A77FA215046FFF7F9FD7368C3F3080324
:10D2E000002B52D1EFF31183002B4ED14FF0E020F1
:10D2F000D4F8D4328169D4F8D4229342F8D1D4F846
:10D30000702F9142F4D8D4F8680B4FF47A7202FB74
:10D3100000F9A9EB0109B9FBF0F902FB03994FF001
:10D32000E0287368C3F308032BBBEFF3118313BB2F
:10D33000D4F8D432D8F81810D4F8D4229342F7D1C4
:10D34000D4F8702F9142F3D8D4F868CB4FF47A72A6
:10D3500002FB0CF0401AB0FBFCF002FB0300A0EB58
:10D360000903B3F57A7FDCD3013FB6D1013DBFF4A9
:10D370005BAFBDE8F087FFF711FBF0E7FFF70EFBAF
:10D380009EE7FFF70BFB814678E7FFF707FB814637
:10D39000C5E700BF00ED00E010180120431C0A267D
:10D3A0005D4D5E4C5FFA83FA80B54FF4FA78322116
:10D3B0000520FFF78BFD6B68C3F30803002B40F0DB
:10D3C0009F80EFF31183002B40F09A804FF0E02014
:10D3D000D4F8D4128369D4F8D4229142F8D1D4F885
:10D3E000702F9342F4D8D4F8680B4FF47A7202FB92
:10D3F00000F7FF1AB7FBF0F702FB01774FF0E029C7
:10D400006B68C3F30803002B7ED1EFF31183002B6D
:10D410007AD1D4F8D402D9F818C0D4F8D4329842CA
:10D42000F7D1D4F8703F9C45F3D8D4F8681B4FF47B
:10D430007A7202FB01F3A3EB0C03B3FBF1F302FBE3
:10D440000033DB1BB3F57A7FDAD3B8F10108B2D130
:10D450004FF47A78FA215046FFF738FD6B68C3F332
:10D460000803002B48D1EFF31183002B44D14FF078
:10D47000E020D4F8D4128369D4F8D4229142F8D1B0
:10D48000D4F8702F9342F4D8D4F8680B4FF47A7222
:10D4900002FB00F7FF1AB7FBF0F702FB01774FF032
:10D4A000E0296B68C3F3080393BBEFF311837BBBE5
:10D4B000D4F8D402D9F818C0D4F8D4329842F7D1AD
:10D4C000D4F8703F9C45F3D8D4F8681B4FF47A72B7
:10D4D00002FB01F3A3EB0C03B3FBF1F302FB0033FC
:10D4E000DB1BB3F57A7FDCD3B8F10108B6D1013E7E
:10D4F0007FF45BAF36F072FDFFF750FA0746CEE7D8
:10D50000FFF74CFA074679E7FFF748FA034698E732
:10D51000FFF744FA0346E3E700ED00E010180120AE
:10D5200038B5094C04F5407502E00834AC420AD025
:10D5300094F90620002AF8D1204608342021FCF76F
:10D54000F9FCAC42F4D138BDFC1D0120094B024668
:10D550000220D3F82C13B2EB910F4FEA910307D2BC
:10D560005B0840009A4280B202D2FF28F8D9704787
:10D57000704700BF101801202DE9F04F7F4E85B095
:10D58000DFF814B24FF0010A4FF000097C4D09E0BA
:10D5900009F101090AF1010A28360BF1050BB9F16D
:10D5A000040F34D03378022BF2D19BF90330591C8D
:10D5B00000F0CE80DAB296460C2308205FFA89F19B
:10D5C000039613FB0200D3B2012B17D86D4B02E078
:10D5D0001C33AB4212D01C78002CF9D15E788E42FD
:10D5E000F6D11E58002EF3D0674FB44602977E68DE
:10D5F00001342437B4450DD0102CF8D101320C3051
:10D60000D3B29E45E0D20023039E019327E005B0EC
:10D61000BDE8F08FE4B25D4E671E019407EBC704CE
:10D6200006EB840CA4009CF99880B8F1000FE5D1BA
:10D6300002EB420207F00707019803EB82038CF824
:10D6400084708CF899A0DB68DDE90216CCF888308C
:10D65000142321448CF898303161FCF7E1FB9BF9ED
:10D6600004305A1C70D0D9B288460C2308275FFAC0
:10D6700089F0039613FB0177CBB2012B18D8414AEE
:10D6800002E01C32AA4213D01378012BF9D153784F
:10D690008342F6D1D659002EF3D03B4B0024B4463A
:10D6A00002935E6801342433B44521D0102CF8D1A4
:10D6B00001310C37CBB24345DFD9019B039E002BD0
:10D6C0003DD0019F2422304800247B1E746102FB60
:10D6D00003003061FAF7D6FC3046FAF7A5FC234682
:10D6E000224638462A49FCF7BDFB012333734FE736
:10D6F000E4B2264E631E03EBC30E06EB8E0C4FEA1C
:10D700008E0E9CF99860002ED2D101EB410103F0FE
:10D71000070337468CF899A002EB81028CF884301D
:10D72000DDE90206D3687044CCF8883013237061B9
:10D7300020468CF89830FCF773FB019B63B90022FC
:10D740000023C6E9042323E74FF0010800218CE7FA
:10D750004FF0010E00222FE77069FAF793FC306951
:10D76000FAF790FC3046FAF75FFC3B463A46204613
:10D770000849FCF777FB0123337309E7A027012051
:10D78000B4BC040830BA04087C0001200000012069
:10D79000299200089D9100084028012070B50E498B
:10D7A0004FF0010E0D4D0E4C0E4E35F802CB0023FE
:10D7B0004CFA03F20EFA03F0013312F0010F03D01A
:10D7C0000C60083121F8040C102BF1D104F58064B1
:10D7D000B442EAD170BD00BFFC1D0120C4BC0408E6
:10D7E00000000240001802402DE9F0470646086894
:10D7F00088B00C46850ABDF84080A5F580159DF8D7
:10D8000044A0522D55D819462D4B2B4493F8F45370
:10D810000D2D4ED82B4FFEF7A5FA94F8059007EB87
:10D820008517A379BAF1000F01D083F001035A00E4
:10D830004FF48071DB00384602F00202CDF8088018
:10D8400003F0080303924A460493602301934FF4C4
:10D850000073CDE90613002301A9059336F0C6FB3A
:10D86000A379384649469F0726D432F0CDFF164BA0
:10D87000A801022203EB8515D5F86C1B85F8A92BAE
:10D88000124A8D682A40062A06D0B2F5803F03D09E
:10D890000A6842F001020A600344012283F8A92BBE
:10D8A0002168637901F1340271600021D018306081
:10D8B000D15008B0BDE8F08733F0BCF8D7E700BF1F
:10D8C00058B504087C23012010180120070001002E
:10D8D00070B5134D82B00022382115F8AC0C0CF055
:10D8E0007FFCD8B155F8A06C0446C279022170685B
:10D8F000FCF7F8FB337B0B4A2146A5F19C00D2F8DC
