:0400000508000000EF
:020000040800F2
:1000000000000220D9690508C5950008D928020812
:10001000916A0508916A0508916A050800000000C8
:1000200000000000000000000000000059BC0008B3
:100030005BBC00080000000061A00008AD170108CB
:10004000916A0508916A0508916A0508916A050890
:10005000916A0508916A0508F7FF0008FDFF00088E
:1000600003000108090001080F000108C19B0008F6
:10007000D59B0008E99B0008FD9B0008119C000827
:10008000259C0008399C0008916A0508916A0508BA
:10009000916A0508916A0508916A0508150001082A
:1000A000819A0008A99A0008D19A00086D9A000860
:1000B000F99A00080D9B0008D1A00008916A050874
:1000C000916A0508916A0508916A0508916A050810
:1000D000916A0508E1990008916A0508ED99000800
:1000E0001D000108916A05085DBC0008499B0008D5
:1000F000719B0008999B0008359B00084D9C0008E7
:10010000916A0508916A0508219B0008916A050813
:10011000F9990008916A0508916A0508916A05082D
:10012000619C0008759C0008899C00089D9C000843
:10013000B19C00080000000000000000916A050862
:10014000916A0508916A0508916A0508A9BC00082A
:10015000C59C0008D99C000861B10008059A0008F8
:10016000916A0508916A0508916A0508916A05086F
:10017000916A0508916A0508916A05080000000067
:1001800000000000916A0508000000000000000067
:10019000916A05080000000000000000916A05084F
:1001A000000000000000000000000000916A050847
:1001B000916A0508916A0508916A0508916A05081F
:1001C000916A0508545A0500010000001C400120F6
:1001D000020300000102243D3C400120020C00000B
:1001E000000228005C4001200235040000002F00BE
:1001F00000000000000000000000000000000000FF
:1002000000000000000000000000000000000000EE
:1002100000000000000000000000000000000000DE
:1002200000000000000000000000000000000000CE
:10150000000FC0000000000000000000000000000C
:1015100000000000FFF00000FFF0000000000000ED
:101520000000000000000000003FFC000000000080
:10153000000000003FFF000000000000000000006D
:101540000000000000000000000000003DFFC0009F
:1015500000000000000000000000000000000FD5A7
:101560007003FFD57FC000000000000000000000F5
:1015700000000003F55C003FFFFFFFFFFFFFFFF5EA
:101580005700000000000000000000000000000004
:1015900000000000000003F555FF0000FFC0000040
:1015A0000000000000000000003D55700F5555552B
:1015B000FFFC00000FFFC0000000000000000F55FE
:1015C0005C03F555555555555555555700000000C8
:1015D000000000000000000000000000000000000B
:1015E000000F555557FC0FD5FF000000000000000C
:1015F00000000000F555700D555555555FFFFFFD76
:1016000055FC000000000000003D555C0355555599
:101610005555555555555700000000000000000075
:10162000000000000000000000000000FD555555BE
:101630005FFD5557F000000000000000000003D5DA
:1016400055700F5555555555555555555F0000006A
:1016500000000000F5555C03D555555555555555B9
:1016600055570000000000000000000000000000CE
:1016700000000000000003D5555555555555557CC3
:101680000000000000000000000F55557003F555E4
:101690005555555555555557C0000000000003D508
:1016A000555C00D5555555555555555557000000B5
:1016B000000000000000000000000000000000002A
:1016C000000F55555555555555555F000000000004
:1016D000000000003D5555F0003555555555555500
:1016E000555555C000000000000F55557C00FD55B4
:1016F0005555555555555557000000000000000040
:101700000000000000000000000000003D5555559D
:10171000555555555557F00000000000000000F5E4
:101720005555C00035555555555555555557C0005B
:10173000000000003D555570000FD55555555555C5
:101740005555570000000000000000000000000098
:1017500000000000000000F55555555555555555EC
:1017600055700000000000000003D55555C000353D
:101770005555555555555555FF000000000000F5CD
:101780005555700000FF55555555557FF5570000CC
:101790000000000000000000000000000000000049
:1017A000000FD55555555555555555557C00000FCD
:1017B000F00000000F555555C0003555555555558D
:1017C0005555FFC003FC00000003D55555700000BF
:1017D00003FF5555555FF3D557000000000000008A
:1017E0000000000000000000000000003D555555BD
:1017F000555555555555555F00003D700000000D7D
:10180000555555C0003555FFFFFFFFFFFFC0000FC6
:101810005C000000035555557000000003FFD557CC
:10182000FC0355570000000000000000000000000D
:1018300000000000000000355555555555555555CB
:10184000555557C000357C0000003D555555C0002A
:1018500035557C000000000000000D5F0000000F07
:10186000555555700000000000FFFF0003555F0054
:101870000000000000000000000000000000000068
:101880000000F55555555555555FD5555555C00072
:10189000355C000000F5555555C00035555C00001D
:1018A00000000000000D570000003D555555700028
:1018B000000000000000000F555C00000000000068
:1018C00000000000000000000000000003D5555596
:1018D0005555557FFCFD555555F000355F0000000E
:1018E000D5555555C00035557C0000000FFFFF0051
:1018F0000D57C00000355555557000000000000020
:1019000000000D555C000000000000000000000019
:10191000000000000000000F55555555555FF000C0
:101920000F55555570003557000003D5555555C016
:10193000003555F00000003D5557000D55C0000022
:10194000F55555557000000000000000003D557C25
:101950000000000000000000000000000000000087
:1019600000000D5555555557FC000003D555557CC5
:10197000003557C000035555F555C0003D55C00012
:101980000000F55557C00D55F00000D5557D557038
:101990000000000000000000F5557000000000008D
:1019A000000000000000000000000000003D555550
:1019B00055557F00000000D555555C003555C000D9
:1019C0000F5557F555C0000D55C0000000D55555B1
:1019D000F00D55700003D555FD5570000000000056
:1019E000000003D555F000000000000000000000DA
:1019F0000000000000000000F555555557F00000AC
:101A00000000F555555C003555C0003D555F355714
:101A1000C0000D55F0000003D555557C0D557000E4
:101A20000F5557CD55F0000000000000000355573A
:101A3000C0000000000000000000000000000000E6
:101A4000000000D55555557F00000000003D55555C
:101A50005F003D55F00035555C355700000F55705F
:101A60000000035555555C0F557C000D55570D551D
:101A7000C0000000000000000355570000000000F7
:101A80000000000000000000000000000000D5552C
:101A90005555F000000000000D555557000D5570CC
:101AA00000F5557C3557000003557C00000F555557
:101AB000555F03555C003D555F0D55C000000000AB
:101AC0000000003F555F0000000000000000000023
:101AD00000FC0FF00000000000D5555557C00FFF67
:101AE000FF00000F555557000D557000D555F035C6
:101AF00057000003555C00003D5555555703555C94
:101B00000035557C0D55C000000000000000F55563
:101B10007C0000000000000000000003DC3D7C00B1
:101B2000000000005555555F000D5D57C00003557E
:101B30005557000D557C03D555C03557000003554A
:101B40005F0000355557D557C3555F00F555700DEB
:101B500055C00000000000000FD555F00000000047
:101B60000000000000000F5C355C00000000005524
:101B700055555C000D5555FC0003555557C00D5586
:101B80005C035557C03557000003D557C000355585
:101B90007FFD55F3555700D555F00D55C000000099
:101BA000000003FD5557C0000000000000000000C9
:101BB000000D5CF55C00000000005555557C003DB3
:101BC00055555F0003555555C00F555C0F555F00C7
:101BD0003557000000D555C0003555700D5573D5EB
:101BE0005703D557C00D55C00000000003FF5555E1
:101BF0005F00000000000000000000003D5CD57C9C
:101C000003F00000005555557000F5555557C003B9
:101C1000555555C003555F0D555C00355700000004
:101C2000D555F0003555F00D5570D557C3555700B3
:101C30000D55C000000000FF5555557C0000000008
:101C400000000000000000355FD5703F700000000C
:101C5000555555F003D5555555F003555555C00309
:101C600055573D557C003557000000F5557C003533
:101C700057C00D5570D555CF555F000D55C00000AC
:101C80000000D5555555F000000000000000000090
:101C90000000F55F5570F570000000555555C00FF8
:101CA000555555557003555555C003D55735557085
:101CB00000355700000035555F003557000D557051
:101CC000F555CD555C000D55C000000000D55555AB
:101CD00057C00000000000000000000000D55F5564
:101CE000F3D570000000555555C00D555555557C20
:101CF00003555555C000D557F555F000F557000070
:101D0000003D5557C03557000D55703555FD557C74
:101D1000003D55C000000000D555557F0000000073
:101D20000000000000000003D57D55CF5570000075
:101D300000555555C03D5557FD555C03555555C08B
:101D400000D555D557C000D5570000000D5555C0DA
:101D50003D57FFFD55F035557555F0003555C00020
:101D6000000000D55555F000000000000000000004
:101D700000000F557555FD55F0000000D55555C0B4
:101D800035555F0D555C03555555C000F5555557F4
:101D90000000D55F0000000F5555F00D5555555505
:101DA000C03D555555C0003557C000000000D55501
:101DB00057C000000000000000000000000D55F5B5
:101DC00055F555C0000000D55555C0F5555C0D556D
:101DD0005C03555555C0003D55555F0000D55C006E
:101DE000000003D5557C0F55555557C00F55555715
:101DF000C00035570000000000D5557F00000000EE
:101E000000000000000000003D555557F555C0008A
:101E10000000F55555C0D5555C0D555C0F55555511
:101E2000C0000D55555C0000D55C00000000D55584
:101E30005F03D555555700035555570000355700DA
:101E400000000000D555F000000000000000000078
:101E5000000FF0F557555FD555C0000000355555BA
:101E6000C0D5555C3D555C0D555555C0000D5555BB
:101E70007C0000D55C00000000F55557C0D55555D5
:101E80005F000355555F000035570000000000F566
:101E90005FC0000000000000000000003D73D5514D
:101EA000557D5557C0000000355555C0D5555FF5D7
:101EB000555C0D555555C0000D5555700000D55C4D
:101EC000000000003D5555F0FD55557C000355556B
:101ED0005C000035570000000000355C0000000089
:101EE00000000000000000357F55455575557F0006
:101EF0000000003D5555F0D55555F5557C3D5555DF
:101F000057C0000D5555F00000D55C000000000DD5
:101F100055557C0FD557F0000355557C00003557BB
:101F20000000000000355C00000000000000000020
:101F30000000F57D551557D55570000000000D5572
:101F40005570D55555555570F555555700000F55D9
:101F500057C00000D55C000000000F55555F00FF22
:101F6000FF000003D555F0000035570000000000C9
:101F7000355C0000000000000000000003D5F555AE
:101F800055575555F0000000000F555570D5555563
:101F90005555F0D5555557000003555700003FD50E
:101FA0005C0000000003D55557C00000000000D5BC
:101FB00055C0000FF55700000000003D5C00000018
:101FC000000000000000000F55D55555555557C06D
:101FD000000000000355557CD555555557C3D555C0
:101FE000555F00000355570000F5555C00000000E8
:101FF00000F55555F00000000000D555C0003D55D6
:102000005700000000000D5C000000000000000010
:1020100000000D5555555555555F00000000000353
:10202000D5555FF55555557F0F5555555C00000347
:1020300055570003D5555F00000000003D55557F02
:102040000000000000D555C000F55557C000000045
:10205000000D5C000000000000000000003D555530
:10206000555555557C000000000000F55557FD55AD
:102070005557F0FD5555557C000003D557000355C5
:102080005557C0000000000F555557C00000000014
:10209000F555C000D55555F0000000000D5C00005E
:1020A000000000000000000035555555555557F00B
:1020B000000000000000355555FF5557FF03D5556A
:1020C000555570000000D55F0003555555F00000D0
:1020D000000003D55555F0000000003557C000D56D
:1020E00055557C000000000D5C0000000000000061
:1020F000000000F555555555555F00000FFC0000D8
:10210000003D55557FFFFF003F55555555F00000E8
:1021100000D57C000F5555557C0000000000F5559A
:10212000557F00000000355F0003D555555F000066
:1021300000000D5C00000000000000000003D55509
:1021400055555555FC0003FD5C0000000F555557D3
:10215000F00003F555555557C0000000D5F0000DAF
:102160005555555C00000000003F555557C0000014
:1021700000357C000355555557000000000D5C00EC
:1021800000000000000000000355555555555FC084
:10219000003F555C00000003D555557FFCFF5555A9
:1021A00055555700000000F7C0000D5555555C000F
:1021B0000000000003D55555FC0000003DF0000371
:1021C00055555557000000000D5C00000000000050
:1021D0000000000F5555555555FC000FF5555C0096
:1021E000000000F55555555FD5555555555F000014
:1021F00000003F00000D5555555C00000000000038
:10220000F555555FC000000FC000035555555700E8
:102210000000000D5C0000000000000000003D55C3
:102220005555555FC03FFD55557C000000003D559C
:1022300055555555555555557C000000000000007A
:102240000D55FF555C0000000000003F555555FF3F
:10225000000000000003557FD557C00000000D5C52
:10226000000000000000000000355555555557FF8F
:10227000F5555557F0000000000F5555555555556B
:10228000555557F0000000000000000D55C3D55C07
:1022900000000000000003D5555557FC0000000069
:1022A000035570F555C00000000D5C0000000000F3
:1022B00000000003F55555555555555555555F00CA
:1022C0000000000003F5555555555555555F000064
:1022D0000000000000000D57C3D55C0000000000A6
:1022E0000000FD5555555C000000000355F0F55504
:1022F000C00000000D5C00000000000000003F5521
:102300005555555555555555557C00000000000054
:102310003D555555555555557C00000000000000B1
:10232000000D57C3557C000000000000000FD5557C
:10233000555C000000000355F0D555C00000000DAD
:102340005C000000000000000FF55555555555552F
:1023500055555555F00000000000000FD555555556
:10236000555557F000000000000000000D55FF55C6
:10237000F00000000000000000FD55555C0000006A
:102380000003557FD57FC00000000D5C00000000F9
:10239000000000FD55555555555555555557FFC02D
:1023A00000000000000000FD55555555557F000008
:1023B000000000000000000D555557C0000000004F
:1023C000000000000FD5555C000000000355555576
:1023D000F0000000000D5C00000000000003D55577
:1023E0005555555555555555FFD5C00000000000B1
:1023F00000000FF555555557F00000000000000093
:1024000000000F55557F0000000000000000000094
:10241000FF555C0000000003D5555FC000000000C0
:102420000D5C0000000000003F55555555555555B1
:1024300055557DD555C000000000000000003FFD4F
:1024400055557F0000000000000000000003F55F0C
:10245000F00000000000000000000003F57C000018
:10246000000000FD57FC00000000000D5C000000B3
:10247000000000F555555555555555555555555769
:10248000C00000000000000000000FFFFFF000008F
:102490000000000000000000003FFC000000000001
:1024A000000000000000003FF000000000000FFFEF
:1024B0000000000000000FFC000000000003D555E4
:1024C0005555555555555555555557000000000063
:1024D00000000000000000000000000000000000FC
:1024E00000000000000000000000000000000000EC
:1024F00000000000000000000000000000000000DC
:1025000000000000000000000F5555555555555569
:1025100055555555577F0000000000000000000091
:1025200000000000000000000000000000000000AB
:10253000000000000000000000000000000000009B
:10254000000000000000000000000000000000008B
:102550000000003D555555555555555555555D7F10
:10256000F00000000000000000000000000000007B
:10257000000000000000000000000000000000005B
:10258000000000000000000000000000000000004B
:102590000000000000000000000000000000F555F1
:1025A00055555555555555555575577000000000F2
:1025B000000000000000000000000000000000001B
:1025C000000000000000000000000000000000000B
:1025D00000000000000000000000000000000000FB
:1025E000000000000000000003D555555555555515
:1025F0005555555557FD70000000000000000000C3
:1026000000000000000000000000000000000000CA
:1026100000000000000000000000000000000000BA
:1026200000000000000000000000000000000000AA
:102630000000000F5555555555555555555555FDE7
:10264000D5F00000000000000000000000000000C5
:10265000000000000000000000000000000000007A
:10266000000000000000000000000000000000006A
:1026700000000000000000000000000000000D55F8
:10268000555555555555555555555557C00000008C
:10269000000000000000000000000000000000003A
:1026A000000000000000000000000000000000002A
:1026B000000000000000000000000000000000001A
:1026C0000000000000000000003D555555555555CF
:1026D0005555555555557F0000000000000000007D
:1026E00000000000000000000000000000000000EA
:1026F00000000000000000000000000000000000DA
:1027000000000000000000000000000000000000C9
:1027100000000000F555555555555555555555551D
:1027200057F0000000000000000000000000000062
:102730000000000000000000000000000000000099
:102740000000000000000000000000000000000089
:10275000000000000000000000000000000003D5A1
:1027600055555555555555555555555F0000000063
:102770000000000000000000000000000000000059
:102780000000000000000000000000000000000049
:102790000000000000000000000000000000000039
:1027A000000000003F000000000F555555555555DD
:1027B000555555555557F7C0000000000000000062
:1027C0000000000000000000000000000000000009
:1027D00000000000000000000000000000000000F9
:1027E0000000000000000000000000000FFFFFF7E5
:1027F000F00000003D555555555555555555555505
:102800005555C0000000000000000000000000005E
:1028100000000000000000000000000000000000B8
:1028200000000000000000000000000000000000A8
:102830000000000000000FFD5555557F00000035D9
:1028400055555555555555555555555555C0000077
:102850000000000000000000000000000000000078
:102860000000000000000000000000000000000068
:102870000000000000000000000000000000000058
:10288000000D5555555557C00000F5555555555532
:10289000555555555555555FC000000000000000C6
:1028A0000000000000000000000000000000000028
:1028B0000000000000000000000000000000000018
:1028C0000000000000000000000000000D555555FC
:1028D0005555F0FF03D55555555555555555555535
:1028E00055555C00000000000000000000000000E2
:1028F00000000000000000000000000000000000D8
:1029000000000000000000000000000000000000C7
:10291000000000000000000F55555555557FC30FAE
:1029200055555555555555555555555D557C0000D2
:102930000000000000000000000000000000000097
:102940000000000000000000000000000000000087
:102950000000000000000000000000000000000077
:10296000000003F55555555555FFFD555555555521
:102970005555555555555FD5F00000000000000035
:102980000000000000000000000000000000000047
:102990000000000000000000000000000000000037
:1029A00000000000000000000000000000003F5593
:1029B00055555555557555555555555555555555A7
:1029C00055557FC00000000000000000000000001E
:1029D00000000000000000000000000000000000F7
:1029E00000000000000000000000000000000000E7
:1029F00000000000000000000003D5555555555556
:102A0000555555555555555555555555557C0000F9
:102A100000000000000000000000000000000000B6
:102A200000000000000000000000000000000000A6
:102A30000000000000000000000000000000000096
:102A40000000000000F5555555555555555555553F
:102A50005555555555D555555C00000000000000F2
:102A60000000000000000000000000000000000066
:102A70000000000000000000000000000000000056
:102A80000000000000000000000000000000000046
:102A90003D555555555555555555555555555555FE
:102AA000D555555C0000000000000000000000004B
:102AB0000000000000000000000000000000000016
:102AC0000000000000000000000000000000000006
:102AD00000000000000000000000000F5555555593
:102AE00055555555555555555555557F55555C00BA
:102AF00000000000000000000000000000000000D6
:102B000000000000000000000000000000000000C5
:102B100000000000000000000000000000000000B5
:102B200000000000000003D5555555555555555525
:102B300055555555555557FFFF5C000000000000E6
:102B40000000000000000000000000000000000085
:102B50000000000000000000000000000000000075
:102B60000000000000000000000000000000000065
:102B70000000F5555555555555555555555555550F
:102B800055555F03FC00000000000000000000003D
:102B90000FFFC00000000000000000000000000067
:102BA000000000000000FFF0000000000000000333
:102BB000FF00000000000000000000FF003D555530
:102BC0005555555555555555555555555557FC0061
:102BD00000000000000000000000000D55C00000D3
:102BE00000000000000000000000000000000000E5
:102BF0000FD5700000000000000003570000000027
:102C00000000000000FFD7000D555555555555558E
:102C10005555555555555555555FF0000000000068
:102C20000000000000000D55C00000000000000082
:102C300000000000000000000000003D5570000092
:102C4000000000000003570000000000000000FF2B
:102C5000D557000F5555555555555555555555553D
:102C6000555555555570000000000000000000004B
:102C7000000D55C000000000000000000000000032
:102C8000000000000000F55570000000000000008A
:102C90000357000000000000000FD5557F0003D54A
:102CA00055555555555555555555555555755555B4
:102CB0007000000000000000000000000D55C00082
:102CC0000000000000000000000000000000000004
:102CD00003D55570000000000000000F57000000F1
:102CE00000000000FD5557F00000F55555555555AD
:102CF00055555555555555555D5555F00000000035
:102D0000000000000000000D55C0000000000000A1
:102D100000000000000000000000000F555570008A
:102D20000000000000000D57C000000000000FD59B
:102D3000555F0000003D5555555555555555555550
:102D400055555557FF7FC0000000000000000000EF
:102D500000000D55C0000000000000000000000051
:102D60000000000000003D5555F00000000000008C
:102D7000000D55C00000000000FD55555C0000002E
:102D80000F5555555555555555555555555555731B
:102D9000F00000000000000000000000000D55C021
:102DA0000000000000000000000000000000000023
:102DB00000F55555C0000003FF0000000D55C00090
:102DC0000000000FD555557C00000003D555555522
:102DD0005555555555555555555570000000000031
:102DE00000000000000000000D55C00000000000C1
:102DF000000000000000000000000003D55555C091
:102E000000000F57FF00000D55C0000000003D55A9
:102E100055557000000000D555555555555555551B
:102E20005555555555700000000000000000000089
:102E30000000000D55C00000000000000000000070
:102E4000000FF00000000F555555C000003D5557CC
:102E5000F0000D55C000000000F5555555700000FC
:102E60000000F555555555555555555555555577FA
:102E7000F0000000000000000000000000000D5500
:102E8000C000000000000000000000003D700000D5
:102E9000000D555555C00000F555557C000D55C029
:102EA0000000000FD555555570000000003D5555E8
:102EB000555555555555555555F55F0000000000C1
:102EC0000000000000000000000D55C000000000E0
:102ED00000000000000000357C0000003D55555505
:102EE000C00000D555555C000D55C00000003D5593
:102EF00055555570000000000D5555555555555503
:102F0000555555557D570000000000000000000099
:102F1000000000003D55C00000000000000000005F
:102F20000000355C000000F5555555C00003D5552F
:102F3000555C000D55C0000000F55555FF55F000DB
:102F40000000000F55555555555555555555557D4E
:102F500057000000000000000000000000000035E5
:102F600055C00000000000000000000000355F00B8
:102F70000000D5555555C000035555555C000D55FD
:102F8000C0000003D5555FC355C00000000003D545
:102F9000555555555555555555555FFF0000000081
:102FA000000000000000000000003555C0000000D7
:102FB00000000000000000003557000003D5555503
:102FC00055C0000F5555555C000D55C00000035508
:102FD000557C0355F00000000000F555555555553A
:102FE000555555555557C000000000000000000021
:102FF00000000000003555C0000000000000000087
:103000000000003557C000035555F555C0000D555B
:1030100055555C000D55C000000F5555F003557017
:103020000000000000355555555555555555555519
:1030300055C000000000000000000000000000007B
:103040003555C0000000000000000000FF003555AD
:10305000C0000F5557F555C0000D5555F55C000DD6
:1030600055C000003D5557C00355700000000000DA
:103070003D55555555555555555555F5F0000000DC
:1030800000000000000000000000003555C00000F6
:103090000003FFFFFFFFFFD7003555C0003D555F20
:1030A0003557C0003D5557F55C000D55C000003543
:1030B000555F0003557000000000000FD5555555B1
:1030C000555555555555FF300000000000000000D3
:1030D0000000000000003555FFFFFFFFFF5555556C
:1030E000555557C03D55F00035555C3557000035F6
:1030F000555F355C000D55C00000F5557C0003554B
:1031000070000000000000F55555555555555555B2
:103110005FC3F0000000000000000000000000009D
:103120000035555555555555555555555555C00DA1
:10313000557000F5557C3557000035555FF55C003E
:103140000D55C00003D555F0000355700000000078
:1031500000003D555555555555555570C00000005A
:10316000000000000000000000000000355555552B
:10317000555555555555555555C00D557000D55596
:10318000F0355700003D5557555C000D55C0000304
:103190005555C0000355700000000000000F555544
:1031A0005555555555555FC0000000000000000002
:1031B0000000000000000035555555555555555532
:1031C00055555555C00D557C03D555C03557000094
:1031D0000D5555557C000D55C0000F5557C00003C7
:1031E000557000000000000003D555555555555544
:1031F000555C00000000000000000000000000001E
:10320000000035555555555555555555555555C0CD
:103210000D555C035557C0355700000D555555F0F9
:10322000000D55C0000D55570000035570000000FB
:1032300000000000F5555555555555555C000000EA
:10324000000000000000000000000000003D555597
:1032500055555555555555555555C00F555C0F5538
:103260005F00355700000F555557C0000D55C00081
:103270000D555F0000035570000000000000003D88
:10328000555555555555555C00000000000000008F
:1032900000000000000000000D55555555555555CE
:1032A0005555555555C003555F0D555C00355700B4
:1032B0000003D5555F00000D55C0003D555C000072
:1032C000035570000000000000000F55555555557E
:1032D00055555C00000000000000000000000000E8
:1032E0000000000F555555555555555555555555D3
:1032F000C00355573D557C003557000000FD557CF7
:1033000000000D55C00035555C00000355700000ED
:10331000000000000003D55555555555555C00007B
:103320000000000000000000000000000000035545
:10333000555555555555555FFFF555C003D557356E
:1033400055700035570000000FFFF000000D55C00C
:103350000035557C0000035570000000000000009F
:1033600000FD5555555555555C0000000000000006
:1033700000000000000000000003F55555555555AC
:1033800055555F003555C000D557F555F000F55738
:1033900000000000000000000D55C000F555700051
:1033A0000003557000000000000000000F55555547
:1033B0005555555C000000000000000000000000B2
:1033C00000000000003FFFD55555555555570035B5
:1033D00055C000D555D557C000D557000000000096
:1033E0000000000D55C000D555F000003F55F0001D
:1033F0000000000000000003D555555555555C00F0
:1034000000000000000000000000000000000000BC
:103410000000FFFFFFD555555F003555C000F5553D
:1034200055570000D55F0000000000003FFF0D551C
:10343000C000D555C0000FF5557C0000000000000D
:10344000000000F555555555555F0000000000007F
:10345000000000000000000000000000000000006C
:10346000FFFFFFFC003D55C0003D55555F0000D5F6
:103470005C00000000000FF557FD55C000D555C099
:1034800000FD55555FF000000000000000003D55B4
:103490005555555557C000000000000000000000C1
:1034A000000000000000000000000000000000001C
:1034B0000D55C0000D55555C0000D55C00000000A6
:1034C00000FD55555D55C000D555C003D555555522
:1034D0007FC0000000000000000F555555555555A0
:1034E000F0000000000000000000000000000000EC
:1034F000000000000000FFF00000000D55C0000DAE
:1035000055557C0000D55C000000000FD555555581
:1035100055C003D557C0035555555555C00000003B
:103520000000000003D555555555557C000000009E
:10353000000000000000000000000000000000008B
:103540000FD57F0000000D55C0000D5555700000CF
:10355000D55C00000000FD5555555555C003555725
:10356000000F5555555555F00000000000000000B3
:10357000FD55555555555F00000000000000000046
:103580000000000000000000000000FD5557F000A2
:10359000000D55C0000D5555F00000D55C00000031
:1035A0000FD55555555555C0035557000D55555513
:1035B00055557000000000000000000F555555558E
:1035C0005557FC0000000000000000000000000053
:1035D000000000000003D555557C00000D55C000CB
:1035E0000F5557C00000D55C0000003D555555559E
:1035F0005555F0035557000D55557F555570000032
:1036000000000000000003FD55555555555F0000B2
:1036100000000000000000000000000000000000AA
:103620000F5555555F00000D55C00003555700005C
:103630003FD55C000003F55555555555557003555C
:1036400057000D555FF3D555F00000000000000055
:1036500000000F555555555557C00000000000009B
:1036600000000000000000000000003D55555557C7
:10367000C0000D55C0000355570000F5555C000013
:103680000F5555555555555570035557000D555CFB
:1036900000D555C000000000000000000003D55513
:1036A00055555555FC0000000000000000000000CA
:1036B000000000000000F555555555F0000D55C0AF
:1036C000000355570003D5555F00003D555555552E
:1036D00055555570035557000D555C00D557C00022
:1036E000000000000000000000F55555555555DF5D
:1036F000F0000000000000000000000000000000DA
:1037000003D55555555570000D55C00003D55700CC
:1037100003555557C000F55555555555555570032A
:103720005557000D555C00D5570000000000000003
:10373000000000003D5555555555557FF0000000DF
:103740000000000000000000000000035555555522
:103750005570000D55C00000D55F0003555555F05C
:1037600000D555555FFFFF555570035557000D5552
:103770005C03D55F00000000000000000000000DA9
:10378000555555555555557F000000000000000067
:103790000000000000000F555FFFD555F0000D55EB
:1037A000C00000D57C000F5555557C03D555555CA0
:1037B0000003F55570035557000F555C03557C0009
:1037C000000000000000000000000F555555555541
:1037D000555557F0000000000000000000000000F8
:1037E000000D557C00D555C0000D55C00000D5F02A
:1037F000000D5555555C035555557C00003D5570E1
:103800000355570003555C0F557000000000000081
:10381000000000000003D55555555555555570000D
:103820000000000000000000000000000D55F00046
:10383000D555C0000D55C00000F7C0000D555555B9
:103840005C035555557000000F55F00355570003A4
:10385000555F3D55F0000000000000000000000032
:1038600000F5555555555557FFF000000000000074
:10387000000000000000003D55C000D557C0000DFD
:1038800055C000003F00000D5555555C035555FDD2
:10389000F000000355C003555700035557F557C0B6
:1038A0000000000000000000000000003D555555DC
:1038B0005555557000000000000000000000000099
:1038C00000003555C03FD55700000D55C000000021
:1038D00000000D55FF555C0F5557CFC00000035534
:1038E000C00355570003D555D55F00000000000008
:1038F000000000000000000F555555555555F000CB
:10390000000000000000000000000000003555C06D
:10391000F5555F00000D55C000000000000D55C3B7
:10392000D55C0D55570000000003D5C00355570066
:1039300000D555557C00000000000000000000008C
:10394000000003F555555555FFC00000000000006C
:1039500000000000000000003555F3D5557C000044
:103960000D57C000000000000D57C3D55C0D555F1A
:103970000000000000D5C00355570000F55555F074
:1039800000000000000000000000000000003555AD
:1039900055555570000000000000000000000000B8
:1039A00000000035557F55557000000D5700000090
:1039B0000000000D57C3557C0D555C000000000051
:1039C000D7C003557F0000355557C00000000000E8
:1039D0000000000000000000003D555555557C00DA
:1039E000000000000000000000000000000035554D
:1039F000555555F000000D570000000000000D5512
:103A0000FF55F00D557C0000000000D7000355F075
:103A100000003D557F000000000000000000000095
:103A2000000000000F555555555F000000000000D4
:103A3000000000000000000000355555555FC00033
:103A4000000D5F0000000000000D555557C00D55DA
:103A5000F00000000000FF0003D5C000000FFFF0E1
:103A60000000000000000000000000000000000353
:103A7000F5555555570000000000000000000000FB
:103A8000000000003D555555FC0000000D5C000095
:103A9000000000000F55557F000D57C000000000CA
:103AA00000000000D5C00000000000000000000081
:103AB00000000000000000000000003D57D55157F5
:103AC0000000000000000000000000000000000FE7
:103AD00055557FC00000000FFC00000000000003EF
:103AE000F55FF0000D5F000000000000000000D74F
:103AF000C000000000000000000000000000000006
:103B00000000000000000D55FD57570000000000A8
:103B10000000000000000000000003FFFFF00000B4
:103B200000000000000000000000003FFC00000F4B
:103B3000FC000000000000000000FF00000000008A
:103B40000000000000000000000000000000000075
:103B5000000FD57F5757C000000000000000000094
:103B60000000000000000000000000000000000055
:103B70000000000000000000000000000000000045
:103B80000000000000000000000000000000000035
:103B900000000000000000000000000000F5735766
:103BA000FCC0000000000000000000000000000059
:103BB0000000000000000000000000000000000005
:103BC00000000000000000000000000000000000F5
:103BD00000000000000000000000000000000000E5
:103BE00000000000000000003FF3DF0FC0000000F5
:103BF00000000000000000000000000000000000C5
:103C000000000000000000000000000000000000B4
:103C100000000000000000000000000000000000A4
:103C20000000000000000000000000000000000094
:103C30000000000000FC0000000000000000000088
:103C40000000000000000000000000000000000074
:103C50000000000000000000000000000000000064
:103C60000000000000000000000000000000000054
:103C70000000000000000000000000000000000044
:10800000D0E907239A423CBFC1685218D01A704782
:10801000D0E9092300699A4238BF1218D31A0138EF
:10802000C01A7047D0E90902131A584258417047E4
:10803000036A41690246C85CD16801338B4228BF9C
:10804000002313627047436A8269D154436A02690C
:108050000133934228BF0023426B4362D36843F04D
:108060008003D3607047436B188810F010001EBF68
:108070001A889B8801207047436B99891A88890662
:1080800010B592B2044607D5900605D5E26A2AB328
:108090009888216B80B29047636B99891A8809068A
:1080A00092B210D510060ED5D4E909128A4223D017
:1080B000A169895CC9B2998021690132B2FBF1F0F2
:1080C00001FB1022A262998A1A88C90592B204D5CE
:1080D000D20744BF4FF6F7721A8010BD9B88E26941
:1080E0006169DBB28B54E369E2680133B3FBF2F1FF
:1080F00002FB1133E361CFE7DA6822F08002DA6035
:10810000E1E730B5064C23886380251D20340FCC71
:108110000FC594E8070085E80700002030BD00BFC8
:10812000901A002030B5074C2546638825F8203B7F
:1081300004340FCC0FC594E8070085E80700002041
:1081400030BD00BF901A0020064B002193F83C2060
:108150001AB1196483F83C10F8E71A6C01321A64FA
:10816000F4E700BF901A0020014B5B688360704702
:10817000001000E00D4A0E4BD2F8D810C2685B68C0
:108180000132C26082685B1A9B1AD0E90421D218BE
:1081900041F10001C0E90421426883609342026812
:1081A00088BF4360934238BF03607047901A002035
:1081B000001000E070472DE9F04700289DF82040AE
:1081C00042DB3D4D2D682E8886423DDB00293BDB9E
:1081D0006D888D4238DB0244964235DBCE18B542BD
:1081E00032DB6025694365B2AF0004EB840447EAE3
:1081F000041400F003077F004FEAA20E2543C7F1E5
:108200000607012402F0030204FA07F7BEEBA00FF1
:1082100001EBA0064FEA420228486DB207F1FF3C8D
:1082200014D1C2F1070204FA02F2013A82EA0C0206
:10823000013B304490F9001085EA0104144061408C
:10824000013B00F8601BF5D2BDE8F087C2F10602E1
:108250009440C4F10009714482194FF000087F4234
:1082600005EA0C0C013C05EA090992F800E00EEA67
:10827000070EA2EB060A4EEA0C0E82F800E01AF88E
:1082800001E008F101080EEA040E4EEA090E43452A
:108290000AF801E002F16002E7D1602253430024B2
:1082A000721C16196718BE4203DB6034A342F8D172
:1082B000CAE785550136F6E700000020687D0120F9
:1082C000214A2249B2F818310133F0B59DB21BB2F0
:1082D0000420002BA2F81831486133DB1C4B5F6887
:1082E000388885422EDA1B4EB3689B062AD41A4B77
:1082F0001A4CD3F8B81021F00101C3F8B810D968AE
:1083000041F03D51D960D2F81C110C44C3F8C4406F
:108310007C79C3F8BC40013C346192F8204144B1FF
:108320000138854202BFD3F8B80040F01000C3F80E
:10833000B800D3F8B800603140F00100C3F8B800CD
:10834000C2F81C11F0BD00BF901A0020003C014093
:1083500000000020001000A000640240687D0120A1
:108360000E4BDA68D20310D4DA68D1060FD4DA687B
:10837000D2050ED4DA6812F0E00F0CD1DB6813F0EE
:10838000020F0CBF0920082070470120704706200B
:108390007047022070470720704700BF003C024032
:1083A00007B509238DF80730FFF7DAFF8DF80700CE
:1083B0009DF80730012BF7D09DF8070003B05DF85A
:1083C00004FB70477047704701207047034BD3E9A7
:1083D0004903C01AC0F30A00704700BF901A00207A
:1083E000064AD2E949138B42FDD0D1180133C3F3B9
:1083F0000A0391F82C01C2F828317047901A002026
:10840000044BD3F82C0920B1D3F82C09431F584250
:1084100058417047901A0020012380F84930704776
:10842000044BD3E94903C01AC0F30A00C0F5006049
:10843000704700BF901A002010B5D0F8E835044608
:108440001B699847032384F81231002010BD08B53A
:1084500090F8123180F81331042380F81231D0F8EB
:10846000E835DB689847002008BD08B5D0F8E4354A
:10847000DB6903B19847002008BD08B5D0F8E435A2
:108480001B6A9847002008BD08B5D0F8E4355B6A40
:108490009847002008BD10B5074CA068FF2808D0F9
:1084A0000649D1F8302901F6341100F035F8FF23E0
:1084B000A360002010BD00BF00000020901A002023
:1084C000432301480B8070470C0000201223014811
:1084D0000B8070474F000020042301480B80704739
:1084E00061000020704770477047704770477047C1
:1084F000044B00200522C3F82C29C3F83C09C3F81B
:1085000040097047901A0020024B0020C3F82C0944
:10851000704700BF901A0020212838B50C461BD0A8
:1085200022282BD0202815D1A1B1072A12D11A4D0B
:10853000D5F8403913B10968002098472368C5F879
:108540004439237985F84839637985F84939A3791D
:1085500085F84A39002038BD0029FBD0072AF9D117
:108560000D4BD3F844290A6093F848290A7193F80F
:1085700049294A7193F84A398B71EBE70029E9D010
:10858000022AE7D1044BD3F83C39002BE2D009880A
:1085900000209847DEE700BF901A002030B50F4C4E
:1085A000D4E949329A1AC2F30A020A44B2F5006FBA
:1085B00012D801440022814204D10AB1C4F8243106
:1085C000002030BDE21810F8015B82F82C51013315
:1085D000C3F30A030122EEE70220F2E7901A00201B
:1085E000034B93F87009003818BF0120704700BF93
:1085F000901A0020034B93F87009032894BF0020C1
:1086000001207047901A0020004870470424002081
:10861000837B042B0DD0074BD3F898200132C3F88D
:108620009820426004228273D3F89C200132C3F860
:108630009C207047B88C00202DE9F341038A86897D
:10864000B6B205460C461E404FF0004816B902B0BF
:10865000BDE8F081B6FA86F328FA03F2D24391B26C
:10866000298216401B3B002C3ED0042BEED8DFE8BD
:1086700003F037312B250300E368EF6A23B19B68D1
:1086800013B1B9B2201D9847636A2BB19B681BB127
:10869000B9B204F11C009847E36B2BB19B681BB186
:1086A000B9B204F134009847636D002BCED09B68BB
:1086B000002BCBD0B9B204F14C0003E0E368696B46
:1086C0005B68201D9847C1E7636AA96B5B6804F18A
:1086D0001C00F7E7E36BE96B5B6804F13400F1E73A
:1086E000636D296C5B68E6E7042B06D8DFE803F0CE
:1086F0000D0B09070300EB6A0193019BA6E76B6B67
:10870000FAE7AB6BF8E7EB6BF6E72B6CF4E738B501
:10871000134C0023A07BE0B125688D4219D1114C88
:1087200003F581751AB904EB0514A27138BD04F183
:10873000180101EB43239A4209D1831E5842584144
:1087400004EB05144CF0D4F80123A371EEE70020EC
:10875000F6E70133082B04F11004DBD1E6E700BF94
:10876000D08C0020B87C0020174838B5002380F852
:10877000A03000F1180425688D421ED1A57B032D81
:108780001BD1124C03F581754AB904EB051404237F
:10879000A371D0F89C300133C0F89C3038BD04F18F
:1087A000180000EB4320131A5842584104EB0514FB
:1087B0004CF09EF80123A371F0E70133082B04F17C
:1087C0001004D8D1EAE700BFB88C0020B87C0020A4
:1087D00010B5314C09F016F9D4F8A43942F20F72F1
:1087E000C31A934213D894F8A8390133DBB2092B8A
:1087F00084F8A8394CD9D4F8AC09002107F0D5FC8D
:10880000D4F8B0090021BDE8104007F0CEBC002329
:1088100084F8A839B4F81831C4F8A4095A1EE42A17
:1088200036D91E4A516809790B449BB2A3F1FF0166
:1088300014292ED96FF498710B44142B8CBF00238C
:1088400001235B0094F8B41982F86530994208D08E
:10885000022B84F8B4390CBF114B124B1360043354
:108860005360B4F8B63901339BB2012B88BF0023A3
:10887000A4F8B63953681B79C3F100038CBF0121FA
:108880000021A4F81831002384F82011C4F81C3109
:1088900010BD0123D6E700BF901A00200000002081
:1088A000BCD30508C6D3050890F84820531C0244E1
:1088B000DBB280F8483082F8341090F849200AB1D1
:1088C000132B01D94CF0F7BA7047002280F84920E9
:1088D0004CF0F1BA70B5134D044695F8B839002B39
:1088E000FBD16618B44204D1002070BD012009F00C
:1088F00005F9D5F8BC39D5F8C0290133C3F30A030B
:108900009342F3D0D5F8BC3914F8012B2B4483F8EB
:10891000C429D5F8BC390133C3F30A03C5F8BC39FF
:10892000E0E700BF901A002038B50C461146FFF76B
:1089300067FD48B1054D002AD5F8CC3004DD20464E
:10894000FFF7C8FFD5F8CC3038BD00BF882B00201A
:10895000F0B585B0D0F8CC1590F8CC650291D0F880
:10896000D0150391012180F8111106F01F01B0F814
:10897000D22590F8CD75B0F8CE35B0F8D055C0F806
:1089800040210129044600F00981022900F01A81E2
:10899000002940F09181092F5ED8DFE817F0B6007A
:1089A000F4005D00C8005D0057000A005D00A900EA
:1089B00076001D0A022DADF806200BD0032D25D020
:1089C000012D49D1D0F8EC351B68A0780DF10601D6
:1089D000984709E0D0F8E43580789B6A0DF10601EC
:1089E00098474570C4F8F005BDF80620002A47D026
:1089F000BDF80E30002B43D09A4228BF1A46ADF87E
:108A00000620014620464CF05BF939E0DBB2052B2D
:108A100022D8DFE803F003070B0F1317D0F8EC356B
:108A20005B68D2E7D0F8EC359B68CEE7D0F8EC3540
:108A3000DB68CAE7D0F8EC351B69C6E7D0F8EC353F
:108A40005B69C2E7D0F8EC359B69BEE72A4303D1E6
:108A500090F81211032903D120464CF085F80FE05D
:108A600003F07F05016980F8145163F30A120B6863
:108A70001A430A604CF038F92DB1022384F8123100
:108A8000002005B0F0BD0123F8E7D9B28C4D0129D3
:108A900085F8D010E0D890F81231022B0FD0032BBC
:108AA000DAD1C1B9022380F81231D0F8E43580F868
:108AB00010115B68984720464CF016F9E0E7002952
:108AC000F9D00121032380F8101180F812312046DB
:108AD0004CF00CF8EFE790F810110129EBD0D0F82A
:108AE000E4355B68984795F8D01084F81011EEE7EC
:108AF000012AB1D190F81231022B04D0032BABD153
:108B000000F588717EE76F497CE790F81231023BEF
:108B1000012BA1D86A4B0022C3F8D820D0F8182125
:108B200012B10222C3F8D820674902226AE7012B5A
:108B300008D1C4F81831D4F8E43502A99B6820465E
:108B40009847B8E7022B9BD1EBB2002B98D1036971
:108B50002D0A023D5A68032D13D8DFE805F0020CF8
:108B60000E10022363F30612554BC3F8DC200123D9
:108B700084F816319FE70323F4E70423F2E7052383
:108B8000F0E70123EEE790F81221023A012A3FF6BE
:108B900063AF012B7FF474AF0023CAE790F8123162
:108BA000032B7FF459AFEDB2012D3FF655AFD0F84E
:108BB000E43502A99B689847BDF80E30002B7FF47E
:108BC0005FAF78E706F06006202EE9B205D1D0F855
:108BD000E43502A99B68984752E7012F33D0032F51
:108BE00021D0002F7FF44CAF90F81231022B5DD0D2
:108BF000032B7FF431AF15F0800F4FF028031BBF1C
:108C000001F07F0103FB010103FB010191F81E311B
:108C100008BF91F876332A49003B18BF012341F879
:108C2000E03F0222EEE690F81221022A3ED0032A0B
:108C30007FF412AF002B7FF47EAF4A063FF47BAF88
:108C40004BF060FF77E790F81221022A2ED0032A1A
:108C50007FF402AF002B7FF413AF11F07F023FF4DB
:108C60002AAF6DB22823002DB5BF03FB020303FB1F
:108C7000010303F58E7303F55D73002199701A707B
:108C8000E90F00EB82025970002DB4BF9269526D5A
:108C9000D9781368023923F4001301298CBFC3F378
:108CA0000071012161F31C73136044E74B063FF42C
:108CB000E7AE4BF027FFE3E606F08001F9E700BFDF
:108CC000882B00205C2C0020602C002010B504466E
:108CD00071BB90F81131032B1BD1D0F89023D0F841
:108CE0007C339A4217D9C178012908BFD0F8801384
:108CF000A2EB030204BFC918C0F88013934228BF37
:108D00001346C0F890239BB2D0F8802300214CF08A
:108D10009BF8002010BDD0F8E4351B6923B190F812
:108D20001221032A00D1984720464BF0DDFFF0E7DF
:108D3000D0F8E4359B69002BEBD090F81221032A80
:108D4000E7D19847E5E770B50A7812F06003054669
:108D50000C4628D0202B2DD1CB884E78EBB11206B3
:108D60000AD51D491A463046FFF7D6FBE2881A4954
:108D700028464BF0A5FF0EE0184A9660184A0321DA
:108D8000C2F8303980F81111C0E9E43302F6341228
:108D900000214CF059F8002070BD022211443046E9
:108DA000FFF7BAFBF7E74B780A2B08D00B2B09D05B
:108DB000062BF0D128464BF0D7FE0220ECE70949FC
:108DC0000122D6E78B781BB9074AC2F8E430E2E704
:108DD0004BF0CAFEDFE700BFC423002000000020E4
:108DE000901A00206C2C0020882B002038B52823F6
:108DF00003FB0101074DB1F88C1304462846FFF729
:108E0000CDFB204640232A4601214CF01DF80020CE
:108E100038BD00BF702C0020002310B51946044651
:108E200040224BF0AFFE40228021204600234BF031
:108E3000A9FE012384F81231D4F8E835A0785B68E4
:108E40009847002010BD38B54022044602238121F6
:108E50004BF098FE20460223402201214BF092FE67
:108E600020460323082282214BF08CFE084B02226D
:108E7000002583F8532083F854500121FFF738FB75
:108E80002046044A40234BF0DFFF284638BD00BF90
:108E900000000020702C002038B50122044640F26A
:108EA0000113A0F84431012511464BF0EBFF294690
:108EB0002046A4F89C5300224BF0E4FF4FF481734A
:108EC000A4F86C3120462A4602214BF0DBFFFFF765
:108ED0001BFB002038BDF8B5224C94F8B829012AB4
:108EE00003462ED1204FD7F8285115B984F8B85928
:108EF00023E0402D23D8AEB2402E02D1022284F8C6
:108F0000B829D4F8C019194A0A44C3E9542240F2D6
:108F100001110022A3F84411C3E9566203F5A271BE
:108F200018464BF0F8FED4F8C0393344C3F30A03B3
:108F3000AD1BC4F8C039C7F828510020F8BD402641
:108F4000DFE7022AF9D1002540F20112C0E95455A9
:108F5000C0E95655A0F8442100F5A2714BF0DBFEA4
:108F6000C4E700BF901A0020882B00205424002062
:108F7000F8B5284FD7F82C310F2B03F1010203D09D
:108F8000C7F82C210020F8BD234C0023C7F82C3152
:108F900094F8B839002BF5D1D4F8C029D4F8BC39ED
:108FA0009A42EFD0D4F8C029D4F8BC399A4295BF80
:108FB000D4F8BC59D4F8C059D4F8C039C5F5006507
:108FC00098BFED1A402D22D8AEB2402E0CBF02231E
:108FD0000123D4F8C02984F8B839104B1344C0E9F0
:108FE000543340F201120023C0E95663A0F8442133
:108FF00000F5A2714BF08FFED4F8C0393344C3F3AF
:109000000A03AD1BC4F8C039C7F82851BAE70123D9
:109010004026DEE7882B0020901A002054240020F0
:1090200008B5024848F046FE014808BDB27006087F
:10903000B82C002008B5024848F03CFE014808BDA5
:10904000C1700608B82C002008B5024848F032FE6E
:10905000014808BDC6700608B82C002008B50248B3
:1090600048F028FE014808BDD0700608B82C002042
:1090700008B5024848F01EFE014808BDDB7006082E
:10908000B82C0020064BD3F8A0391A79022A05D152
:109090009A68920702D558694BF00EBA704700BF24
:1090A000901A002073B50A4E441C0025D6F8A0097A
:1090B000012300220DF107014CF05DFA9DF8070035
:1090C000FF2802D10135A542F0D102B070BD00BF2A
:1090D000901A002070B5044608200D46FFF7E2FF05
:1090E000FF2812D0FE2812D10A4E2B46D6F8A0092E
:1090F000002221464CF03FFA0022D6F8A0090223B4
:1091000011464CF038FA002070BD0120FCE7022027
:10911000FAE700BF901A002037B5124D4FF6FF5303
:109120000024D5F8A009ADF8043001AA0223214695
:10913000C5F86C494CF01FFA0120FFF7B3FFFF2878
:1091400005D1042385F87039022003B030BD09230E
:1091500085F87039044BD3F8CC30C5F86039204617
:10916000F3E700BF901A0020882B002013B540F0D1
:1091700040038DF800300B0E8DF801300B0C8DF88C
:1091800002300B0A8DF80330952304468DF8041045
:109190008DF8053048F076FD00B964B9074806231C
:1091A000D0F8A0096A4600214CF0E5F90820FFF745
:1091B00079FF02B010BDFF20FBE700BF901A00202E
:1091C0002DE9F84F864E142303FB006305469C6E81
:1091D0008846002C00F0018193F87A20002A40F0A4
:1091E000C28093F87070384649F014FE07F01F02F1
:1091F0007F090123023F9340032F08D8DFE807F0DF
:10920000736D026777490A6922EA03030B6114232D
:1092100003FB056305F1010993F86D0007F04CF8B5
:109220005FFA89F9834620B140F60A33C38080F89B
:109230000890142303FB056393F86F0007F03CF8D4
:10924000824620B140F60A53C38080F80890142368
:1092500003FB056393F86E0007F02EF8074620B174
:1092600040F60A43C38080F80890142303FB05638B
:1092700093F871904A46B8F1000F3AD04A21584607
:1092800006F0DEFF4A462A21504606F0D9FF38464E
:109290004A460A2106F0D4FF142303FB056393F822
:1092A0006C7037B1384607F007F84A46092106F0D6
:1092B000C7FF4D4B9C4223D103F584335A6A42F4D5
:1092C00080525A625A6A22F480525A6225E0454915
:1092D0004A6922EA03034B6199E742490A6A22EA92
:1092E00003030B6293E73F494A6A22EA03034B6296
:1092F0008DE70A21584606F0A3FF4A460A21C3E734
:109300003A4B9C4232D103F500331A6A42F4804250
:109310001A621A6A22F480421A62B8F1000F59D117
:109320000121022322880B4302F44152134343F4E8
:1093300045732380A38B23F400631B041B0CA383BE
:109340000723238223889BB243F04003238027B165
:10935000384606F0B1FF06F044FF142303FB056610
:10936000012386F87A300120BDE8F88F204B9C421B
:1093700009D103F5FE331A6A42F400421A621A6AEE
:1093800022F40042C8E71B4B9C4209D103F582330B
:109390005A6A42F400525A625A6A22F4005294E71E
:1093A000154B9C4209D103F568435A6A42F4801276
:1093B0005A625A6A22F4801287E7104B9C42ACD161
:1093C00003F564435A6A42F400125A625A6A22F45C
:1093D00000127AE700210B46A4E72046C4E700BF4D
:1093E00000000020003802400030014000380040FA
:1093F000003C004000340140005001400054014056
:1094000003899B0746BF0089C0F3C0100120704745
:10941000F8B500220D233521022007F079F9254CFB
:10942000C4F8A00910B984F87009F8BD002106F04D
:10943000AAFC012008F062FBD4F8A0591E4E68690E
:1094400006F0CFFE95F910001C4D142707FB0060B5
:109450000022806E0A2311464CF062F8D4F8A0294D
:109460001179022909D0164BD3F8CC30C4F86039F1
:10947000012384F87039002318E092F9103007FBBB
:109480000363986EFFF7BCFF0028ECD0013DE5D1E7
:10949000104606F078FCD4F8A00906F067FC94F8B2
:1094A0006439C4F8A05984F87059013384F86439D8
:1094B000BBE700BF901A002000000020A186010039
:1094C000882B002038B50D490D4D1424D5F8A0295E
:1094D0001379022B11D192F9103004FB0313986E0B
:1094E000FFF78EFF38B993689B0706D5BDE8384073
:1094F000104608F08BB900BFE8E738BD0000002037
:10950000901A00202DE9F041194C1E4694F870394C
:10951000042B0546884617461CD1FFF7B3FD94F887
:109520006639FBB969021120FFF720FEE0B9052377
:1095300084F870390F4BC4F84C89D3F8CC30C4F898
:109540005059C4F85879C4F85C69C4F860390120EE
:10955000BDE8F081082B03D1FFF7DEFD0228DCD047
:109560000020F5E72946DEE7FFF7ACFFF8E700BF8C
:10957000901A0020882B00200E49D1F8883043F43F
:109580007003C1F888300C4B1A68002042F00102C9
:109590001A6098601A6822F0847222F480321A608D
:1095A000064A5A601A6822F480221A60D860044B76
:1095B0008B60704700ED00E000380240103000245E
:1095C00000000008704782B0002301930093584BBD
:1095D0001A6842F480321A601A6802F4003200926B
:1095E000019A01320192009A1AB9019AB2F5A04F7C
:1095F000F2D11B6813F4003318BF01230093009BC2
:10960000012B6ED14A4B1A6C42F080521A64494ABF
:10961000116841F44041116099689960996841F47A
:1096200000419960996841F4A0519960424959609C
:10963000196841F08071196019688901FCD51368B7
:1096400043F4803313603B4B5A68D203FCD51A684D
:1096500042F400321A605A689003FCD5374B40F24E
:1096600005721A60A3F580639A6822F003029A607B
:109670009A6842F002029A609A6802F00C02082A84
:10968000FAD1D3F8942042F00062C3F894202C4A17
:1096900000231367264B19688900FCD42949C3F8B5
:1096A0008810012111671A689200FCD5D3F8942024
:1096B00042F00062C3F894209A6802F00C02082A73
:1096C00011D00C2A23D0204B194A91681F4AC1F3AC
:1096D00003110A44127DD3401D4AC2F8B83002B0CB
:1096E000704700BFFDE75A6859685B68164AC3F3C4
:1096F000881301F03F01B2FBF1F253430C4A526868
:10970000C2F3014201325200B3FBF2F3DCE75A68C4
:1097100059685B680C4AC3F3881301F03F01B2FB40
:10972000F1F25343024A5268C2F30272EAE700BF01
:109730000038024000700040105A4077003C024060
:1097400000004742103001020024F400BCD3050899
:10975000000000202DE9F843D0F814800746894620
:10976000B8F1000F57D10568C5F30D0606B3D9F857
:109770000060FEF715FE092840F08680444C2369FE
:1097800023F440732361236943F400732361236945
:1097900043F0010323612E60FEF702FE23690928CE
:1097A00023F0010323616FD13B6804333B6032E057
:1097B000384B9D4229D303F580439D4224D303F5C2
:1097C00080439D422AD3344B9D4229D903F58033EF
:1097D0009D4227D903F500339D4225D903F5003377
:1097E0009D4223D903F500339D4221D903F500336F
:1097F0009D421FD903F580239D421DD9B5F1016F0C
:109800001CD3052008F085F90826FEF7C9FD0928B4
:1098100016D04FF0FF384046BDE8F8831026F4E735
:109820001826F2E72026F0E72826EEE73026ECE7B8
:109830003826EAE74026E8E74826E6E75826E4E740
:10984000134C236923F440732361236943F40073A9
:109850002361236923F0F80323612369334343F031
:1098600002032361236943F480332361FEF798FDEB
:10987000236923F0020323612369092823F0F803F5
:1098800023613FF474AFC4E76FF00108C3E700BF82
:10989000003C024000400008FFFF00080028ACBF69
:1098A00000F16040064B4FEA0111ACBF00F561408A
:1098B00000F00F00C9B2B4BF195480F8001370470C
:1098C00014ED00E02DE9F84F9946414B904603EB2B
:1098D00080020546546A002C50D04433636004F182
:1098E0003E03A36104F59F73E361D4F800A094F8EC
:1098F0003D00E1604FF48073C4E90433C4F838A03C
:1099000006F0DAFC064694F8440294F83CB0271DB1
:1099100008B149F07FFA94F8450208B149F07AFAA3
:10992000D4F840321BB12B4A116B0B43136319F06F
:10993000080F2CD00135EDB21EB140F20673F38052
:109940003572254B94F846229A451AD12221304689
:1099500006F076FC94F94752D4F8481294F847225E
:109960002846FFF79BFF002D07DB5109012302F07A
:109970001F029340194A42F821303C462046BDE878
:10998000F88F19F0100F14BF02211221DFE718F031
:10999000020F0CD06B1CDBB21EB140F20652F280FB
:1099A000337294F846220221304606F049FC18F042
:1099B000010FCFD0584606F07FFC0135EDB218B14B
:1099C00040F20663C380057294F846220221BFE785
:1099D000BCD30508003802400014014000E100E05B
:1099E0000148FEF749BB00BFC00000200148FEF758
:1099F00043BB00BF0C0300200148FEF73DBB00BF86
:109A0000580500200148FEF737BB00BFA40700201F
:109A1000064A002352F83310814201D1D8B2704770
:109A200001330E2BF6D1FF20704700BF34D4050858
:109A30000C4A0346D2F8B8000B4A934210D002F504
:109A4000806293420CD002F57052934208D002F526
:109A50008062934204D002F58062934218BF4008AE
:109A6000704700BF0000002000000140024B034887
:109A7000D3F83012FEF7E0BD882B00200000014033
:109A800010B5064C0648D4F83012FEF7D5FDD4F8D0
:109A900050120448BDE81040FEF7CEBD882B0020D0
:109AA000000001400040014010B5064C0648D4F8C3
:109AB0003012FEF7C1FDD4F854120448BDE810403E
:109AC000FEF7BABD882B0020000001400044014091
:109AD00010B5064C0648D4F83012FEF7ADFDD4F8A8
:109AE00058120448BDE81040FEF7A6BD882B0020A0
:109AF0000000014000480140034B4FF08040D3F884
:109B00003412FEF799BD00BF882B0020024B03489A
:109B1000D3F83812FEF790BD882B002000040040D7
:109B2000024B0348D3F84012FEF786BD882B002075
:109B3000000C0040024B0348D3F84C12FEF77CBDEA
:109B4000882B00200004014010B5064C0648D4F8CC
:109B50004C12FEF771FDD4F85C120448BDE81040C9
:109B6000FEF76ABD882B0020000401400018004069
:109B700010B5064C0648D4F84C12FEF75DFDD4F83B
:109B800060120448BDE81040FEF756BD882B002047
:109B900000040140001C004010B5064C0648D4F8F3
:109BA0004C12FEF749FDD4F864120448BDE8104099
:109BB000FEF742BD882B0020000401400020004039
:109BC0000348D0F8F83913B100F6EC101847704785
:109BD000000000200348D0F8183A13B100F60C201A
:109BE00018477047000000200348D0F8383A13B1F6
:109BF00000F62C2018477047000000200348D0F8DA
:109C0000583A13B100F64C20184770470000002066
:109C10000348D0F8783A13B100F66C201847704723
:109C2000000000200348D0F8983A13B100F68C20C9
:109C300018477047000000200348D0F8B83A13B125
:109C400000F6AC2018477047000000200348D0F809
:109C5000D83A13B100F6CC20184770470000002016
:109C60000348D0F8F83A13B100F6EC2018477047D3
:109C7000000000200348D0F8183B13B100F60C3068
:109C800018477047000000200348D0F8383B13B154
:109C900000F62C3018477047000000200348D0F829
:109CA000583B13B100F64C301847704700000020B5
:109CB0000348D0F8783B13B100F66C301847704772
:109CC000000000200348D0F8983B13B100F68C3018
:109CD00018477047000000200348D0F8B83B13B184
:109CE00000F6AC30184770470000002072B60148FB
:109CF000FEF73ABA901B002008B50248FEF73AFA80
:109D000062B608BD901B0020024608B5FFF7EEFFC3
:109D100092F82430072B08D8DFE803F00D0707047A
:109D200014100714936A002119604FF0FF339362F7
:109D300010464BF0E3FBBDE80840DDE7916A8B6815
:109D400001338B60D2E900310B605960EDE7826826
:109D50000132002A0346826007DC006802681A604C
:109D60005360002383624BF0C9BB704772B6044A4C
:109D7000D2F8E0300133C2F8E03062B6704700BF7D
:109D8000901A00200148FEF7EFB900BF781B0020B1
:109D900072B6FFF7F7BF0148FEF7ECB9781B002059
:109DA00008B5FFF7F8FF62B608BD30B5816102243F
:109DB00011498484012480F8264001F1480404619B
:109DC000CC6D8260026400224461C0E90E222061F1
:109DD000C86500F12C01C16200F13001C0E90C112D
:109DE00000244FF0FF310025C0E91212C0E914220F
:109DF000C0E9164530BD00BF901A00200C4BC26868
:109E00005B688B600132C26082689B1AD0E90421D2
:109E1000D21841F10001C0E90421426883609342F5
:109E2000026888BF4360934238BF0360704700BF39
:109E3000001000E0154A38B5956C146E2968134679
:109E400043F8481F4B60012185F82410002184F855
:109E50002410A16815661B6898688842FBD8596869
:109E6000236061600C605C60D2F8E43005F1480169
:109E7000013304F14800C2F8E430FFF7BFFF214688
:109E80002846BDE838404BF043BE00BF901A002082
:109E900038B50F4B1D6E9C6C85F824001A4621685E
:109EA00042F8481F4A60012284F82420D3F8E420B5
:109EB0001C6604F1480105F148000132C3F8E420B2
:109EC000FFF79CFF29462046BDE838404BF020BEF6
:109ED000901A0020F0B54B1C4F4C87B0074600F09D
:109EE00098802546236E4D4855F8642F05934C4BBA
:109EF0000493436AAA429BB22AD101AAC4E9192257
:109F00004FF6FF72A4F87030914294BF5B189B1813
:109F10009BB2CDE901550391436300230361022302
:109F2000C3603846FFF7B4FF049B6BB1616E019BC1
:109F300001AA91424AD0029AAB4213605A6003D000
:109F40009A6803990A449A60236E986A07B0F0BD34
:109F5000B4F87060D2F808E09B1B9BB211EB030CC5
:109F600025D310464FF0000E04E0C0F808E000686A
:109F7000A3EB0C03D0F808C06345F6D81E44A842F2
:109F8000A4F8706002D0ACEB03038360936899423D
:109F900019D85068029001AB01920360536003919D
:109FA00093685B1A93604FF0FF33E366B9E7F445BB
:109FB00007D24FF6FF739C4594BF6644F618B6B2BD
:109FC00046636146E2E71268C91ADFE70022AB4246
:109FD000636612485D60049201D1C260B4E799687B
:109FE000039A11449960B4F87020436A9B1A9BB29B
:109FF0009942A9D9C81A012805D102331A44074B3E
:10A0000092B25A63A0E74FF6FF738B4228BF0B460C
:10A01000F4E7FFF73DFF97E7901A002000080040A3
:10A02000099D000838B50246FFF7B2FE0B4B1C6EC7
:10A03000A26204F12C05E06AA8420AD194F8263005
:10A040001BB9D4E9043213615A61BDE838400F20CE
:10A050001EE70368E3624BF051FAECE7901A002028
:10A06000EFF3098304494A6B22F001024A63683323
:10A0700083F30988704700BF00EF00E072B60F4B12
:10A080005B681B0517D5F1EE103AEFF30983683BC7
:10A090004FF08072DA610A4AD26B1A6683F309883C
:10A0A000084A916C126E8968926891428CBF064A88
:10A0B000064A9A61704762B6704700BF00ED00E043
:10A0C00000EF00E0901A00203B5B0508465B0508A6
:10A0D0002DE9F047294EFFF749FE3369F268134036
:10A0E000DAB2D2439B07326144D5254FB846FFF719
:10A0F000FDFD58F8644F736AB7F87050A2689BB2C0
:10A100005D1BADB295421FD34FF00009A268B7F8AE
:10A110007030D4F80CA01344A7F87030236843457E
:10A12000C3F804807B66C4F80C9008BFC6F80C9096
:10A13000AD1AFFF7E1FD2069D047FFF7D7FD7C6E30
:10A14000A3689D42E2D2D6E77A6E424510D091686C
:10A15000A7F87030491B9160A1684FF6FF728A42E0
:10A1600028BF0A46022A2CBF9B1802339BB2736396
:10A17000FFF7C2FDBDE8F04780E700BF00080040E0
:10A18000901A00202DE9F04FDFF8F8A2B34FDAF86B
:10A190000010DFF8F4924A88D9EDFA7A2DED0A8B97
:10A1A00097F93A309FEDAE9A013203EB52039BB21E
:10A1B00008EE903ABB8E07EE103AF8EE677AF8EEAA
:10A1C000476AB8EEC77A93B0B4EE677AF1EE10FA48
:10A1D00048BFF0EE667A67EE897A87EEA6BAF7EEA8
:10A1E000007AB4EEE7BAF1EE10FA53DB0B880133D4
:10A1F0005B1007EE903AB9F9EC3308EE103A994B40
:10A20000B3F90430F8EEE79A07EE903AF8EEE77A01
:10A21000F2EE046A87EEA67AB8EEC88ADFED9B7A82
:10A2200038EE478ABDEEC88A18EE103A1BB208EE27
:10A23000103AB8EEC88A28EE278AB0EE480A04F031
:10A2400061FC20EE0B0A4CF021FEF0EE40AAB0EECD
:10A25000480A04F0B9FC20EE0B0A4CF017FEB8EEE9
:10A26000E8AA79EEAA9A3AEE40AAFCEEE99ABCEE88
:10A27000CAAA02201AEE103A9AB219EE903A99B28E
:10A280000123CDE90130002377480093033A0131DF
:10A2900048F0C0FB754EDFED76AADFF8C8B19FED40
:10A2A00075AA4FF04108336823B1736813B1337B4B
:10A2B000012B16D908F10108B8F1460F06F11C066A
:10A2C000F1D1DFED6BAA674D9FED6ABA012440F032
:10A2D000D1F9844240F3DC8013B0BDEC0A8BBDE8B9
:10A2E000F08F002231460AA848F0C6FD0AA83EF0C9
:10A2F0005DFD07EE900AF8EE677ABB8E87EEAA8ABC
:10A300000AA80BEE903AF8EE6BBAF4EE48BAF1EE0A
:10A3100010FA48BFB0EE6B8A3EF01CFEBBF9043069
:10A3200007EE103AB8EEC77AF2EE046A87EE26CA54
:10A33000DAF800301B8801335B1007EE900AF8EE64
:10A34000E77AF0EE4C9AD7EE8A9A28EE098AFDEE6B
:10A35000E99A88EE2BBA07EE903A19EE903A1BB2C2
:10A3600009EE903AB8EEE78AF8EEE99ADFED477A1F
:10A3700069EEA79AB0EE690A04F0C4FB20EE0B0A5E
:10A380004CF084FD38EE008AB0EE690ABCEEC88A53
:10A3900018EE103A9CB204F017FC20EE0B0A4CF0B9
:10A3A00075FDB8EEE88A4FF47A7238EE408ABCEE5A
:10A3B000C88A18EE103A9DB2D9F87C34B3FBF2F398
:10A3C000DB0732D43EF00AFADDED0C7A90ED027A2A
:10A3D00077EEC77AFDEEE77A17EE903A1BB207EEFA
:10A3E000903A99F8D234F8EEE77ACBB9DFED226AE9
:10A3F00087EEA67AFDEEC77A17EE903A42461F49DD
:10A400001BB20DA805F0B9F801230220CDE90130F7
:10A4100000230093EA1E21460DA848F0FBFA49E705
:10A4200067EE8A7AFDEEE77AE6E7F389144A00EEF2
:10A43000103AB8EEC00A29B230EE4C0A20B2BDEE96
:10A44000C00A10EE103A1BB200EE103A032300933C
:10A45000B8EEC00A042347F017FF2BE7901A00203C
:10A4600000008C42D0430120A2920608782F0020E1
:10A470000000C8420AD7233C0AD7F341EE70060811
:10A48000BAD4050800000020882B002035FA8E3C45
:10A4900020460DA940F0FEF80D9B0A930E9B0B93EE
:10A4A00000220AA90F9B0C9307A848F0E5FC07A817
:10A4B0003EF07CFC07EE900AF8EE677ABB8EC7EEA2
:10A4C000AA9A07A80AEE103AB8EE4AAAB4EE69AA08
:10A4D000F1EE10FA48BFF0EE4A9A3EF03BFDB5F9B6
:10A4E000043007EE103AB8EEC77AF2EE046A87EE4F
:10A4F000268ADAF800301B8801335B1007EE900AD9
:10A50000F8EEE77A69EE899A97EE8B8A89EE8ACA25
:10A51000BDEEC88A07EE903A18EE103A1BB208EE6C
:10A52000103AF8EEE79AB8EEC88A5FED287A28EE7E
:10A53000278AB0EE480A04F0E5FA20EE0C0A4CF047
:10A54000A5FCF0EE40BAB0EE480A04F03DFB20EE68
:10A550000C0A4CF09BFCB8EEE8AAB0EE408A22460A
:10A560000F4904A805F009F83AEE48AA79EEAB9A2B
:10A57000BCEECAAAFCEEE99A1AEE103A02219AB28F
:10A580000123CDE9013119EE901A00230093033A1B
:10A5900089B204A8013448F03DFAE4B297E600BF5E
:10A5A000157906082DE9F04F364C1388D4F800E0F1
:10A5B000BEF8004085B0C518A542009124DCBEF865
:10A5C00002408C4220D39F08C3F38703019300F01D
:10A5D00003035C00DBB100231D464FF0010C0CFAB5
:10A5E00003F601333543DEB2B442EDB2F7D8EE43A1
:10A5F000F6B283080293FBB200200393C4F1080A69
:10A60000578883B29F4205D805B0BDE8F08F254634
:10A61000FF26EEE7009BBEF8027013FA80F3BB4200
:10A620001FFA80F8F0DC019F08FB07F8029F602109
:10A6300001FB0373144F4FF0000C3B4403991FFAC6
:10A640008CF7B94201D80130DAE7576893F800B0C7
:10A6500008EB0C0917F80970374027414BEA070B44
:10A6600003F801BB54B1576817F8097093F80090CC
:10A670002F4007FA0AF747EA09071F700CF1010C8F
:10A68000DCE700BF00000020687D012050399638CB
:10A69000014A89B280B285E7CCD40508002830B5DC
:10A6A00022DB124B1B681C8884421DDB00291BDB4C
:10A6B0005B888B4218DB6023594301EBA001C04348
:10A6C00000F0030054B20323400003FA00F023011A
:10A6D000074D43EA841343EA84031A436B5C024048
:10A6E00023EA00031A436A5430BD00BF0000002073
:10A6F000687D0120002A2DE9F04105460C4643DB28
:10A7000032490968488890423EDB002D3EDB0888CC
:10A71000A842A8BF2846002C54DB0988A142A8BF44
:10A720002146884203DC2FD00C4601462046602497
:10A7300062435CB2A60003EB830346EA03131C43A7
:10A7400001F003035B004FEAA00E214E02EBA105CE
:10A75000C3F106034FF0010800F0030008FA03F309
:10A76000BEEBA10F77574FEA400064B203F1FF3C04
:10A770000ED1C0F1070008FA00F3013B83EA0C0395
:10A780007C4023407B407355BDE8F0810020C2E748
:10A790005B421F4004EA0C0C47EA0C0796447755CD
:10A7A000C0F1060016F80E3008FA00F0421E4042D2
:10A7B00013402040034306F80E3001357545E3DAB7
:10A7C0007455FAE70028DFD00021B0E70000002030
:10A7D000687D0120002830B50D46144630DB204A44
:10A7E0001268118881422BDB002D2ADB5188A94297
:10A7F000A8BF2946002C2EDB5288A242A8BF2246C1
:10A80000914203DC1CD014460A4621466024624370
:10A81000614302EBA00201EBA001C04300F0030082
:10A820004000032403EB8303844003EB03130D4830
:10A83000DBB2E54310441C408A4200F1600002DDB7
:10A8400030BD0021D6E710F8603C2B40234300F8D0
:10A85000603C6032F0E70029F2D00022D6E700BF6A
:10A8600000000020687D01202DE9F04F87B0CDE980
:10A8700004230123814688460093282202230139BC
:10A880001438FDF798FC01230093A8F1140109F195
:10A89000FF3028230222FDF78EFCA9F11503A8F151
:10A8A0000204A9F10207029308F102050298DFED04
:10A8B000516A224639460323FFF71CFF02982A46B5
:10A8C00039460323FFF716FF09F1150309F10206C4
:10A8D00003930399224630460323FFF70BFFA8F1A9
:10A8E000150B03992A4630460323FFF703FF08F1AF
:10A8F000150A5A46314638460323FFF7FBFE5246F7
:10A90000314638460323FFF7F5FE5A4621463846BE
:10A910000323FFF75FFF5A46214630460323FFF724
:10A9200059FF2A46514638460323FFF753FF2A466C
:10A93000514630460323FFF74DFF02982A46214631
:10A940000323FFF747FF03982A4621460323FFF717
:10A9500041FF049B2849A3F2DC538B42B8BF0B464E
:10A96000B3F5FA7F4FF01302A8BF4FF4FA735343C5
:10A9700007EE903AF8EEE77A87EEA67A07EE909A1D
:10A98000F8EEE77A77EE277AFDEEE77A17EE903A5F
:10A990001DB2059BA3F2DC538B42B8BF0B46B3F547
:10A9A000FA7FA8BF4FF4FA73534307EE103AB8EE9C
:10A9B000C77A07EE908A87EE266AE81EF8EEE77AF5
:10A9C00077EEC67AFDEEE77A17EE903A1CB20123D5
:10A9D000009306231A46E11EFDF7EDFB03230093C7
:10A9E00004231A46A11EA81EFDF7E5FB07B0BDE82B
:10A9F000F08F00BF0000FA430CFEFFFF2DE98048F6
:10AA0000A64EA74A336E9A61A64A9FB0002312F859
:10AA1000011B002976D0A44B012283F81C254FF49A
:10AA20007A71FFF7B5F90820FFF754FAFFF7B8F984
:10AA300038F09AFB9C4CFFF7ABF9D4F82835013B72
:10AA4000002BC4F8283564DBFFF7AAF9D4F8CC5002
:10AA50009648C4F87C54C823B5FBF3F3DB4303F0FA
:10AA6000010346F2C032002184F82C3551F0B6FAC9
:10AA70000F2018F02DFC07460028DCD141F2873367
:10AA80009D428B4D67D8DFF84482D8F80030598852
:10AA9000188849081E39013089B24008FFF7F6FDD1
:10AAA000844A854905A804F068FDD8F800A0BAF8E2
:10AAB0000010BAF8022000974FF0010801313B4620
:10AAC0003C3A21FA08F105A8CDE9018847F0A2FF38
:10AAD000BAF80010BAF80220784800974144CDE94E
:10AAE00001883B46233A21FA08F147F093FF38F0FA
:10AAF0003BFB96F8B439012B0CBF0D23102385F8CE
:10AB0000443998E701339BB2B3F5616F7FF47FAFAF
:10AB100085E7336E6A4A1A609A62D4F824255A602F
:10AB200040F6C41113600520C4F82435FFF7D2F9AC
:10AB30000546FFF735F9013588D1D6F8AC09002371
:10AB4000012186F8A83905F030FBD6F8B0090121BB
:10AB500005F02BFB6FE706F081FF3946804639F0A0
:10AB600007FD0F2018F0B4FB564F002800F0B4800A
:10AB700094F8D9341BB1BB68980500F1AD80D4F8C6
:10AB8000300505F05DF9FB6803F0040384F8343503
:10AB900095F81933002BAAD195F81833002BA6D1BC
:10ABA00096F8313033B33DF019FED0ED027A94F8C7
:10ABB000D234FDEEE77A17EE901A2BB94FF4A47356
:10ABC0005943642391FBF3F107EE901ADFED3E6ADF
:10ABD0003E4BF8EEE77A1A6887EEA67A5388128819
:10ABE00001335B080A3A0121FDEEC77A17EE900A9D
:10ABF00047F0D8FF7B691B0623D596F8323003B3A4
:10AC0000B5F9223907EE903A94F8D234F8EEE77AA3
:10AC1000002B40F089819FED2E7ADFED2E6A67EEE2
:10AC2000877A87EEA67A294B1B685B8801335B081D
:10AC300005224FF0FF31FDEEC77A17EE900A47F07C
:10AC4000B1FF96F83670012F40F075811F4B02203E
:10AC5000D3F800A028F054FF8046032028F050FFCE
:10AC6000BAF802101E390346424609B21E20FFF709
:10AC7000FBFD002028F044FF8046384628F040FFC6
:10AC8000BAF80210BAF800701E391E3F0346424659
:10AC900009B238B2FFF7E8FD29E700BF901A00209B
:10ACA000B0B50608F0010008882B0020687D01205F
:10ACB000803C0020F47006085EBB0608FD700608A4
:10ACC000A8300020D04301200000C842000000202E
:10ACD0000000604300401C46F96894F8343501F0E8
:10ACE00004018B421DD000294BD038F01DFD0023FC
:10ACF00084F8353539F01EF8D4F8CC30C4F838353E
:10AD00003B69B4F80E05190138D4D4F8EC390BB10D
:10AD100000F6B83038F02FFCFB6803F0040384F829
:10AD20003435934BD3F8EC0B00280BDA222018F0C3
:10AD3000CFFA00283DD1212018F0CAFAD8BB202034
:10AD400018F0C6FAD5F81433D4F8CCA083424FF0EB
:10AD5000000385F81833FB6818BFC5F814035A07B9
:10AD60002BD5D4F83835AAEB0303B3F5FA7F59D2C3
:10AD700038F0E0FF012385F8183309E74FF4FA7043
:10AD8000C8E70123084684F8353585F8081338F0FC
:10AD9000ADFD4EF6602038F0EEFBD4F8CC30C5F8AF
:10ADA0000C3394F8D434003B18BF012385F81033DA
:10ADB000B2E70320C6E70220C4E7032028F0A0FE84
:10ADC000A0F2E34080B2B0F5F97F0DD8022028F060
:10ADD00097FE40F2E143984206DC012028F090FE05
:10ADE00040F2D663984202DC95F8193313B1002380
:10ADF00084F83535D5F80C332BB1AAEB030A4EF69F
:10AE000060239A4508D8802018F047FA20B9082016
:10AE100018F043FA002852D0002384F83535002377
:10AE200085F81833D5F81C3332220133C5F81C33AA
:10AE3000B3FBF2F102FB11330BB938F0B3FCD4F8D9
:10AE4000303501225A7440462FF0C0FB95F8193373
:10AE500023B1D5F82033002B3FF449AE4FF0000A60
:10AE60004FF0A70B95F804395FFA8AF8434515D9D6
:10AE700005EB08090AF1010A99F8240334F006FCED
:10AE8000D5F8142399F824330BFB023305EB430365
:10AE9000B3F8CC33C3F38513042BE3D9032034F088
:10AEA000F5FB95F80439434533D894F8EC340BB1ED
:10AEB00032F042FFD4F8300505F00EF868E694F859
:10AEC0003535002BABD095F81083B8F1000F0DD0BD
:10AED00094F8D424D4F8CC304FF47A714A43B3FBBD
:10AEE000F2F303F0010385F8083305E0012018F0C0
:10AEF000D4F938B185F8088395F80813002038F0A4
:10AF0000F5FC37E7022018F0C8F90028F4D0012337
:10AF1000E9E705EB080308F1010893F8240334F08E
:10AF2000B5FB5FFA88F8BCE79FED127ADFED126A95
:10AF300067EE877A75E6022F7FF4D9AD0C4B384661
:10AF4000D3F800A028F0DCFD0746012028F0D8FD4A
:10AF5000BAF802101E3903463A4609B21E20FFF71E
:10AF600083FC002028F0CCFD8046032086E600BF4D
:10AF7000000000200000104200007A442DE9F74F45
:10AF8000A3EB010AA2EB000BBAF1000FB8BFCAF1A4
:10AF9000000ABBF1000FB8BFCBF1000BDA459DF8FA
:10AFA00030800F4615461C4603DC074614461D46F6
:10AFB0000846A74205DC2B460546184623463C4674
:10AFC0001F46421B82EAE273A3EBE27308EB880898
:10AFD0003E1B08EB0818019306EBD6798542ACBFFF
:10AFE0004FF0FF3301235FFA88F84FEA69090093B5
:10AFF000A74202DC03B0BDE8F08FDA45C7BF2146A7
:10B000002846294620464246FFF748FB019BB9EBFC
:10B01000030942BF009BB144ED180134E8E72DE974
:10B02000F04F89B00023ADF81C304C4BB3F904301D
:10B0300007EE103AB8EEC77AF2EE046AC7EE267A47
:10B0400001EBC10100EB40004E008500B6B2ADB28D
:10B0500006F102094FF02D0A4FF0010BFDEEE77AE1
:10B0600017EE903A9FB2A7F15A080FFA88F8B8F194
:10B07000000FACBF0E2400245A3744440F2394FB26
:10B08000F3F4C4EB04143FB224B2BC421CDD2D35F2
:10B09000ADB2A5F10208AC1C32462146404603275A
:10B0A0000323FFF727FB4B462A46314640460097CD
:10B0B000FFF764FF00974B462A4631462046FFF7CC
:10B0C0005DFF09B0BDE8F08FA4EB080000EBD07085
:10B0D00094FBFAF30AFB134305EB60001BB200B2CA
:10B0E000002B35D10323321D31460590FFF772FB4B
:10B0F000002C05981ADA04F5B4731BB2B42B23D0D4
:10B100001CDC1BB35A2B14BF002345238DF81C30C5
:10B110004BB10223CDE901B30023411C0093F21D82
