:020000040800F2
:10000000F0FF0120454C0508B1DB00083926040843
:10001000BD4C0508BD4C0508BD4C0508000000009E
:10002000000000000000000000000000ADDB000840
:10003000A9DB000800000000A5DB000821F0030890
:10004000BD4C0508BD4C0508BD4C0508BD4C050858
:10005000BD4C0508BD4C0508D93604080538040810
:10006000C93704088D37040851370408C92005082A
:10007000B9200508A920050899200508852005084C
:10008000712005085D200508BD4C05080000000032
:100090000000000000000000000000001537040808
:1000A000A5DA0308F1DA030895DA030815DB03087B
:1000B000E5DA0308D5DA0308C5DA0308BD4C0508FC
:1000C000BD4C0508BD4C0508BD4C0508BD4C0508D8
:1000D000BD4C050841F1030885F00308000000004D
:1000E0009D360408BD4C05080D0E010800000000F7
:1000F000000000000000000000000000492005088A
:1001000000000000BD4C0508B5DA0308BD4C050829
:1001100000000000000000000000000000000000DF
:1001200035200508212005080D200508F91F0508C0
:10013000E51F0508000000000000000000000000AE
:1001400000000000000000000000000099EC000822
:10015000D11F0508BD1F0508A91F0508BD4C0508CE
:10016000BD4C0508BD4C0508000000000000000063
:10017000000000000000000000000000000000007F
:1001800000000000BD4C0508000000000000000059
:08019000BD4C0508BD4C05083B
:08019800E4470500010000002E
:1001A0000B3001001A0000004C350020985200204E
:1001B00000000000D80800081F30010024000000E3
:1001C000B8250020B452002000000000F408000808
:1001D0000502010004000000C44F0020D852002096
:1001E0000000000018090008030101000A000000D7
:1001F00032200020DC52002000000000518B00085B
:100200001302010004000000DC1F0020E85200205F
:10021000000000001C0900080D100100280000006B
:10022000D04D0020EC52002000000000DD8E0308BD
:100230000400080080000000284D00201453002016
:100240000000000000000000F901010004000000AF
:10025000104D002094530020000000001DC703082B
:10026000FD0101001E000000F04C0020985300200A
:10027000000000008BC60308FB0101000100000024
:10028000344B0020B85300200000000029D204089D
:10029000FC01010009000000004A0020BC530020BE
:1002A0000000000039D20408F70101000600000038
:1002B000F4490020C8530020000000002009000875
:1002C000160215003F000000E42A0020D053002051
:1002D00000000000B9D10408340001001000000043
:1002E000244900201054002000000000453002087E
:1002F0001102010008000000FC48002020540020EA
:10030000000000002609000812120100040000008D
:10031000F448002028540020000000002E090008A6
:100320001820010032000000C04800202C5400209A
:1003300000000000C1D20408122001001B000000D0
:10034000E441002060540020000000003209000851
:10035000000201000B000000203F00207C54002020
:100360000000000049C904080A80010028000000BC
:100370001037002088540020000000007DA20108F2
:10038000061001001C00000078250020B054002059
:100390000000000055D20408020201000300000022
:1003A000E4290020CC5400200000000000000000E0
:1003B0000C02010004000000A0290020D0540020FD
:1003C0000000000021C90408FE0101001400000023
:1003D000984F0020D4540020000000007DC904087C
:1003E000010201000B000000B46000206C700020CE
:1003F0000000000039C904081B02010010000000C1
:10040000A06000207870002000000000FDC80408F3
:100410001B1001000C0000003C58002088700020D8
:1004200000000000A147010821020100F0000000C7
:10043000945600209470002000000000BD2901089F
:100440002312010010000000A45D00208471002030
:100450000000000050090008371001002E000000C5
:100460001060002094710020000000006009000866
:100470000E02010002000000A05D0020C4710020F7
:10048000000000008E0900081610010006000000A0
:10049000985D0020C871002000000000900900084D
:1004A0002F1001002200000048700020D0710020B1
:1004B00000000000960900081E000100090000006D
:1004C000AC5C0020F471002000000000B8090008B6
:1004D00005100100060000009C5C00200072002056
:1004E00000000000C2090008F5810100680000005A
:1004F0002456002008720020000000000D3801087A
:100500002320010010000000445D002070720020D4
:100510000000000091A30108FD0701007600000023
:100520006A5500208072002000000000811401083C
:100530002C00040010000000F0840020E084002063
:1005400000000000EDC101082B0012002400000093
:10055000248500200085002000000000C1C10108A2
:100560002920140078000000F8820020488500202F
:10057000000000000000000019020100100000004F
:1005800040820020C085002000000000E1C804086F
:10059000F62101000C0000005C810020D0850020C5
:1005A00000000000C80900081C0202001C00000036
:1005B000E4810020208600200000000031D30408E0
:1005C00014000100040000001C8100203C86002073
:1005D00000000000D4090008012001000C00000008
:1005E000B07600204086002000000000D8090008F6
:1005F0000C200600CC000000907500204C860020E6
:100600000000000069C702080EF003009E01000010
:10061000CC73002018870020000000005925020834
:100620001300010004000000EC7E0020B8880020C8
:1006300000000000E40900080101010004000000BE
:1006400010730020BC8800200000000000000000A3
:10065000000101000400000008730020C088002091
:1006600000000000E809000802010100030000008A
:1006700004730020C488002000000000A5C7020801
:10068000220201001C010000B47C0020C888002068
:100690000000000071D104081900010005000000ED
:1006A000C09400209895002000000000EC0900088C
:1006B0001A0001000E0000003C920020A0950020CE
:1006C00000000000F2090008203201000A000000CA
:1006D00030920020B095002000000000352502086F
:1006E00015001000700000000C8C0020BC9500204C
:1006F00000000000000000002A0008006000000068
:10070000A09200202C960020000000000D25020879
:100710000A020100140000004CB00020A8B3002021
:100720000000000025CA02080300010001000000CB
:1007300020AD0020BCB3002000000000000000003D
:10074000031201003D0000002CB30020C0B30020C4
:1007500000000000000A000825201E002C010000F7
:1007600094B0002000B40020000000000000000051
:100770001010010002000000C4AC00202CB50020C5
:10078000000000003E0A0008F821010006000000F9
:100790000CAD002030B5002000000000400A000829
:1007A000020001000C00000034B60020C8B6002092
:1007B00000000000000000002902010040000000CD
:1007C000B8B50020D4B6002000000000460A00089A
:1007D000280204000400000080BE002024C0002085
:1007E000000000001DC904082702040004000000E6
:1007F0007CBE002028C000200000000011C90408B1
:100800001F02080010000000D8BB00202CC00020F0
:1008100000000000C1C804081A0201003C000000EA
:100820007CB700203CC0002000000000BDD30408BD
:10083000381001000100000040B7002078C00020FF
:1008400000000000860A00082700010004000000E4
:10085000A0C0002000C1002000000000880A00089D
:100860001002010001000000B0DF0020ACDF00201A
:10087000000000008C0A00080B1201003C00000080
:1008800004C50020B4DF0020000000008E0A00082C
:100890001D0202000600000080DF0020F0DF0020C3
:1008A0000000000000000000081203000F0000001C
:1008B00088DF0020F8E200200000000051C9040891
:1008C000390001000500000098DF002008E3002047
:0808D00000000000A5C80408A7
:1008D800AE014A015E012C01640101000000010023
:1008E8000A019A01001E0A00000200000000000030
:1008F80000010000000500000102030000000000E4
:100908000000000000000000000000000080070058
:1009180000000000000001000000010000000000CD
:10092800000001010101FFFFFFFF000000010001BD
:1009380005426565427261696E20424C205633005B
:100948000008000200000000000000000000000095
:10095800000000000000000020003200C800D0079E
:1009680096001400320028004C0440060005500090
:1009780014000F00080064000100000005000A00D0
:100988000000F40196000000C409000019000000EE
:10099800000000000000000000000000000000004F
:1009A800000000000000000000000000000000003F
:1009B8000005010000000000000020000301000005
:1009C80000000000010000000202000003000023F4
:1009D800E8036400040A000114001E000004453204
:1009E8009F0100000000280100007E05EA05B4050B
:1009F8003200E803D00700000000000000000000FB
:100A080000000000000000000000000000000000DE
:100A180000000000000000000000000000000000CE
:100A280000000000000000000000000000000000BE
:100A380000000000010000050201F401140000009C
:100A4800000000000000000000000000000000009E
:100A5800000000000000000000000000000000008E
:100A6800000000000000000000000000000000007E
:100A7800000000000000000000000000000000006E
:100A8800200300000000000000000000000000003B
:100A9800000000000000000000000000000000004E
:100AA800000000000000000000000000000000003E
:100AB8000000000000000000000000000000011617
:020AC800001715
:100ACA000403090412010002EF02014083045632B2
:100ADA0000020102030100001201000202020040AA
:100AEA008304405700020102030100000902640066
:100AFA00030100C0320904000001030000000921BB
:100B0A00110100012236000705830309000A080BB8
:100B1A0001020202010009040100010202010005AA
:100B2A0024001001052401000204240202052406FF
:100B3A000102070582030800FF09040200020A00F5
:100B4A00000007050102400000070581024000007D
:100B5A0009024300020100C0320904000001020236
:100B6A0001000524001001052401000104240202E9
:100B7A000524060001070582030800FF0904010095
:100B8A00020A000000070501024000000705810271
:100B9A0040000000FF00000001000800FF1FFF1FC7
:100BAA007D000000F401000008010000BD82000879
:100BBA00B9820008B5820008A9820008A582000847
:100BCA00B1820008AD82000831830008258300083D
:100BDA00FD82000811830008E9820008D582000816
:100BEA00C1820008010000000000803F05010905DC
:100BFA00A101A1000501093009310932093309357A
:100C0A000934093609371581257F75089508810247
:100C1A0005091901290815002501950875018102A0
:100C2A00C0C0000009022200010100E032090400EC
:100C3A000001030102000921110100012236000707
:100C4A0005830309000A00000000000001020304F2
:100C5A00010203040607080971DD00082DE40008F3
:100C6A00A5DF0008D9830008B9890008E9830008CC
:100C7A0005840008B1830008A18300080000000071
:100C8A00000000009052002000000000685200207E
:100C9A000000000001000000010000000000010047
:100CAA00E0017EFFFFFFFFFFFF000000FFFFFFFFE5
:100CBA006CE30508E8E2050800000000C96A0308B9
:100CCA00A0860100040000000000000000000000EF
:100CDA00000000000000000000000000000000000A
:100CEA0000000000000000000000000000000000FA
:100CFA006CE3050874E3050800000000EDC403086E
:100D0A00E8030000040000000000000000000000EA
:100D1A0000000000000000000000000000000000C9
:100D2A0000000000000000000000000000000000B9
:100D3A007CE30508000000000000000079C80208F2
:100D4A007D000000FF00000000000000000000001D
:100D5A000000000000000000000000000000000089
:100D6A000000000000000000000000000000000079
:100D7A002C1306080000000000000000D5D9020864
:100D8A007D000000FF0000000000000000000000DD
:100D9A000000000000000000000000000000000049
:100DAA000000000000000000000000000000000039
:100DBA0024F2050800000000000000000DF50208FA
:100DCA007D000000FF00000000000000000000009D
:100DDA000000000000000000000000000000000009
:100DEA0000000000000000000000000000000000F9
:100DFA0084E30508000000000000000081C9030820
:100E0A00E8030000030000000000000000000000EA
:100E1A0000000000000000000000000000000000C8
:100E2A0000000000000000000000000000000000B8
:100E3A0088E3050800000000000000009191020804
:100E4A00102700000300000000000000000000005E
:100E5A000000000000000000000000000000000088
:100E6A000000000000000000000000000000000078
:100E7A00340F060800000000D9BE01089D260408A8
:100E8A005F7600000500000000000000000000007E
:100E9A000000000000000000000000000000000048
:100EAA000000000000000000000000000000000038
:100EBA00D01206080000000000000000B94A040829
:100ECA0010270000010000000000000000000000E0
:100EDA000000000000000000000000000000000008
:100EEA0000000000000000000000000000000000F8
:100EFA0094E305080000000000000000F1C40308A4
:100F0A00E8030000050000000000000000000000E7
:100F1A0000000000000000000000000000000000C7
:100F2A0000000000000000000000000000000000B7
:100F3A00A0E305080000000000000000496B030858
:100F4A00204E000003000000000000000000000026
:100F5A000000000000000000000000000000000087
:100F6A000000000000000000000000000000000077
:100F7A00B0E30508000000000000000061CA020892
:100F8A00204E0000030000000000000000000000E6
:100F9A000000000000000000000000000000000047
:100FAA000000000000000000000000000000000037
:100FBA00C0E3050800000000000000007DCF030820
:100FCA00400D0300030000000000000000000000C4
:100FDA000000000000000000000000000000000007
:100FEA0000000000000000000000000000000000F7
:100FFA00D0E305080000000000000000A1920308E9
:10100A00102700000100000000000000000000009E
:10101A0000000000000000000000000000000000C6
:10102A0000000000000000000000000000000000B6
:10103A0014E305080000000000000000D95301086D
:10104A00102700000300000000000000000000005C
:10105A000000000000000000000000000000000086
:10106A000000000000000000000000000000000076
:10107A00D8E305080000000000000000C9C3030807
:10108A00A86100000100000000000000000000004C
:10109A000000000000000000000000000000000046
:1010AA000000000000000000000000000000000036
:1010BA00E4E3050800000000000000006DF60308E4
:1010CA00A00F000001000000000000000000000066
:1010DA000000000000000000000000000000000006
:1010EA0000000000000000000000000000000000F6
:1010FA00F0E3050800000000000000007D870108F9
:10110A00102700000100000000000000000000009D
:10111A0000000000000000000000000000000000C5
:10112A0000000000000000000000000000000000B5
:10113A00FCE305080000000000000000A17F010890
:10114A001A41000001000000000000000000000039
:10115A000000000000000000000000000000000085
:10116A000000000000000000000000000000000075
:10117A0000E405080000000000000000858B00085C
:10118A00102700000100000000000000000000001D
:10119A000000000000000000000000000000000045
:1011AA000000000000000000000000000000000035
:1011BA00FCE20508000000000000000055DB010801
:1011CA0050C3000001000000000000000000000001
:1011DA000000000000000000000000000000000005
:1011EA0000000000000000000000000000000000F5
:1011FA000CE405080000000000000000E597000864
:10120A00400D030000000000000000000000000084
:10121A0000000000000000000000000000000000C4
:10122A0000000000000000000000000000000000B4
:10123A0014E405080000000000000000056B030824
:10124A00400D030000000000000000000000000044
:10125A000000000000000000000000000000000084
:10126A000000000000000000000000000000000074
:10127A001CE4050800000000000000000D930108AE
:10128A0050C300000300000000000000000000003E
:10129A000000000000000000000000000000000044
:1012AA000000000000000000000000000000000034
:1012BA0028E4050800000000000000001D71030872
:1012CA0040420F0000000000000000000000000083
:1012DA000000000000000000000000000000000004
:1012EA0000000000000000000000000000000000F4
:1012FA0034E405080000000000000000B16F030894
:10130A0050C30000000000000000000000000000C0
:10131A0000000000000000000000000000000000C3
:10132A0000000000000000000000000000000000B3
:10133A0001FF010058780020AC780020D601010096
:10134A00000000000000000000000000FC930508F7
:10135A00000000000000000000000000B49405082E
:10136A000000000000000000000000006094050872
:10137A0000000000000000001DC20108557C00208A
:10138A00C9CD01080BCF01080000000050950508DF
:10139A008DCF010800000000000000000895050834
:1013AA00FFFFFFFF8DC501080000000000000000DC
:1013BA008C93050801000000FA00000001000000FB
:1013CA0001000000010100000001010100FF01000D
:1013DA00AC7600200000F40101000000AA7600208B
:1013EA000000F40101000000A87600200000F401CA
:1013FA0001000000A67600200000F40101000000B0
:10140A00A47600200000F40101000000A27600206A
:10141A000000F40101000000A07600200000F401A1
:10142A000100000005A10108C9A001080000000090
:10143A005C80050890760020053201009E76002027
:10144A006400F401010000009C7600206400C409D5
:10145A00010000008E760020E803D007010000009A
:10146A008C760020E803D007010000008A7600206D
:10147A00E803D00701000000887600201E00B80BA0
:10148A00010000009676002005000F000100000010
:10149A009876002003000A000100000086760020EA
:1014AA001E00F401010000009A76002002000000EC
:1014BA00E88005088476002014006400010000001A
:1014CA00927600203200E8030100000082760020B4
:1014DA000000C800010000008D75002000C801004E
:1014EA008C750020005001008B750020005A010005
:1014FA008975002002000000F48005086CE90508DF
:10150A0074E90508165800200100C409000000000B
:10151A00145800200100C4090000000012580020DD
:10152A000100C40900000000105800200100C4098D
:10153A00000000000C5800200100C409000000004F
:10154A000E5800200100C409000000000A580020BB
:10155A000100C40900000000085800200100C40965
:10156A00000000002F73002000C801002E73002025
:10157A0000C801002C7300200000FFFF0A000000D1
:10158A002A7300200100C80001000000287300200F
:10159A003200307532000000267300207EFF1400EE
:1015AA00050000002473002005002C01050000003E
:1015BA0022730020055A05001F73002000FF010056
:1015CA002173002002000000D40B00201D730020AC
:1015DA0003000000647905081E73002000FF010063
:1015EA002073002002000000D40B00201C7300208E
:1015FA00030000006479050859A00108E99F010861
:10160A000000000000810508C0760020EE02CA082A
:10161A0001000000BE76002000C80100640000003E
:10162A00BD76002000C8010064000000BC760020DE
:10163A00020000000C820508167300200000803E9C
:10164A00050000001473002080C1803E05000000E0
:10165A000E7300200083007D050000000C7300203B
:10166A0080C1803E050000000773002000FF0100D2
:10167A00007300206400F40101000000FF720020E2
:10168A000400000018820508FE7200200200000013
:10169A002C820508BB7300200D0000003882050863
:1016AA00B873002000640100B673002032001027CE
:1016BA000A000000B47300200D00000038820508FB
:1016CA00B37300200D00000038820508B2730020B1
:1016DA000200000070820508C67600203E00000065
:1016EA007C820508C47600200100FF7F010000000B
:1016FA00C37600200200000078830508BD7300202D
:10170A000300000088830508BC7300200300000062
:10171A00888305087A750020000A01007875002080
:10172A000000E80301000000767500200000E803CD
:10173A0001000000747500200000E80301000000A9
:10174A00727500200000E803010000006A7500209D
:10175A000000E80301000000707500200000E803A3
:10176A00010000006E7500200000E803010000007F
:10177A006C7500200014010088750020020000002A
:10178A0098830508867500200000F4010100000016
:10179A00847500200000F401010000008275002019
:1017AA000000F40101000000807500200000F4012F
:1017BA00010000007E7500200000A00F010000005B
:1017CA007C7500200000A00F010000006F76002049
:1017DA00196401006E76002002000000A483050847
:1017EA006C760020E803D0070A0000006A76002021
:1017FA00006401000A0000005F7600200064010016
:10180A005E76002000640100667600200064010014
:10181A000A00000065760020006401000A0000004A
:10182A0064760020006401000A0000006976002046
:10183A0000FF01000A0000006876002000FF010096
:10184A000A0000006776002000FF01000A0000007D
:10185A006376002001FF01000A0000006276002082
:10186A0001FF01000A0000006176002001FF01006B
:10187A000A000000C67300200000F4010100000005
:10188A00C47300200000A00F01000000C2730020F2
:10189A000000A00F01000000C07300200000A00F8C
:1018AA0001000000BE7300200000A00F010000002C
:1018BA009D7C002000C801009C7C0020006401007F
:1018CA009B7C0020006401009A7C002000640100D7
:1018DA00997C002000640100987C0020FF08010028
:1018EA00977C002001640100519F0108159F01089F
:1018FA0000000000B0830508A07C0020013201002E
:10190A009F7C002001000000208405089E7C0020A6
:10191A000400000028840508967C00200064010069
:10192A00947C00201400E80301000000927C00204F
:10193A00E80330750A000000917C002000C801000D
:10194A00907C002000C801008F7C002000C80100A4
:10195A008E7C002000320100A27C0020004B010096
:10196A00A17C0020040000003C8405088D7C002036
:10197A00006401000A000000B07C00200000D007CB
:10198A0001000000AB7C002000C80100AA7C0020F6
:10199A0000C80100A97C002000C80100AE7C00201C
:1019AA000000D00701000000A87C002000C8010048
:1019BA00A77C002000C80100A67C002000C8010006
:1019CA00AC7C00200000D00701000000A57C0020AC
:1019DA0000C80100A47C002000C80100A37C0020EC
:1019EA0000C80100099D0108F19C010800000000DF
:1019FA0050840508A9730020005A0100A87300202A
:101A0A0000C80100A6730020E803D0070100000007
:101A1A0000000000000000005DC20108EC84050817
:101A2A00424545425241494E5F424C5F56335F360A
:101A3A00350000001B730020000301001A73002008
:101A4A0000030100359C0108F19B01080000000019
:101A5A0034850508B19B0108699B01080000000054
:101A6A00D0850508799C010871C5010800000000AD
:101A7A00508605081873002001030100C5A101085A
:101A8A0099A1010800000000A8890508119B010816
:101A9A00E19A010800000000188A0508199D01084A
:101AAA00D9D4010800000000B48A050809C3010856
:101ABA00F1A10108000000005C8B0508699D01087E
:101ACA000000000000000000DC8B0508459E0108AC
:101ADA00ED9D010800000000408C0508D99E010810
:101AEA009D9E010800000000E88C0508D11B020831
:101AFA008D9F010800000000748D05088176002082
:101B0A0001060100B19D01087D9D01080000000049
:101B1A00708E0508051B02080DC7010800000000A9
:101B2A00E08E05081D1C0208D5C701080000000048
:101B3A00309005088076002001030100C19C01084D
:101B4A00919C01080000000004910508791C020814
:101B5A00000000000000000068910508419B010890
:101B6A0059C5010800000000E891050800000000BE
:101B7A00000000000000000074920508C19F0108DF
:101B8A004DC8010800000000E4920508FC7200201C
:101B9A0002000000FC9405088C9600200000803F9B
:101BAA00000000000000000000000000000000002B
:101BBA00000000000000000000000000000000001B
:101BCA00000000000000803F00000000000000004C
:101BDA00000000000000803F00000000000000003C
:101BEA00000000000000803F00000000000000002C
:101BFA0000000000010000000000FA430000FA4360
:101C0A000000803FB19403080000000000000000BB
:101C1A0000000000FFFFFFFFFFFFFFFFFF000000C3
:101C2A000000000024B700200800000000000000A7
:101C3A0014B7002008000000200000008589000871
:101C4A006588000885DF0008000000009D83000801
:101C5A003DDD0008DD870008A5DC00080000000063
:101C6A000000000059830008F5880008258800084C
:101C7A00D1DE00080000000071830008A9DC00081A
:101C8A00B1870008F9DB000800000000000000002E
:101C9A0065830008006002401060024000000000F6
:101CAA0000000000000B000000000000000000001F
:101CBA0000000000006002402860024001000000AD
:101CCA0000000000060C00000000000000000000F8
:101CDA000000000000600240406002400200000074
:101CEA0000000000100D00000000000000000000CD
:101CFA00000000000060024058600240030000003B
:101D0A0000000000160E00000000000000000000A5
:101D1A000000000000600240706002400400000001
:101D2A0000000000200F000000000000000000007A
:101D3A0000000000006002408860024005000000C8
:101D4A000000000026100000000000000000000053
:101D5A000000000000600240A0600240060000008F
:101D6A000000000030110000000000000000000028
:101D7A000000000000600240B86002400700000056
:101D8A0000000000362F00000000000000000000E4
:101D9A0000000000006402401064024000000000DD
:101DAA0000000000003800000000000000000000F1
:101DBA0000000000006402402864024001000000A4
:101DCA0000000000063900000000000000000000CA
:101DDA00000000000064024040640240020000006B
:101DEA0000000000103A000000000000000000009F
:101DFA000000000000640240586402400300000032
:101E0A0000000000163B0000000000000000000077
:101E1A0000000000006402407064024004000000F8
:101E2A0000000000203C000000000000000000004C
:101E3A0000000000006402408864024005000000BF
:101E4A00000000002644000000000000000000001E
:101E5A000000000000640240A06402400600000086
:101E6A0000000000304500000000000000000000F3
:101E7A000000000000640240B8640240070000004D
:101E8A0000000000364600000000000000000000CC
:101E9A000000000001000000A00F0000B80B0000C5
:101EAA0002FFFF01280F06080000080205030300CD
:101EBA0000000000300F06080100080205040300B4
:101ECA0000000000800506080200FE010110030060
:101EDA0000000000CCEC0508030014020003000017
:101EEA0000000000380F060804001F020200080064
:101EFA0000000000400F060805001F02020108004A
:101F0A0000000000FFFF0000FFFFFFFF01000000CC
:101F1A0000000401000000000000000210000000A0
:101F2A0007000101FFFF0100141600200000000055
:101F3A00000000000102030406070809978100084F
:101F4A00018B0008F98A0008F78A0008B997000887
:101F5A004D970008CD960008ED8A0008DD8A000832
:101F6A00CD8A0008BD8A0008B98A0008010000006D
:101F7A004C160020000000000000000000000000D5
:101F8A000000000000000000000000000000000047
:101F9A000000000000000000000000000000000037
:101FAA000000000000000000000000000000000027
:101FBA000000000000000000000000000000000017
:101FCA000000000000000000000000000000000007
:041FDA000000000003
:082800000000000000000000D0
:108000002DE9F04700230F6801264FF0030C02E032
:108010000133102B41D006FA03F232EA0704F7D1FC
:10802000D0F800E05C000CFA04F52EEA050EC0F86A
:1080300000E091F80490D0F800A009FA04FE09F1DC
:10804000FF394EEA0A0EB9F1010FA846C0F800E068
:108050006FEA050515D8D0F808E005EA0E05856039
:108060004D79D0F808E0A54045EA0E0585604568E1
:1080700025EA020242608A7945689A4092B22A4310
:108080004260C26822EA0802C260CA79C568A2409A
:1080900001332A43102BC260BDD1BDE8F08700BF79
:1080A000037830B403B30246C0F10105531912F846
:1080B000014FDBB2002CF9D101335B00DAB20C4C7A
:1080C0000B80032322706370017859B102230025CD
:1080D0005A1CD2B2E154A55410F8011F0233DBB28E
:1080E0000029F5D130BC704702221346E7E700BFF4
:1080F000B0160020084AD2E9403199420AD0D1187E
:10810000013391F808110170C3F30A03C2F800317A
:108110000120704700207047B0160020064AD2F8B0
:108120000839D2F80C29934294BF4FF40060002024
:10813000013B9B1A18447047B0160020012380F8B9
:108140005130704707B501A8FFF7D4FF0028FAD0D7
:108150009DF8040003B05DF804FB044BD3E9400331
:10816000984288BF03F50063181A7047B0160020C4
:1081700001207047024BC3F81029C3F81419704747
:10818000B0160020024BC3F81829C3F81C19704719
:10819000B016002070477047704700BF30B4134DD1
:1081A000D5E940239A4286BF03F50064A21A9A1AC1
:1081B0000A44B2F5006F13D8A9B101444A1E013830
:1081C00010F8014FE918824203F1010381F80841D8
:1081D000C3F30A03F4D1C5F80431002030BC704762
:1081E000022030BC70470846F8E700BFB0160020F8
:1081F000212838B50C4605D022282ED0202813D0AF
:10820000002038BD0029FBD0072AF9D11A4BD3F83A
:10821000200993F8241993F8252993F8263920602A
:1082200021716271A371EBE70029E9D0072AE7D138
:10823000114DD5F814391BB10968D5F810099847C4
:10824000206821796279A379C5F8200985F8241975
:1082500085F8252985F82639D2E70029D0D0022AC9
:10826000CED1054AD2F81C39002BC9D00988D2F8E2
:1082700018099847C4E700BFB0160020024B002041
:10828000C3F82809704700BFB0160020044B002037
:108290000522C3F82829C3F81C09C3F8140970473C
:1082A000B0160020704700BF704700BF704700BF86
:1082B000704700BF704700BF704700BF704700BFE6
:1082C00008B50248FFF7ECFE014808BD50DE05087E
:1082D000B016002008B50248FFF7E2FE014808BDCD
:1082E00060DE0508B016002008B50248FFF7D8FE8A
:1082F000014808BD6CDE0508B016002008B502482C
:10830000FFF7CEFE014808BD78DE0508B016002054
:1083100008B50248FFF7C4FE014808BD84DE050821
:10832000B0160020042301480B80704798010020FC
:1083300010B4074A074B92F82C09122403F11402D7
:108340000C8001280CBF184610465DF8044B70479E
:10835000B01600209C010020642301480B80704768
:10836000C4010020432301480B80704728020020ED
:1083700010B5084CD4F8D400FF2809D00649D1F82C
:10838000302901F63411FFF733FFFF23C4F8D4304E
:10839000002010BD98010020B0160020E8E700BFC3
:1083A00008B5D0F8E4355B6A9847002008BD00BFE7
:1083B00008B5D0F8E4351B6A9847002008BD00BF17
:1083C000D0F8E43510B504461B689847D4F8E83572
:1083D0009B689847002010BD08B5D0F8E435DB69EC
:1083E00003B19847002008BD08B5042290F8121187
:1083F000D0F8E83580F8131180F81221DB6898472F
:10840000002008BD10B5D0F8E83504461B69984730
:10841000032384F81231002010BD00BF0B0617D4CF
:1084200001EB810300EBC30310B400EB81000124D6
:10843000002283F8764383F8741383F87523426D22
:108440005DF8044B136843F4001300201360704779
:1084500001F07F0101EB810300EBC303012200EB7C
:10846000810083F81C1183F81E2183F81D21826985
:108470001368002B01DA43F0804343F400131360C8
:108480000020704782B00023016801930B690193BB
:108490000E4B03E00A690192013B13D0019A002AB6
:1084A000F8DA019A094B42F001020192019A0A613D
:1084B0000A69019203E00A690192013B02D0019A24
:1084C000D207F8D4002002B0704700BF400D03006F
:1084D000436D064A1A61C278012A06D100F2CC50D7
:1084E00058614FF0802219681A60704718000860C0
:1084F00010B580210446FFF791FF20460021FFF7C9
:108500008DFF2046BDE81040E2E700BF70B44B7815
:10851000012B26D00B784A6900EB83035C6D25683C
:108520002369D2B18A684A6102F07F0223F40023F2
:1085300023F07F0342F4002213432361C378012B0D
:1085400004BF0B696361C5F3076363F07B0363F3E7
:108550001F652560002070BC70478A6802F07F02AA
:10856000E4E782694C691568136944B38E68B442C4
:108570008CBF06F07F0404F07F0423F4002323F073
:108580007F0344F4002443EA040388BF4E6113616F
:10859000C378012B1DD0C5F3076464F07B0464F33A
:1085A0001F651560002BD5D14B69002BD2D0026915
:1085B0000878516B012383400B435363CAE723F4CC
:1085C000002323F07F0343F400231361C378012BBE
:1085D000E1D10B780C6900EB8300C5F30763816977
:1085E00063F07B0363F31F654C610020156070BC72
:1085F000704700BF2DE9F0434B78012B30D00B784A
:108600004C6900EB83035E6D356837691CB38B687A
:108610001C44013CB4FBF3F4C4F3090203FB02F372
:10862000C3F312034B61144643EAC44363F31C07CC
:108630003761C378012B04BF0B697361CB78012BC1
:1086400044D0C5F3076363F07B0363F31F653560B4
:108650000020BDE8F0838A680124C2F31203E3E737
:1086600091F800804E6900EB880EDEF818C0DCF847
:108670000050DCF8107076B3D1F80890384A06EB59
:108680000904013CB4FBF9F402EAC444C6F3120243
:108690002243CC7807F060473A43012C174649D073
:1086A000CCF81020C278012A55D00269516B03FA28
:1086B00008F30B435363C5F3076363F07B0363F372
:1086C0001F65CCF800500020BDE8F0834B7973B3F0
:1086D00045F00055B5E707F0604747F40027CC7830
:1086E000CCF81070C378012B2FD0012CE3D1026994
:1086F0009268D20554BF45F0005545F08055C5F34A
:10870000076262F07B0262F31F65CCF80050002B19
:108710009ED1B0B203308010DEF8D04098D0CA6845
:1087200052F8041B216001339842F9D190E745F0DB
:10873000805586E764F35E77CCF81070C378012B20
:10874000D5D10A69CCF81420D1E70A69CCF81420F5
:10875000012CB0D1CBE70B69CCF81430ABE700BFEC
:108760000000F81F38B501EB810400EBC4040D468E
:10877000002184F87453C4F88C1384F87513C4F87A
:108780008833C4F88023C3782821012B01FB05011D
:1087900008BFEDB201F55D7108BFC4F884231DB9AF
:1087A000FFF7B4FE002038BDFFF724FF002038BDDE
:1087B00010B501EB8101084A00EBC1010446B1F894
:1087C0008C131046FFF7EAFC034A204640230121A0
:1087D000FFF7C8FF002010BDEC1F0020E8E700BF36
:1087E00030B44C780022012C154612D0097800EBE9
:1087F000810401238B40646D63F31F4501696FF3AE
:10880000CF322260CB6923EA0503002030BCCB6164
:1088100070470B7800EB83019C4064F30F058C6973
:10882000ECE700BF40F2011310B500F5A271044659
:10883000A0F84431FFF7D4FF0123A4F89C3304F5DA
:1088400067712046FFF7CCFF4FF48173A4F86C31B9
:1088500004F5B6712046FFF7C3FFFFF70FFD0020B8
:1088600010BD00BF38B540F2031304460D46A0F812
:10887000943100F5CA71FFF7B3FF29462046FFF790
:10888000D1FF002038BD00BFF0B44B780A78012B2F
:108890004FF0000400EB820524D0012393406D6D5E
:1088A00063F31F442E68330415D48A6891F803C01B
:1088B000CF880F49C2F30A0242F0805343F40043C9
:1088C0000CF0030243EA824307F00F0243EA8253AB
:1088D00031400B432B600369DA691443DC610020EB
:1088E000F0BC70479340AD6963F30F04DAE700BF53
:1088F000007833EC2DE9F04140F2011304460225E3
:108900004FF0400801270026A0F84431C0F84C8100
:1089100080F84751A0F84A7180F8486100F5A271CB
:10892000FFF7B2FF04F56771A4F89C73C4F8A48341
:1089300084F89F5384F8A0632046FFF7A5FF082220
:1089400003234FF48171C4F87421A4F86C1184F8E6
:108950006F3104F5B671A4F872512046FFF794FF09
:10896000064B9D83FFF792FC054A43462046394655
:10897000FFF7F8FE3046BDE8F08100BF9801002007
:10898000EC1F002070B50323092240F203160446B1
:108990000D46C0F89C2180F89731A0F89A31A0F8D4
:1089A000946100F5CA71FFF76FFF29462046FFF773
:1089B000A1FF002070BD00BF70B500254026044611
:1089C000A0F8745380F87753C0F87C6300F55D71AC
:1089D000FFF75AFF4FF48073A4F81C3104F58E7131
:1089E000C4F8246184F81F51A4F822512046FFF7EF
:1089F0004BFFD4F8E835A078012284F812215B6897
:108A00009847284670BD00BF82B000230193019AA9
:108A1000094B42F010020192C168019A0A610A6989
:108A2000019203E00A690192013B02D0019AD20649
:108A3000F8D4002002B07047400D030082B000233C
:108A40000193019A0B4B42F020020192019A61F3CB
:108A50008A120192C168019A0A610A69019203E0CF
:108A60000A690192013B02D0019A9206F8D40020D3
:108A700002B07047400D03000E4BDA68D20310D4E9
:108A8000DA68D1060FD4DA68D20510D4DA6812F0A9
:108A9000E00F0AD1DB6813F0020F14BF0820092091
:108AA000704701207047062070470720704702205A
:108AB000704700BF003C024000207047024B93F813
:108AC0007C390B6001207047B0160020024BB3F8D0
:108AD0007E390B8001207047B0160020024B93F8BE
:108AE00080390B7001207047B016002000230B70F6
:108AF0000120137070477047003818BF012070477D
:108B000001207047F0B5114B93F88C49B3F8827986
:108B100093F88419B3F88669B3F8885993F88A29C9
:108B200014F0010F0AD193F893393BB9012A0BD005
:108B3000022A03D114F0020F08BF012107808170BF
:108B40008680C5800272F0BD1146F7E7B01600209E
:108B50000023038083708380C3800372704700BF4B
:108B6000074A92F8B83992F8B9190133DBB2994241
:108B700082F8B83904BF002382F8B839704700BFC3
:108B8000B0160020F8B5794CD4F8BC3983B1D4F8CC
:108B9000C03993F82E305BB1754B94F8C429A3FB10
:108BA0000013012A4FEA931330D0022A08D002B1F1
:108BB000F8BD704B9842FBD9012384F8C439F8BD45
:108BC000D4F8C82964329A423ED894F8B83904EBF4
:108BD000031393F8482EFF2A06D06749013201207B
:108BE00083F8482E81F8D800FFF7BAFF94F83C3E8E
:108BF0000122092B84F8C429DAD1B4F8E63E1344E3
:108C00009BB2A4F8E63EA4F8423EF8BD94F8B81929
:108C1000C4F8C8398C2303FB014394F83C0E83F855
:108C2000DE29002604F51D650A220223092884F89E
:108C3000DA69C4F8CC5984F8DB2984F8C439B7D18F
:108C40000131A4F8401EF8BD94F8DA2994F8DB3914
:108C50009A42ADD104F6CF1004F6D815002310F8CF
:108C6000012F082153405A0013F0800F08BF5B000A
:108C700082F0070214BFD3B2DBB20139F3D18542CF
:108C8000EDD194F8D9299A4239D194F8B869B4F859
:108C9000D35994F8D779B4F8D50994F8D83994F819
:108CA000D1C904EB06126DBA40BA43EA0723ADB24C
:108CB00094F8D27982F8481EC2F84C5E81B22E4DEB
:108CC00094F9D009C2F8501E47EA0C271BB20121C3
:108CD000032EA2F84A7EA2F8543E82F8490E85F887
:108CE000D81009D894F83C2E0C2A2AD00D2A03D18A
:108CF00004EB4606A6F8400EFFF732FF5CE794F857
:108D0000B83904EB031393F8482EFF2A06D01A490A
:108D10000132012083F8482E81F8D800FFF720FFA8
:108D200094F83C3E0122092B84F8C4297FF440AF1B
:108D3000B4F8E43E13449BB2A4F8E43EA4F8443EE5
:108D4000F8BD94F8E21E0D4A03EB830303EB8303A3
:108D500049089B0004EB460693FBF1F382FB0312E8
:108D6000DB17C3EBA203A6F8403EC5E7B016002010
:108D7000D34D62103F4B4C00980100206766666639
:108D80000B4B93F8DA1993F8DB2991420ED010B40B
:108D900093F8DA29D3F8CC49511CD2B2C0B2C9B287
:108DA00083F8DA19A0545DF8044B7047704700BF90
:108DB000B0160020FD2870B522D0F02804D0EF288E
:108DC00022D00224204670BD114D032005264128E3
:108DD0002E444FF0000405F1010580F080030DD012
:108DE000042B0BD9FFF7E6FF2044B542C4B2E9D00B
:108DF00015F8010B412880F08003F1D10420F3E73E
:108E0000044D0B200426E2E7034D0C200626DEE786
:108E1000606E05085C6E0508686E05080C4AD2F89D
:108E2000FC3E30B41C68D2F8F45E5D601981002508
:108E3000611C19609D812070D2F8FC3ED2F8F41EAE
:108E40001A685A604FF6F67230BC19609A81704702
:108E5000B016002000B583B00268084B8188CDF8B9
:108E600001203222D3F8003FADF805108DF8002024
:108E70006846984703B05DF804FB00BFB0160020B9
:108E80005E2810B511D05D2805D00D4BBDE810400F
:108E9000D3F8043F18470A4CD4F8043F9847D4F855
:108EA000043F3D20BDE810401847054C5D20D4F834
:108EB000043F9847D4F8043F3E20BDE810401847CF
:108EC000B016002070B5094E0546D6F8043F5E2066
:108ED0000C469847D6F8043F28469847E0B2FFF77B
:108EE000CFFFC4F30720BDE87040C9E7B0160020EB
:108EF00003682DE9F041002B3D4D3E4F3E4EB8BF7B
:108F00005B42A5FB0321890D07FB0137C7EB071760
:108F1000BF0096F80E3F85FB0725FA170446C2EB03
:108F2000A555002B57D101EB810101EB810105EB28
:108F3000810109B2DFF8BC801320FFF7C3FF2F497E
:108F400008FB057581FB0531ED17C5EBA11109B2D1
:108F50001B20FFF7B7FF2368254D002BB4BF53211B
:108F60004E212320FFF7AEFF636896F80E2F83EAA9
:108F7000E376A6EBE376A5FB0631890D08FB0168D5
:108F8000C8EB08184FEA880885FB08354FEAE873F4
:108F9000C3EBA5552ABB01EB810101EB810105EB78
:108FA000810109B21220FFF78DFF124B134903FB19
:108FB000058581FB0531ED17C5EBA11109B21A201A
:108FC000FFF780FF6368002BBDE8F041B4BF572175
:108FD0004521222076E7C1EB011105EB810109B2A1
:108FE000A8E7C1EB011105EB810109B2DAE700BF87
:108FF0006BCA5F6B806967FFB0160020D34D6210AB
:10900000F8B5614D614C05F5736300214FF4F072C2
:1090100085F82C1F0646202118464DF0CEFE4FF451
:10902000F07200F5F07020214DF0C7FE94F8F901C0
:1090300010B194F8FA210AB90020F8BD38F0ECFF1D
:10904000C4F8040228B182790AB1412AF4D123225A
:10905000C280092135F0F2F9D4F8040239F0C4FADB
:1090600094F8FA31013B5BB25A1C7ED0022B7CDCB7
:1090700004EB0313D3F80802C4F800020223102102
:1090800084F8FC3147F084FAD4F80432012285F8E0
:109090002C2F0BB12322DA803D4FD4F80002B7F811
:1090A000DA1047F075FAD4F8040239F097FA402143
:1090B0000A204AF0C3FBFF218A204AF0BFFBC0F31D
:1090C0008013D4F8040284F8383239F08DFAD4F8D9
:1090D0000002042147F05CFA94F8F831012B4AD0E1
:1090E000022B3ED0002B42D095F83C3E182B09D1E4
:1090F00094F83822B7F8DA30A5F8406EA5F8422E79
:10910000A5F8443EB7F8DA10D4F8000247F040FA68
:10911000B7F8DA10D4F8000247F03AFAD4F80402AB
:1091200039F05CFA022100204AF088FBD4F80402EE
:1091300039F05AFAD4F80002042147F029FA94F8D9
:109140003D2294F83E3294F83C1284F83912C2F170
:109150002002C3F1100384F83F2284F8403201203A
:10916000F8BD0823A7F8DA30BEE7002084E7102313
:10917000A7F8DA30B8E7002EF3D094F83832002B95
:1091800014BF08231023EDE7B0160020A827002005
:109190009801002008B5044BD3F8440236F05EFA7B
:1091A000B0FA80F0400908BDA82700202DE9F04F53
:1091B000CE4DCF4C84460F4616460FCD2DED068B77
:1091C0000FC40FCD0FC495E80700CA4B8BB093F8BE
:1091D000CA3E059684E80700CDE906C7042B00F2D5
:1091E0004B81DFE813F0B001490144010500C001E3
:1091F0009FEDC18ADFEDC18ADFF83483C049C8F82A
:109200006412C049C04BC14AC8F8601205990029D0
:1092100018BF134638EE887AF5EE006AC6EE879AD4
:10922000BB4EC8F86C32BB4B039306F1C007002558
:10923000DFEDB97A9FEDB99A28EE278AB0EE67AADA
:10924000079BAB4200F00D81039B13F8014B039386
:1092500005F1010B5FFA8BF3002C00F089810022ED
:1092600003E00132152A00F0838102EB42014FEA4C
:109270004209785CA042F4D14144049391F83D1333
:10928000002900F07D81204634F0B4FD824600685C
:1092900034F054FD9AF8051034F0F4FE90F800C054
:1092A000BCF1000F40F0648108EB09014FEA14198A
:1092B000032209F1FF39049B81F87D33914581F840
:1092C0007C2304F00F0000F20381954C04EB49016C
:1092D000B1F840C04CFA00F111F0010100F0318109
:1092E000012101FA00F0013800EA0C00A1440493C6
:1092F0004BF030FB99F848C0DFF838E2049B60443B
:109300000EEBC00C03228CF807308CF806205EF8B8
:109310003000C6F814C000F13F4303F57E0304EBB0
:109320009324012194F84C309AF8082003F01F048C
:109330005B09032B01FA04F100F0FE80042B00F01E
:10934000CF80022B00F0C780BCF804300893B3FA3A
:1093500083F3C3F11F03C3F3CC0100EB810103F0DE
:1093600007030C6A9B004FF00F0C0CFA03FC24EA75
:109370000C040C620C6A02FA03F323430B6202230F
:1093800008A90993FEF73CFE059B002B79D0594BA9
:10939000D8F83015B3F8C83E07EE903AF8EEE77A01
:1093A000FCEEE77A17EE900AB1FBF0F202F57F428D
:1093B000FF32120CB1FBF2F24E49B2FBF0F091F821
:1093C000CA1E042983B274D007EE902AF8EE676AA9
:1093D00066EE887A29EE677A4649A8EEA67A91F871
:1093E000CB0E06990091019051463046C6ED027AA7
:1093F00086ED037A2AF004F9002D65DD7368D8F84C
:109400008022934262D0012D5ED0D8F898229342F8
:109410005CD0022D58D0D8F8B022934256D0032DFC
:1094200052D0D8F8C822934250D0042D4CD0D8F84E
:10943000E02293424AD0052D46D0D8F8F822934234
:1094400044D0062D40D0D8F81023D31A18BF0123DA
:109450005D460122082D3374727406F118067FF4FC
:10946000EFAE23480BB0BDEC068BBDE8F08F9FED4F
:109470002D8AF0EE488ABFE69FED2B8AF0EE488AEF
:10948000BAE6B0EE690A4CF09BF8FCEEC07A4FF6F3
:10949000FF7317EE902AD8F83015B1FBF2F21A4498
:1094A000120CB1FBF2F2134991F8CA1E04291846B6
:1094B0008AD107EE900A07EE102AF8EE677AF8EEE6
:1094C000476A67EE8A7A85E70123C1E70023BFE791
:1094D000C6F814C058E7154B5C6C2143596433E758
:1094E000124B1C6B214319632EE700BF706E0508F9
:1094F000F0290020B0160020ACC5A737ACC5A736B0
:109500004DC802080DC70308EDC4020801C70308CF
:10951000242A00207F2500206F12833A00007A441D
:109520005C6E0508282930386F1203390038024074
:10953000A8270020502B0020124B1C6C21431964DB
:1095400002E7716120E7DFF858809FED0F8A0F4A2C
:109550000F4BC8E9983201230022CDE90532F0EE25
:10956000488A0C4B56E6DFF838809FED0B8AEEE711
:109570000A4A084BC8F86422C8F86C32002071E728
:109580000B68FFDE003802406F12833A4DC80208B4
:109590000DC7030801C70308000000003DC602080C
:1095A000A8270020F8B51A4D95F83435002BFBD1CB
:1095B00061B30144174F4E1E441ED7F80C29D7F84B
:1095C000081914F801CF531CC3F30A038B422CBFB4
:1095D0004FF400600020C91A2A4401440129C7F849
:1095E0000C3982F838C50FD1012035F075FCD7F859
:1095F0000839D7F80C198B4294BF4FF4006200224F
:109600005B1A1344012BEFD0B442D6D10020F8BD31
:10961000A8270020B016002010B590F850100023A5
:1096200080F8503089B10C4CD4F828297AB1D4F89C
:109630002829052A0DD1094C3C30D4F8383DFFF7D4
:10964000B1FFD4F8383D012010BD0120FCE71046E1
:10965000FAE71846F8E700BFB0160020A827002058
:10966000002280F85120D7E790F85020531C024484
:10967000DBB280F8503082F83C1090F851200AB1EB
:10968000132B00D9C8E770470A4B0846D3F82819AE
:1096900010B569B1D3F82839052B09D1064C002A39
:1096A000D4F8383D04DD1146FFF77CFFD4F8383D8F
:1096B00010BD00BFB0160020A8270020024B0146B5
:1096C000D3F83C0D35F0CEBFA8270020A1F5AF534D
:1096D000B3F5AF7F70B52ED8174BB3F87E298A4209
:1096E00029D0A3F87E19154B154CD3F8403DA1FBAA
:1096F00004455868802146F04BFF43F2102048F0A3
:109700001EFD0A2035F0CAFA0E4A002320462946DB
:109710004BF008F9C0F305104601294620460A4AD5
:1097200000234BF0FFF846EA003040F01100BDE89E
:10973000704048F004BD70BDB0160020A82700207E
:109740000084D71740420F000000093D184B37B581
:1097500093F87C2904461D4659B142B9012283F889
:109760007C29144BD3F8440D08B138F037FF03B00F
:1097700030BD002AFBD083F87C190E4BD3F8440D82
:1097800008B138F031FF95F9801900230DF1060278
:109790002046ADF8063013F05DFA9DF8060048F05B
:1097A00007FDB5F87E192046FFF790FFDFE700BF01
:1097B000B0160020A827002013B500230DF10602E3
:1097C0000C46ADF8063013F045FA30B1044B9DF865
:1097D000060083F8804948F0EBFC02B010BD00BFE2
:1097E000B01600202DE9F04FA64E96F8483D8DB0FA
:1097F0008046002B40F0BB80D6F84C5D002D00F079
:10980000B680A14AD2F8DC7007F0F021B1F1E02F68
:1098100074D1C2F8DC30D6F8502D97426ED09B4CF4
:109820000693B4F886290793ADF8203094F882C9DE
:10983000ADF81C2094F8833994F88A2994F884B9F7
:109840008DF818C00DF118098DF819308DF81AB07F
:109850008DF8202099E807000DF1240EAEE80300F2
:109860008B48AEF80020C7F342520244C6F8507D40
:1098700092F85210C7F303428C4502F1010282466E
:1098800001D1934208D028468DF824108DF8252068
:1098900013F0F6F9ADF82800284613F055FB01281F
:1098A00005BF07F007039A4400239AF8573003A92D
:1098B0009B45284618BF8DF8263013F07FFA48B133
:1098C000039BC7F3001103F001038B4202D028462B
:1098D00013F018FB0A2209A948464DF046FA68B170
:1098E0009DF82630BDF8242084F88439A4F8822914
:1098F000BDF82830A4F8863942F0B8FE96F854BD79
:10990000DFF888A106AF96F8543D032B74D8DFE842
:1099100003F002316F993946284613F052FA044693
:1099200080B109A8FFF7EEF89DF826109DF81830D1
:109930008B4261D0D6F8583D994203DC2B6828460B
:109940001B69984796F8543D013303F0030386F8EA
:10995000543D0CB99B45D6D14C4B93F88C39DB0761
:1099600000D524B12B6841461B68284698470DB0A6
:10997000BDE8F08F03A8FFF7C5F89DF80C40002C58
:10998000E0D09AF88C39D90736D43A460DF10B015C
:10999000284613F06FFA044670B309A8FFF7B2F82F
:1099A0009DF824909DF80B309DF825204B4503D160
:1099B0009DF8183093421FD049462846019213F073
:1099C0005FF90028BED006EB0901019A91F85F1DEE
:1099D00086F85C2D86F85D9D2B6821B1DB684946D1
:1099E00028469847AEE701469B6928469847A9E76D
:1099F0009AF88C39DA0701D50024A3E709A928468B
:109A000013F0DCF904460028F6D01E201EF0C6FA3A
:109A100096F8683D83428146EED0099B86F8680D32
:109A200003F0010338B1002BE6D10121284613F0E1
:109A300069FA4C4686E7002BDED00146284613F033
:109A400061FA7FE73846FFF75DF897E8070009AB52
:109A500003C31A809DF818302BB10DF1250209A916
:109A6000284613F007FA0DF12601284613F0A9F94C
:109A70000A2209A938464DF078F9041E18BF0124BE
:109A800060E700BFA827002098010020B016002042
:109A90005C6E05082DE9F041FD2984B004466CD0C8
:109AA000F0294CD0EF2900F0C1804AB10346861856
:109AB00003AD002003F8010B9E4205F8010BF9D11C
:109AC000BB4B0B2003F1090501E013F8010F8142A4
:109AD00058D0AB42F9D14B1E152B24D8DFE813F038
:109AE000C700D200DC00E800F2001600F800060112
:109AF0000201230023002501250125011201120185
:109B000012010201230023001D01AF00A94BB3F88D
:109B1000B01D002900F0688101922CF097FE019A97
:109B200080B2ADF80C003AB1224403AB13F8011B2C
:109B300004F8011BA242F9D104B0BDE8F0819E4FA8
:109B400003214FF00508B844002501370CE0FFF76A
:109B500031F9064660193246FFF79CFF70194745F8
:109B6000C5B2E9D017F8011B412981F080030846EE
:109B700001D0042BEBD80426ECE7904F0B214FF0DB
:109B80000408E0E78B4BD3F83C0E80060CD4002A87
:109B9000D2D0224403AB13F8011B04F8011B9442FA
:109BA000F9D104B0BDE8F08193F8690D10F0020F0F
:109BB00093F8800D3FD0052834BF022503251429D2
:109BC00016D97C39C8B20628E1D80629DFD801A009
:109BD00050F821F0A59D0008A59D00088D9D000866
:109BE0008F9B0008859D00087D9D0008759D0008DD
:109BF0000929CCD90A390A29C9D801A656F821F071
:109C0000619D0008DD9D00088F9B00088F9B000868
:109C10008F9B00088F9B00088F9B00088F9B00087C
:109C20008F9B0008579D0008A59D0008644F0C21DC
:109C30004FF0060887E70B29A9D10125CFE05D4B3E
:109C4000B3F8D01DCD055ABFCB4303F00103032366
:109C500011F0440F18BF042311F0020F18BF07239F
:109C600011F4806F18BF0923ADF80C305BE7514B3E
:109C7000B3F8923D03EB83035B0003F5C873ADF8C3
:109C80000C3050E74F4BD3ED037AFDEEE77A17EE39
:109C9000903AADF80C3046E74B4B464993F8130F1A
:109CA000B1F8883D002840F0A580ADF80C303AE7C7
:109CB0004049B1F8883D91F8901DB3FBF1F3ADF840
:109CC0000C3030E73B4BD3F8C03DADF80C302AE701
:109CD0003D4B93F88C39DE0700F19180354BB3F89A
:109CE000B03DE2E7334BB3F83A3EDEE7314B37495C
:109CF000B3F9383E81FB0301DB17C3EBA103ADF8D9
:109D00000C3010E72B4B03EB4101B1F8163E03EB8F
:109D100083035B00ADF80C3005E72B4B93F88C39CF
:109D200003F00103ADF80C30FDE6294BDFED296AA5
:109D3000D3ED007A0C39C9B203EB810393ED147AA9
:109D400067EEA67A67EE877AFDEEE77A17EE903A2D
:109D5000ADF80C30E7E6B3F87A3DADF80C3016E715
:109D6000B3F87C3D03EB830303EB83039B00ADF867
:109D70000C300CE7D3F8743D039308E7D3F8703D3B
:109D8000039304E7D3F86C3D039300E7B3F87A3DFF
:109D9000114903EBC3039B00A1FB03135B09ADF85F
:109DA0000C30F4E6B3F8843DADF80C30EFE600BFBC
:109DB000BC6E0508A8270020606E05085C6E0508CB
:109DC000686E05083C350020B016002067666666A0
:109DD0007C35002000007A441F85EB51EDB28DF8F0
:109DE0000C508DF80D00D2E6D3F8C80D80F31000AA
:109DF00080B296E691F8901DB3FBF1F355E701921E
:109E000020F0F0FF0A49019A01F69453D3ED037A4A
:109E1000FCEEE77A17EE903A9BB200287FF445AF4C
:109E2000D1F8CC1D11F0100F18BF00233DE700BF83
:109E3000A827002000F01F0240090123032803FA8D
:109E400002F304D004280CD0022805D07047074A3A
:109E5000116C0B4313647047044A516C0B435364F9
:109E60007047024A116B0B4313637047003802407E
:109E7000002845D003682A4A03F13F4101F57E01DD
:109E800002EB9122F0B592F84C2002F01F04520927
:109E90000121032A01FA04F13DD0042A36D0022A16
:109EA0002FD00022B0F804C011460126032706FA7D
:109EB00001FE3EEA0C0001F101011CD11D6807FA08
:109EC00002F425EA04051D60186806FA02F5054348
:109ED0001D609D6825EA04059D6098689860586833
:109EE00020EA0E00586058685860D86820EA0400DC
:109EF000D860D868D860102902F10202D7D1F0BD2D
:109F00007047084A546C21435164CAE7054A146BF0
:109F100021431163C5E7034A146C21431164C0E770
:109F20005C6E050800380240002800F06381036879
:109F30009D4A03F13F4101F57E0102EB912210B4ED
:109F400092F84C2002F01F0452090121032A01FA61
:109F500004F100F06281042A00F05681022A00F028
:109F60004A818288D40700F13381900700F11E8175
:109F7000510700F10781140700F1F280D00600F1CB
:109F8000DD80910600F1C880540600F1B380100610
:109F900000F19E80D10500F18980940574D45005AC
:109FA00061D411054ED4D4043BD4900428D4510478
:109FB00015D4120402D45DF8044B70471A685DF89A
:109FC000044B22F040421A601A681A60DA6822F0E4
:109FD0004042DA60DA6842F08042DA60704719681D
:109FE00021F04051196019681960D96821F0405179
:109FF000D960D968120441F08051D960DBD5DDE722
:10A00000196821F04061196019681960D96821F058
:10A010004061D960D96841F08061D9605104C8D5E8
:10A02000DDE7196821F04071196019681960D96875
:10A0300021F04071D960D968900441F08071D960F5
:10A04000B5D5DDE7196821F4400119601968196078
:10A05000D96821F44001D960D968D40441F4800161
:10A06000D960A2D5DDE7196821F44011196019689B
:10A070001960D96821F44011D960D96841F4801180
:10A08000D96011058FD5DDE7196821F440211960E9
:10A0900019681960D96821F44021D960D968500540
:10A0A00041F48021D9607FF57CAFDCE7196821F4A9
:10A0B0004031196019681960D96821F44031D960BC
:10A0C000D968940541F48031D9607FF568AFDBE74A
:10A0D000196821F44041196019681960D96821F4A0
:10A0E0004041D960D96841F48041D960D1057FF5FC
:10A0F00054AFDBE7196821F4405119601968196001
:10A10000D96821F44051D960D968100641F48051D2
:10A11000D9607FF53FAFDBE7196821F44061196032
:10A1200019681960D96821F44061D960D96854066A
:10A1300041F48061D9607FF52AAFDBE7196821F42B
:10A140004071196019681960D96821F44071D960AB
:10A15000D96841F48071D96091067FF515AFDBE7CE
:10A16000196821F0C001196019681960D96821F0D7
:10A17000C001D960D968D00641F04001D9607FF5AF
:10A1800000AFDBE7196821F0300119601968196028
:10A19000D96821F03001D960D968140741F0100165
:10A1A000D9607FF5EBAEDBE75C6E0508196821F03E
:10A1B0000C01196019681960D96821F00C01D96087
:10A1C000D96841F00401D96051077FF5D4AED9E7D1
:10A1D000196821F00301196019681960D96821F024
:10A1E0000301D960D968900741F00101D9607FF57A
:10A1F000BFAEDBE770470D4A546C2143516482883F
:10A20000D4077FF5B2AEE3E7084A146B214311632C
:10A210008288D4077FF5A9AEDAE7044A146C21439B
:10A2200011648288D4077FF5A0AED1E700380240E0
:10A2300000487047B02B00200E4B30B4DB684278EA
:10A2400001780D4CDB43C3F30223C3F10403DBB2FB
:10A2500002FA03F360181B0101F01F0501224909EE
:10A2600003F0F003AA4080F8003344F8212030BC0A
:10A27000704700BF00ED00E000E100E05C4B5D4A8C
:10A28000D3F8303510B5A2FB033203685A4C910C59
:10A290001A880139A34282B089B292B211D05748CC
:10A2A00083420ED0B3F1804F0BD0A0F580308342B3
:10A2B00007D000F58060834203D000F580608342C0
:10A2C00002D122F0700292B24D48834268D000F56C
:10A2D0008060834243D022F4407200F56C4092B219
:10A2E0004FF6FF7483421A80DC62198564D1002224
:10A2F0001A8601229A821A883F4992B242F00102DC
:10A300008B421A8063D0B3F1804F62D03D4A9342B2
:10A3100061D002F5806293425FD002F58062934281
:10A320005DD002F5806293425BD002F58062934279
:10A3300059D002F59632934257D002F5806293428B
:10A3400013D002F58062934208BF09220ED04FF06D
:10A35000012301A80193FFF76FFF02B010BD4FF674
:10A36000FF701A80D8621985C3E70822264B03EBD9
:10A37000C20301A893F871408DF8044001224FF404
:10A3800080738DF80520ADF80630FFF755FF1B2CC4
:10A39000E3D11E4B019301A8FFF74EFF02B010BDA1
:10A3A00001204FF6FF741A80DC62198598821A88A2
:10A3B00092B202431A80A9E7104A934297D0012231
:10A3C0009A821A8892B242F001021A809BE7002218
:10A3D000CCE70122CAE70222C8E70322C6E704222B
:10A3E000C4E70522C2E70622C0E70722BEE700BF96
:10A3F000A827002083DE1B43000001400004014029
:10A4000000100040000400405C6E050819010001C6
:10A410002DE9F04F89B00193002800F0B3808488C3
:10A42000B4FA84FCBCF1200FCCF11F0500F0AA8027
:10A430000368DFF884A3DFF884E303F13F4606F501
:10A440007E060AEB96200AEB050790F84C0097F879
:10A45000BC70029700F01F090EEB85084009012728
:10A46000B60A0328039607FA09F7C8F8401E00F059
:10A47000AC80042800F08980022800F08B8002F074
:10A480000308C2F3810008F1FF3106460129C2F337
:10A4900000100746C2F3411240F2B481E70700F111
:10A4A0009980A60700F1A680600700F1C58021070A
:10A4B00000F1B180E70600F10381A60600F1EF800C
:10A4C000600600F1DB80210600F1C780E70500F19E
:10A4D0008881A60500F17481600500F1578121058E
:10A4E00000F14381E70400F12F81A60400F11B81F4
:10A4F000600400F10781210400F1F38005F0FC0104
:10A5000001F1804101F59C3105F003058B689DF850
:10A510000C60AD000F22AA4023EA02038B6088681A
:10A52000A34A4FF0004306FA05F5054323FA0CF061
:10A530008D605061136823EA00031360536823EAB7
:10A54000000353601368034313609168019B21EA81
:10A5500000010AEB83039160D16893F8CC4021EAB3
:10A560000001102CD16000F08B8104F1804404F5CF
:10A570009E34236803432360029B9E449EF8803EE2
:10A58000F02B0CD809B0BDE8F08F8A49086B07435F
:10A590000F6374E78748416C0F4347646FE7029B82
:10A5A0009A44F0219AF8D8308DF81C3003224FF4E9
:10A5B000807307A88EF8801E8DF81D20ADF81E3020
:10A5C000FFF73AFE09B0BDE8F08F7A48016C0F43FF
:10A5D000076454E7196821F003011960196848EA13
:10A5E00001011960D96821F00301D960D9681143CC
:10A5F000D96056E7196821F00C011960196841EA21
:10A6000088011960D96821F00C01D960D96841EA44
:10A610008201D96048E7196821F0C0011960196802
:10A6200041EA88111960D96821F0C001D960D96860
:10A6300041EA8211D9603DE7196821F030011960C3
:10A64000196841EA08111960D96821F03001D96010
:10A65000D96841EA0211D96029E7196821F440411B
:10A660001960196841EA88311960D96821F44041BC
:10A67000D960D96841EA8231D96027E7196821F4A5
:10A6800040511960196841EA08311960D96821F40C
:10A690004051D960D96841EA0231D96013E719689D
:10A6A00021F440611960196841EA88211960D9686C
:10A6B00021F44061D960D96841EA8221D960FFE67E
:10A6C000196821F440711960196841EA082119607C
:10A6D000D96821F44071D960D96841EA0221D96072
:10A6E000EBE6196821F040411960196841EA887168
:10A6F0001960D96821F04041D960D96841EA827275
:10A70000DA60FBE6196821F040511960196841EAE6
:10A7100008711960D96821F04051D960D96841EABF
:10A720000271D960E7E6196821F040611960196883
:10A7300041EA88611960D96821F04061D960D9681F
:10A7400041EA8261D960D3E6196821F0407119604D
:10A75000196841EA08611960D96821F04071D9602F
:10A76000D96841EA0261D960BFE6196821F4400165
:10A770001960196841EA88511960D96821F44001CB
:10A78000D960D96841EA8251D960ABE6196821F4F1
:10A7900040111960196841EA08511960D96821F41B
:10A7A0004011D960D96841EA0251D96097E600BFEB
:10A7B000003C0140003802405C6E0508A8270020DC
:10A7C000196821F440211960196841EA884119602B
:10A7D000D96821F44021D960D96841EA8241D96021
:10A7E0007AE6196821F440311960196841EA084194
:10A7F0001960D96821F44031D960D96841EA024131
:10A80000D96066E6CDE904C500203546BC46012185
:10A8100001FA00F939EA04012CD11F68410003262E
:10A820008E4027EA06071F60D3F800B008FA01F748
:10A8300047EA0B071F609F6827EA06079F60D3F867
:10A8400008B005FA01F747EA0B079F605F6827EA3F
:10A8500009075F60D3F804900CFA00F747EA09078C
:10A860005F60DF6827EA0606DE60DE6802FA01F153
:10A870003143D96001301028C9D1DDE904C53DE676
:10A88000936803439360D3680343D36074E600BFC7
:10A890002DE9F84FBA4C94F8871E0546C1F34001E4
:10A8A000D4F88C0E37F0A6FE94F8871ED4F8880EE4
:10A8B000C94301F0010137F09DFE002D00F0CD806D
:10A8C0006E1EB04FB04D5FFA86FB4FF01008D4F803
:10A8D0008C0E37F073FED4F8880E37F06FFEB4F8A4
:10A8E000943E002B40F0438194F8961ED4F8980EC5
:10A8F00037F080FE4FF0FA094FF47A704FF0010CF8
:10A900007B68C3F30803002B40F00881EFF3118349
:10A91000002B40F00381D4F8382DA968D4F8383DD5
:10A920009A42F8D1D4F8BC3E9942F4D8D4F8B86E23
:10A9300000FB06F35B1AB3FBF6F300FB02327B6805
:10A94000C3F30803002B40F0A880EFF31183002B22
:10A9500040F0A380D4F8383DD5F808A0D4F8381DCD
:10A960008B42F7D1D4F8BC1E8A45F3D8D4F8B86E20
:10A9700000FB06F1A1EB0A01B1FBF6F100FB0313AA
:10A980009B1AB3F57A7FDAD3B9F10109B8D1D4F8BB
:10A990008C0E37F013FED4F8880E37F00FFEB4F8A3
:10A9A000943E002B40F0D78094F8961ED4F8980E71
:10A9B00081F0010137F01EFE4FF0FA0C4FF47A706F
:10A9C0004FF0010E7B68C3F30803002B40F0868034
:10A9D000EFF31183002B40F08180D4F8382DA96863
:10A9E000D4F8383D9A42F8D1D4F8BC3E9942F4D814
:10A9F000D4F8B89E00FB09F35B1AB3FBF9F300FB34
:10AA000002327B68C3F308034BBBEFF3118333BB04
:10AA1000D4F8383DD5F808A0D4F8381D8B42F7D1CA
:10AA2000D4F8BC1E8A45F3D8D4F8B89E00FB09F1CF
:10AA3000A1EB0A01B1FBF9F100FB03139B1AB3F57B
:10AA40007A7FDED3BCF1010CBCD10BF1FF365FFA8B
:10AA500086FBBBF1FF0F7FF43AAFBDE8F88FEFF351
:10AA6000118988F31288AE682B68DB0344BFC4F8F1
:10AA7000B4EEAE68D4F8383DD4F8B41E5FFA89F964
:10AA800089F31188D4F8B89E0B4400FB09F1891BA7
:10AA9000B1FBF9F100FB0313D0E7EFF3118E88F35C
:10AAA0001288D5F808A02B68D90344BFC4F8B4CEE7
:10AAB000D5F808A0D4F8383DD4F8B41E5FFA8EFE5D
:10AAC0008EF31188D4F8B86E0B4400FB06F1A1EBAD
:10AAD0000A01B1FBF6F100FB031351E7EFF311811B
:10AAE00088F31288D5F808902B68DA0344BFC4F8BD
:10AAF000B4EED5F80890D4F8383DD4F8B42EC9B2E5
:10AB000081F31188D4F8B81E1A4400FB01F3A3EBBB
:10AB10000903B3FBF1F300FB023272E7EFF311819B
:10AB200088F31288AE682B68DB0344BFC4F8B4CE48
:10AB3000AE68D4F8383DD4F8B42EC9B281F3118888
:10AB4000D4F8B81E1A4400FB01F39B1BB3FBF1F3CE
:10AB500000FB0232F3E6D4F8B03E002B3FF42CAFFA
:10AB6000D4F89C3EC3F8009084F8AD9E24E7D4F856
:10AB7000B03E002B3FF4BEAE34F072FABAE600BF2E
:10AB8000A827002000ED00E010E000E02DE9F84FDC
:10AB9000B74CB84F94F8871ED4F88C0EB64DC1F35D
:10ABA000400137F027FD94F8871ED4F8880EC9437A
:10ABB00001F0010137F01EFD4FF0050B4FF01008BA
:10ABC000D4F88C0E37F0FAFCD4F8880E37F0F6FC87
:10ABD000B4F8943E002B40F0438194F8961ED4F8CC
:10ABE000980E37F007FD32264FF47A704FF0010CC3
:10ABF0007B68C3F30803002B40F00781EFF3118358
:10AC0000002B40F00281D4F8382DA968D4F8383DE3
:10AC10009A42F8D1D4F8BC3E9942F4D8D4F8B8EEB0
:10AC200000FB0EF35B1AB3FBFEF300FB02327B6802
:10AC3000C3F30803002B40F0A780EFF31183002B30
:10AC400040F0A280D4F8383DD5F808A0D4F8381DDB
:10AC50008B42F7D1D4F8BC1E8A45F3D8D4F8B8EEAD
:10AC600000FB0EF1A1EB0A01B1FBFEF100FB0313A7
:10AC70009B1AB3F57A7FDAD3013EB9D1D4F88C0EA2
:10AC800037F09CFCD4F8880E37F098FCB4F8943E6A
:10AC9000002B40F0DA8094F8961ED4F8980E81F0DC
:10ACA000010137F0A7FC4FF0320C4FF47A70012607
:10ACB0007B68C3F30803002B40F08780EFF3118318
:10ACC000002B40F08280D4F8382DA968D4F8383DA4
:10ACD0009A42F8D1D4F8BC3E9942F4D8D4F8B89E40
:10ACE00000FB09F35B1AB3FBF9F300FB02327B684C
:10ACF000C3F308033BBBEFF3118323BBD4F8383D08
:10AD0000D5F808A0D4F8381D8B42F7D1D4F8BC1E72
:10AD10008A45F3D8D4F8B89E00FB09F1A1EB0A01EB
:10AD2000B1FBF9F100FB03139B1AB3F57A7FDED375
:10AD3000BCF1010CBCD10BF1FF3616F0FF0B7FF418
:10AD40003FAFBDE8F88FEFF3118988F31288D5F88B
:10AD500008A02B68DB0344BFC4F8B46ED5F808A084
:10AD6000D4F8383DD4F8B41E5FFA89F989F3118814
:10AD7000D4F8B89E0B4400FB09F1A1EB0A01B1FB2A
:10AD8000F9F100FB0313CFE7EFF3118E88F312887C
:10AD9000D5F808A02B68D90344BFC4F8B4CED5F8C1
:10ADA00008A0D4F8383DD4F8B41E5FFA8EFE8EF3B6
:10ADB0001188D4F8B8EE0B4400FB0EF1A1EB0A01A8
:10ADC000B1FBFEF100FB031352E7EFF3118188F3AF
:10ADD0001288D5F808902B68DA0344BFC4F8B46E23
:10ADE000D5F80890D4F8383DD4F8B42EC9B281F320
:10ADF0001188D4F8B81E1A4400FB01F3A3EB090331
:10AE0000B3FBF1F300FB023271E7EFF3118188F33A
:10AE10001288D5F808E02B68DB0344BFC4F8B4CE31
:10AE2000D5F808E0D4F8383DD4F8B42EC9B281F38F
:10AE30001188D4F8B81E1A4400FB01F3A3EB0E03EB
:10AE4000B3FBF1F300FB0232F1E6D4F8B03E002B85
:10AE50003FF429AFD4F89C3E1E6084F8AD6E22E723
:10AE6000D4F8B03E002B3FF4BEAE34F0F9F8BAE6A9
:10AE7000A827002000ED00E010E000E010B4B8B119
:10AE80000D4CD4F8C03E102B05D15DF8044B0521C4
:10AE9000002033F0BBBD03EB4302224482F8C51E01
:10AEA00001210B4482F8C40E82F8C61EC4F8C03ECD
:10AEB0005DF8044B704700BFA827002000285FD032
:10AEC0000368374A2DE9F04103F13F4404F57E045D
:10AED00002EB9422012492F84C2002F01F05520943
:10AEE000032A04FA05F456D0042A4FD0022A48D087
:10AEF0008588B5FA85F0C0F11F00C0F3CC0603EBDE
:10AF0000860600F0070082000F24306A944020EA91
:10AF100004003062306A01FA02F202430021326218
:10AF20004FF0010E0A464FF0030C02270EFA02F80A
:10AF300038EA050002F101021CD118680CFA01F48C
:10AF400020EA04001860186807FA01F606431E603C
:10AF50009E6826EA04069E6098689860586820EA11
:10AF60000800586058685860D86820EA0400D86023
:10AF7000D868D860102A01F10201D7D1BDE8F0816C
:10AF80007047084A556C2C435464B1E7054A156B69
:10AF90002C431463ACE7034A156C2C431464A7E7F5
:10AFA0005C6E05080038024070B5464E96F8F44EC7
:10AFB00004EB440306EBC303650093F8F83E032B50
:10AFC0006ED8DFE803F059291E02254406EBC505BB
:10AFD000D5F8FC0E002870D196F8583F9C425FD0FF
:10AFE000013404F00302934286F8F42E58D002EBA9
:10AFF000420406EBC4040223C4F8FC0E84F8F83EB5
:10B0000070BD2B1906EBC303D3F8FC2E72B1013AC5
:10B01000C3F8FC2E002070BD2B1906EBC303D3F838
:10B02000FC2E002AF3D1022283F8F82E254406EBE9
:10B03000C50595F8043F013BDBB285F8043F8BBBA7
:10B04000214B96F8586FD3F8E010D5F8000F621C2A
:10B0500002F003024B1E0324B242034485F8F84E6B
:10B06000B3FBF1F0C5F8FC0E1AD0994218D801389C
:10B07000C5F8FC0E012070BD38F05EFF80B1124BA8
:10B080002C44D3F8E02006EBC404012102F51C5344
:10B0900084F8F81E0F33B3FBF2F3C4F8FC3E70BD26
:10B0A000012070BD084BD3F8E020012002F2E73305
:10B0B000B3FBF2F3C5F8FC3E70BD0138C5F8FC0ED9
:10B0C000002070BDA8270020980100202DE9F8433A
:10B0D000C04DC14ED5F80042D5F8387D2288B6F86B
:10B0E000DA30BE49C6F8E47022F040021204120CB5
:10B0F0002280228822F0380212048C424FEA124247
:10B1000075D001F580618C4271D0B3F5807FA8BF06
:10B110004FF48073022BB8BF0223002B93FAA3F3E2
:10B12000B3FA83F308BF4FF0FF33013B42EAC30396
:10B130009BB223802388D5F804229BB243F04003BE
:10B14000238012B1136892885A8333F099FEA38941
:10B15000804642F20F792389990755D520468021F0
:10B1600046F0BAFF052033F099FDD5F8004233F0E0
:10B1700087FEA389804642F20F7923899A0738D542
:10B180002046002146F0A8FFD5F8042296F8E810E2
:10B1900012B1136894881C83D5F80042DFF83CC2D2
:10B1A000238823F040031B041B0C2380238823F0F7
:10B1B00038031B0464454FEA134305D00CF5806C3B
:10B1C000644518BF43F00803238023889BB243F0F3
:10B1D00040038142238021D195F839322BB9D5F82B
:10B1E0005C3FFB1AB3F57A7F1CD8BDE8F8835B0897
:10B1F0008BE733F045FEA0EB08004845BDDD204657
:10B2000038F050FDC0B2BFE733F03AFEA0EB0800C3
:10B210004845A0DD204638F045FDA3E7BDE8F843EA
:10B2200048F046B82188B6F8DA306C4821F0400181
:10B230000904090C2180218821F038010904844285
:10B240004FEA114100F0998000F58060844200F0DF
:10B250009480B3F5807FA8BF4FF48073022BB8BFF2
:10B260000223002B93FAA3F3B3FA83F308BF4FF042
:10B27000FF33013B41EAC3039BB2238023889BB287
:10B2800043F04003238012B1136892885A8333F04D
:10B29000F7FDA389804642F20F7923899B0762D587
:10B2A0002046A02146F018FF052033F0F7FCD5F822
:10B2B000009233F0E5FDB9F80C30044642F20F7805
:10B2C000B9F80830980744D54846002146F004FFF5
:10B2D000D5F8043213B11A689B881383D5F800227D
:10B2E0003E49138823F040031B041B0C1380138872
:10B2F00023F038031B048A424FEA134305D001F5BB
:10B3000080618A4218BF43F0080313801388344CCD
:10B310009BB243F04003138094F83C3E172B0FD1AF
:10B3200096F8E83003F04003002B14BF10220D22E2
:10B33000A4F8403E00F00703A4F8462EA4F8423ECD
:10B3400041071CD50023C5F8603FC5F85C7FBDE808
:10B35000F88333F095FD001B4045B1DD484638F0D9
:10B36000A1FCC0B2B4E733F08BFDA0EB0800484568
:10B3700093DD204638F096FC96E75B0869E700F01D
:10B38000050001281CD00028DFD196F8E8305B06C4
:10B39000DBD5D5F8603FC3B1D5F8382DD31A642B6F
:10B3A000D3D947F085FF94F83C3E172BCDD1B5F8A3
:10B3B000643F01339BB2A5F8643FA4F8443EC4E760
:10B3C00096F8E8305A06E4D5BFE7D5F8383DC5F819
:10B3D000603FBAE7A827002098010020003800400D
:10B3E000B01600202DE9F843836804460E46174640
:10B3F00013B11A689B885383656833F041FDAB89AC
:10B40000804642F20F792B899B0710D528467F2171
:10B4100046F062FE3B4660683146002248F04EFA34
:10B42000A36813B11A689B881383BDE8F88333F0CF
:10B4300027FDA0EB08004845E5DD284638F032FC42
:10B44000E8E700BF094B93F8CA3E042B08D9053B37
:10B45000032B08D801231A4600B103701046704729
:10B4600000230122F8E700231A46F5E7B016002072
:10B47000F0B40D6800240CE0BCF1050F18D8A0F161
:10B4800037030A2B14D104EB840415F8010B03EBEA
:10B490004404A0F13003DEB2092EA0F16107A0F14F
:10B4A000410CF0D9052FE7D8A0F157030A2BEAD0B9
:10B4B0000D601460F0BC70479FED737A07EE901A30
:10B4C00020EE070AF8EE677A27EE800AFDEEC07AD2
:10B4D00017EE903A2033402B00F2C780DFED6B7AF5
:10B4E000B4EEE70AF1EE10FAF0EE407A0CDD9FEDD3
:10B4F000686ADFED686AB0EE677AB4EEE67AF1EE7C
:10B5000010FA77EEC67AF6DC9FED637AF4EEC77A2E
:10B51000F1EE10FA0CD59FED5E6ADFED606AB0EED9
:10B52000677AB4EEE67AF1EE10FA77EE867AF6D420
:10B530009FED5B7AF4EEC77AF1EE10FA00F38D809E
:10B540009FED587AF4EEC77AF1EE10FA44BF9FED02
:10B55000527A77EE677A27EEA76ADFED535A9FEDAE
:10B56000537ADFED536AA6EE257A67EE865AE6EE49
:10B57000076AB6EE007AE5EEA67A27EE877ADFED67
:10B58000486A70EE267ABDEEE76A16EE103A20336E
:10B59000402B67D8B4EEE60AF1EE10FA0CDDDFEDD1
:10B5A0003C5A9FED3C6AF0EE676AF4EEC66AF1EE33
:10B5B00010FA77EEE57AF6DCDFED376AF4EEE67A3C
:10B5C000F1EE10FA0CD5DFED325A9FED346AF0EE51
:10B5D000676AF4EEC66AF1EE10FA77EEA57AF6D451
:10B5E000DFED2F6AF4EEE67AF1EE10FA40DDDFEDE2
:10B5F000276A76EEE77A67EEA75A9FED2B5A9FED02
:10B600002B6ADFED2B6AA5EE856A27EEA55AE5EEDB
:10B61000866AB8EE006AE5EE267A67EE867AC7EEAD
:10B62000206A0023836143610362C361B7EE006A4D
:10B6300076EE865A76EE666A86EE257A67EE277A89
:10B6400066EE876AC0ED017AC0ED037A80ED007A7C
:10B6500080ED027AC0ED046A70479FED0C7A77EEB8
:10B66000677A78E7DFED137AD9E79FED127A86E7FC
:10B67000DFED0C6AF4EEE67AF1EE10FA44BFDFED8E
:10B68000066A76EEE77AB6E727D4D236DB0F494072
:10B69000DB0FC940E4CB1641DB0F49C0E4CB16C138
:10B6A000DB0FC93FDB0FC9BF92E741B99730083CB8
:10B6B00015A82ABE000000002DE9F047944D82B085
:10B6C00095F8663F0190002B40F01D8195F8883F6A
:10B6D000B5F88A2FDFED8F6AB5F88C9FA5F89C9F8F
:10B6E00007EE103AB8EEC76AB7EE007A07EE902A76
:10B6F000F0EE475AB5F8862FE6EE665A4FEA49044F
:10B700009442A6EE267AB8BF144605F57961F8EEA4
:10B71000E77A05F6947267EEA67AC1ED005AA6B2F2
:10B7200005F6987182ED007A0122A5F89E6FC1EDB1
:10B73000007A85F8662F002B00F0E180DDED017ABC
:10B740009FED750A754FF8EE677AA4B280EE270A6E
:10B7500049F07CFF6400B0FBF4F4012CB8BF012475
:10B76000E4B2B0FBF4F39BB2804685F8A04F00EE44
:10B77000103ABBEEED0A87ED000A49F067FF684B0F
:10B78000DFED686AB9FBF0F0A3FB08384FEAD80890
:10B7900007EE908AF8EEE77A022886EEA77AB8BF1D
:10B7A000022085F8A80F07F10C0100239FED5E1A17
:10B7B0009FED5E6ADFED5E1ADFED5E5A9FED5E2A59
:10B7C000DFED5E2A9FED5E3ADFED5E3A9FED5E4A69
:10B7D00087ED027A07EE903AB8EEE77AF0EE467A15
:10B7E000E7EE017AFDEEE76A16EE902A2032402A53
:10B7F00000F28280B4EEE17AF1EE10FA0CDDDFEDBA
:10B80000536A9FED537AB0EE675AB4EEC75AF1EE21
:10B8100010FA77EEE67AF6DCF4EEE57AF1EE10FA5D
:10B820000CD5DFED4A6A9FED4B7AB0EE675AB4EE65
:10B83000C75AF1EE10FA77EEA67AF6D4F4EEC67A8D
:10B84000F1EE10FA50DD74EE677A67EEA76AF0EE5B
:10B85000624AE6EE824AF0EE430AE6EEA40AB7EE4A
:10B86000007A27EEE65A77EE677AB6EE007AE5EED2
:10B87000207A67EE877A0133202BE1EC017AA9D197
:10B8800007EE904AF8EEE77AF7EE006A86EEA77ABE
:10B89000314B324A83F8B14310202021A3F84C05E4
:10B8A000A3F85C15142002F1280102F1A804A3F802
:10B8B0005805C3F8542503F2646007EE906AF8EE69
:10B8C000677AC3F8501503F26C6203F5CD61C3F8D3
:10B8D000604583EDED7AC0ED007AC1ED007AC2EDEE
:10B8E000007A02B0BDE8F087F4EEE37AF1EE10FAE8
:10B8F00048BF75EEE77AA8E7F6EE007ABBE7184A8C
:10B9000082F8E9301AE795F8A04FB5F89E6FB7E7CF
:10B91000A82700200AD7233C002474494C37002074
:10B92000ABAAAAAADB0FC9413C8C4F3EDB0FC93F33
:10B930000100F840DB0F49C092E741B99730083C5D
:10B9400015A82ABEDB0FC9BFDB0F4940DB0FC9407A
:10B95000E4CB1641E4CB16C1A03800203C6F0508AB
:10B96000980100202DE9F04F2DED108B034697B084
:10B9700004331593DFEDCACA149002238A4613924A
:10B980008B461293149C4FEADB0604EB461202EB43
:10B9900006103101A6EB86034FEAC60806EB460502
:10B9A000CDE9000100EBC303043108F10400119656
:10B9B000204421442C01C6EBC60C0394EC00119DDD
:10B9C00004944FEACC0405946C0106EB860E0294B5
:10B9D000159D009C03EB46174FEACE0E02EBC60600
:10B9E0004FEACB094FF0000C51ED01AAD3ED001A3C
:10B9F00092ED007A94ED005A96ED004AD7ED007A68
:10BA000015ED012A50ED016A32EE07BA76EE840A8E
:10BA10007AEE855A31EEA70A3BEE256A70EE804A2F
:10BA200076EEC46A36EE244A36EE646A05ED014AC3
:10BA300082ED006AD0ED00BAD6ED012AD3ED019A6D
:10BA400095ED00AA92ED016A97ED013A91ED00CAD9
:10BA5000D4ED014A7BEEE23A36EEE19A32EE472A25
:10BA600073EEE98A3AEE464A39EE279A78EE838AEF
:10BA7000B0EE428AA9EE6C8ADC44E24573EEC33A2A
:10BA8000B0EE441AA8EEEC1A76EEE77A33EEA97A15
:10BA90007CEE643A77EEA17A3AEE066A7AEEC51A3F
:10BAA0003CEE24AA74EECC4A39EE833A35EE6A5A5B
:10BAB000F0EE639AF0EE48AAE7EE2C9AA8EEAC4AB4
:10BAC000E7EE2C4AE7EE6CAAF0EE418AB0EE427A3D
:10BAD000B0EE612A7BEE656A7BEEA22A76EE4A5AC8
