:020000040800F2
:10000000F0FF012029C204089D710408BD00020808
:10001000A1C20408A1C20408A1C204080000000093
:10002000000000000000000000000000A1710408B2
:10003000A571040800000000A9710408D1A70108F7
:10004000A1C20408A1C20408A1C20408A1C20408F4
:10005000A1C20408A1C20408259701082D97010830
:10006000359701083D97010845970108F1D0000830
:1000700001D1000811D1000821D1000835D10008B4
:1000800049D100085DD10008A1C2040800000000A9
:100090000000000000000000000000004D97010873
:1000A0006DFC010805FC01087DFC0108F5FB010859
:1000B0002DFC01083DFC01084DFC0108A1C204080B
:1000C000A1C20408A1C20408A1C20408A1C2040874
:1000D000A1C2040855A7010861A70108000000009B
:1000E00055970108A1C20408BD9104080000000052
:1000F00000000000000000000000000071D10008B6
:1001000000000000A1C204085DFC0108A1C20408AF
:1001100000000000000000000000000000000000DF
:1001200085D1000899D10008ADD10008C1D10008DF
:10013000D5D1000800000000000000000000000011
:10014000000000000000000000000000AD71040885
:10015000E9D10008FDD1000811D20008A1C20408AD
:10016000A1C20408A1C204080000000000000000B1
:10017000000000000000000000000000000000007F
:1001800000000000A1C20408000000000000000000
:08019000A1C20408A1C2040889
:08019800BCBD040001000000E1
:1001A000160215003F000000245D0020E45C0020E2
:1001B0000000000099990008E05C00201F02080080
:1001C00010000000785D0020685D00200000000045
:1001D0002D890008645D00201B0201001000000052
:1001E0009C5D00208C5D0020000000005D88000800
:1001F000885D00201A0201003C000000EC5D002038
:10020000B05D002000000000F9CA0008AC5D0020CD
:100210000400080080000000945700202C5E00209D
:100220000000000000000000285E0020190201000C
:10023000100000003C580020B05E002000000000CC
:1002400011890008AC5E0020081203000F000000B6
:100250002C580020C45E00200000000031870008F8
:10026000C05E00201C0202001C000000945500200B
:10027000D85E002000000000C1F80008D45E002015
:10028000232001001000000080590020F85E0020AB
:1002900000000000154E0308F45E00200A900100E3
:1002A00024000000C05800200C5F00200000000067
:1002B000294E0308085F0020010201000A00000027
:1002C000BC5C0020345F002000000000658700084F
:1002D000305F00200C020100040000004C58002098
:1002E000445F00200000000075870008405F002088
:1002F0001310010004000000CC5C00204C5F0020C3
:10030000000000002CB70508485F00200202010031
:1003100003000000B85C0020545F002000000000D3
:1003200000000000505F0020F62101000C000000DA
:10033000A05900205C5F00200000000030B70508D5
:10034000585F0020340001001000000010700020F1
:100350006C5F002000000000D1380308685F0020B7
:10036000020001000C00000090580020805F002077
:1003700000000000000000007C5F0020FE01010082
:100380001400000020700020905F0020000000009A
:10039000098700088C5F002039000100050000007B
:1003A00084580020A85F0020000000004D8900084C
:1003B000A45F0020F701010006000000245800207F
:1003C000B45F0020000000003CB70508B05F0020CB
:1003D000FC0101000900000034700020C05F002013
:1003E0000000000071880008BC5F0020FB010100D4
:1003F0000100000040700020D05F002000000000DD
:10040000D5880008CC5F00201A0001000E00000013
:1004100014580020D85F00200000000042B70508F3
:10042000D45F0020FD0101001E000000E655002001
:10043000EC5F002000000000E37D0108E85F002081
:100440001D02020006000000E055002010600020A0
:1004500000000000000000000C600020F901010015
:1004600004000000447000201C6000200000000018
:10047000997D010818600020123001001A00000068
:10048000C4550020246000200000000050B705087B
:10049000206000202F20010022000000F04E0020EC
:1004A000446B0020000000006AB70508406B002084
:1004B0001620010006000000E84E00206C6B0020B2
:1004C000000000008CB70508686B0020F8310100BF
:1004D00006000000E04E0020786B002000000000C5
:1004E00092B70508746B00200B3001001A00000061
:1004F000C44E0020846B00200000000098B705085F
:10050000806B00201400010005000000BC4E00209C
:10051000A46B002000000000B2B70508A06B00200B
:1005200021020100F0000000CC4D0020B06B002043
:1005300000000000D5CC0308AC6B0020292014007B
:1005400078000000544D0020A46C00200000000042
:1005500000000000A06C0020220201001C0100002D
:10056000384C0020206D00200000000009F8000831
:100570001C6D00201840010038000000004C0020D5
:10058000406E00200000000065CB00083C6E00209B
:10059000F5C10100740000008C4B00207C6E00202F
:1005A0000000000009D40308786E0020FD17010048
:1005B0009A000000F04A0020F46E002000000000C5
:1005C000DDC80308F06E0020031101000A000000DE
:1005D000E82C0020946F0020000000003D2C04084F
:1005E000906F00200B2201003D00000054160020F7
:1005F000A46F002000000000B8B70508A06F00201D
:100600000610010026000000382D0020E86F0020B1
:10061000000000008D870008E46F00200E0201003A
:10062000020000004C7500207082002000000000D5
:10063000F6B705086C820020031201003D0000009F
:10064000DC7C00200882002000000000F8B70508CC
:10065000748200201500100070000000CC7D002086
:100660005C80002000000000000000007882002074
:100670002A00080060000000607D0020FC7F002050
:1006800000000000453903087C8200202C00040093
:10069000100000003C7E0020F881002000000000D7
:1006A000D93B03088082002025201E002C01000079
:1006B000B07B0020CC800020000000000000000083
:1006C000848200202B001200240000003C7D0020CA
:1006D0004882002000000000E93B030888820020D7
:1006E0000D10010028000000C8730020D47F0020F6
:1006F00000000000AD0302088C8200200C500400B2
:100700008000000038730020948200200000000068
:10071000596D020890820020012001000C000000A9
:10072000B8730020188300200000000036B80508C8
:10073000148300202700010004000000C47300207F
:10074000288300200000000042B805082483002010
:100750000E50040058020000DC700020308300209E
:1007600000000000B57602082C8300201F50010015
:10077000240000003C900020AC9500200000000008
:1007800048B80508A89500201B2001000C000000B7
:10079000048E0020D495002000000000BDC2030894
:1007A000D09500201010010002000000288C0020CD
:1007B000E4950020000000006CB80508E0950020DA
:1007C0001900010005000000208E0020EC9500209B
:1007D000000000006EB80508E89500202D02010019
:1007E00001000000A89F0020B49F0020000000002E
:1007F00000000000B09F002029020100400000001E
:1008000010970020BC9F00200000000074B805086D
:10081000B89F002001010100040000003C99002065
:1008200000A000200000000000000000FC9F00204D
:1008300000010100040000003899002008A00020F9
:1008400000000000B4B8050804A000200201010067
:10085000030000003499002010A0002000000000D8
:10086000496D02080CA00020205201000800000081
:100870000C98002018A0002000000000B8B805085F
:1008800014A000202A120100080000000498002093
:1008900024A0002000000000C0B8050820A000200F
:1008A00013020100040000000098002030A0002086
:1008B00000000000C8B805082CA000203840010046
:1008C00006000000D8BA002070BD00200000000023
:1008D000CCB805086CBD00202332010014000000D4
:1008E000B0BA00207CBD002000000000D4B805088C
:1008F00078BD002003000100010000009CAC002036
:1009000094BD0020000000000000000090BD002009
:100910000502010004000000D4BA00209CBD0020A4
:1009200000000000E8B8050898BD00202C02010076
:10093000040000005CBB0020C4BD002000000000DB
:10094000ECB80508C0BD0020001201000A0000003C
:100950001CCA0020C0D100200000000000000000E0
:10096000BCD100201002010001000000F0F70020BF
:10097000ECF7002000000000F0B80508E8F70020C0
:10098000010000000000040100000200010000025C
:1009900010000000070001010100000050C300002A
:1009A000FF000000006002401060024000000000F4
:1009B0000000000000000000000B0000000000002C
:1009C00000000000000000000060024028600240BB
:1009D000010000000000000000000000060C000004
:1009E0000000000000000000000000000060024065
:1009F0004060024002000000000000000000000013
:100A0000100D0000000000000000000000000000C9
:100A10000060024058600240030000000000000037
:100A200000000000160E00000000000000000000A2
:100A300000000000006002407060024004000000FE
:100A40000000000000000000200F00000000000077
:100A500000000000000000000060024088600240CA
:100A6000050000000000000000000000261000004B
:100A700000000000000000000000000000600240D4
:100A8000A06002400600000000000000000000001E
:100A90003011000000000000000000000000000015
:100AA00000600240B8600240070000000000000043
:100AB00000000000362F00000000000000000000D1
:100AC00000000000006402401064024000000000CA
:100AD00000000000000000000038000000000000DE
:100AE0000000000000000000006402402864024092
:100AF00001000000000000000000000006390000B6
:100B0000000000000000000000000000006402403F
:100B100040640240020000000000000000000000ED
:100B2000103A00000000000000000000000000007B
:100B3000006402405864024003000000000000000E
:100B400000000000163B0000000000000000000054
:100B500000000000006402407064024004000000D5
:100B60000000000000000000203C00000000000029
:100B700000000000000000000064024088640240A1
:100B800005000000000000000000000026440000F6
:100B900000000000000000000000000000640240AF
:100BA000A0640240060000000000000000000000F9
:100BB00030450000000000000000000000000000C0
:100BC00000640240B864024007000000000000001A
:100BD0000000000036460000000000000000000099
:100BE000000000000800E001FF000000F401000028
:100BF000010000000001010100FF0000D0ED040829
:100C000020040020FFFFFFFF4B2C04084D2C04089C
:100C1000512C0408592C0408ED3C04085B2C0408F2
:100C2000593D04085D2C0408672C0408792C04083D
:100C3000892C0408912C040800000000FFFF00002C
:100C4000FFFFFFFF01000000CC6C05080000080258
:100C50000503030000000000D86C0508010008022D
:100C60000504030000000000E46C05080000080211
:100C70000503030000000000EC6C050801000802F9
:100C800005040300000000006C6205080200FE017C
:100C90000110030000000000205E0508030014029C
:100CA0000003000000000000F46C050804001F02AF
:100CB0000200080000000000FC6C050805001F028F
:100CC0000201080000000000FFFFFFFF7EFF7EFF23
:100CD000E2FFE2FF0000803F000000000000000093
:100CE000000000000000803F000000000000000045
:100CF000000000000000803F000000000000000035
:100D0000000000007D00000001000000A00F0000B6
:100D1000B80B000002FFFF01886D0508F47005089C
:100D20000000000071030208A0860100040000001A
:100D3000886D0508989D0508000000005D7F01088A
:100D4000E803000004000000D45A05080000000079
:100D50000000000031B702087D000000FF00000025
:100D6000DC5E05080000000000000000E9BE02088B
:100D70007D000000FF00000090A5050800000000B5
:100D800000000000D90703087D000000FF000000FC
:100D9000887105080000000000000000D9850108E6
:100DA000E803000003000000C06005080000000028
:100DB00000000000A9F20208102700000300000054
:100DC000F06C0508000000009D3E03086DAB0108B3
:100DD0005F76000005000000747305080000000045
:100DE000000000000182010810270000020000003E
:100DF000A09D05080000000000000000317F0108F0
:100E0000E803000005000000AC9D0508000000009C
:100E100000000000717A0208204E0000030000006C
:100E2000BC9D05080000000000000000BDE00208B5
:100E3000204E000003000000CC9D050800000000CB
:100E40000000000055820108400D0300030000006F
:100E50006C6E050800000000000000006D630208D1
:100E600010270000020000007C730508000000004D
:100E70000000000005D70108A00F000002000000DC
:100E8000DC9D050800000000000000006903040864
:100E90001027000002000000746E0508000000002A
:100EA00011C903080D0C040885450100020000006B
:100EB000EC5C05080000000000000000392A04086E
:100EC0001027000002000000087105080000000063
:100ED0000000000015B1030850C30000020000002C
:100EE000E89D05080000000000000000253A040805
:100EF000400D030001000000F09D05080000000007
:100F000000000000EDF8030850C3000003000000DB
:100F1000FC9D05080000000000000000C96C0208EC
:100F200040420F0001000000089E0508000000007C
:100F3000000000003D5104081027000002000000DE
:100F4000FFFFFFFFFFFFFFFF550402080000000046
:100F5000000000000000000029040208000000005A
:100F60000000000000000000F54B0408F52E040806
:100F7000D94A040800000000252F0408294C040861
:100F8000714104084941040800000000000000000D
:100F9000192F0408494B0408B52E0408C948040851
:100FA00000000000852E0408913F04083140040829
:100FB000214104080000000000000000A92E0408E0
:100FC000792F04087D2F0408812F04088D2F040831
:100FD000912F0408852F0408892F0408492F04083D
:100FE0006D2F04089531040881310408A9310408E3
:100FF000BD310408D131040800000000B0BD00205C
:101000000800000000000000A0BD00200800000053
:1010100001000000FFFFFFFF01000000FD62020869
:101020000000000000000000000000000000FA4383
:101030000000FA430000803F0000000000000000B4
:1010400000000000000000000000000000000000A0
:101050000000000000000000000000000000803FD1
:10106000CCBE002020BF002001F11F3F74C800202B
:1010700082C80020D6010000FF1FFF1FFF000000F4
:101080000000000000000000000000000426050829
:10109000000000000000000000000000BC26050861
:1010A00000000000000000000000000068260508A5
:1010B0004988030800000000000000006C370508A4
:1010C0000000000000000000DD840308AAC5002025
:1010D00001000000FA000000010000000100000013
:1010E0003CC2002000C801003BC2002000500100AB
:1010F0003AC20020005A010038C20020020000005D
:1011000014FB0408ACA20508B4A2050852C30020D1
:101110000100C4090000000050C300200100C40900
:10112000000000004EC300200100C40900000000C0
:101130004CC300200100C4090000000048C3002087
:101140000100C409000000004AC300200100C409D6
:101150000000000046C300200100C4090000000098
:1011600044C300200100C4090000000025C3002082
:1011700000C8010024C3002000C8010022C30020D1
:101180000000FFFF0A00000020C300200100C8008B
:10119000010000001EC30020320030753200000044
:1011A0001CC30020E2FF1400050000001AC3002049
:1011B0007EFF14000500000018C3002005002C016C
:1011C0000500000016C30020055A05002BC30020AF
:1011D00000FF010029C30020020000001C090020BC
:1011E00027C3002003000000042705082AC30020AD
:1011F00000FF010028C30020020000001C0900209D
:1012000026C30020030000000427050866C800204C
:10121000FF7F010068C8002000000000FFFFFFFF03
:10122000010000006CC8002000000000FFFFFFFF6D
:101230000100000070C8002000000000FFFFFFFF59
:101240000100000002C20020EE02CA0801000000F6
:1012500000C2002000C8010064000000FFC100209F
:1012600002C8010064000000FEC10020010000006F
:101270001427050842C300200000803E050000003E
:1012800040C3002080C1803E050000003EC3002016
:101290000083007D050000003CC3002080C1803E2B
:1012A000050000003AC3002000FF010038C3002001
:1012B0006400F4010100000036C300206400F40162
:1012C0000100000034C300206400F40101000000AC
:1012D00032C3002004000000D0FE040831C3002007
:1012E00002000000C4FE040875C200200D000000CA
:1012F000C8FA040872C200200064010070C2002015
:10130000320010270A0000006FC200200D0000000C
:10131000C8FA04086EC200200D000000C8FA0408D4
:101320006DC200200200000000FB04086BC2002018
:10133000030000001C2705086AC20020030000000B
:101340001C2705085EC20020000A01005CC20020C4
:101350000000E803010000005AC200200000E8037A
:101360000100000058C20020000A010056C20020FF
:101370000000E8030100000054C200200000E80360
:10138000010000004CC20020C800E803010000007A
:1013900052C200201400FA000100000050C20020D8
:1013A0000100E803010000004EC20020000501001A
:1013B0004AC2002002000000C4FB040848C200200A
:1013C0000000F4010100000046C200200000F4010A
:1013D0000100000044C200200000F40101000000F0
:1013E00042C200200000F4010100000040C20020C1
:1013F0000000E803010000003EC200200000E803F6
:101400000100000037C20020006401000A00000053
:1014100036C20020006401000A00000025C200203E
:101420001964010024C2002002000000B8FB040877
:1014300019C200200064010018C2002000640100ED
:1014400020C20020006401000A0000001FC200202A
:10145000006401000A0000001EC2002000640100B8
:101460000A00000023C2002000FF01000A00000063
:1014700022C2002000FF01000A00000021C200205B
:1014800000FF01000A0000001DC2002001FF010052
:101490000A0000001CC2002001FF01000A00000039
:1014A0001BC2002001FF01000A00000068C20020EA
:1014B0000000F4010100000066C200200000E80303
:1014C0000100000064C200200000E80301000000E9
:1014D00062C200200000E8030100000060C200209A
:1014E0000000E80301000000A8C50020E803D007C1
:1014F0000A000000A7C50020006401000A000000E7
:10150000A6C50020009601009DC5002000C801006E
:101510009CC50020006401009BC500200064010000
:101520009AC500200064010099C5002000640100F4
:1015300098C50020FF08010097C500200164010044
:101540003D50030881500308000000002C270508C7
:10155000A0C50020013201009FC50020010000004D
:101560008CFB04089EC500200400000094FB0408C6
:1015700096C500200096010095C50020006401007A
:1015800094C5002000FA01006400000093C500200B
:101590000A5A010092C5002000C8010091C5002030
:1015A00000C8010090C5002000C80100A3C50020AC
:1015B00000320100A5C5002000140100A4C50020D0
:1015C000004B0100A2C500200400000094FA0408AA
:1015D000A1C50020006401000A00000013C2002021
:1015E0000AC805000A00000012C200200100000025
:1015F00018FF040815C200200AC805000A000000F0
:1016000014C200200100000018FF04080AC20020D4
:1016100000C805000A00000011C2002000C8050033
:101620000A0000000BC2002000C805000A000000EC
:101630000CC2002000C805000A0000000FC20020F4
:1016400000C805000A00000010C2002000C8050004
:101650000A0000000EC2002000C805000A000000B9
:101660000DC2002000C805000A00000009C20020C9
:101670000200000064FA04088EC500200000D007B4
:101680000100000089C5002000C8010088C50020B5
:1016900000C8010087C5002000C801008CC50020DB
:1016A0000000D0070100000086C5002000C801002E
:1016B00085C5002000C8010084C5002000C80100C5
:1016C0008AC500200000D0070100000083C500206B
:1016D00000C8010082C5002000C8010081C50020AB
:1016E00000C80100FCAC05080000000000004CC868
:1016F000002008AD0508070800000000F40E0020D7
:1017000010AD0508070800000000EC0E002018AD21
:101710000508070800000000E40E002020AD0508C1
:10172000080800000000D80E002028AD05080708B2
:1017300000000000D00E002030AD050807080000B2
:101740000000C80E002038AD0508070800000000A2
:10175000C00E002040AD0508080800000000B40ECF
:10176000002048AD0508071000000000AC0E002066
:1017700050AD0508071000000000A40E002058AD71
:1017800005080710000000009C0E002060AD050851
:10179000081000000000900E002054A2050801006F
:1017A0000000000000000000000000001000000029
:1017B0000000000000000000655303087553030893
:1017C000315603089C2705087BC20020005A0100FF
:1017D0007AC2002000C8010078C20020E803D007C8
:1017E000010000000000000000000000A9A503089F
:1017F0003828050830C300200300000054FA04080C
:101800002FC30020000301002EC3002000030100AD
:10181000095403085D5403080000000080280508EF
:10182000B1540308F15403080000000028290508FA
:10183000F15303089989030800000000A82905084E
:101840002CC30020010301001DBC030851BC030888
:1018500000000000AC2C0508DD4E0308054F03080E
:10186000000000002C2D050871550308D155030810
:1018700000000000902D050815530308BD870308DC
:1018800000000000482E05087D52030800000000FB
:1018900000000000F02E05083D510308A95103087F
:1018A00000000000542F0508C5500308015103082B
:1018B000000000000C300508BDBA030809500308F9
:1018C00000000000983005087FC5002003000000DC
:1018D0003CC800200D5203084952030800000000D4
:1018E0009431050801BB0308CD8603080000000001
:1018F00004320508814F0308A98503080000000091
:101900009C33050861BA03086985030800000000DC
:10191000FC0E002080C5002003000000F8C7002056
:1019200091530308C153030800000000A8340508C0
:10193000B184030800000000000000000C35050819
:1019400039550308B589030800000000A8350508CB
:101950000000000000000000000000004436050800
:10196000D5B903083585030800000000B436050822
:101970000100000000000101FF00000097EE0308D5
:1019800061F0030800000000503E050875380408A7
:101990000000000000000000C43D050845ED0308FC
:1019A00000000000000000007C3D0508FF00000072
:1019B000FFFFFFFFFF01010000000000000000002A
:1019C00000000000383D0508CAD10020E0150C17C2
:1019D00000000000CCD1002002000000703D05088E
:1019E0002D202D2D202D2D2D2D202D2D2D2D0000A8
:1019F00000000000000000000000000000000000E7
:101A000095C8002002000000703D0508010100009B
:101A1000FF00000009024300020100C03209040077
:101A2000000102020100052400100105240100014B
:101A3000042402020524060001070582030800FFB2
:101A400009040100020A000000070501024000002D
:101A5000070581024000000009026400030100C084
:101A600032090400000103000000092111010001F6
:101A70002236000705830309000A080B010202024F
:101A80000100090401000102020100052400100107
:101A900005240100020424020205240601020705B0
:101AA00082030800FF09040200020A000000070583
:101AB00001024000000705810240000012010002FF
:101AC000EF020140830456320002010203010000CC
:101AD000120100020202004083044057000201028A
:101AE00003010000040309040101000005010905C8
:101AF000A101A10005010930093109320933093575
:101B00000934093609371581257F75089508810242
:101B1000050919012908150025019508750181029B
:101B2000C0C0000009022200010100E032090400E7
:101B30000001030102000921110100012236000702
:101B400005830309000A010088F700200000000057
:101B500080F7002000000000FF00000000000000EF
:101B6000010203040102030406070809DD46040814
:101B70007D470408B9410408552E0408F94A0408B1
:101B8000392E0408212E0408652E0408752E040839
:101B90000000000000000000B4130020000000005E
:101BA0000000000000000000000000000000000035
:101BB0000000000000000000000000000000000025
:101BC0000000000000000000000000000000000015
:101BD0000000000000000000000000000000000005
:101BE00000000000000000000000000000000000F5
:0C1BF000000000000000000000000000E9
:082800000000000000000000D0
:1080000082B01E4B002201920193019B1C4A043353
:108010000193019B1968936803F00C03042B06D0AD
:10802000082B08D0174B184A1A6002B07047154B3E
:10803000196002B070475368506813F4800F00F065
:108040003F00536812D1C3F388130F49B1FBF0F11D
:1080500001FB03F30A4A0B495268C2F301420132A1
:108060005200B3FBF2F30B6002B07047C3F3881306
:10807000B1FBF0F101FB03F3ECE700BF5028004037
:1080800000380240181400200024F400074BD0F8F8
:10809000E4105B68D0F8F0205B1A9A42B8BFC0F8D1
:1080A000F030012380F81C3100207047001000E000
:1080B00030B5EAB18E464FEA014C034600F1C005E7
:1080C000002419689A6841EA0C0142EA0E029A609B
:1080D000C3E900140C33AB42F3D1D0F8C030C0F880
:1080E000C44043EA0E03C0F8C030C0F8C84030BDF9
:1080F0004FEA014E8C46E0E7836930B41C69996809
:108100002268096822F0010222608A899C8992B261
:1081100022EA04028A81027D00681F2A06D9446887
:10812000203A08219140214216D0FEE70468082138
:1081300091402142F9D1202101FA02F28260224AC3
:1081400012793AB11A7E012A0BD1D3F8F820013204
:10815000C3F8F82030BC7047202101FA02F2C26057
:10816000EDE7D3F8F4200132C3F8F420EFF31181E6
:10817000502282F3128858685C6C026822EA04027A
:108180009C6C2243C9B2026081F31188D3E90C4090
:108190001A6999681D6C096814605061D3E90E4032
:1081A000546090600024B3F8A800D5604C62C862A7
:1081B00010680124204310601C768A899B89134330
:1081C0009BB230BC8B81704718140020704700BFF1
:1081D000024B03EB401090F8250070471814002064
:1081E0004368B0F8502010B41A83EFF31182502383
:1081F00083F312884168446C0B6823EA0403C46C5F
:108200002343D2B20B6082F31188D0E90741826820
:10821000036912681C605961D0E909415C60C46A55
:108220009960B0F86010DC600023D1625DF8044B07
:1082300003767047037D1F2B30B54FF02002046892
:1082400016D9A3F120056168AA400A420FD00C4A52
:10825000002182F8081141680A681F2B22F00102F0
:108260000A604FF0200206D9203B9A40E26030BD00
:1082700021689A40E9E702FA03F3A360F7E700BF39
:1082800018140020F0B4037D85691F2B63D90168A1
:10829000A3F120024E6820249440264249D01023A6
:1082A0009340CC60CB604B68D340DE0767D4EFF3DC
:1082B0001183502282F312882A6C1168C9072FD4C7
:1082C000516889B271B9D5E90964A64225D0AF6970
:1082D0002744D76058D9341BA4B25460AE62002141
:1082E00085F86410116841F00101DBB2116083F37D
:1082F0001188037D1F2B19D80268194610680823BE
:108300008B40184200D093601068042303FA01F1F7
:10831000014200D09160F0BC7047012285F86420D2
:10832000DBB283F31188037D1F2BE5D90168A3F12C
:1083300020024C6808209040044200D0C8604C687D
:10834000042000FA02F22242E5D0203B00FA03F3B7
:10835000F0BCCB6070470268202416689C4026421F
:108360001946CBD010219940946091601168D94092
:10837000CC079CD5012101FA03F3936097E7012311
:1083800003FA02F2CA6092E72E69341BA4B2546069
:10839000A962A4E74FF4006383817047074BD3F8C9
:1083A0000C2142B1064910680B78928823B90283E8
:1083B00083F001030B7070474283F9E71814002023
:1083C00098010020124A92F81031082B0AD0113B74
:1083D000012B07D992F811310278033B9A420CD055
:1083E0000020704792F81131C21812F9012C002AAE
:1083F000F6DA0278033B9A42F2D14378032BEFD1AD
:108400008078A0F10100B0FA80F04009704700BF09
:1084100018140020034BD3F8143103B11847184641
:10842000704700BF18140020014BD3F818311847CB
:1084300018140020054A92F81C313F2B05D8D1189A
:10844000013382F81C3181F8200170471814002094
:1084500011F802C00B78DFED126A4FEA0C2C0CF415
:10846000706C43EA0C0307EE103AB8EEC77A27EEB9
:10847000267ABCEEC77A17EE103A03808A5C4B78F6
:10848000120102F47062134307EE903AF8EEE77AB5
:1084900067EEA67AFCEEE77A17EE903A43807047D3
:1084A000ABAA2A3F30B585B00C46042206310546FA
:1084B0006846FFF7CDFF032204F1080101A8FFF78A
:1084C000C7FF042204F10C0102A8FFF7C1FF032239
:1084D00004F10E0103A8FFF7BBFFADF102020DF19D
:1084E0000E0132F8023FA3F548739BB2B3F5AF6FAC
:1084F0000AD89142F5D1EC46BCE80F0028606960CB
:10850000AA60EB6005B030BD074B93F86C21122ACE
:10851000F8D1B3F86021013292B2A3F86021A3F838
:10852000642105B030BD00BF181400200120704741
:10853000F0B51D4C94F86D31E218013303F03F03A0
:108540007E2182F87011E21801331B2103F03F03F2
:1085500082F8701184F86D31C61D7D2708E0E2189D
:10856000B04203F1010382F8705103F03F0318D0C9
:1085700010F8015B5A1CA5F17D0102F03F020129B0
:1085800004EB020C04EB030E85F0200102F1010262
:10859000E5D8B0428EF8707102F03F038CF870118C
:1085A000E6D184F86D31F0BD18140020CB79002B92
:1085B00058D170B58B7ACC7A91F809C04E7C84B0D2
:1085C0001A021B0943EA0413ADF802304B7B1D026B
:1085D00005F4706E0D7B45EA0E0502F47062ADF88D
:1085E00004508D7B91F80FE01C094CEA020C0A7CC8
:1085F000CB7C44EA0514ADF806400D7D8C7C11025D
:10860000120942EA0612ADF80A201A0201F470615A
:1086100002F470621B0922434EEA010143EA05138A
:10862000ADF80C20104CADF80810ADF80E300DF17F
:10863000020E102201E03EF802CBCCF30A0303F253
:10864000CA431CF4006F4FEA4303A4FB03130CBF9F
:10865000A2F11001114602325B08202A4352EAD1EE
:1086600004B070BD704700BFABAAAAAA0B7B4A79C1
:1086700091F806C013F0080FCB794FEA42224FEA77
:10868000D31343EA4C0302F4606243EA02031DD0B1
:108690000381CB790A7A5B0103F47E6343EAD20358
:1086A00043818B7A0A7A91F809C0DB09520202F4FD
:1086B000606243EA4C03134383818B7ACA7A5B017D
:1086C00003F47E6343EAD203C38170470380CB790E
:1086D0000A7A5B0103F47E6343EAD20343808B7A18
:1086E0000A7A91F809C0DB09520202F4606243EA97
:1086F0004C03134383808B7ACA7A5B0103F47E6355
:1087000043EAD203C3807047012142F201120023E1
:1087100041F2015C017202804FF47F41FF22A0F818
:1087200004C043818381C38101828274704700BF8A
:1087300000B5FF232D224FF02E0E4FF02F0CC370EB
:1087400003710372437243738373427123212422A2
:10875000252380F806E080F807C08172C272037397
:108760005DF804FB00230222037043708370C37022
:10877000027170474FF0010C1F210322002380F883
:1087800000C041708270C370704700BF70B5314B3C
:1087900093F8B031012B53D040F22E414FF4F072D8
:1087A0000923C183028083704FF4FA644FF47A7115
:1087B00040F226220123284E04844184828343719F
:1087C00000F108054FF0000E234A4FF0040C002181
:1087D0001CF0040F0B465FFA8EF402F1200209D15F
:1087E0000133052B0DD092F806C01CF0040F02F1E6
:1087F0002002F5D0A1421FD001330131052BC9B2AF
:10880000F1D100230EF1010EBEF1080F05F8013B76
:10881000DAD10E21022240F20123002480F8241034
:10882000427440F2034140F205628382072344828E
:10883000C1820283837670BD06EB43131B79E1E7A7
:108840004FF47A744FF47A510422C4830180827009
:108850000371A9E71814002050DA04080023062148
:108860004FF47A72C0E9012301700373704700BFAF
:1088700030B54FF0000C164D80F808C000F1FF3EF7
:10888000134A0420002110F0020F0B465FFA8CF40B
:1088900002F1200208D10133052B0CD0907910F0A1
:1088A000020F02F12002F6D0A1420DD001330131B6
:1088B000052BC9B2F2D100230CF1010CBCF1080F59
:1088C0000EF8013FDCD130BD05EB43131B79F3E714
:1088D00050DA040810B40D4C0423214613F00103B0
:1088E0004FF0000201F1200108D10132052A08D021
:1088F0008B7913F0010301F12001F6D004EB421251
:1089000013795DF8044B0370704700BF50DA040818
:108910002C234FF0080C43F602711D2243722223D0
:1089200080F800C041818281837370470023411C1D
:10893000FF2200F8132001F813200133082BF8D18F
:10894000027042708270C270704700BF00234FF007
:108950001E0C1821032280F800C04170C370837080
:1089600002717047704700BFD0ED007AD0ED016A08
:1089700030EE677AE6EE877AB0EE670AC0ED007AED
:10898000704700BFD0ED017AD0ED026A30EE677A11
:1089900090ED000AE6EE877A37EEC07AC0ED017AF4
:1089A000A6EE870A80ED000A704700BF90ED017ABD
:1089B000D0ED036AD0ED027A30EE470AA6EE807A57
:1089C00090ED000A80ED017A37EE676AE6EE867A6E
:1089D00037EEC07AC0ED027AA6EE870A80ED000A73
:1089E000704700BFD0ED056AD0ED017A90ED007AB6
:1089F00090ED066AD0ED025A90ED035A80ED050A1B
:108A000066EEA77AC0ED066AE7EE007A90ED077A87
:108A1000E5EE867A90ED086AD0ED045A80ED087A8A
:108A2000E5EE477AE5EEC67AB0EE670AC0ED077A62
:108A3000704700BFD0ED057A90ED006A90ED067AA0
:108A4000D0ED035AE6EE007A90ED016AF0EE406A4E
:108A5000A6EE267AB0EE670AD0ED047A90ED026AAF
:108A600067EEC07AA5EEC07AE6EE267A80ED057A4A
:108A7000C0ED067A704700BF2DE9F047089F3C46DD
:108A80000E4614F8011B002B054614BF4FF03009A9
:108A90004FF0200941B3002A2CDD234600E0B2B19B
:108AA00013F8010B9046013A0028F8D1A8F102080A
:108AB0006AB1C24649462846B0475346002B0AF1E0
:108AC000FF3AF7DC397828EAE872013249B1D71B5E
:108AD0002846B047E01914F8011B0029F8D1BDE879
:108AE000F0871046BDE8F087002A02F1FF38E0DC8D
:108AF0000846F4E70022EAE703685A1C026019708E
:108B0000704700BF024BD3F8B40103681B681847D5
:108B100018140020884210B54FF001043ED301FB29
:108B200004F4B0FBF4FC8C45F9D2CCB122BB08E0D4
:108B3000A14203F801EBB4FBF1F211D8B0FBF2FC57
:108B40001446BCF1090F0CF1570E0CF1300204FB76
:108B50001C00EDDCA14203F8012BB4FBF1F2EDD9CE
:108B600000221A7010BDA14203F801EBB4FBF1F230
:108B7000F6D8B0FBF2FC1446BCF1090F0CF1370E2D
:108B80000CF1300204FB1C00EDDCA14203F8012BC8
:108B9000B4FBF1F2EDD900221A7010BD8446002A10
:108BA000EAD1CEE7002870B503DA2D2301F8013BA6
:108BB0004042092886464FF0010307DD03EB83039B
:108BC0005B00B0FBF3F2092AF8D8EBB1104CBEFB06
:108BD000F3FCA4FB0320C008BCF1090F0CF1300624
:108BE0000CF15705024607D8092B01F8016B03FB6E
:108BF0001CEE09D90346EAE7092B01F8015B03FBE8
:108C00001CEE01D91346E2E700230B7070BD00BFD4
:108C1000CDCCCCCC164BD0F8E0105A6810B5044639
:108C2000D0F8D80071B1131A99420BDC94F8D03007
:108C3000C4F8D820012B10D0D4F8D4300133C4F8B4
:108C4000D43010BDD4F8E430C4F8D8200344C4F8BC
:108C5000DC3094F8D030012BEED104F1E801201D76
:108C600010F062F8D4F8D4300133C4F8D43010BD19
:108C7000001000E0F0B5044690F8210183B008B977
:108C800003B0F0BD11F09EFB0546002857D0838845
:108C90002C4AB3FA83F32621202BC180E260C3F172
:108CA0001F02EDD0284E294B134406EB82020C34F0
:108CB000C2F8B84193F8A07010F022FD00212846B8
:108CC00010F0F4FEA9882868B1FA81F100F13F4064
:108CD000C1F11F0100F57E00C9B2C0F387203EF04C
:108CE00035F9AA884FF00043B2FA82F2D3403E44ED
:108CF0004FF400620093684601238DF80630ADF80A
:108D0000042041F0FDFD96F8F831F02B0DD8AB882A
:108D10004FF00042B3FA83F332FA03F3B0D00C49B8
:108D20000A6813430B6003B0F0BD0A4AF023D05D1C
:108D300086F8F8310022032141F0AEFFE7E7014B4E
:108D4000E3609DE7158C00081814002050DA040831
:108D5000003C01400C40050870B5104ED6F80032BA
:108D6000002B19DD06F10804002505E0D6F80032D5
:108D7000AB4204F120040FDD237F0135002BF5D039
:108D8000E0680028F2D0217D10F090FED6F8003285
:108D9000AB4204F12004EFDC012070BD1814002068
:108DA000F0B5836993F8DC20012A8BB0054627D003
:108DB000023A012A2FD893F84C21D3F89C10174C73
:108DC00062F07F030B708669D6F8A0305F1C0FCC71
:108DD000EC46ACE80F00D6F89C30CDE900370FCC5C
:108DE000ACE80F0094E803008CE80300694606F144
:108DF00010000FF099FFAB6919690A6A002AFCD1CB
:108E0000D3F8A0305A8852BAEA819A8852BA2A8294
:108E1000DB885BBA6B8201200BB0F0BD00DB04087D
:108E2000F0B590F8DC30D0F8A060012B8BB0044690
:108E30004BD015D8D0F89C304FF0FF321A605A60F2
:108E40009A60DA60D0F8E0300522B3F57A7FC0F896
:108E5000F02054D8032380F8DC3001200BB0F0BDA3
:108E6000023B012BF9D890F84D31D0F89C203A4DB7
:108E700063F07F031370D0F8A0305F1C0FCDEC4679
:108E8000ACE80F00D4F89C30CDE900370FCDACE84A
:108E90000F0095E803008CE80300694604F1100018
:108EA0000FF042FF2269136A002BFCD173885BBA72
:108EB000A4F8D030B3885BBAA4F8D230F38801208C
:108EC0005BBAA4F8D4300BB0F0BD90F84C2190F808
:108ED0004D319B1A5B100133DBB206EB430236F8CF
:108EE00013305BBAA0F8D03053885BBAA0F8D23008
:108EF00093885BBAA0F8D43001200BB0F0BD0369B1
:108F00001A7B2AB35B691BB390F8983003B390F8CF
:108F10004C31D0F89C20C4F8A40063F07F03137098
:108F200090F84C1190F84D31D0F8A0200B48C4F8BF
:108F300004015B1A07330121C4F8FC30D4F89C30DB
:108F400084F800110A44C4E93D3284F8DC1084E757
:108F5000022384F8DC3080E700DB04088D80000801
:108F6000F8B5724C04EB0016D6F80432002B00F072
:108F70008A800546070196F80C0241F0CFF896F872
:108F80000C32590903F01F0203294FF0010303FAC1
:108F900002F300F08E8004297BD0022974D0E319FB
:108FA000013593F8080211F00DFAEDB2064610B142
:108FB00012238371C571E31993F8090211F002FAC3
:108FC00010B11323C5718371E31993F80A0211F0EC
:108FD000F9F910B11423C57183713C444A2194F806
:108FE0000B2230460FF01EFC94F8090211F0EAF94A
:108FF00094F80B222A210FF015FC94F80A0211F0C4
:10900000E1F994F80B220A210FF00CFCD4F80422A9
:10901000474B9A4252D0474B9A423FD0464B9A42D6
:1090200057D0464B9A425FD0454B9A4267D0454B4A
:109030009A426FD044499088CC888B88CD8923434D
:109040000C8923434C8920F0030023438C890004BE
:10905000000C23430C8A90802B43108823434C8AB6
:10906000898A00F44150234303439BB21380938BBE
:1090700023F400631B041B0C9383118213889BB29F
:1090800043F040031380F8BD304A516A0B435362EA
:1090900085E72E4A11690B43136180E703F500331E
:1090A000196A41F480411962196A21F480411962F8
:1090B000C0E7264A116A0B43136270E703F5843355
:1090C000596A41F480515962596A21F480515962B8
:1090D000B0E703F5FE33196A41F400411962196AD9
:1090E00021F400411962A5E703F58233596A41F47E
:1090F00000515962596A21F4005159629AE703F507
:109100006843596A41F480115962596A21F4801107
:1091100059628FE703F56443596A41F400115962BB
:10912000596A21F40011596284E700BF1814002025
:109130000030014000380040003C00400034014055
:1091400000500140005401409801002000380240C6
:109150000B4B10F0800F00EBC0004FEA101093F89B
:1091600036120DBF00F14102523882B21046032977
:1091700008BFD200A3F8340208BFA3F83822704712
:109180001814002038B590F90E30002B03DA03785C
:10919000812B044601D0002038BD104D427995F94D
:1091A0003A32B3EBD20FF6D149B195F83D2243786C
:1091B0009A42F0D195F83E2283789A42EBD1607BB7
:1091C000FFF7C6FFE37A227B9B0003F01C0343EA10
:1091D000921385F87932012038BD00BF18140020A1
:1091E0002DE9F04FB44C94F804A083B0BAF1000F0D
:1091F0001ED1D4F8D436002B16DD0026AF483146F8
:109200000769D0F8A0303D6825F0010503F1C002E0
:109210003D6059600C339A42FBD1D4F8D436013604
:10922000B34200F58070EBDC012003B0BDE8F08FA5
:10923000D4F87C32984611F05FFCD4F88032D4F830
:1092400084221433801AB0EB430FC0F22A8104F554
:109250002277DFF874B2CDF804A004F10806C24604
:109260000025B846D4F80032AB4240F3C180B16962
:1092700073680A6998005368D1F8EC201FFA83FCE0
:10928000A2EB0C0CD1F8E83000F108500CF180672B
:1092900000EB4310393F00EB87170246974240F23C
:1092A0009F80116802F58073002900F0EB80116C3B
:1092B000002900F0EA80D2F88010002900F0E88050
:1092C000D2F8C0101A460029E8D19F4240F28880A7
:1092D000191AACEBA111452928BF4521002703EB42
:1092E00081119E4638464FF001090DE01A6C002AA4
:1092F00040F08280D3F88020002A40F0A780D3F885
:10930000C02003F580732AB9994205D91A68002A4A
:10931000ECD04033994272D8112F61D9C7F11503AF
:10932000002B5DDB08D000FA03F3C7F1140701201E
:1093300000FA07F747EA0300C0F3C4330BEB8303DB
:10934000D3F8D81000F01F030BEB8303D3F8D82019
:1093500042EA0132C0F344110BEB8101C0F38423D4
:109360000BEB8303D1F8D810D3F8D83042EA0112BE
:1093700042EA032383EA132282EA121202F00F0266
:109380000F2A1BD1B3F5803F18D2D4F890221B09C5
:109390000132B3F5606FC4F8902240F08B8094F8EE
:1093A000F02302EB420204EBC2022A4492F89D230E
:1093B0000D2A7AD00199A8F80C300AE0D4F890323E
:1093C0000133C4F89032D4F88C320133C4F88C32B3
:1093D00000213B4B5C2000FB053052460FF0E8F9C2
:1093E0000135082D08F1140806F120067FF43AAF84
:1093F000012384F88E33FCE6803399428CD9A3EBA9
:109400000E02921102F1010C2E4A82FB0CE2A2EB39
:10941000EC72012AB8BF012290401744013A09FAC0
:1094200002F210439C46DCF800208AB1DCF84020B0
:109430008AB3DCF880208AB3DCF8C0200CF5807C8D
:1094400042B16145EFD89E4663465DE7C03361E7B0
:109450000CF1400C6145F6D9ACEB03039B115A1C8F
:10946000184B83FB02E3A3EBE273012BB8BF01238C
:1094700098401F44013B09FA03F3184363469E4694
:10948000634641E702F140031FE702F180031CE756
:1094900002F1C00319E70CF1800CDBE70CF1C00C02
:1094A000D8E7002003B0BDE8F08F8023019988F849
:1094B0001E308EE79BB27DE718140020F01A0020C2
:1094C0000C1800205655555550DA04082DE9F04186
:1094D0002D4F07EB401898F824300BB9BDE8F08108
:1094E0008C2303FB00730E4693F8DA2A88F80A20CF
:1094F000002183F8DA1A044645010FF047FB98BBB8
:109500003D4422482E8100EB44100BF02FFC3B79A8
:109510002A6A9BB1E968D2F8A03001248C4003F19B
:10952000C001420010F4004F90B202D15A682243A9
:109530005A600C339942F4D1BDE8F081EC68D2F85E
:10954000A03004F110020124944003F1C001420054
:1095500010F4004F90B202D15A6822435A600C3383
:109560009942F4D1BDE8F08197F8F03303EB43035F
:1095700007EBC303234493F89D63002EC0D001235F
:1095800088F80A30BCE700BF18140020201400201F
:1095900010B5044643F02EFD81B22046BDE81040D0
:1095A00094E700BF10B57D4C94F8382F94F8F03351
:1095B0009A4240F0978194F8392F002A00F0EC800D
:1095C00094F83A3F002B40F0EB80D4F83C1F088819
:1095D00020F080000004000C0880B4F8400FC8623E
:1095E000088880B240F0800008804B62B1F80CC05F
:1095F000B4F8500F40EA0C0080B2012A8881A4F828
:10960000503F00F0C980D4F8541F088820F0800033
:109610000004000C0880B4F8580FC862088880B2B3
:1096200040F0800008804B62B1F80CC0B4F8680FBD
:1096300040EA0C0080B2022A8881A4F8683F00F05A
:10964000AB80D4F86C1F088820F080000004000C68
:109650000880B4F8700FC862088880B240F08000BB
:1096600008804B62B1F80CC0B4F8800F40EA0C00DF
:1096700080B2032A8881A4F8803F00F08D80D4F85E
:10968000841F088820F080000004000C0880B4F8D3
:10969000880FC862088880B240F0800008804B6262
:1096A000B1F80CC0B4F8980F40EA0C0080B2042A5C
:1096B0008881A4F8983F6FD0D4F89C1F088820F0C8
:1096C00080000004000C0880B4F8A00FC86208886D
:1096D00080B240F0800008804B62B1F80CC0B4F852
:1096E000B00F40EA0C0080B2052A8881A4F8B03F90
:1096F00052D0D4F8B41F088820F080000004000C79
:109700000880B4F8B80FC862088880B240F08000C2
:1097100008804B62B1F80CC0B4F8C80F40EA0C00E6
:1097200080B2062A8881A4F8C83F35D0D4F8CC1F6F
:10973000088820F080000004000C0880B4F8D00FE6
:10974000C862088880B240F0800008804B62B1F89F
:109750000CC0B4F8E00F40EA0C0080B2072A888100
:10976000A4F8E03F18D0D4F8E42FB4F8E80F11883B
:1097700021F080010904090C1180D0621088B4F82E
:10978000F81F80B240F0800010805362908901433E
:1097900089B29181A4F8F83F10BD00BF18140020D1
:1097A000D4F8443FB4F8481F59601968D4F83C0F06
:1097B00041F00101196040F20D33A0F84830818971
:1097C00089B241F48071012A8181E5D0D4F85C1F0F
:1097D000B4F8600F4860086840F001000860D4F8F1
:1097E000540FA0F84830818989B241F48071022A6F
:1097F0008181D1D0D4F8741FB4F8780F486008681C
:1098000040F001000860D4F86C0FA0F8483081895E
:1098100089B241F48071032A8181BDD0D4F88C1FB4
:10982000B4F8900F4860086840F001000860D4F870
:10983000840FA0F84830818989B241F48071042AEC
:109840008181A9D0D4F8A41FB4F8A80F4860086893
:1098500040F001000860D4F89C0FA0F848308189DE
:1098600089B241F48071052A818195D0D4F8BC1F5A
:10987000B4F8C00F4860086840F001000860D4F8F0
:10988000B40FA0F84830818989B241F48071062A6A
:10989000818181D0D4F8D41FB4F8D80F486008680B
:1098A00040F001000860D4F8CC0FA0F8483081895E
:1098B00089B241F48071072A81813FF46DAFD4F8F9
:1098C000EC1FB4F8F02F4A600868D4F8E42F40F099
:1098D00001000860A2F8483093899BB243F480737A
:1098E000938110BD40F082FB00287FF464AE10BD70
:1098F0002DE9F041244D95F8382F95F8F0339A4230
:109900003BD1D5F8D466002E11DD00242F791F48F5
:10991000A046013417B1037E012B29D002691368D8
:10992000A64243F0010300F580701360F1D1184B9B
:109930005B68C3F30803C3B9EFF31183ABB911F04C
:10994000B7F8D5F8FC4FC5F88402002C0BDD114A9E
:1099500002EBC404116893888889083203439BB2E0
:1099600094428B81F6D1BDE8F08110F04FFFE8E71B
:1099700080F8F080FEF734FCD0E740F037FB002899
:10998000BFD1BDE8F08100BF18140020F01A0020FC
:1099900000ED00E0182400202DE9F843184D804622
:1099A00005F1A0062921002705F6B804154B102261
:1099B0004FF0010C03E02033A3421AD01A799142F0
:1099C000F9D12A681868904202D00CF1010CF2E734
:1099D00058796A799042F8D107EB4709284608F888
:1099E0000910C144013789F801C00FF023FB89F841
:1099F00002002035B54201D02979D7E7BDE8F883C8
:109A000050DA0408A8DB0408F0B5D0F88050876865
:109A10002B6858493E6823F001032B6000232B601C
:109A20008D426B60AB60EB602B614FF0210383B024
:109A3000044600F160026B6100F097804E4B9D423E
:109A40005ED0284601923DF083F9019A002384F804
:109A5000543079790C290ED8DFE801F0650D0D0D31
:109A60005E0D0D0D570D0D0D0700B38B23F4006334
:109A70001B041B0CB383304616F078F97B790C2B52
:109A800010D8DFE803F0690F0F0F600F0F0F570FAB
:109A90000F0F0700B38B23F400631B041B0C43F46C
:109AA0000063B38340222968A369E06A6262334A93
:109AB00003430A40216B13430B43D4E90D120B43BC
:109AC0001343D4E90F120B431343D4E913120B438E
:109AD000134343F040032B60D4E911316A690B430F
:109AE00022F007021343A16A6B61D4E9072369607E
:109AF000AA60EB602B6843F010032B6003B0F0BD4D
:109B00004FF4746143F8201CA0E7B38B23F00803E3
:109B10001B041B0CB383AEE7338B23F400631B04DD
:109B20001B0C3383A7E7338B23F008031B041B0CA8
:109B30003383A0E7B38B23F008031B041B0C43F013
:109B40000803B383AEE7338B23F400631B041B0CC1
:109B500043F400633383A5E7338B23F008031B042E
:109B60001B0C43F0080333839CE7054B3D219960B0
:109B70006CE700BF10600240286002403F801CF08C
:109B8000006002402DE9F04F694F2DED028B3C79CA
:109B900085B034B90124204605B0BDEC028BBDE888
:109BA000F08FD7F87C32DFF890B108EE103A10F061
:109BB000A3FF1BF8AC3C0290002B00F0B38107F52B
:109BC000227307F6D82507F57D7A002699460EE020
:109BD0002846FFF719FF1BF8AC3C01369E4205F101
:109BE0008C050AF15C0A09F1140980F2A7805BF880
:109BF000A43C029AD31A03D4AA6D9342C0F27B818B
:109C00008C2303FB067393F82C3B03F0FF020192B5
:109C1000002BDDD0AB68A9891A68D5F880305B6865
:109C20001FFA83FE9389CEF1160E9BB223EA01033D
:109C3000BEF1070F9381CBD9D7F890320133C7F823
:109C40009032D5F8883003939C4600225CF8044B90
:109C5000012190461BE0DCF80000B8F1140FA0EBE6
:109C600004031DDC13F1080448BF03F1170423119A
:109C700008EB24180446581E013102FA03F30122AE
:109C800082408E4542EA03020CF1040C08D38E4553
:109C9000E1D8C8F11503DCF800404FF01508EAE7F9
:109CA000B8F1150F39D12348C2F38423C2F344110C
:109CB00000EB830300EB8101D3F8B838D1F8B81872
:109CC0001B0243EA011302F01F0100EB8101C2F302
:109CD000C43200EB8202D1F8B818D2F8B8280B438E
:109CE00043EA023383EA132282EA121202F00F02DD
:109CF0000F2A12D1C3F30F134FF6FF7293420CD009
:109D0000B3F5606F00F0FE80A9F80C30019918EEF1
:109D1000102A50460EF04CFD5AE7D7F88C3201332A
:109D2000C7F88C32002E00F0DF8000230193EDE7AE
:109D30001814002050DA0408102500200122002108
:109D400087F88E234BF8A41C002B3FF423AF97F821
:109D5000E81A890700F1BE80D7F8E01A0868497947
:109D60008A40018C92B289B221EA02010184018CFD
:109D700089B20A43012B02843FF40CAF97F8742B8D
:109D800012F0020FD7F86C2B10685479018C0CBFBD
:109D900001220422A24092B289B221EA0201018486
:109DA000018C89B20A43022B02843FF4F3AE97F888
:109DB000002C12F0020FD7F8F82B10685479018CA0
:109DC0000CBF01220422A24092B289B221EA020110
:109DD0000184018C89B20A43032B02843FF4DAAE7A
:109DE00097F88C2C12F0020FD7F8842C1068547955
:109DF000018C0CBF01220422A24092B289B221EA56
:109E000002010184018C89B20A43042B02843FF4CD
:109E1000C1AE97F8182D12F0020FD7F8102D106868
:109E20005479018C0CBF01220422A24092B289B263
:109E300021EA02010184018C89B20A43052B0284C4
:109E40003FF4A8AE97F8A42D12F0020FD7F89C2D7E
:109E500010685479018C0CBF01220422A24092B2F6
:109E600089B221EA02010184018C89B20A43062BDE
:109E700002843FF48FAE97F8302E12F0020FD7F81D
:109E8000282E10685479018C0CBF01220422A240B4
:109E900092B289B221EA02010184018C89B20A439B
:109EA000082B02847FF476AED7F8B42E97F8BC3E28
:109EB000116850790A8C9B074CBF0423012383400F
:109EC0009BB292B222EA03020A840A8C92B2134332
:109ED0000B845FE6D7F8E02A10685479018C0422DD
:109EE000A24089B292B23FE703991148582243F049
:109EF000F9FC01960AE70024204605B0BDEC028B70
:109F0000BDE8F08F97F8F02302EB420207EBC202A4
:109F1000324492F89D230D2A7FF4F6AE802389F80F
:109F20001E30F3E6012287F88E234BF8A43C32E67C
:109F30004C1700202DE9F843037D01681F2B0446D0
:109F400008D94868A3F120052022AA40024206D180
:109F5000BDE8F883086820229A400242F8D0714A8E
:109F6000714EDFF8DC81526846F8A02C98F83A2F41
:109F7000A56912BB8C2202FB0582D2F8E00AD2F856
:109F8000587BD0F800903868B2F8E4CA20F001009D
:109F90003860B9F80C2092B222EA0C02A9F80C2021
:109FA00098F804200ABB1F2B40F2A880A3F12002DE
:109FB00020239340CB60BDE8F8838C2202FB05820E
:109FC000D2F8E02A5069D2F80090026822F001022B
:109FD0000260B9F80C2022F480721204120CA9F865
:109FE0000C2098F80420002ADDD08C2303FB058385
:109FF0004E4AD3F8587B3B6823F001033B600023B3
:10A000003B6097427B60BB60FB603B614FF021038C
:10A010007B617ED0464B9F427FD038463CF098FE15
:10A020008C2303FB058356F8A42C012183F82C1BF9
:10A03000002A69D0B9F800303E499BB243F0800352
:10A04000A9F800308C2303FB05F54FF0FF332944BA
:10A05000C9F82C3048463CF0DDFF08EB0503002230
:10A06000D3F8040BC3F8FC2AD3F8F02A396802436A
:10A07000D3F8080B0243D3F80C0B0243D3F8100BB0
:10A080000243D3F8140B0243D3F8180B0243D3F85E
:10A09000240B0243D3F8280B02432748084002430D
:10A0A0003A607969D3F81C2BD3F8200B21F0070113
:10A0B00002430A437A61D3F8002B7A60D3F8F42A7A
:10A0C000BA60D3F8F82AFA60D3F8582B16215160F9
:10A0D000116841F001011160D3F8E02AB3F8E43AC5
:10A0E000126891890B439BB20E4993814B6846F8E5
:10A0F0009C3C237D21681F2B3FF658AF202202FA9B
:10A1000003F38B60BDE8F88310F0F6FC46F8A40C6E
:10A1100090E70A4B3D229A6082E74FF4746243F85D
:10A12000202C7DE7001000E0102500201060024088
:10A1300028600240641F00203F801CF00060024045
:10A140001814002030B5012085B03CF0EFFE7A4AAB
:10A15000936823F003039360936813F00C0FFBD113
:10A1600013687549002858D143F00103136041F288
:10A1700088330A68950771D4013BFAD16F4C704D52
:10A180006D4B704AEA60596F6F4A44F8801CAA60B0
:10A19000596B6E4821F080015963596F41F080710D
:10A1A0005967196B41F4CE0119635A6B5A631A6CE3
:10A1B00002431A64596C664A0A435A6468463CF082
:10A1C0004BFD009B6349644A6448A1FB03139B0C4D
:10A1D00044F87C3CD5F8FC30002143F08073C5F88E
:10A1E000FC30C2F8B00F516013685D4843F00103C2
:10A1F000136003685B4AA2FB03239B09013BB3F195
:10A20000807F08D24FF0E022F0205361072385F8C9
:10A2100023009161136105B030BD43F480331360B6
:10A220000A68940341F2883304D4013BA6D00A683B
:10A230009403FAD5414C4C4A4C4BB0FBF3F3B0FBC2
:10A24000F2F0B3EB400F18BF18464FF48002B3FB97
:10A25000F0F344F8842C44E9260307E0374C082245
:10A26000022344E92623002144F8841C02203CF008
:10A270005DFE02280FD83E4B54F8941C03EBC0003F
:10A280008588C288438844F88C5CB3FBF1F344F8BA
:10A29000882C44F8903C284B36491A6C42F0805286
:10A2A0001A640A6842F440420A609A689A609A689E
:10A2B0009A609A6842F480529A6054F8981C54F854
:10A2C000842C54F8900C0A4342EA801254F8880C0B
:10A2D00042EA006254F88C0C4008013842EA00421D
:10A2E0005A601A6842F080721A601A689201FCD5AE
:10A2F000214A40F202701060986820F003009860D4
:10A30000986840F00200A2F580629860936803F0BC
:10A310000C03082BFAD154F8945C1848D823B3FBEB
:10A32000F5F341EA831141F000510123C2F8841092
:10A330008366FDF765FE22E7003802401025002005
:10A3400000ED00E00005FA0500000020FFC9FE3620
:10A35000335F070083DE1B43001000E055CEACC521
:10A3600018140020D34D621080841E0040420F005C
:10A3700088E3040800700040003C024000004742AF
:10A3800044F23B3337B5A0F84C3100F110050446D8
:10A39000FEF770FC03226B2128460EF037FD0F20DC
:10A3A00012F0E0FE10226A2128460EF02FFD0F2049
:10A3B00012F0D8FE00226C2128460EF027FD0F2057
:10A3C00012F0D0FE94F82021192128460EF01EFD2F
:10A3D0000F2012F0C7FE18221B2128460EF016FD92
:10A3E0000F2012F0BFFE18221C2128460EF00EFD91
:10A3F0000F2012F0B7FE1022372128460EF006FD7E
:10A400000F2012F0AFFE0122382128460EF0FEFC8C
:10A410000F2012F0A7FE94F8DB30052B42D894F8F9
:10A420001E31032B3ED194F8233103F0FB03022BA2
:10A430000CBF002207221A2128460EF0E7FC01205B
:10A4400012F090FE19480EF0F9FB2369A0821A78E9
:10A45000022A19D194F84D111B6A41F080019BB971
:10A4600006236A4628460EF0FBFCBDF800305BBAB6
:10A47000A4F8D030BDF802305BBAA4F8D230BDF8F1
:10A4800004305BBAA4F8D43094F9D23001330BD144
:10A4900094F9D030013307D1062003B0BDE8304035
:10A4A00013F0CEB80022C6E703B030BD002D310155
:10A4B00038B51E4D044695F840221D480C210EF07B
:10A4C000A5FC1B48082218210EF0A0FCCCB995F879
:10A4D0003D22174809210EF099FC15480D2207214D
:10A4E0000EF094FC1248162219210EF08FFC104831
:10A4F0000E2203210EF08AFCBDE838400A2012F03B
:10A50000DBBF0B48032209210EF080FC08480D2216
:10A5100007210EF07BFC0648162219210EF076FC6E
:10A52000BDE838400A2012F0C7BF00BF1814002051
:10A530009824002038B580226B2105460EF066FC79
:10A540000624642012F0B8FFF52128460EF0AEFC78
:10A55000682805D0013C14F0FF04F2D1204638BD34
:10A56000012012F0FFFD8C2128460EF09FFC1828D8
:10A570000CD8142834BF002403242846072268215D
:10A580000EF044FC642012F097FFE7E7A0F15403BB
:10A59000DBB2072B34BF03240024EEE738B50E4DA1
:10A5A0002B6A73B119689A880B691A4209D004465C
:10A5B000FB21A5F178000EF079FC00F07F000E2859
:10A5C00001D8002038BDA5F178000F232246FF21D5
:10A5D0000EF046FC012038BD10250020F8B51E4CB9
:10A5E0001E4F636AD7F87C52ED1A322D94F9283049
:10A5F000064604D87E2B02D013F17E0F0ED10B44F9
:10A60000DAB21748D7F87C3284F828200C2163622C
:10A610000EF0FCFB124834210EF0DAFB236A23B162
:10A6200019689A880B691A4201D10020F8BD0C48BC
:10A63000FB210EF03BFC97F8113100F07F008342C4
:10A64000F3D807483246FF210EF00AFC3046BDE839
:10A65000F840FDF7B7BE00BF1025002018140020F9
:10A660009824002038B52A4C94F8292094F82A30F0
:10A670001044C0B2984284F8290005D3C01AC0B271
:10A680009842FBD284F829002248234D36210EF04F
:10A690009FFB94F829301F482B44232193F8413223
:10A6A00003EB4303234493F82C200EF0AFFB94F804
:10A6B000293018482B44242193F8413203EB4303FB
:10A6C000234493F82D200EF0A1FB94F82930114873
:10A6D0002B44252193F8413203EB4303234493F8A1
:10A6E0002E200EF093FB94F829300A482B440A21BF
:10A6F00093F841220EF08AFB95F81031082B00D018
:10A7000038BDBDE8384003483A210EF061BB00BFB8
:10A7100010250020982400201814002038B5204C63
:10A72000204DA4F1780036210EF052FB95F93A3213
:10A7300003EB43032344A4F1780093F82C23232153
:10A740000EF064FB95F93A3203EB43032344A4F182
:10A75000780093F82D2324210EF058FB95F93A3216
:10A76000114803EB43031C44252194F82E230EF0DB
:10A770004DFB95F83A220C4802EB4202520010328F
:10A780000A2102F0FE020EF041FB07483A210EF0CA
:10A790001FFBBDE83840044834210EF019BB00BF50
:10A7A00010250020181400209824002010B5104C0B
:10A7B000104B94F86C21D4F87C02C3F88C03132A54
:10A7C0004FF0C00183F890130B4808BF4FF6C073D9
:10A7D0004FF0C0024FF00C0108BFA4F86A310EF030
:10A7E00015FB0F2384F83A32BDE8104096E700BF0E
:10A7F000181400201025002098240020094890F803
:10A80000791290F93A320B44DAB2931C5BB21D2BE9
:10A81000C4BFA2F11D035BB2002BF4DB80F83A3217
:10A820007CE700BF1814002010B5264B264C93F887
:10A830006C21D3F87C02C4F89403122A08BF4FF6A7
:10A84000C0724FF0C00108BFA3F8662184F89813C6
:10A850001E48C0220C210EF0D9FA1C480C220721F8
:10A860000EF0D4FA0822194818210EF0CFFA174832
:10A8700036210EF0ADFA94F89C23144823210EF0F3
:10A88000C5FA94F89D23114824210EF0BFFA94F8DC
:10A890009E230E4825210EF0B9FA00220B480A210A
:10A8A0000EF0B4FA09483A210EF092FA0748342122
:10A8B0000EF08EFABDE8104005483122002143F029
:10A8C00074B800BF18140020102500209824002020
:10A8D0005916002038B5204D2B6A23B119689A8883
:10A8E0000B691A4201D1002038BD0446FB21A5F1B5
:10A8F00078000EF0DBFA00F07F030D2B06D0A5F1F7
:10A9000078003A210EF064FA002038BD2246FF217B
:10A91000A5F178000EF0A4FA6378032BE3D1A378B5
:10A92000012BE0D10D4DE278237985F83D226FF0BF
:10A93000040085F83E32621D04F10A0C001B6179A7
:10A9400083180B4412F8011F2B44944583F84112DD
:10A95000F5D1012038BD00BF1025002018140020BB
:10A9600038B5244C94F899360133DBB2302B84F897
:10A97000993605D9313BDBB2302BFBD884F89936B8
:10A980001D481E4D36210EF023FA94F899361A48C8
:10A990002B44232193F8413203EB4303234493F8E0
:10A9A0009C230EF033FA94F8993613482B44242153
:10A9B00093F8413203EB4303234493F89D230EF0B5
:10A9C00025FA94F899360C482B44252193F8413206
:10A9D00003EB4303234493F89E230EF017FA94F8F5
:10A9E000993605481D440A2195F84122BDE83840B2
:10A9F0000EF00CBA10250020982400201814002016
:10AA000030B50A4C83B00546019120463B210EF03B
:10AA1000DFF929462046019A3FF000F9352120460A
:10AA200003B0BDE830400EF0D3B900BF9824002039
:10AA300038B5384C94F8753283B141F0E9F9F0211A
:10AA400035480EF033FAF121054633480EF02EFA60
:10AA5000802D01D0002038BD0328FBD12F4D2B6A5B
:10AA6000002BF7D094F8770200283BD194F87602B7
:10AA7000B0B9C5F8A00694F8780200BBC4F80C0180
:10AA8000D5F8A03613B11A689B88538394F83632F0
:10AA900023B9032384F83632012038BD012038BDA4
:10AAA0000FF090FCC5F8A0060028E4D04322C28035
:10AAB00001210EF0FBFF94F878020028DED00FF0A1
:10AAC00081FCC4F80C010028DAD04522C2800121A3
:10AAD0000EF0ECFFD4F80C31002BD1D01A689B8813
:10AAE0001383CDE70FF06EFCC5F89C060028BDD09F
:10AAF0004422C28001210EF0D9FFD5F89C36002BEC
:10AB0000B4D01A689B88138394F876020028B0D0DA
:10AB1000C6E700BF1814002098240020102500204C
:10AB200070B5324C324E41F073F904F10A0501223E
:10AB3000022102E0A178E278023430460EF066F994
:10AB4000A542F7D12B4B9B7D002B3CD12A4C284EA4
:10AB500004F13A0506220B2103E014F8021C14F854
:10AB6000012C023430460EF051F9A542F5D1234DA7
:10AB70000026A5F21444362120460EF029F9F2B23F
:10AB80000A2120460EF042F9332120460EF020F92A
:10AB90004FF4617012F0E6FAA32120460EF086F918
:10ABA00003462B70A42120460EF080F903466B70FB
:10ABB000A52120460EF07AF90136FF2EA87005F186
:10ABC0000305D8D170BD0E4C094E04F13A050A2296
:10ABD0000B2103E014F8021C14F8012C0234304657
:10ABE0000EF014F9AC42F5D1C1E700BFA0E30408B0
:10ABF0009824002098010020AEE30408AC2800202F
:10AC0000EAE304082DE9F041B74F97F8A44605465A
:10AC1000052C00F2D382DFE804F0222E788D9C030D
:10AC2000B24B93F83C32002B00F02E815024D7F821
:10AC3000B03633B11A689B8851690B4214BF5383F5
:10AC40001383322012F038FC631E13F0FF04EED1A0
:10AC50000623012487F8A4362046BDE8F081A34EE0
:10AC6000D7F8A826D6F87C329B1A0A2B00F20F815F
:10AC70002046BDE8F08101202FF02EFB9B4E20B92D
:10AC800096F83C42002C00F0B28099481422192119
:10AC90000EF0BCF8D6F87C3295487B6282220C21FB
:10ACA00087F828200EF0B2F891480C2207210EF008
:10ACB000ADF808228E4818210EF0A8F88C483621ED
:10ACC0000EF086F897F82C20894823210EF09EF884
:10ACD00097F82D20864824210EF098F897F82E201A
:10ACE000834825210EF092F8002281480A210EF0B7
:10ACF0008DF87F483A210EF06BF87D4834210EF034
:10AD000067F8022387F8A4360DE00221FFF766FCFE
:10AD1000B0B197F8281087F8AC167E22032387F885
:10AD2000282087F8A436002464202FF0B3FA2046A8
:10AD3000BDE8F0816FF00101FFF750FC00285AD107
:10AD4000002497F8A436013B032BEDD92046BDE83B
:10AD5000F0813B6A002BE6D019689A880B691A4289
:10AD6000E1D06348614EFB210EF0A0F896F8113156
:10AD700000F07F009842E3D35D482A46FF210EF0A1
:10AD80006FF82846FDF71EFB0028D9D096F810C1B1
:10AD9000ACF11103012B40F26081697981B9EB7844
:10ADA00086F83D32BCF1080F2B7986F83E3200F070
:10ADB000FE812A7BEB7A86F87322697986F83F3226
:10ADC0006FF00500AA1D401B05F10B0483180B440E
:10ADD0002E2BD8BF1178334402F10102C8BF0021E5
:10ADE000A24283F8411200F01A816979EEE7062346
:10ADF00087F8A4363CE797F9282097F9AC363B4C06
:10AE00003B4887F8AD26134403EBD37343F3470362
:10AE1000362184F8403287F828300DF0D9FF97F8B2
:10AE20002C20334823210DF0F1FF97F82D203048D6
:10AE300024210DF0EBFF97F82E202D4825210DF051
:10AE4000E5FF00222A480A210DF0E0FF3A212848B8
:10AE50000DF0BEFF142012F085F9254834210DF0C5
:10AE6000B7FF0023012087F82A30A7F8AE36FFF796
:10AE70001FFB97F9AD3697F9AC269A42B4BF04236D
:10AE8000012387F8A4364EE706F040FCE0E61948B7
:10AE9000194C174D0DF0D2FE04F1320827F8740C4E
:10AEA00040F0B6FF0122022103E014F8021C14F85E
:10AEB000012C023428460DF0A9FFA045F5D196F8E3
:10AEC0001031083B0A2B28D8DFE803F0998927279F
:10AED00027272779275B0600084C054E0E2204F130
:10AEE000120517210FE000BF1025002018140020C4
:10AEF00098240020A02E630026E4040858E40408E7
:10AF0000A178E278023430460DF080FFA542F7D1F7
:10AF1000AD48052208210DF079FFAC4D0026A5F1C2
:10AF2000A404362120460DF053FFF2B20A21204638
:10AF30000DF06CFF332120460DF04AFF4FF4617095
:10AF400012F010F9A32120460DF0B0FF03462B703C
:10AF5000A42120460DF0AAFF03466B70A5212046D0
:10AF60000DF0A4FF0136FF2EA87005F10305D8D11E
:10AF700097480DF063FE012327F8740C87F8A43678
:10AF8000D1E6944C904E0C2204F11205172102E0F8
:10AF9000A178E278023430460DF038FFAC42F7D1A8
:10AFA0008D4C894E0E22251D172102E0A178E278F2
:10AFB000023430460DF02AFFA542F7D1ADE7874CA9
:10AFC000814E0E2204F11205172102E0A178E278E9
:10AFD000023430460DF01AFFA542F7D19DE77D4CB3
:10AFE000794E0C2204F11205172102E0A178E278D3
:10AFF000023430460DF00AFFA542F7D18DE7784CB8
:10B00000714E0C2204F11205172102E0A178E278BA
:10B01000023430460DF0FAFEAC42F7D17DE7714ABA
:10B020006B79B7F8AE16A2FB03239A08012393406D
:10B030000B439BB240F2FF329342A7F8AE367FF447
:10B040007FAE2F2387F82A305F4836210DF0C0FEEF
:10B05000052387F8A43600240AE696F8111104396E
:10B060000329C8BF032307DDEA5C82F0A702EA5484
:10B070000133DBB28B42F7DBEB7886F83D322B797C
:10B0800086F83E326B7986F83F32AB7986F87332B8
:10B090002B79EA7802EB0322534B92B2A3FB021303
:10B0A0005B092E2101FB1323DBB25C1CE4B20C2CE8
:10B0B0007AD0232C78D04B4BDFF838E1A3FB021376
:10B0C0009B084A4903EB8303D31AA4B2D8B201F117
:10B0D0002F05002229E0A3F10308B8F1010F57D989
:10B0E000A3F12E08B8F1010F52D9A3F15A08B8F113
:10B0F000010F4DD903F17B085FFA88F8B8F1010F11
:10B1000046D903F150085FFA88F8B8F1010F3FD92A
:10B1100003F124085FFA88F8B8F1010F38D901F873
:10B12000013F2244A94292B235D0AEFB02835B09B3
:10B1300003EB4308C3EB0813D31A03EB8303034465
:10B14000BCF1120FDBB2C6D1012B21D9A3F12B0820
:10B15000B8F1010F1CD9A3F15708B8F1010F17D9A5
:10B1600003F17F085FFA88F8B8F1010F10D903F1F5
:10B1700053085FFA88F8B8F1010F09D903F12808DC
:10B180005FFA88F8B8F1020FC9D80333DBB2C6E71B
:10B190000233DBB2C3E700232F22A6F8703286F811
:10B1A000723287F82A204FE70233DCB283E76B7CE8
:10B1B00086F87312697986F83F3201E6D7F8B4361B
:10B1C0000B4998470446BCE5982400203C25002004
:10B1D00060FECD006CE4040894E4040858E404081C
:10B1E00080E40408CDCCCCCCC94216B2581600205D
:10B1F000B42B00205D414CAE10B50C462EF0D8FFAC
:10B20000FFF716FC094B0A4A93F86C010821A1705C
:10B2100000211328D3F87C4282F8BC16C2F8B84645
:10B2200008BFA3F86411012010BD00BF181400204E
:10B230001025002010B50C462EF0BAFFFFF7F8FBE2
:10B2400000B910BD064B07491022A2700022D1F8A8
:10B250007C1283F8C826C3F8C026C3F8C41610BDF4
:10B2600010250020181400202DE9F0470B78063B2C
:10B270000D460746042B29D8DFE803F0BB2B034813
:10B280008200AA4C236A4BB119689A880B691A424A
:10B2900004D094F8D066002E00F0588194F8E1664E
:10B2A000002E40F0BF800FF027FCD4F8D83642F2D1
:10B2B000283202FB03F3D4F8CC26801A8342C0F272
:10B2C0001E8194F8D036002B40F0A7800020BDE806
:10B2D000F0870FF011FC954C002608232B70C4F862
:10B2E000CC0641F2B443304684F8D066C4F8D43674
:10B2F0002EF0F2FF0028C5D03223C4F8CC66C4F883
:10B30000D836C4F8DC662E703046E0E7874C0FF084
:10B31000F3FBD4F8D426B4F86C371344D4F8CC2615
:10B32000801A8342D2DC3621A4F178000DF050FD62
:10B33000FE223E21A4F178000DF068FD3A21A4F12F
:10B3400078000DF045FD1E2011F00CFFD4F8A0365A
:10B3500013B11A689B881383754836210DF038FDA8
:10B3600094F8101773480131C9B2FFF749FB94F8FC
:10B370006E270A23002A0CBF002004202B70A6E7AA
:10B380006A4C0FF0B9FBD4F8D436D4F8CC2603F6C7
:10B390007463801A834299DA0FF0AEFB664FC4F8EB
:10B3A000CC0641F2B443387EC4F8D436002384F886
:10B3B000D036FFF757F93421A4F178000DF008FDDD
:10B3C000D4F8A03613B11A689B885383D4F8DC668E
:10B3D000012E00F21781594B93F86C210136122A85
:10B3E00008BFA3F866610823C4F8DC662B70002050
:10B3F0006DE74E4C2F23002084F82A30FFF758F8D1
:10B4000007232B700120FFF72DF9A4F178003421D8
:10B410000DF0DEFC0020BDE8F087002384F8D03674
:10B42000022054E70FF068FBD4F8CC36C01AD4F8E9
:10B43000D4368342BFF637AFDFF800C109232B7043
:10B440000E2384F810379CF810319CF83D2284F8C4
:10B450001127113B9CF83E2284F81227012B94F807
:10B46000242794BF9CF83F12F97884F81317002A18
:10B4700040F00C819CF87432012B00F00E81022BFD
:10B4800000F00281B4F844372D480533A0FB0303D4
:10B49000C3F3C60384F814377B7D82F0010284F87D
:10B4A00024271A0740F1BE808822002384F815273C
:10B4B00084F84C37234E244806F109074FF0000C5E
:10B4C00001E016F8011F81EA1C210A0901F00F01B1
:10B4D00000EB410102EB8212B1F84C3A02EB82120E
:10B4E000534083EA0C23B7421AB21FFA83FCE8D117
:10B4F0004FEA1C2384F81D3784F81E27D3E62EF06C
:10B50000BBFE0E4B93F83622032A09D00120FFF729
:10B51000A9F8074834210DF05BFC07232B70D0E617
:10B520000022A4F86A27A3F83822EFE710250020AC
:10B5300098240020202C00209801002018140020BE
:10B54000CDCCCCCC232C002050DA0408D248FB21EF
:10B550000DF0ACFC94F8E03600F07F0083423FF63B
:10B560009DAECD483A46FF210DF07AFCDFF844C38A
:10B5700094F8E0E69CF81031113B012B07EB0E0824
:10B5800040F29480AEF1070313F0FF0307F10302CA
:10B5900000F080810333C148F9184FF0000912F818
:10B5A000013B83EA192303F00F0A00EB4A0A1B0947
:10B5B000BAF84CAA03EB831303EB831383EA0A0361
:10B5C00083EA09238A421FFA83F9E8D14FEA192353
:10B5D00018F8042C9A4200F0858094F8D036002B9D
:10B5E0007FF45CAED4F80C379CF86C21AA48013388
:10B5F000122A08BFACF868313A21C4F80C370DF0B4
:10B60000E7FB4BE6FCF7CAFE642E7FF6E4AE32237E
:10B61000C4F8D83601230020FB75072384F8E1061F
:10B620002B7054E613F04002C3F3011344D194F895
:10B630004C07013303F0030398423FF43BAF13463A
:10B6400094F800279CF86D91954902F0F00260F3A0
:10B65000010284F8152794F868279A464A455FFA4C
:10B6600083F80CEB020E03F1010302F1010700F075
:10B6700023819EF8702101F8012B052B07F03F0272
:10B6800000F0CC80B246E9E7322303E7BCF834325D
:10B6900063F07F0384F81437FEE694F8343704EB44
:10B6A0004303B3F83C37C3F34613F3E618F9013C00
:10B6B000002B92DA012665E794F8002702F0F002E9
:10B6C00063F3010284F81527764A03EB430302F182
:10B6D0003A0000EB430650F81330C4F81637B3882D
:10B6E0009380E7E618F8032C5FFA89F39A427FF417
:10B6F00074AF3B78AEF1030E73457FF46EAF7A788A
:10B700009CF83D329A427FF468AFBA789CF83E329A
:10B710009A427FF462AF2EB1FA789CF83F329A4297
:10B720007FF45BAF9CF8732222B1BB7913B19A42CC
:10B730007FF453AF00264FF00108C4F8DC66C4F86C
:10B74000D886C4F8D4662EF085FD574BDA7D42B119
:10B750003A79797984F8E186920942EA8102DE75C4
:10B760001A7694F8E0363B4413F8020CFDF7F0FC2F
:10B7700097F815E04D4AD7F8161094F801C70EF067
:10B78000030ECEEBCE03D1501A44798B9180234423
:10B790000CF1010101F00300012283F8EA2686453D
:10B7A0004FF0000384F8003701460CD00346C3EB8A
:10B7B000C30222445E1C92F8EA26002A47D006F013
:10B7C00003039E45F3D1C1EBC1032344002293F848
:10B7D000EA36C4F80427002B76D0844502D171E004
:10B7E0008C450BD04A1C02F00301C1EBC10323447A
:10B7F000064693F8EA360846002BF1D194F8003754
:10B8000084F8016766F3051384F800370FF074F9C4
:10B810000123C4F8CC0684F8D0363FE584F86827C5
:10B820009846234A84F81687431C00EB400603F031
:10B830000303D4F8160784F84C3702EB460342F8AA
:10B84000160032F8362C94F813179A8032E694F8E2
:10B8500000171B0143F0400321F070010B4384F8F3
:10B860000037D4F804370133042BC4F80437CDD99A
:10B87000032384F8082784F8092784F8013784F81B
:10B88000EA2684F8F12684F8F82684F8FF26C4F81E
:10B890000427BBE799469BE69824002050DA040869
:10B8A000272C0020262C002098010020F42B0020BB
:10B8B000602C002018140020BAF1000FB1D084F8D9
:10B8C0006827AEE7664699E7064697E72DE9F8430D
:10B8D000B34F06460FF010F997F8BC4605460E2CFC
:10B8E00033D8DFE814F07200EE000E0132003200AF
:10B8F000320032003200320032004B010F003900BA
:10B900006901650097F99033DFF89C827D2B0CDD8F
:10B9100098F86C31132B4FF0820208BF4FF68273F8
:10B9200087F8902308BFA8F86A31D8F87C32D7F896
:10B930008C239B1ADC2B00F256823046FEF72EFE3B
:10B94000002840F0CE8197F8BC460A3C032C2BD946
:10B9500000242046BDE8F883DFF84C8264202EF0F6
:10B9600099FCD8F87C32D7F88C239B1AB3F55C7F0E
:10B9700004D897F978377A2B40F36D81D8F87C3268
:10B9800097F890238748C7F88C330C210DF03EFAC6
:10B99000844834210DF01CFA98F86C210D23132AE9
:10B9A00087F8BC3600F0C88164202EF073FCCFE726
:10B9B00005F0ACFE7C4B93F86C110022132987F83C
:10B9C000BC2600F0CF810124C3E7DFF8DC81D7F883
:10B9D000B826D8F87C329B1A0A2BB9D9D7F8B036DA
:10B9E0003BB197F86F27002A00F027821A689B88DE
:10B9F00013836E4C6B4D0023A7F8703704F11206C9
:10BA000040F006FA0122022103E014F8021C14F8A7
:10BA1000012C023428460DF0F9F9B442F5D1644CFA
:10BA200098F840225F485F4D0C210DF0EFF904F1CA
:10BA300036065C220D2103E014F8021C14F8012CD8
:10BA4000023428460DF0E2F9A642F5D1594C07F22E
:10BA500086391026A4F56975362128460DF0B8F907
:10BA600032460A2128460DF0D1F9332128460DF03F
:10BA7000AFF94FF4617011F075FBA32128460DF06A
:10BA800015FAA421207028460DF010FAA521607047
:10BA900028460DF00BFA033404F8010C0636A145D4
:10BAA000F6B2D9D198F86C210A23132A87F8BC364C
:10BAB0007FF47AAFB7F87027A8F86431A8F8662148
:10BAC00072E73046FEF76AFD0446002840F06881C0
:10BAD000D7F87437EB1A002B40F3F1804FF4FA706B
:10BAE0002EF0D8FBFCF75AFCFEF788FED7F8743727
:10BAF00097F8BC4603F5F42303F59073C7F8743741
:10BB000023E73046FEF74AFD8146002840F02E81AB
:10BB1000D7F87437EA1A002A40F3808197F884270F
:10BB200003F5D4531033032AC7F8743700F00B81A0
:10BB3000DFF8748098F86C11132900F00A81002A4C
:10BB400040F00181D7F880370133642BC7F8803784
:10BB500040F2F5800123132987F8BC361CD0FEF78C
:10BB60004DFE98F83632032B6FD005F5F42505F518
:10BB7000907597F8BC46C7F87457E6E601202EF09A
:10BB8000ABFBDFF82480002851D198F86C21012309
:10BB9000132A87F8BC36E2D1A8F86431DFE700BF8A
:10BBA000102500209824002018140020BEE404086A
:10BBB000D2E404083C280020DFF8E082D7F87C3784
:10BBC000D8F87C22643393420DD8D7F8B036D8F831
:10BBD0007C22C7F87C2733B19A881B6859690A42CE
:10BBE00014BF5A831A83D7F88C23D8F87C329B1A57
:10BBF000B3F55C7F97F9902302D812F17A0F3CDA03
:10BC000097F97837991A022911DD134498F86C11C5
:10BC100003EBD3735B100E22132988F8403287F8A8
:10BC2000BC267FF495AEA8F86421002491E6FEF7C7
:10BC3000BDFD98F86C310B22132B87F8BC267FF4DE
:10BC4000B3AE0B23A8F86431AEE60023A7F86A3739
:10BC5000A8F8383289E73046FEF7A0FC00283FF408
:10BC600072AE01213046FDF78DFA002840F00081C8
:10BC7000894834210DF0ACF865E63046FEF78EFCBD
:10BC800000283FF460AE01213046FDF77BFA002822
:10BC9000EED097F89023D8F87C12C7F88C1398F858
:10BCA0006C11043A53B2132987F89033D2B208BF0B
:10BCB000A8F86A3178480C210DF0A8F8D8E72EF0E2
:10BCC0000BFB00283FF43FAEDFF8D08187F8BC467D
:10BCD00098F86C31132B7FF43BAE0024A8F8644134
:10BCE00037E600213046FDF74DFA0028C0D0B37B7F
:10BCF00003F07F03282BBBD998F86C217378B178B7
:10BD000088F83D32132A97F9903388F83E1262483A
:10BD100008BFA8F86831342187F878370DF058F853
:10BD200098F86C21D8F87C12C7F88C130C23132ACE
:10BD300087F8BC367FF438AEA8F8643134E6012BBE
:10BD400001D9FCF72BFB002387F88437FEF756FD5B
:10BD5000F9E5B7F8703701339BB2A7F87037A8F848
:10BD60006631ECE6A3F864210124F2E501213046B6
:10BD7000FDF708FA002864D00023C7F88037337B2A
:10BD80001A0765D597F8842705F5FA7542F002027F
:10BD9000C7F8745787F884275B077FF5DAADD7E5D6
:10BDA00001213046FDF7EEF900283FF461AF337B07
:10BDB00019077FF55DAF0023C7F880372EF04AFAE8
:10BDC000364B93F86C1102220320132905F5FA75FE
:10BDD00087F8840787F8BC2608BFA3F86421C7F852
:10BDE00074570024B5E597F8902398F86C11D8F8AB
:10BDF0007C32C7F88C33103253B21329264887F8A7
:10BE00009033D2B24FF00C0108BFA8F86A310CF0A1
:10BE1000FDFF214834210CF0DBFF8EE52EF05CFAAB
:10BE200000283FF490ADDFF8748087F8BC9698F84E
:10BE30006C31132B7FF48CAD4FE71A689B885383CA
:10BE4000D7E5154834210CF0C3FF97F8BC467CE5D4
:10BE5000114805F6AC553421C7F874570CF0B8FFFB
:10BE600097F88427337B42F0010287F8842793E711
:10BE700097F87827D8F87C12C7F88C1398F86C11CB
:10BE8000043253B2132987F87837D2B27FF412AF55
:10BE9000A8F868310EE700BF98240020181400208D
:10BEA0002DE9F041C04D95F8C8460746052C00F233
:10BEB0005A81DFE804F020344D749B03BB4E96F8A2
:10BEC0003C32002B00F048815024D5F8B03633B115
