:020000040800F2
:1000000000000120F5C9040891CA04080DEB00089E
:1000100091CA040891CA040891CA040800000000AB
:1000200000000000000000000000000091CA040869
:1000300091CA04080000000091CA0408FDCE00081F
:1000400091CA040891CA040891CA040891CA040814
:1000500091CA040891CA0408819D0008899D00087E
:10006000919D0008999D0008A19D0008B19B000882
:10007000C19B0008D19B0008E19B0008F59B00088C
:10008000099C00081D9C000891CA040891CA040834
:1000900091CA040891CA040891CA0408A99D0008DD
:1000A0006DC6000869C500087DC6000859C500086E
:1000B00091C50008A1C50008B1C50008C198000895
:1000C000BD980008C9980008C598000891CA04089E
:1000D00091CA04082D34040839340408453404084E
:1000E000B19D000891CA040891CA04088DC6000891
:1000F00045C6000891CA040835C60008319C0008AE
:1001000091CA040845B90008C1C5000891CA04088D
:10011000513404085D340408D1C50008754C040846
:10012000459C0008599C00086D9C0008819C0008B3
:10013000959C000800000000000000000000000086
:10014000000000000000000000000000C1410408A1
:10015000A99C0008BD9C0008D19C000869340408D3
:10016000D1980008CD98000891CA040891CA0408E3
:1001700091CA040891CA04080000000000000000B1
:1001800091CA040891CA040891CA040891CA0408D3
:1001900091CA040891CA04080000000091CA04082A
:1001A00000000000000000000000000091CA0408E8
:1001B00091CA040891CA0408000000000000000071
:1001C000000000000000000000000000000000002F
:1001D00000000000000000000000000091CA0408B8
:10800000084A0346D0F8EC005268D3F8F810121A68
:1080100000209142B8BFC3F8F820012283F8242140
:10802000704700BF001000E030B4046900234168CD
:1080300040258269E4680C3153605462446993635B
:1080400095601160C2E90333C2E90533C2E9073321
:10805000C2E90A33C2E90C3394B1C2694FF48030EB
:10806000E468116054629062C2E90133C2E90333EB
:10807000C2E90533C2E90733C2E90B33C2E90D3364
:1080800030BC7047114A037A0168D35C10B4CC58F5
:10809000CA1824F00104CC501368DB07FCD4037D1C
:1080A0001F2B09D9203B20225DF8044B02FA03F371
:1080B00043F01803CB60704720225DF8044B02FAAE
:1080C00003F343F018038B60704700BFD4600508CA
:1080D0001B4B016803F57D7C02E02C3363452BD0FC
:1080E0001A688A42F9D170B593F804E0427996454E
:1080F0000BD02C33634505D01A688A42F4D02C3358
:108100006345F9D14FF0FF3070BD9E468468002270
:10811000DEF80C50A54208D001320EF10C0E032AF5
:10812000E7D0DEF80C50A542F6D1DEF81050C66854
:10813000B542F1D150B270BD4FF0FF30704700BF73
:1081400020EA04084368426D30B49A61EFF311826B
:10815000502383F312884168D2B2856C0B68046D9A
:1081600023EA050323430B6082F311884369816886
:108170001A68096822F00102D0E908541A60826A7C
:108180001D605C615A60D0E90B429C60DA6000239C
:10819000B0F86C2030BCCA6203777047002A4FEAFF
:1081A000014C034630B508BFE64600F1C00514BFD8
:1081B0008E468C46002419680C3353F8042C43F87F
:1081C000084C41EA0C0142EA0E02AB4243F80C1C97
:1081D00043F8042CEFD1D0F8C03043EA0E03C0E9D5
:1081E0003144C0F8C03030BDC3695969B3F810C01C
:1081F0000A6830B49C6822F0010224680A60E268D0
:1082000022EA0C02E260027D00681F2A06D9203AA9
:108210000824456894402C4242D0FEE708240568B3
:1082200094402C42F9D1202404FA02F28260254ABB
:108230001278002A32D01A7F012A36D0D3F80021D2
:108240000132C3F80021EFF31181502282F312882A
:108250005868C9B29D6C0268DC6C22EA05022243B0
:10826000026081F311885A699968D3E90D40096861
:1082700014605061D3E90F4054605C6C9060B3F8B7
:10828000B400D4600124C8621C77106820431060D9
:108290001A8A83F8FD40CB681343CB6030BC70472B
:1082A000202404FA02F2C260C1E70022D3F80401DC
:1082B00083F8FD2001300A68C3F8040122F00102AE
:1082C0000A60EBE72C00002010B40C4C6368002B14
:1082D00011DD002004F1080C0146DCF8AC3003F19C
:1082E000C00259600C339342FBD1013063680CF536
:1082F000867C8342F1DC5DF8044B70472C00002043
:10830000704700BF024B03EB401393F855047047CE
:108310002C000020B44BD3E9001270B58C0F93F8F9
:108320009050100EC2F3072C83F83840C1F38364D9
:108330000001012D83F83940C1F3016483F83A400C
:10834000C1F3074483F83B40C1F30724C9B283F863
:108350003C40C2F3035483F83D10D887C2F3C030C9
:10836000D98F89B241EA0401C2F30344D987C2F329
:10837000403183F84040C2F3803483F841004FF02D
:10838000000083F8424083F84310C2F3003183F8C1
:108390004410996883F8450040F2D680022D00F021
:1083A000B0802A204FEA4C0C83F85140C1F3C01230
:1083B00001F07F010CF07E0C83F852C04FF0010CED
:1083C00093F852401443DA6883F85240D40F83F88C
:1083D0005310910D83F85440C2F3417401F00C0125
:1083E000C2F3815583F85540C2F3826483F8564046
:1083F00083F8571093F857101C69294383F85710D6
:10840000C2F3405183F85810002183F85910C2F389
:10841000004183F85A10C2F3C03183F85B10C2F3F5
:10842000803183F85C10C2F3403183F85D10C2F3F1
:10843000003183F85E10C2F3812183F85F10C2F32C
:108440000121C2F3460283F86010C4F3074183F8A8
:108450006120220E090283F862C083F86420C4F30D
:108460000722A3F866102406B3F8661089B21143F8
:10847000A3F8661059699C660C0E9A6E42EA044293
:108480009A660A0A9C6E02F47F422243C1F30724D3
:10849000C9B29A669D6E9A692C439C6683F86C10EB
:1084A000110E83F86D10110C0906196711021C6F6B
:1084B0000A4601F47F01214392B2DC691967196F02
:1084C0000A431A67C4F30352196F41EA146119672A
:1084D00093F874101143C4F3072283F87410210A2F
:1084E00001F47061A3F87610B3F8761089B21143E5
:1084F000C4F34602A3F8761083F8782083F879C095
:1085000070BD1204C1F3072C0D0E02F47C129A64A4
:10851000C1F307429C6C44EA05249C649C6C224392
:108520004FF400749A649A6CC3F88840013240F1A9
:108530000004A40244EA92549202C3F88440C1F3B6
:108540008034C3F880202DE74FEA8C2CC1F3C2653C
:1085500094000CF44062C1F3072C04F47F749A6415
:108560009A6C1443CA0B9C6402F006029C6C44EAA9
:1085700091749C64C1F3026483F84C50012583F824
:108580004D40C1F3425483F84E40C1F3824483F816
:108590004F40C1F3C03483F8502093F85020224359
:1085A00083F850209C6C93F8502093F8406002327E
:1085B00005FA02F2B540D617A2FB052EC3F8885083
:1085C00005FB06EE04FB0EEE0134A2FB0424A644D8
:1085D000520AC1F3803442EACE52C3F880204FEAF7
:1085E0005E22C3F88420DDE658170120426A806AC3
:1085F000131A58425841704790F84F3830B53BB97C
:1086000090F84D18012490F84E38DAB2914200D813
:1086100030BD04FA03F2B0F8565801332A43A0F8EB
:108620005628F2E70379024613F0010005D0D3691A
:10863000D068116A01385B1A1840704710B5037989
:108640000446DB0701D4002010BDFFF7EBFF002834
:10865000F9D0236A6269D05C236AE268C0B2013350
:10866000B3FBF2F102FB11332362EDE703799B07C1
:108670000AD5436A8269D154436A02690133B3FB64
:10868000F2F102FB1133436270477047017170478A
:108690000379024613F0020007D0536A1069916A09
:1086A00001385B1A0340DBB2C01A704707280AD8AA
:1086B00000EB8000054B03EB4013B3F83805B0FA2C
:1086C00080F0400970470020704700BF2C00002058
:1086D000072807D8044B00EB8000012203EB40136E
:1086E00083F83A25704700BF2C00002010B584465F
:1086F0004FEA810E102312F4004F4FEA420214BFDA
:108700000E240724013B92B2CCF80040F444F2D18D
:1087100000EB81128C010351122042F8213010BD70
:1087200010B584464FEA810E0424130B013C4FEA36
:10873000021203EB430392B203F11803CCF80030AA
:10874000F444F2D100EB01130A018450062043F8EF
:10875000214010BD704700BF704700BF00EB4000D4
:10876000024B03EBC00393F8490A70472C0000202A
:10877000064B93F8F82A824206D900EB400003EB3F
:10878000C003D3F84C0A7047002070472C0000202B
:10879000072808D8044B03EB401393F8542412B174
:1087A000012283F83A2470472C000020072808D8BB
:1087B000054B03EB4013B3F83804B0FA80F04009DE
:1087C00070470020704700BF2C000020054B93F835
:1087D000F82A824204D903EB4013D3F844047047CB
:1087E000002070472C0000200B4890F8FC1A89B13B
:1087F00001EB4101002300F63820490010B41C466B
:1088000050F82320063302B114608B42F8D15DF892
:10881000044B7047704700BF2C0000200B4890F8B5
:10882000FC1A89B101EB4101002300F63820490010
:1088300010B41C4650F82320063302B114608B425A
:10884000F8D15DF8044B7047704700BF2C00002042
:10885000214B1B78002B3DD12DE9F0431F4C94F8A0
:10886000FC2AAAB304F638224FF0500E1C4F4FF0EA
:108870002C0C1C4E1D4607E0013394F8FC1A52F8EC
:10888000180B8B42056023DA117C0029F4D0506864
:108890004FF0FE08810AA1F580115229314498BF9A
:1088A00091F8F483EFF311818EF31288D0F82490BD
:1088B0000CFB0878C9B209F10109C8F8BC90D0F8DE
:1088C000148048F00108C0F8148081F31188D3E7C0
:1088D000BDE8F083704700BF000001202C0000209D
:1088E0005817012020EA040800EE100AB8EE400AEA
:1088F000704700BFBCEEC00A10EE103A98B2704745
:1089000070B50E4E0D461446D6F87C333BB11A684E
:108910009B881269134096F8792352B15BB9FFF72F
:10892000F9FC4FF40073D6F8802000202A602380E1
:1089300070BD002BF3D14FF0FF3070BD58170120F0
:10894000002070470020704738B5074B14460D468D
:10895000D3F824341B6A984702464FF40073002072
:1089600012682A60238038BD5817012008B5064BCD
:10897000D3F8243423B15B699847013840B208BD6D
:108980004FF0FF3008BD00BF58170120002070478E
:108990002DE9F04113B316460F4603EB0208134CC2
:1089A000D4F82454002339463046AD681A46A84707
:1089B0000028F5D0D4F82434002BFBD05B6998470D
:1089C0000028F7D0013607F50077B045E8D1D4F894
:1089D00028340020C4F82C34BDE8F081034C00207A
:1089E000D4F82834C4F82C34BDE8F081581701209D
:1089F0002DE9F04143B316460F4603EB0208164C2F
:108A000004E0D4F8241419B14B699847D4F824141D
:108A100000230D69304639461A46A8470028F0D190
:108A2000D4F82434002BFBD05B6998470028F7D09A
:108A3000013607F50077B045E8D1D4F82834002096
:108A4000C4F82C34BDE8F081034C0020D4F828345D
:108A5000C4F82C34BDE8F08158170120002070477D
:108A6000034B93F84C03003818BF0120704700BF38
:108A7000581701201C4AD2F87C336BB1186892F861
:108A800079139B880069034021B12BB1002382F840
:108A90004C337047002BF9D092F84C33032B0FD88E
:108AA00092F840330133DBB2072B82F84033EDD824
:108AB000D2F828140123C2F83C1382F84C337047D3
:108AC000D2F8303409489908B0EB930F4FF0020305
:108AD00006D249085B0081429BB201D9FF2BF8D92D
:108AE000A2F88433DCE700BF58170120801A060083
:108AF000816D03460A6A52681278FF2A09D090F8FD
:108B0000F020013A52B2002A80F8F02006DD012060
:108B100070470822002083F8F02070470B6A00227B
:108B200002205B681A707047836D1B6A5B681B7854
:108B3000FF2B0AD190F9F030002B03F1FF3280F8BF
:108B4000F020D4BF0220012070470020704700BFF2
:108B5000836D1B6A5B681B78FE2B0CD0FF2B08D142
:108B600090F9F0305A1E002B80F8F02001DD012032
:108B70007047022070470020704700BF034B93F8F6
:108B80004C03032894BF0020012070475817012090
:108B900000487047A81A0120034B93F84C03003893
:108BA00018BF0120704700BF58170120134BD0F8A1
:108BB000E0105B68D0F8E82010B50446581A8242ED
:108BC00000DC22B9D4F8EC200A44C4F8E42094F87C
:108BD000D820C4F8E030012A05D0D4F8DC300133C5
:108BE000C4F8DC3010BD04F1F001201D3AF078FA31
:108BF000D4F8DC300133C4F8DC3010BD001000E0E4
:108C000030B5002299B00446952513468DF80C1016
:108C10008DF80D5044F040050493012065F30702E0
:108C20008DF81C300A938DF830308DF84430159350
:108C300017931D4D069010908DF8580002A8CDE9AD
:108C40000D33CDE913330B0E099005F5607063F316
:108C50000F220B0C090A63F317420DF1070305936A
:108C600061F31F62114B029208930623104A0DEB29
:108C700003010B93082312920F9104A985F818346D
:108C80003AF02EFAD5F88023136A002BFCD19DF818
:108C90000730FF2B00D01CB99DF8060019B030BD7D
:108CA0004FF0FF30FAE700BF58170120F18A0008A3
:108CB000298B000830B597B000231F4C0DF1070237
:108CC0000890084608218DF8143007938DF8283055
:108CD0000B938DF83C301593184D84F818146944A3
:108CE000099004F5607006959FED117BCDE9023285
:108CF000CDE910330122CDE91233022304928DF81D
:108D000050200E938DED0C7B3AF0EAF9D4F88033C5
:108D1000186A0028FCD19DF80730FE2B03D0FF2BEA
:108D20000CBF0120022017B030BD00BFAFF30080A0
:108D3000000000000000000058170120518B0008BF
:108D400030B52C4C9DB0FD250023012200200021D0
:108D50008DF8065004F56075C4F848338DF83C3042
:108D600010938DF85030159318931A930E928DF836
:108D70006420CDE912320DF10603CDE90C01CDE9F5
:108D800016010CA9284611933AF0AAF9D4F88023C9
:108D9000136A002BFCD10DF10701012228468DF842
:108DA000143009930B9304928DF8282084F818242A
:108DB000CDE902311049069102A9CDE907333AF015
:108DC0008FF9D4F88033186A0028FCD19DF8073059
:108DD000FF2B08D0D4F828240923C4F83C2384F8B6
:108DE0004C331DB030BD0423022084F84C331DB039
:108DF00030BD00BF58170120298B00088369F0B5EA
:108E000093F8E4208BB00546012A35D0023A012AB6
:108E10002FD893F85421EC46D3F89C1062F07F03CE
:108E2000224C0B708669D6F8A0305F1C0FCCACE8E2
:108E30000F00D6F89C30CDE900370FCCACE80F001E
:108E400094E803008CE80300694606F110003AF04C
:108E500047F9A9690A69136A002BFCD1D1F8A0303F
:108E60005A8852BAEA819A8852BA2A82DB885BBA57
:108E70006B8201200BB0F0BD93F8542193F8570199
:108E8000D3F8A010131A01205B100133DBB231F8C4
:108E9000132001EB430352BAEA815A8852BA2A825C
:108EA0009B885BBA6B820BB0F0BD00BF68EE040814
:108EB000F0B590F8E4308BB00446D0F8A060012BF8
:108EC0004BD034D9023B012B2ED890F85531EC46CB
:108ED000D0F89C2063F07F03504D1370D0F8A03081
:108EE0005F1C0FCDACE80F00D4F89C30CDE9003703
:108EF0000FCDACE80F0095E803008CE8030069464D
:108F000004F110003AF0ECF82269136A002BFCD14E
:108F100073885BBAA4F8D030B3885BBAA4F8D230B7
:108F2000F3885BBAA4F8D43001200BB0F0BDD0F8C0
:108F30009C304FF0FF3205211A605A609A60DA6067
:108F4000D0F8E830C0F8F810B3F57A7F38D80323AA
:108F500080F8E43001200BB0F0BD90F8571190F884
:108F6000553190F856215B1AD0ED366A521AD0ED81
:108F7000377A5B10521001330132DBB2D2B236F8CD
:108F8000131006EB430349BAA0F8D010598849BA28
:108F9000A0F8D2109B885BBAA0F8D43036F8123013
:108FA000DBBA07EE103AB8EEC77AE7EE267AFDEEA6
:108FB000E77A17EE903AA0F8D63001200BB0F0BD5A
:108FC00003691A7B2AB35B691BB390F8983003B32B
:108FD00090F857310122D0F89C0063F07F03C4F869
:108FE000A4400F49037094F8553194F8570184F860
:108FF00008211B1A84F8E420D4F8A0200733C4F811
:109000000C110132D4F89C10C4E94023C4F8FC10C0
:109010008AE7022384F8E43086E700BF68EE04089C
:1090200001800008F8B50C4B1D685A6915400540D1
:109030005D617DB1094F0126B5FA85F4C4F11F04C5
:1090400007EB840306FA04F4D3F834040368984762
:10905000A543F1D1F8BD00BF003C014058170120E5
:1090600002692DE9F843C36812EA030828D00546CF
:109070000E464FF00047B8FA88F327FA03F21B3B7D
:10908000D24308EA02082A61042B16D8DFE803F06D
:109090003B30251A0300B36A002B3FD003F1FF39A0
:1090A00000231FFA89F9B362746A34B12368204639
:1090B000494698476468002CF8D1B8F1000FDAD11E
:1090C000BDE8F88370680028F7D0696B036889B23F
:1090D0009847B8F1000FCED1F2E7B0680028ECD085
:1090E000A96B036889B29847B8F1000FC3D1E7E7CD
:1090F000F0680028E1D0E96B036889B29847B8F1BD
:10910000000FB8D1DCE730690028D6D0296C03689D
:1091100089B29847B8F1000FADD1D1E7EB6A1FFAD9
:1091200083F9C1E72DE9F047214C6568002D34DD56
:10913000002304F108024FF486760127184698466A
:1091400006FB034C01339CF8051101F0FF0E59B9E1
:10915000AB4202F58672F3D120B1164B93F874241A
:10916000542A1DD0BDE8F08791687046B2F810A06F
:10917000D1F80090D2F814E0D9F80C1021EA0A01D5
:10918000C9F80C10DEF8001021F00101CEF8001033
:109190008CF8058182F8FE70DAE70020BDE8F087E0
:1091A000B3F87C240132A3F87C24BDE8F08700BF2B
:1091B0002C000020581701202DE9F041DFF8B48081
:1091C00008EB401797F854340BB9BDE8F08104461A
:1091D0000D46460145F000FCC0BB2448464400EB68
:1091E0004410A6F8385445F0DFFB98F80030D6F864
:1091F0005024A3B1D6F83C140124D2F8AC308C40F2
:1092000003F1C001420010F4004F90B202D15A683D
:1092100022435A600C339942F4D1BDE8F081D6F86C
:109220003C140124D2F8AC3001F1100203F1C0016A
:109230009440420010F4004F90B202D15A68224389
:109240005A600C338B42F4D1BDE8F081084B93F89F
:10925000E82402EB420203EBC203234493F8955443
:10926000002DBAD0012387F83A34B6E76404002011
:10927000581701202C00002010B5044644F082FA53
:109280000146204689B2BDE8104095E738B50B4D40
:1092900000EB400005F63823C40003EBC00325446F
:1092A00093ED027AD3ED037AE7EE007AB0EE670A27
:1092B00044F068FAD5F8383A186038BD2C00002020
:1092C000F8B5A0F668042379DB0725D5657994F80D
:1092D0004C3805F001073D46FBB1D4F848341A6814
:1092E000D36A5B08536294F8503823B1B4F85A3803
:1092F0000133A4F85A3885F00101606C3FF0E2F9BF
:10930000012384F84F38002384F84D3884F84E3810
:10931000A4F8563884F84C38F8BD94F84F68012EFC
:1093200003D194F84D3884F84E382046FFF764F99D
:109330004EB9012385EA030184F84F38606CBDE81B
:10934000F8403FF0BFB90023394684F84F38F5E7BD
:1093500038B5C569002D3DD02C68236A1B7B5BBBEB
:10936000204643F029FA236A5B6803B3236A5A68EC
:10937000236A22F01F025968236A01F01F019B68CB
:109380001F33194421F01F01BFF34F8F00290ADD5D
:1093900002F12003114410488B42C0F85C221A46A7
:1093A00003F12003F8D1BFF34F8FBFF36F8F28462F
:1093B000BDE8384039F0DABFAB68002BD0D01A686E
:1093C00020469B88936143F0F7F9236A5B68002B82
:1093D000CCD1ECE738BD00BF00ED00E038B5C46982
:1093E00004B938BD2568284643F0E6F92B6A1B7B93
:1093F00023B92046BDE8384039F0B8BFA368002B38
:10940000F7D01A6820469B889361BDE8384039F050
:10941000ADBF70B505460726084C013E00D170BDB2
:1094200094F900001BF02AFF031E04DB6178EA18A0
:109430009171A278EA540434EFE700BF90EE04087B
:1094400010B50F4CD4F8EC344BB194F8F82499884B
:10945000186802F001031B0101FA03F383613DF078
:10946000A7FCD4F82434002BFBD05B699847002874
:10947000F7D0D4F828340020C4F82C3410BD00BF35
:109480005817012010B490F8443000F10801484A00
:10949000012BC2F8FC146DD08368464CD968A342F6
:1094A00021F46001D960D96841F46001D960996BF9
:1094B00021F440119963996B41F480119963996B80
:1094C00021F4F8419963996B41F488419963996853
:1094D00021F47021996099689960996821F440118C
:1094E000996099689960596821F480615960596858
:1094F00021F48051596059696FF30B015961596921
:10950000596148D0D9682B4C21F0E061A342D96061
:10951000D96841F0E061D960996B21F440119963F9
:10952000996B41F480119963996B21F478219963C7
:10953000996B41F410219963996821F47021996025
:1095400099689960996821F44011996099689960C7
:10955000596821F480615960596821F4805159603B
:1095600099696FF30B019961996999611AD0002388
:1095700080F844301048114B848DC18D408D091BFB
:10958000C2F80445C2F800055DF8044B93FBF1F303
:10959000C2F808357047D4F8041341F40001C4F848
:1095A0000413AFE706494B6843F400034B60DEE762
:1095B0005817012000200140007AF01F8038010078
:1095C00000230140704700BF036882B023F002030C
:1095D0000360036823F004030360036823F040037F
:1095E0000360036823F020030360036823F0100383
:1095F0000360036823F08003036083699B0603D53F
:10960000C36943F02003C36183699A0701D500232E
:1096100083628369DB0701D40123836100224260F6
:10962000036823F0010303600192019B3F2B06DCDA
:1096300000BF019B01330193019B3F2BF8DD0368C1
:109640004FF0010C074A43EA0C030360002381F842
:1096500000C04B70B2F80C3563449BB2A2F80C35D5
:1096600002B070475817012000EB80036E494FEAA3
:10967000800C70B54FEAC30E01EBC303D3F810356D
:109680005B681A68D4060DD59A69D2060AD5DA69DC
:109690007144184642F0100201F22451BDE87040B6
:1096A000DA6191E71A6896071CD59A69950719D56A
:1096B0000CEB000201EBC20292F8294524B192F8AA
:1096C0002845002C40F09180604401EBC00090F8E8
:1096D000282512B190F829251AB91A6822F0020239
:1096E0001A6070BD1A68540722D41A68560639D514
:1096F0009A69550636D5604401EBC00090F82A25DA
:10970000002AEED090F82645484990F828055A6876
:109710000A404749224342EA0042114359601A680D
:1097200022F002021A601A6842F004021A6070BD48
:109730009A695207D9D50CEB000201EBC20292F8EC
:109740002A451CB192F82845002C5DD1604401EBFC
:10975000C00090F82825002AC3D11A6822F004021C
:109760001A6070BD1A68940626D59A69920623D5A8
:10977000DC690CEB0002002044F0200401EBC20283
:10978000DC61196821F002011960196821F00401F7
:109790001960196821F040011960196821F0200151
:1097A0001960196821F010011960196821F0800111
:1097B000196082F8250570BD1A6822F002021A604D
:1097C0001A6822F004021A601A6822F040021A6035
:1097D0001A6822F020021A601A6822F010021A6039
:1097E0001A6822F080021A6070BDD2F82C45651C00
:1097F000C2F82C552478E4B29C6292F82845013CCA
:10980000E4B282F828455FE75C6AD2F83055E4B2EA
:109810006E1CC2F830652C7092F82845013CE4B209
:1098200082F8284592E700BF58170120008000FC0D
:109830000024008200EB80020346810030B41D4DFD
:1098400005EBC202D2F810054068046824062AD548
:109850008469E40506D5C46944F48074C4610124B4
:1098600082F824458269940509D5C269012442F42D
:109870000072C261CA1805EBC20282F824458269EF
:10988000520509D5C269012442F48062C261CA1836
:1098900005EBC20282F82445194405EBC103C90057
:1098A00093F824350BB930BC7047034B30BC1944D6
:1098B0008AE600BF581701207C1C01200020B9E770
:1098C0000020D1E60120B5E70120CDE60220B1E776
:1098D0000220C9E6F0B506688C680F68B569002FEC
:1098E00056D02E4B3B40B3F1005F4FD007F01F0C1A
:1098F00004F11F0327F01F029C442CF01F0CBFF340
:109900004F8FBCF1000F0BDD944402F12003DFF810
:1099100090E06345CEF868221A4603F12003F8D19F
:10992000BFF34F8FBFF36F8F02684FF480636B619B
:1099300053696F602C6243B34B68F56963B31E468D
:10994000164B3340B3F1005F1AD006F01F0226F029
:109950001F011F32224422F01F02BFF34F8F002A43
:109960000ADD0A4401F120030D489342C0F8701249
:10997000194603F12003F8D1BFF34F8FBFF36F8F68
:109980004FF480636E606B612C62F0BD3246CCE7B1
:109990003B463246034FCAE7034EF3E70000FFFFA2
:1099A00000ED00E000000020040000202DE9F84355
:1099B0000468D4E9043567681A7DD3E90061002D95
:1099C00052D01F2AE8613BD82020D5F8008000FA49
:1099D00002F242F01802B2602A7D1F2A3CD9203AD6
:1099E000202000FA02F242F01802C8F80C206A683F
:1099F0000020086010603046116841F010011160CD
:109A000093F80890A269494640F088F82D7AE269F7
:109A10004046294640F082F8284B13F809005A5D69
:109A2000335843F00103335058F8023043F0010338
:109A300048F802307B6843F003037B60BDE8F8839D
:109A4000203A2020D5F8008000FA02F242F01802F5
:109A5000F2602A7D1F2AC2D8202000FA02F242F0CA
:109A60001802C8F80820C2E71F2AD8611DD8202094
:109A700000FA02F242F01802B2600020A269086007
:109A8000086840F01000086030461C7A214640F01B
:109A900045F80A4B1A5DB35843F00103B3507B6895
:109AA00043F002037B60BDE8F883203A202000FAEF
:109AB00002F242F01802F260DFE700BFD46005084E
:109AC00010B1036882889A61704700BF18B183881B
:109AD00002681B0493617047D3B2012B1DD802EBBF
:109AE00042020F4B10B54FEA820E03F5287C0EF1AF
:109AF000080402E01C3363450DD01A788242F9D184
:109B00005A788A42F6D11A59002AF3D00EF1040E7F
:109B100003EB0E0010BD002010BD0020704700BFF9
:109B2000A8EE040810B40C4C002304F5B66C01E058
:109B3000152B0CD003EB430201331CF802108142B9
:109B4000F6D1144494F9B2055DF8044B70474FF018
:109B5000FF305DF8044B704758170120D3B2022B39
:109B600021D802EB420270B54FEA820E0F4C002260
:109B700023460EF10C0503E001322C33172A10D0D6
:109B80001E68B042F8D193F804C08C45F4D15E59F8
:109B9000002EF1D02C210EF1080301FB0233E01856
:109BA00070BD002070BD0020704700BF20EA04088F
:109BB000024843690BB10430184770470000012088
:109BC0000248036C0BB13030184770470000012089
:109BD0000248C36E0BB15C3018477047000001208B
:109BE0000348D0F898300BB188301847704700BF51
:109BF000000001200348D0F8C4300BB1B43018473E
:109C0000704700BF000001200348D0F8F0300BB1CE
:109C1000E0301847704700BF000001200348D0F82B
:109C20001C3113B100F58670184770470000012001
:109C30000348D0F8483113B100F59C7018477047BD
:109C4000000001200348D0F8743113B100F5B27060
:109C500018477047000001200348D0F8A03113B125
:109C600000F5C87018477047000001200348D0F87D
:109C7000CC3113B100F5DE701847704700000120A9
:109C80000348D0F8F83113B100F5F4701847704765
:109C9000000001200348D0F8243213B100F505700C
:109CA00018477047000001200348D0F8503213B124
:109CB00000F5107018477047000001200348D0F8E5
:109CC0007C3213B100F51B7018477047000001206B
:109CD0000348D0F8A83213B100F526701847704732
:109CE000000001204FF02C0C01380B4B82B00B4AC6
:109CF0000CFB00330A495B688B4214BF4FF48003AE
:109D00004FF40013116B19431163126B134001934D
:109D1000019B02B0704700BF0000012000380240E4
:109D200000600240F8B501381E46124C2C2315463F
:109D30000F4603FB0044104B6068984214BF962006
:109D400095203EF099F8C5F30112A90994F91C0079
:109D50006761266239F01EFC94F91C30002B07DB8A
:109D600003F01F0001225B090449824041F82320CF
:109D7000F8BD00BF000001200060024000E100E0EB
:109D80000120FFF74FB900BF0220FFF74BB900BF1A
:109D90000420FFF747B900BF0820FFF743B900BF11
:109DA0001020FFF73FB900BF4FF47870FFF73AB9C2
:109DB0004FF47C40FFF736B930B1036882881B69E5
:109DC0001A4214BF01200020704700BF2DE9F04F58
:109DD0000E4683B004461546002800F0C78002688E
:109DE000644B13449B0A644AC6F34119134493F825
:109DF00028073EF041F8C6F38103B4F804E006F00A
:109E00000301246801939EFAAEF0B0FA80F001F1EC
:109E1000FF383EFA00F367D001220327009603E0E3
:109E200001303EFA00F35ED002FA00F313EA0E03AB
:109E3000F6D0D4F800C093FAA3FBBBFA8BFB93FADD
:109E4000A3FABAFA8AFA4FEA4B0BB8F1010F4FEABC
:109E50004A0A07FA0BFB01FA0AFA2CEA0B0C4CEA45
:109E60000A0CC4F800C04ED9D4F80CC093FAA3FB76
:109E7000BBFA8BFB93FAA3FABAFA8AFA4FEA4B0BB6
:109E800002294FEA4A0A07FA0BFB09FA0AFA2CEAF6
:109E90000B0C4CEA0A0CC4F80CC0C1D193FAA3FA1B
:109EA000BAFA8AFA4FEA132CBAF1070F45DCD4F854
:109EB00020C093FAA3FABAFA8AFA93FAA3F34FF0FE
:109EC0000F0BB3FA83F34FEA8A0A01309B000BFAB7
:109ED0000AFA05FA03F32CEA0A0C4CEA030323629C
:109EE0003EFA00F3A0D1009EB8F1010F08D86268D5
:109EF000C6F3001322EA0E020EFB03F31343636062
:109F000003B0BDE8F08FD4F808C093FAA3FBBBFA06
:109F10008BFB93FAA3FABAFA8AFA4FEA4B0B019E2B
:109F20004FEA4A0A07FA0BFB06FA0AFA2CEA0B0C6C
:109F30004CEA0A0CC4F808C096E7D4F824A09CFAAE
:109F4000ACFBBBFA8BFB9CFAACF34FF00F0CB3FAF3
:109F500083F34FEA8B0B9B000CFA0BFC05FA03F31F
:109F60002AEA0C0A4AEA0303636259E74FF0FF3317
:109F700039E700BF0000FEBF20EA040800B125E772
:109F800070472DE9F84FDFF838832823064603FB96
:109F90000083D3F81055D3F81875D3F81C45002D5D
:109FA00000F0558127B197F90630002B40F04F8122
:109FB00024B194F90630002B40F04981731CDBB2C8
:109FC00017B11522FB71BA7114B11622E371A27197
:109FD0004FF02809287E3DF04FFF214609FB06F986
:109FE000384641F037FC042208EB090A38469AF853
:109FF0002035002B0CBF4FF01E0B4FF03E0B594687
:10A00000FFF7BCFF204604225946FFF7B7FFDAF8F6
:10A0100010359F4814225C680021484444F03EFA01
:10A02000236823F0010323609A4B9C4203F5F2332B
:10A0300040F00F811A6A42F400121A621A6A22F47E
:10A0400000121A62944BB0EE084A9FED947AF7EE34
:10A05000003A9A6828239FED925A40F2145C03FB61
:10A060000686C2F382228F4BB6F82295002613444F
:10A0700093F83027D8F83034D34007EE903AF8EE12
:10A08000677AC7EE275A07EE909A9FED877AF8EE27
:10A09000E77AC7EE274ADFED857AB0EE007AE5EE83
:10A0A000877AA5EE875A25EE844A37EE856A74EEE4
:10A0B000E72AB9F5C87F06F10107D5BF4FF49672BC
:10A0C00078226423322307EE907AD8BF4FF4167EAD
:10A0D0001344A2F13202F8EEE76AC8BF4FF4827E61
:10A0E00007EE903AD4BF61464FF4FA7166EEA56A66
:10A0F000B8EEE77A7144C7EE267A07EE102AB8EE7A
:10A10000C77A37EE447A77EEE37AFCEEE77A17EE19
:10A11000903AC7EE267AFCEEE77A17EE900A07EE41
:10A1200090EAB8EEE73A07EE901AF8EEE77A23EEF7
:10A13000243A83EE277A37EE453A32EEC77AC3EEF9
:10A14000267A77EEE37AFCEEE77A17EE901AC7EEFE
:10A15000267A77EEE37AFCEEE77A17EE902A02F1A0
:10A16000020E0EEB0108B0EE467A07EE908AF8EE8A
:10A17000677AA6EEA77AF4EEC74AF1EE10FA00F37A
:10A18000818043EA000E5FFA8EFEBEF10F0F7BD88E
:10A1900041EA020E1FFA8EFEBEF1FF0F74D81B05B6
:10A1A000000403F07F6392B200F47F000343404851
:10A1B00043EA067300EA01210B431343226822F0AD
:10A1C00001022260226822F4F852226000222361F8
:10A1D0002368114643F001032360A36823F400437E
:10A1E000A360A3686FF30A03A360236823F44013FA
:10A1F0002360636823F400436360236843F0010332
:10A20000236095F91A0039F0C5F995F91A20AB7E4B
:10A21000002A08DB5909012203F01F0302FA03F3A5
:10A22000244A42F82130002295F91900114639F0EC
:10A23000B1F995F919206B7E002A08DB5909012232
:10A2400003F01F0302FA03F31A4A42F82130BDE873
:10A25000F88F194A944207D11A6A42F480021A62AE
:10A260001A6A22F48002ECE6144A94427FF4EAAEC1
:10A270001A6A42F400021A621A6A22F40002E0E644
:10A280003E4616E701316CE70F2FF9D1002395E721
:10A290007C1C01200054004000380240286B6E4EA8
:10A2A0000000164320EA04080024744900007042AC
:10A2B00000FFFF0000E100E000580040005C0040AB
:10A2C0005817012008B1002280E5704770B50E4C88
:10A2D00094F8F86AAEB104F58764002503E001350F
:10A2E0002034B5420DD0237F002BF8D0E068002247
:10A2F0000028F4D00135217DFFF768FD2034B542F8
:10A30000F1D1012070BD00BF2C00002070B590F885
:10A31000723004461D09013D052D11D81B4E03F076
:10A320000F0306EB4502B2F8381741FA03F2D207E1
:10A3300006D590F87520012AD0B205D0012070BD55
:10A3400094F875300120FAE798400138084044F04D
:10A35000E1FA73190E4A93F84437034402EBC3053C
:10A3600052F83320AB8810691840E8D0002394F8E5
:10A3700073200221284684F87530FFF727FD226EEE
:10A38000136843F008031360D8E700BF20EA04080D
:10A39000481D0120014B43F8201070475028004011
:10A3A000204B2148196C214A41F0805130B482B0D1
:10A3B0001964196CFF2401F0805101910199016821
:10A3C00041F480710160CA20196C41F48061196404
:10A3D000196C01F4806100915321009D5462506218
:10A3E00051625B6FDB0013D4114B00221149C3F89B
:10A3F0005428C3F85828C3F85C28C3F86028C3F869
:10A400006428C3F86828C3F8501802B030BC7047FD
:10A41000A2F50062074BD2F850289A42E4D102B06C
:10A4200030BC7047003802400070004000280040F7
:10A4300000200040316665422DE9F84FD0F8947055
:10A440000446524B00F16406FDB227F0FF09826812
:10A4500000F1180A103D4846D2F80080A3FB0535EC
:10A460002D0929463FF0A2FB626D0023B2F5807FE3
:10A4700084F858307ED00DD8102A00F083805CD844
:10A48000012A45D0042A16BF6FF400616FF008015D
:10A490003C230EE0B2F5805F70D0B2F5803F3AD039
:10A4A000B2F5806F15BF6FF400616FF008013C23B7
:10A4B0000423324608F11806404656F803C001EA64
:10A4C0000C01F150D4F854B059463FF07BF9BBF57C
:10A4D000807F2DD023D8BBF1100F3ED036D8BBF1F2
:10A4E000010F02D0BBF1040F33D14FF0080C3368D9
:10A4F00052462946484643EA0C0333604023236210
:10A500003FF00CFB3B6843F010033B60BDE8F88F65
:10A510006FF00801CDE76FF008013C23C9E7BBF5F8
:10A52000805F22D0BBF5803F1AD0BBF5806F10D181
:10A5300008F11C064FF0080CD9E7402A15BF6FF44C
:10A5400000616FF008013C230023B2E7BBF1400F2C
:10A55000CBD03C364FF4006CC9E74FF4006CC6E733
:10A5600008F154064FF0080CC1E708F11C064FF43F
:10A57000006CBCE76FF0080104239AE76FF40061F8
:10A58000042396E76FF4006193E700BFABAAAAAA81
:10A590004A1C4FF4003310B418BF4FF0450C484C20
:10A5A00008BF4FF0800C00E00BB3626B013B12EA76
:10A5B0000C0FF9D0002925DD626B54071ED4032946
:10A5C00020D03F4B5A6BD20720D402291CD01A69E5
:10A5D000D2B282421ED101295B691DD0062913D156
:10A5E00013F4604F44D1374AC2F8F0380CE0002928
:10A5F00004DD636B5B0701D40329E2D103205DF81E
:10A60000044B7047002BF9D00020F8E701205DF8DB
:10A61000044B70471020F2E72B4A1A40002AF3D06F
:10A62000002B31DB5C002DD4980031D4D9002DD41F
:10A630001A0131D45C012DD4D80137D419021DD4AC
:10A640005A02E7D49C022DD4D80229D4190317D476
:10A650005A0323D49C0331D4D8032DD4190429D40C
:10A660005A0425D49C041FD41807CDD51A20C6E758
:10A67000990405D45A04CDD41B04C5D50F20BEE7D8
:10A680001320BCE70920BAE71C20B8E70B20B6E787
:10A690000A20B4E70D20B2E70C20B0E71420AEE7A3
:10A6A0001220ACE71120AAE71920A8E70E20A6E7A0
:10A6B0001820A4E71720A2E71620A0E715209EE7A0
:10A6C000002C01405817012008E0FFFDF8B5154D9A
:10A6D000AB6A93B1296B0446012914D0124B40F2A6
:10A6E000FF500021DA6A22F00802DA629863A96258
:10A6F000236823F001032360F8BD0B4AD36B43F4B6
:10A700008073D363F8BD084E40F2FF5700230C203E
:10A71000B763B36040F24C43F360FFF739FFB763B0
:10A72000DCE700BF58170120002C01402F4B1A68AE
:10A73000910102D59A6D52074BD42C4B1A685002E6
:10A7400002D5DA6E11063CD4284B1A68D20102D524
:10A750009A6D90072DD4254B1A68510102D59A6D38
:10A76000120717D4214B1A68120112D59A6DD00620
:10A770000FD59A6D510334D49A6DD20503D49A6DD6
:10A7800022F010029A65194B4FF0006218489A6047
:10A790009CE770479A6D500307D49A6DD10503D496
:10A7A0009A6D22F008029A65104B4FF080629A6011
:10A7B000D8E79A6D4FF0807122F002029A65996095
:10A7C000C9E7DA6E4FF4800122F08002DA66996000
:10A7D000BAE79A6D4FF0007122F004029A65996011
:10A7E000ABE74FF000629A60704700BF0064024020
:10A7F00058640240384B5A68110303D5D3F8A0209F
:10A8000052075BD4344B5A68D00303D5D3F8B42035
:10A81000110649D4304B5A68520303D5D3F8A0200F
:10A82000900737D42C4B5A68D10203D5D3F8A02017
:10A8300012071CD4284B5A68920217D5D3F8A020CF
:10A84000D00613D5D3F8A020510341D4D3F8A020CB
:10A85000D20505D4D3F8A02022F01002C3F8A0201E
:10A860001D4B4FF400121D48DA602FE77047D3F8F4
:10A87000A02050030AD4D3F8A020D10505D4D3F8E2
:10A88000A02022F00802C3F8A020134B4FF480123E
:10A89000DA60CFE7D3F8A0204FF4802122F0020243
:10A8A000C3F8A020D960BDE7D3F8B4204FF48031BD
:10A8B00022F08002C3F8B420D960ABE7D3F8A0201F
:10A8C0004FF4002122F00402C3F8A020D96099E7D8
:10A8D0004FF40012DA60704700640240A064024046
:10A8E0002DE9F041564E82B096F89030022B00F2DE
:10A8F0009380544D6B6913F0007303D00E2002B0A7
:10A90000BDE8F081009340F2FF574FF48A634FF0A7
:10A910000808AF630446C5F8088001211020EB60E9
:10A92000FFF736FEAF630028E9D1AF630121D6F807
:10A93000F0383720AB6040F27743EB60FFF728FE3A
:10A94000AF630028DBD1404A40F2734301216A62C1
:10A95000C5F82880EA6A42F03302EA62AF63A86071
:10A960003320EB60FFF714FEAF630028C7D16946C0
:10A9700040F22A4201E09B0254D46B6B13426B6B92
:10A98000F9D01F0753D46B6B980752D46B6B9906A1
:10A9900051D46B6B9B0250D4B4F5006F009B18BF71
:10A9A0004FF480321BBA08BF4FF480221A4237D0CE
:10A9B000D6F8F02840F27743224D40F2FF560121AD
:10A9C0003720AE63AA60EB60FFF7E2FDAE630028BC
:10A9D00095D1A4F5006340F24642AE630121B3FA7B
:10A9E00083F306205B095B00AB60EA60FFF7D0FDF4
:10A9F000AE63002883D16B6803F400639C423FF48C
:10AA00007EAF124A6B68134023436B606B6803F49C
:10AA10000063A342F6D172E7282002B0BDE8F081BE
:10AA200026206CE7D5F8803041F8043BA5E70420E8
:10AA300065E7022063E7062061E722205FE700BFA9
:10AA400058170120002C014000E1F5050081FFFFAF
:10AA50000E4A01210D20D2F8F02838B50C4C40F2F6
:10AA6000FF5540F24D43A563A260E360FFF790FD00
:10AA7000A56340B96069C0F34320A0F10400B0FAB7
:10AA800080F0400938BD002038BD00BF58170120B4
:10AA9000002C014070B5174D40F2FF56164C40F2A5
:10AAA0004D43D5F8F0280121A6630D20A260E36094
:10AAB000FFF76EFDA66320B96369C3F34323042B3C
:10AAC00002D04FF0FF3070BDD5F87C030028FAD0DB
:10AAD000026895F879338088126910402BB90038E4
:10AAE00018BF0120013840B270BDB0FA80F04009B3
:10AAF000F8E700BF58170120002C014070B51A4D2F
:10AB000010460A46D5F87C433CB12668A1883469D2
:10AB1000214095F8794314B319BB00213DF090F81A
:10AB2000F8B9AB6A002BFCD1104C40F2FF56D5F8B7
:10AB3000F02840F24D43A6630121A2600D20E3609E
:10AB4000FFF726FDA6630028F1D16369C3F3432311
:10AB5000042BECD1D5F82834C5F82C3470BD00296D
:10AB6000DBD14FF0FF3070BD58170120002C0140A1
:10AB700070B51A4D10460A46D5F87C433CB126689C
:10AB8000A1883469214095F8794314B319BB002199
:10AB90003CF0F2FFF8B9EB6A002BFCD1104C40F20C
:10ABA000FF56D5F8F02840F24D43A6630121A2607C
:10ABB0000D20E360FFF7ECFCA6630028F1D1636988
:10ABC000C3F34323042BECD1D5F82834C5F82C3437
:10ABD00070BD0029DBD14FF0FF3070BD5817012048
:10ABE000002C014038B50409013C052C1AD80F4D42
:10ABF00000F00F0305EB4402B2F8380740FA03F205
:10AC000012F0010210D00122254402FA03F3013BA5
:10AC1000184043F07FFE95F84437054A034402EBA1
:10AC2000C30038BD002038BD104638BD20EA0408F6
:10AC3000481D01202DE9F04389B00024054600F5A8
:10AC4000887E0DF10C0CC0F80C41394E0794C0E918
:10AC50003F44C0E94144CDE90344CDE90544BCE8A3
:10AC60000F00AEE80F00CEF8004095F82901C5F8B6
:10AC7000546110B909B0BDE8F083FFF7B3FF074690
:10AC800088B3818826234FF00048DFF8C090C38046
:10AC9000B1FA81F62748284B026845F80C3FC6F107
:10ACA0001F0328FA06F622EA060C244A1A4409EB86
:10ACB0008303C3F83454234692F84C57C0F800C0BD
:10ACC0001F4A46613868CDE900443FF0B5F809EB0A
:10ACD000050393F8F4285AB9164A136833431360EE
:10ACE00009B0BDE8F083144BEB6009B0BDE8F08318
:10ACF00083F8F4482246134B21465E575C5D30468C
:10AD000038F048FC002EBE880CDB04F01F02012343
:10AD10006409B6FA86F693400B4A28FA06F642F81A
:10AD20002430D9E7B6FA86F628FA06F6D4E700BF4B
:10AD30003B43413B003C0140AD8B000820EA040846
:10AD400000001110E060050800E100E05817012044
:10AD50002DE9F84F714E00EB400306EBC303D3F827
:10AD6000FC48002C00F09180642106F65C1293F8F8
:10AD70000C89054601FB002247004046C3F808291C
:10AD80003DF07AF84FEA5813012208F01F08013B02
:10AD900002FA08F2032B08D8DFE803F0ADB302B9DA
:10ADA0005F490B6A23EA02030B627B1905F1010B71
:10ADB00006EBC3035FFA8BFB93F80009FFF712FF62
:10ADC000804618B1122380F807B083717B1906EB17
:10ADD000C30393F80109FFF705FF824618B1132357
:10ADE00080F807B083717B1906EBC30393F802095F
:10ADF000FFF7F8FE814618B1142380F807B083717D
:10AE00002F4450462E2106EBC70696F80429FFF77B
:10AE1000B5F896F8052948460E21FFF7AFF896F8E1
:10AE200003292E214046FFF7A9F823683D4A23F065
:10AE30004003944223602AD03B4B9C4231D103F51E
:10AE400000331A6A42F480421A621A6A22F480427B
:10AE50001A62636843F48053636023685B060CD412
:10AE6000206840F217323149314B01400A432260D9
:10AE70006268134043F4E0636360E36923F40063B2
:10AE8000E361236843F040032360BDE8F88F244B5F
:10AE90005A6A42F480525A625A6A22F480525A62C2
:10AEA000D7E7244B9C421BD0234B9C420DD0234B15
:10AEB0009C42CED103F568435A6A42F480125A622A
:10AEC0005A6A22F480125A62C3E703F582335A6A3F
:10AED00042F400525A625A6A22F400525A62B8E7A7
:10AEE00003F5FE331A6A42F400421A621A6A22F427
:10AEF00000421A62ADE70A494B6923EA02034B613B
:10AF000053E707494B6A23EA02034B624DE70449C2
:10AF10000B6923EA02030B6147E700BF58170120C2
:10AF20000038024000300140003800404000FFFF80
:10AF3000FBF0FFFF003C00400034014000500140A6
:10AF400008B51D20FFF74EFE10B190F9063053B141
:10AF50001E20FFF747FE10B190F9063003B108BD7F
:10AF60005523C38008BD5523C380F1E72DE9F04F79
:10AF7000002391B0B84F0193B84BA7F6580BB84DCA
:10AF800093F8FE3AB74EAA460293013BDBB2009318
:10AF9000B54DA946D9F80050AB0AA3F58013522B42
:10AFA00000F2D0805B4493F8F4330D2B00F2CA809A
:10AFB00016F90380029B012B00F01381029B022BE8
:10AFC00002D1B8F1080F3AD100242146404611F0D1
:10AFD0009FFA11F027FB90F900C0BCF1000F18BFD9
:10AFE000BCF1540F14BF4FF0010C4FF0000C40F0B7
:10AFF000EE800434A4B2102CE7D1019B002B00F0AA
:10B00000AC80974A0CE05B4493F8F4330D2B0ED8D8
:10B01000F35643450ED002F58672924500F09980B2
:10B0200091680B689B0AA3F58013522BEBD9002380
:10B030004345F0D14B7999F805109942EBD109F1CC
:10B040001C094F45A6D1019B0AF5867A0133042BD2
:10B0500001939DD1854A4FF0010B92F8F83A02F521
:10B06000876AD94601330293029B4B4567D07B4BDD
:10B07000DAF80C7093F8122B9AF810300093002F26
:10B080005DD07A4BD7F800B05D687948BB88002D59
:10B09000584401934FEA902040F3B0807049002457
:10B0A00005E0013401F58671AC4200F0A4800B6824
:10B0B0008342F6D16A4B4FF48672019D02FB043441
:10B0C000009B0322CAF80C708AF81030019BCAF862
:10B0D0001840B3FA83F6C6F11F035800CAF80430CB
:10B0E000BA7187F8079002FA00F7A16C0122D4F830
:10B0F00054C0394302FA00F002FA03F3A164216D4F
:10B100000143D4F8AC00216558490F7899B2002F5B
:10B1100000F06B8143EA0C036365CBF81850FDF730
:10B120003DF809F101092046FDF70CF80AF1200A63
:10B1300040F20113B9F1090F2AF8043C94D111B07F
:10B14000BDE8F08F009B012B7FF679AF4FF0000830
:10B150003AE7BCF1000F7FF472AF4846FCF7B8FF46
:10B1600099F805E0C3B2022B00F2A98300F1010CAB
:10B17000404A0CEB4C0C02F57D704FEA8C0C03E05E
:10B180002C32904200F09B8313689D42F8D11379D2
:10B190007345F5D152F80C30002BF1D03648002120
:10B1A00004E0102900F12C003FF449AF42688C46BE
:10B1B00001319A42F5D1314B2C2202FB0C3C9CF917
:10B1C0002430002B7FF43BAFCAF808903BE7019B8B
:10B1D000002B7FF416AF09F11C094F457FF4DAAE5E
:10B1E00031E7B8F1010F3FF4EFAE09F11C094F450B
:10B1F0007FF4D0AE27E7042C00F005814FF4867170
:10B200001A4B01FB053319690491002900F02483CE
:10B210009860013054210592C4B2144A83F8101189
:10B2200083F811416B1C5360049B18461E685B79C0
:10B230000393FCF74DFFC3B2022B00F2408300F1F1
:10B24000010E0C494FF0000C059A0EEB4E0EDDF886
:10B250000C804FEA8E0E1AE078F20408581701208D
:10B2600034000020C46005087CF104082C00002094
:10B270000000FEBF20EA04080400012000000120B5
:10B280000CF1010C2C31BCF1170F00F018830B6886
:10B290009E42F5D10B794345F2D151F80E30002B87
:10B2A000EED09E4606932C2300EB4000DFF89482FC
:10B2B00003FB0CF3C44603EB800395480344954815
:10B2C00019694FF4867303FB050300201962C3F864
:10B2D0001CE004E010280CF12C0C3FF430AFDCF83B
:10B2E0000410034601307145F4D12C218A4801FB3A
:10B2F000030393F9241000297FF421AF4FF48671E2
:10B30000864883F825404FF08C0C01FB05F1814CF9
:10B31000062A05914FEAA10100FB01F1804800F5E2
:10B320004C7E059820447E4CC0F800C10CFB01FC0B
:10B3300001EB4101C0F80CB001EB01110EEB4C0E1A
:10B3400004EB81044FF05401C0F8FCE083F82410B2
:10B350004FF033030599C0F8B830724BC0F8B440D1
:10B3600003EB0104704BD3F8301400F05082072A2D
:10B370006E4B6F486F4A18BF1A466F4B18BF034693
:10B380006448B1FBF3F3B1FBF2F2013B4FF4867179
:10B39000013A01FB05019BB2A1F8BC20A1F8743071
:10B3A0002366059B03F1580100F108033046194458
:10B3B0000023A4F858306366E3653EF04BFB336826
:10B3C000039A43F0800333600C2A23D8DFE812F09D
:10B3D000D101220022002200AC0122002200220022
:10B3E000F5012200220022008701C6F12F062D045C
:10B3F00002FA06F33A4643EA0C036365CBF81850A9
:10B40000FCF7CCFE8DE60323474A82F8133B11B0CC
:10B41000BDE8F08F3F4A4FF486734FF0000B4FF0BA
:10B42000020E03FB0523304608AACDF828B059695F
:10B430003368079123F00103CDF834B0CDF83CB068
:10B440003360602308934FF480730E9301230993B4
:10B450000A23CDE90B3E3EF0B5F90799B1F5807F9F
:10B4600000F0118200F2E781102900F0258200F23D
:10B47000FA81012900F01082042915BF4FF40063FE
:10B4800008234FF03C0B4FF0000B06F1180252F866
:10B490000B100B4342F80B30049B1879002840F046
:10B4A000B98133684FF0000B069943F00103336014
:10B4B00005E0BBF1100F08F12C0800F0A381D8F8CB
:10B4C00004305A460BF1010B9942F2D112492C2358
:10B4D00003FB02135868194B984214BF962095201D
:10B4E0003CF0CAFC039B0C2B00F28981084A02EB5A
:10B4F0004303B3F858C84FF48673064A104803FB59
:10B50000052300F26471A3F818C0002323E000BFF4
:10B5100020EA04082C000020000001206B4CA40746
:10B52000F81000203400002058170120449508002E
:10B53000D0DD06001055220040771B00006002405D
:10B540002411002004000120964200F0968101336E
:10B55000042B00F0B78151F83320002AF4D1D0F841
:10B5600084270132C0F8842700EBC300DB00C0F859
:10B57000646719445846234690228E884CEA060C8C
:10B580000026A1F804C0C549FEF7CCFB4FF4867332
:10B59000C34A40214FF4403CC24803FB0528042322
:10B5A000D8F81C502A6842F010022A602A6842F03B
:10B5B00014022A60C4F8A860C4E91F66C4E92866BA
:10B5C000D8F82020A1674FF48061C4F898C04FF4E8
:10B5D000804CC4F88410E9B2C4F89C30C4F89420BC
:10B5E00010390392D8F8B820A0FB010125F0FF0024
:10B5F000C4F890204FF48052D8F80CB0D940C4F869
:10B600008820059B0BF118020691226703F1700256
:10B61000A54B04901A44D8F8B430C4F88CC06367C2
:10B620003EF07CFAD5F800E0059B0BF1100CC4F855
:10B6300020E0D5F814E003F1B8029B4BC4F824E0F5
:10B64000D5F804E01A44039BC4F828E0D5F808E0D4
:10B650000699C4F82CE0D5F80CE0C4F8DC300423DB
:10B66000C4F8C860C4F8E4304FF48063C4F8F060F4
:10B67000C4F8CC304FF40033C4F830E0C4F8E03004
:10B680000498C4E93066C4E93A664FF40066D8F815
:10B690000031C4F8B8C0C4F8D0604FF48046C4F894
:10B6A000D830D8F8FC30C4F8D460C4F8BC303EF0D0
:10B6B00035FA2B68D7F800B063636B69A3636B68D6
:10B6C000E363AB682364EB6863642B6843F01003A7
:10B6D0002B602B6843F014032B60BD88F0E43368C3
:10B6E0004FF486726E494FF0020E23F0010330468C
:10B6F00002FB05124FF480514FF0040B516108AA70
:10B70000336000230A930D930F93602308934FF443
:10B7100080730E93012309930A23CDE90B3E3EF07B
:10B7200051F84FF40063B0E633684FF486725C4919
:10B730004FF0000B23F00103304602FB05121021ED
:10B74000CDF828B05161022233606023CDF834B0C7
:10B7500008934FF48073CDF83CB00E930123099306
:10B760000A23CDE90B3208AA3EF02CF84FF400630F
:10B770008BE633684FF4867249494FF0000B23F093
:10B7800001034FF0020E02FB051201213046CDF8F5
:10B7900028B0516108AA33606023099108934FF4DF
:10B7A0008073CDF834B00E930A23CDF83CB0CDE9C8
:10B7B0000B3E3EF007F8082367E633684FF48672C5
:10B7C00037494FF0600B23F00103304602FB0512AE
:10B7D0004FF4807151610222336000230E910A936D
:10B7E0000D930F930123CDE908B30A234FF0040B07
:10B7F000CDE90B3208AA3DF0E5FF082345E64FF0FE
:10B80000000C78E64FF0FF324FF0000B5EE6274A5F
:10B81000274BB5E5FFF7E6F9834638B1049B0221D3
:10B82000DA79FEF7D3FA5423ABF80630736C43F49D
:10B830000043736435E6B1F5805F28D0B1F5803FF1
:10B840001DD0B1F5806F15BF4FF4006308234FF092
:10B850003C0B4FF0040B18E60223164A82F8133B08
:10B8600011B0BDE8F08F402915BF4FF400630823E5
:10B870004FF03C0B4FF0000B07E6DB0079E60823A6
:10B880004FF03C0B01E608234FF0040BFDE54FF4AD
:10B8900000634FF0040BF8E50823F6E5E9810008A2
:10B8A0002C000020ABAAAAAA34000020882A11008C
:10B8B000A0BB0D00581701204FF40063E5E50023FD
:10B8C0005B68FFDE00239B88FFDE00BFF8B50E4CEF
:10B8D00094F8F87A9FB104F5A764C7F10907092520
:10B8E000013D0ED0A6683079FFF77CF9217DF27911
:10B8F00008B1FEF76BFAAF4204F1A004F0D10120C9
:10B90000F8BDAB68FFDE00BF2C00002010B58078CA
:10B91000FFF768F990B10A494FF0410C0446002244
:10B92000D1F8143B80F806C00133C1F8143B202144
:10B93000C371FEF74BFA2368A2889A6110BD00BF5D
:10B940005817012070B52A4C636BD9051AD54FF4EE
:10B95000807240F2FF56274BA263A663E26B264D2E
:10B960001340E3632B6B9A071DD4012200232A6244
:10B970006B621F4B40F2FF511E4A9963D96B0A401C
:10B98000DA6370BD636B980703D51B4B02225A62C2
:10B99000EFE7636B190720D4636B9A0621D5164B2A
:10B9A00006225A62E5E7D5F8182B136823F0010345
:10B9B00013600022E36A23F00803E362EA622B6B60
:10B9C000DB07D2D540F24C43A6630121A2600C20D4
:10B9D000E360FEF7DDFDA663C7E7074B04225A626A
:10B9E000C7E7636BDB06C4D5034B05225A62C0E789
:10B9F000002C0140C53EFFFF581701202DE9F04FF4
:10BA0000067991B00546046E16F002093BD090F815
:10BA10007280B8F1000818BF4FF001084FEAC80261
:10BA2000236823F4F8732360A36823F00103A36061
:10BA3000236823F001032360614B9C4274D0614B67
:10BA40009C4223D0604B9C4200F084805F4B9C4220
:10BA500000F08B805E4B9C4271D05E4B9C4200F0AC
:10BA6000A3815D4B9C4200F049825C4B9C4217D104
:10BA700003F5DE33196A41F000411962196A21F0B9
:10BA8000004119620CE04A46C846C9E703F5FA339B
:10BA9000196A41F400311962196A21F400311962FE
:10BAA0002368D5F808A0D8076F793AD4BB0220687C
:10BAB000390206F0010603F4805301F480610B4360
:10BAC000474901400B4343EA8603134323603B038A
:10BAD000626803F4005322F4405213436360A36886
:10BAE00023F44073A360364B9C4249D0354B9C42B3
:10BAF0007ED0354B9C4200F04581344B9C4200F097
:10BB0000E981334B9C4200F07981324B9C4200F03A
:10BB10000082314B9C4200F01882304B9C4200F076
:10BB20008B8111B0BDE8F08F03F59433596A41F071
:10BB300010015962596A21F010015962B0E703F50A
:10BB4000F433196A41F480111962196A21F48011E1
:10BB50001962A5E703F5F833196A41F480211962E7
:10BB6000196A21F4802119629AE703F5F633196AFC
:10BB700041F400211962196A21F4002119628FE74A
:10BB8000DFF868B0174ADBF8903003F0030343F4A2
:10BB90004033934200F00181B3F1031F38D0013AE2
:10BBA000934200F03E8138F0BDFADBF80830DBF854
:10BBB0000810C3F303130C4AC1F3423111E100BF73
:10BBC000001001400044004000480040004C00408C
:10BBD000005000400014014000780040007C00400C
:10BBE000F369FFEF0200030020EA04080038024076
:10BBF000DFF8DCB2AE4ADBF8903003F00C0343F41C
:10BC00004023934200F0C980B3F10C1F40F0108133
:10BC1000DBF870309A0784D54FF40043BAF1000F77
:10BC20003FF47FAF03EB5A03B3FBFAF39BB2E3603D
:10BC3000FB070BD51EB1636843F480336360B9F131
:10BC4000000F03D0636843F40033636095F87430E9
:10BC50001BB1636843F400436360A3683F0743F488
:10BC60008053A360636823F490436360A36823F068
:10BC70002A03A36003D5A36843F00803A3602368E5
:10BC800043F001032360002E3FD0EF6B002F00F044
:10BC9000F2806B6CFEB227F0FF090022099304F1D9
:10BCA0002403103E484600934FF4806305934FF4FD
:10BCB000807303934FF480330A937E4BA3FB0636C5
:10BCC00000230293360904933146CDE90B33CDE9C5
:10BCD0000D336B690193EB6808930023CDE90623CC
:10BCE0003DF064FF6A46314648463DF017FF3B6829
:10BCF00043F001033B60704BA2689B5D42F0400241
:10BD00004B44A2605B689BB26B65B8F1000F3FF4D7
:10BD100008AF2E6C002E00F0BF80F1B2AA6C654B0C
:10BD200026F0FF07A1F1100509923846A3FB05355F
:10BD3000002301932D0908932946CDE90333CDE96A
:10BD40000633CDE90B33CDE90D334023029304F1E3
:10BD5000280300934FF4806305934FF480330A93D4
:10BD60003DF024FF6A46294638463DF0D7FE336849
:10BD700043F010033360236843F04003236011B0A5
:10BD8000BDE8F08FDFF848B14C4ADBF8903003F0A3
:10BD9000300343F44013934211D1DBF8003099078C
:10BDA0007FF5BFAE464B39E703F59233596A41F050
:10BDB00020015962596A21F02001596270E6B3F1FD
:10BDC000301F3FF425AF103A93422AD038F0AAF939
:10BDD000DBF80830DBF80810C3F30313394AC1F36A
:10BDE000822113440A4493F8743892F8302720FAD9
:10BDF00003F3D340002B7FF411AF92E6DFF8D0B00D
:10BE0000314ADBF8903003F4407343F040739342BF
:10BE1000C3D0B3F1032F3FF4FBAEA2F5807293427F
:10BE2000D4D138F07FF90346002B7FF4F7AE78E6E3
:10BE3000043A9342F5D0C9E703F5DE33234AD3F839
:10BE4000903003F4404343F04043934200F09F801E
:10BE5000B3F1C02F00F09080A2F580429342E0D071
:10BE600038F060F91A49174A8B688968C3F30313DD
:10BE7000C1F38221B5E7236843F480732360A3688C
:10BE800043F00103A360236843F020032360236889
:10BE900043F01003236038E7236843F080032360F6
:10BEA000236843F04003236011B0BDE8F08F00BF6A
:10BEB00008000C00ABAAAAAAD46005082000300034
:10BEC0000024F40020EA040800020003008000C0FF
:10BED00000380240DFF8C8B0304ADBF8903003F099
:10BEE000C00343F4400393423FF457AFB3F1C01F84
:10BEF0003FF48EAE403A934293D067E703F5E033C8
:10BF0000196A41F080411962196A21F08041196271
:10BF1000C6E5234A2349D2F8903003F4406343F046
:10BF200040638B4223D0B3F10C2F2BD01E4A934297
:10BF30003FF477AF38F0F6F819491C4A8B688968E6
:10BF4000C3F30313C1F342314BE7154A1849D2F842
:10BF5000903003F4405343F040538B4207D0B3F189
:10BF6000302F09D0134A93423FF45BAF78E7136850
:10BF700098077FF5D6AD15E7094B1B6F9A077FF53C
:10BF8000D0AD49E6136F9B077FF5CBAD44E6044B7C
:10BF90001B6899077FF5C5AD04E700BF8000C000AE
:10BFA000003802400008000C0004000C20EA0408DD
:10BFB0000020003000100030F0B4046EEFF3118365
:10BFC000502282F312880279920702D590F87220EB
:10BFD0003AB9012280F86420DBB283F31188F0BC07
:10BFE0007047056C2A6812F00102F5D1466A816A31
:10BFF0008E42EED0866A476A816A8F421ED8876A6F
:10C0000001698262C91B89B28269DBB232440026AF
:10C0100080F8646040202062EA606A686FF30F0273
:10C020000A436A602A6842F001022A60A26842F06C
:10C030008002A26083F31188F0BC7047416A826A73
:10C04000891A426A89B28262DEE700BF027D034636
:10C05000C0691F2A1B6805D9203A202101FA02F283
:10C06000DA60A9E7202101FA02F29A60A4E700BF92
:10C0700070B503790646046E13F0020504D090F8FB
:10C080007250003D18BF01252368980602D5E36968
:10C09000990659D4E369DA0701D501232362E369DC
:10C0A0009B0701D502232362E369580701D50423C6
:10C0B0002362E369190701D5082323622368002D51
:10C0C00039D05A060FD5E3695D060CD540232362AB
:10C0D00096F8753003F0FF05002B58D0336C13B180
:10C0E0003046FFF769FF2368180618D5E36919067B
:10C0F00015D5B26A736A9A42236844D013F0102FA0
:10C10000B26900D02368B36AD35CDBB2A362B36ABE
:10C1100032690133B3FBF2F102FB1133B3622368DE
:10C12000DA0607D5E369DB0604D5736B03B19847DC
:10C130001023236270BD23F0C0032360E3695B0614
:10C14000EDD540232362EAE7606AF36AC0B273B1B7
:10C15000316B9847236823F480732360A36823F02E
:10C160000103A360A36943F00803A36192E7F369A5
:10C170007269D054F369F2680133B3FBF2F102FB48
:10C180001133F361E6E723F080032360C7E796F8F5
:10C190007200FEF727FD326E0121136823F00803B9
:10C1A000136086F87510002898D02A462021FDF7E4
:10C1B0000DFE93E7BFF34F8F0549064BCA6802F4A3
:10C1C000E0621343CB60BFF34F8F00BFFDE700BFBA
:10C1D00000ED00E00400FA0508B572B6FFF7EAFFCB
:10C1E00070B582B0FEF7DCF8354BD3F85C38012B24
:10C1F0004ED0344C0025344A0523C4F89850C4F876
:10C200009C50C4F8A020C4F89430BFF34F8FBFF304
:10C210006F8F4FF6FF01E2682C4B0A402C4E134300
:10C220002C4AE360536FC6F81C3B37F011FC2A4BD5
:10C230002A49A3FB0023D4F8FC209B0C42F0807217
:10C24000C4F8FC20C6F8203BD6F83034244AA1FBC1
:10C25000031324499B09C2F8B01F5560013B1168C4
:10C26000B3F1807F41F00101116007D34FF0E0226C
:10C27000136943F00403136102B070BD4FF0E02274
:10C28000F0215361072384F8231095611361EDE7D2
:10C2900002210320FEF77EF80E4B13485A6C134917
:10C2A00042F480425A645B6C03F480430193019A28
:10C2B00002680B68026083F308884B689847FEE7C2
:10C2C0000020004000ED00E01B0000060005FA051C
:10C2D000581701200038024083DE1B43D34D621003
:10C2E000001000E055CEACC5003801400000F01F42
:10C2F00070B504460068830AA3F58013522B05D855
:10C300002F4E334493F8F4530D2D00D970BD3FF0F8
:10C31000DFFE2C4BA801022203EB8515D5F8241B68
:10C3200085F8612B284A8D682A40062A06D0B2F586
:10C33000803F03D00A6842F001020A601A18012106
:10C340000023224882F8611B216850F83320914273
:10C350000BD001330E2BF8D101220020114637F00B
:10C3600019F91B4B01221A6070BD06EBC3060122AE
:10C3700096F98948114696F88958204637F00AF907
:10C38000002CC3DB05F01F0101226B09104C02FADF
:10C3900001F11B2D44F8231007D11146192037F065
:10C3A000F9F84FF00073236070BD2E2DAED1114609
:10C3B0002C2037F0EFF84FF48053636070BD00BF5E
:10C3C00020EA04085817012007000100A4F204081D
:10C3D00000E100E003689B0AA3F58013522B55D8B7
:10C3E000F0B5364C234493F8F4330D2B4DD84079F7
:10C3F0000225334C4FEA831C20FA05F703EB830038
:10C4000004EB831603EB4000BD40D6F8246BBE4618
:10C410003844F76800293FD03D4304EB8007C7F854
:10C420009810C7F8A820F560EFF31185502282F329
:10C4300012882C2101FB0340D0F894203AB3111D3F
:10C44000C0F8B8201F4A03EB83001F4E03EB4000E7
:10C45000800006441030024452F8040F08B108600E
:10C46000011DB242F8D10022EDB20A6085F31188B5
:10C470002C2202FB0343D3F8B830BBB1A444DCF850
:10C48000242BD36843F00103D360F0BD70470D4AFD
:10C4900001FB03212431D6E727EA0505F56004EB0B
:10C4A0008005C5F89810C5F8A820BDE76444D4F805
:10C4B000242BD36823F00103D360F0BD20EA0408E5
:10C4C00058170120EC1701200C18012003689B0A63
:10C4D000A3F58013522B00D970470F4A134493F8E9
:10C4E000F4330D2BF8D8022210B40C4C407904EB35
:10C4F000831C20FA02F3DCF8240B02FA03F3C2686F
:10C5000029B922EA03035DF8044BC3607047134363
:10C510005DF8044BC360704720EA040858170120F7
:10C5200003689B0AA3F58013522B10D8084A1344C2
:10C5300093F8F4230D2A0AD8407902230549D840FC
:10C5400001EB82128340D2F8242BDB431361704746
:10C5500020EA04085817012001490248FCF780BD71
:10C56000EC1701200000014010B5064C064804F10C
:10C570009401FCF775FD04F508710448BDE810400E
:10C58000FCF76EBD58170120000001400044014037
:10C5900002494FF08040FCF763BD00BF181801202E
:10C5A00001490248FCF75CBD44180120000400402A
:10C5B00001490248FCF754BD7018012000080040F2
:10C5C00001490248FCF74CBD9C180120000C0040BA
:10C5D000F8B5164D164E2A69EB681A404FF0004028
:10C5E000B2FA82F3EAB120FA03F3012A6FEA0303F5
:10C5F00002EA03012B610A46F2D1D6F898718FB195
:10C60000013F0023BFB2C6F89831D6F8944134B147
:10C6100023682046394698476468002CF8D10022E8
:10C62000DCE7F8BDEF6ABFB2EFE700BF00100040E3
:10C630005817012001490248FCF712BD20190120BA
:10C640000004014010B5064C064804F5E471FCF7FF
:10C6500007FD04F529710448BDE81040FCF700BD52
:10C660005817012000040140001C00400149024805
:10C67000FCF7F6BC4C19012000400140014902487A
:10C68000FCF7EEBCA4190120004801400149024812
:10C69000FCF7E6BCD0190120001800402DE9F0415C
:10C6A0004FF425728EB000215E4841F0F7FE5E4BDC
:10C6B0005E4D4FF000085A6C40F22227A5F6F406B2
:10C6C000A5F1700442F001025A645A6C02F00102B2
:10C6D0000092009A1A6C42F001021A641A6C02F07D
:10C6E00001020192019A1A6C42F002021A641A6C59
:10C6F00002F002020292029A1A6C42F004021A64D8
:10C700001A6C02F004020392039A1A6C42F00802B7
:10C710001A641A6C02F008020492049A1A6C42F02D
:10C7200010021A641A6C02F010020592059A1A6C33
:10C7300042F020021A641A6C02F020020692069A55
:10C740005A6C42F002025A645A6C02F002020792DA
:10C75000079A5A6C42F480325A645A6C02F480325E
:10C760000892089A5A6C42F400325A645A6C02F4E5
:10C7700000320992099A5A6C42F480225A645A6C27
:10C7800002F480220A920A9A1A6C42F040021A6459
:10C790001A6C02F040020B920B9A1A6C42F0800263
:10C7A0001A641A6C02F080020C920C9A1A6C42F411
:10C7B00080721A641B6C03F480730D930D9B55F803
:10C7C0002810002354F83320914226D001330E2B39
:10C7D000F8D1002008F107083BF04EFBB845EED138
:10C7E0004FF0000840F2222755F82810002354F893
:10C7F000332091420CD001330E2BF8D1002008F1E8
:10C8000007083BF039FBB845EED10EB0BDE8F0812A
:10C8100006EBC30393F88808F1E706EBC30393F82C
:10C820008808D7E7EC1701200038024014F3040809
:10C8300037B590F85F380446032B2FD10023204DE5
:10C840008DF807309DF8073094F860289A4201D897
:10C8500003B030BD9DF8073005EBC30393F8E83E05
:10C860008BB181F0010383B19DF8073005EBC30361
:10C87000D3F8E40EFDF724F99DF807300133DBB25D
:10C880008DF80730DEE70B46EDE79DF8073005EB46
:10C89000C303D3F8E40EFDF719F9EDE7D0E910036F
:10C8A0009B7903F00103994204D003B0BDE8304006
:10C8B000FDF706B903B0BDE83040FDF707B900BF8A
:10C8C0005817012038B5044600790D4650B1FEF7DF
:10C8D00089F908B10323C380E2792946BDE83840CD
:10C8E000FDF74CBB38BD10B504462221FFF7EAFF27
:10C8F0002046FFF715FE20460121BDE81040E5E582
:10C9000010B504460121FFF7DDFF00212046BDE8F8
:10C910001040DBE538B510F8133CA0F6640433BBD7
:10C9200094F85028002A33D1616AA36A99421ED034
:10C93000A36AA169581CA062CB5CA06A2169DBB222
:10C94000884200D3A2625B0043F40073A4F8543819
:10C950000A2384F85238012384F8503894F85F3859
:10C96000012B01D0042B02D1606CFFF7C9FF94F8B2
:10C970004C38002B6DD194F84D380133DBB2092BC4
:10C9800084F84D3825D12046BDE83840FBF734BE49
:10C9900094F952586DB1B4F85418013D20464B0833
:10C9A00001F00101A4F85438FFF742FF84F852580F
:10C9B000DDE7626AA36A84F850589A42D7D194F8A6
:10C9C0005F38012B01D0042BD1D1606CFFF78BFFB6
:10C9D000CDE70A2B3DD194F84F382BB9B4F856382F
:10C9E00043F00103A4F856382379D9070AD5B4F8DF
:10C9F0005608820501D4C30718D4B4F85C38013353
:10CA0000A4F85C380122002384F84C2894F84F28BD
:10CA100084F84D38012A1CD16179606C84F84F3854
:10CA200001F00101BDE838403BF04CBEE36AC0F3C1
:10CA3000470013B1216B9847E4E7E3696269D0547A
:10CA4000E369E2680133B3FBF2F102FB1133E36106
:10CA5000D8E738BD2DE9F041A04CA4B0D4F85C383B
:10CA6000022B00F037829E489E4A9F49121A41F0DD
:10CA70009BFD9E489E4A9F49121A41F095FDD4F8AD
:10CA80005828012A00F2BD809B4B9C4E03EBC20349
:10CA90005A889988DB88C6E9B121C6F8CC32984C0F
:10CAA000984D994BB2FBF1F2984901FB02F200213B
:10CAB000C5F83024D4F8882042F47002C4F88820E5
:10CAC0001A6842F001021A609960914A186802409F
:10CAD00090481A60C0F308078F4A5A601A6822F417
:10CAE00080221A60D96007B1FEE78C49A0604FF63A
:10CAF000FF000A688A4B42F400720A60E268024052
:10CB00001343E3603BF0FCFDBFF34F8FBFF36F8F28
:10CB1000C4F85072BFF34F8FBFF36F8F636943F454
:10CB200000336361BFF34F8FBFF36F8FC4F884701E
:10CB3000BFF34F8FD4F8803043F6E07CC3F3C90EC7
:10CB4000C3F34E33580100EA0C01734641EA837285
:10CB5000013B5F1CC4F86022F8D1203810F1200F8F
:10CB6000F1D1BFF34F8F636943F480336361BFF347
:10CB70004F8FBFF36F8F6949634B0A6842F480722D
:10CB80000A60196C674A41F080511964196C01F010
:10CB9000805102910299116841F44041116012687C
:10CBA000D6F8C44202F440420192019A9A6802F017
:10CBB0000C02042AD6E9B27100F08B809A6802F068
:10CBC0000C02082A00F081804F4A136843F4803336
:10CBD0001360D5F8240F04E0D5F8243F1B1A642B0A
:10CBE00072D813689B03F7D5474A936803F00C0388
:10CBF000082B69D0136823F080731360D5F8240FD5
:10CC000008E03E4ED6E9B12149E7D5F8243F1B1A8A
:10CC1000022B59D813689E01F7D40B06790843EA12
:10CC20008413013943EA01433F49194351601368B2
:10CC300043F080731360344AD5F8241F04E0D5F81C
:10CC4000243F5B1A022B3FD813689801F7D5136C69
:10CC500043F080531364136C324A03F08053039300
:10CC6000039B136843F480331360D5F8241F05E059
:10CC7000D5F8243F5B1AB3F57A7F2DD85368DB03D0
:10CC8000F6D51368274943F400331360D5F8242FF1
:10CC900005E0D5F8243F9B1AB3F57A7F1CD84B6882
:10CCA0009E03F6D54FF400124FF0006304A80492DF
:10CCB0004FF4C07221930723CDE9082303230A937D
:10CCC00036F0F4FE90B3FEE7FEE75B685A027FF5AC
:10CCD0007BAF0D4B1B6887E7FEE700BF00200040DD
:10CCE00000000000D03C0000A4EA0508000000207D
:10CCF0002C000020454906089CFB04080000012088
:10CD000000ED00E0581701200038024040420F00BB
:10CD1000FFFFF6FE0000000810300024003C024037
:10CD20000003FA0500700040080040206C4A1368B8
:10CD300003F00F03062B0AD8136823F00F0343F008
:10CD400007031360136803F00F03072B69D1654BCA
:10CD50009A6842F4E0529A609A6842F460429A609B
:10CD60009A6822F0F0029A601A68900159D59A6880
:10CD700041F2883022F0030242F002029A60D5F8B4
:10CD8000241F04E0D5F8242F521A824249D89A6809
:10CD900002F00C02082AF5D1514A136819070AD586
:10CDA000136823F00F0343F007031360136803F0C5
:10CDB0000F03072B35D1DFF82C814B4ED8F8083004
:10CDC00023F4E05343F4A053C8F80830D8F80830EF
:10CDD00023F4604343F40043C8F8083036F038FECB
:10CDE000D8F80830C3F30313334493F8743820FAA7
:10CDF00003F3C5F830343BF083FC002304A8CDE9ED
:10CE00001333CDE91533CDE91733CDE91933CDE926
:10CE10001B33CDE91D33354B049336F047FE08B183
:10CE2000FEE7FEE702234FF0007204A8CDE90633C7
:10CE3000D823CDE9042301230B9336F037FE00B14C
:10CE4000FEE7D8F88C3023F08073C8F88C30D8F81F
:10CE50008C3043F08073C8F88C30D8F8083003F079
:10CE60000C03042B31D0082B12D0214B2149B4FBE9
:10CE7000F7F201FB02F21B498968C1F303110E446A
:10CE800096F87418CB409A42C5F830341FD0FEE7AC
:10CE9000D8F80430D8F8042013F4800FD8F8043000
:10CEA00002F03F0218BF1449C3F3881308BF1049AA
:10CEB000B1FBF2F202FB03F30A4A5268C2F30142E9
:10CEC00001325200B3FBF2F3D0E70B4BCEE724B0B4
:10CED000BDE8F08100210320FDF75CFAFFF76AF955
:10CEE000003C02400038024020EA0408C0FF030072
:10CEF0000024F40040420F0000127A0010B4EFF357
:10CF00001182102383F312880C4B4FF0E020002491
:10CF1000D2B2D3F828140131C3F828148169C3F8B8
:10CF2000281FC3F82C4F016982F31188D3F8242FEE
:10CF30005DF8044B0132C3F8242F704758170120C5
:10CF400010B4EFF31181102383F312884FF0E02225
:10CF50009469136913F4803F0D4B03D00120C3F88B
:10CF60002C0F9469D3F82804C9B2D3F82C2F81F37D
:10CF700011880244D3F8201B4FF47A7000FB01F3B0
:10CF80001B1B5DF8044BB3FBF1F300FB0230704751
:10CF9000581701202DE9F04F874C83B00746D4F88D
:10CFA000F09494F8F8340191B9F1000F0BD083F0AC
:10CFB0000202B9F80410C2F34002120101FA02F2AF
:10CFC000D9F800108A61D4F8EC84B8F1000F09D0C8
:10CFD00003F00103B8F804201B0102FA03F3D8F8A8
:10CFE00000209361013F754E4FF0E0254FF47A7BAE
:10CFF000FBB20093B9F1000F08D0D9F80010B9F8CE
:10D0000004304869034218BF1B048B61B8F1000F5C
:10D0100000F0C980D8F80010B8F80430486903421D
:10D020004FF0010018BF1B048B610FF003FADDF80D
:10D0300004A07368C3F30803002B40F0B080EFF343
:10D040001183002B40F0AB80D4F82874A869D4F881
:10D0500028148F42F8D1D4F8281F8842F4D8D4F885
:10D06000203B0BFB03F1091AB1FBF3F10BFB071794
:10D070007368C3F30803002B40F08A80EFF3118339
:10D08000002B40F08580D4F82834A969D4F828040E
:10D090008342F8D1D4F8280F8142F4D8D4F8202B59
:10D0A0000BFB02F0401AB0FBF2F00BFB0300C31BBA
:10D0B000B3F57A7FDCD3BAF1010ABAD1B9F1000F26
:10D0C00008D0D9F80010B9F804304869034218BFF5
:10D0D0001B048B61B8F1000F69D0D8F80010B8F8C4
:10D0E0000430486903424FF0000018BF1B048B61F5
:10D0F0000FF0A0F9DDF804A07368C3F30803002B58
:10D1000049D1EFF31183002B45D1D4F82874A869D5
:10D11000D4F828148F42F8D1D4F8281F8842F4D8C4
:10D12000D4F8203B0BFB03F1091AB1FBF3F10BFB25
:10D1300007177368C3F308033BBBEFF3118323BBEB
:10D14000D4F82834A969D4F828048342F8D1D4F853
:10D15000280F8142F4D8D4F8202B0BFB02F0401AA0
:10D16000B0FBF2F00BFB0300C31BB3F57A7FE0D3F7
:10D17000BAF1010AC0D1009B5F1EFBB2FF2B0093E6
:10D180007FF438AF03B0BDE8F08FFFF7D9FEEBE7CF
:10D19000FFF7D6FE8BE7FFF7D3FE0746C9E7FFF799
:10D1A000CFFE074664E701200FF044F93FE7404611
:10D1B0000FF040F99EE700BF5817012000ED00E096
:10D1C000134B5B68C3F3080303BBEFF31183EBB9A5
:10D1D000104B4FF0E02C10B4D3F82824DCF81800E2
:10D1E000D3F828148A42F7D1D3F8281F8842F3D8FD
:10D1F000D3F8204B4FF47A7101FB04F31B1AB3FBF5
:10D20000F4F35DF8044B01FB0230704798E600BF71
:10D2100000ED00E0581701202DE9F04FDFF80881FC
:10D2200083B098F800301BB9012003B0BDE8F08F3F
:10D23000DFF8F89008F58765394E0024D9F82834CE
:10D2400098F8F8AA06F53877A6F5F16B019312E085
:10D25000B0F5606F56D0B8814FF6FF73019AC11ACE
:10D26000304618BF01210DF075FB01345C361437D0
:10D270002035082C27D0544525D0A86990F8FE20E9
:10D28000002AF2D16A68D0E93D0141F09DFB4FF6DA
:10D29000FE7399F8742498422CD0542A04D1B9F81A
:10D2A00078240132A9F87824DBF8702A4FF6FF734E
:10D2B00001329842CBF8702ACAD1DBF86C2A0132CD
:10D2C000CBF86C2AC8E7D8F804200121002A8BF893
:10D2D0006C1BA9DD134B4FF48670002100FB02325A
:10D2E00083F8FE1003F586739342F9D1012003B051
:10D2F000BDE8F08F542AB8D1B9F87A240132A9F8E0
:10D300007A24B2E799F8E82402EB420209EBC20260
:10D31000224492F895240D2A9DD18022BA779BE76A
:10D32000AC180020340000202C00002058170120E9
:10D3300070B541F011FB80B31A484568002D10DD2F
:10D34000002410F8086B16B1037F012B1FD042692F
:10D35000013400F586701368AC4243F0010313609A
:10D36000F1D1FFF72DFF104BD3F88447002C0DDDD2
:10D3700003F2647303EBC4041968083333F8042C14
:10D38000C868A34242EA0002CA60F5D170BD00231A
:10D3900080F8FC30FAF7D6FED9E73EF02BFB0028E8
:10D3A000CAD170BD2C000020241100202DE9F04FBF
:10D3B000924C87B023781BB9012007B0BDE8F08FED
:10D3C0008F4BD3F828340493FFF7FAFE94F8F82A29
:10D3D000002A00F00B818B4904F5A7660025019215
:10D3E000D1F8783B01F5F16B01F6682A3446C31A8F
:10D3F000059602930CE020460135FDF71DF8019BD0
:10D40000A0340BF15C0BAB420AF1140A00F0B580BA
:10D41000029A002A03DBE36D934200F3D380774A3C
:10D4200005EB850302EB431393F8903503F0FF02FD
:10D43000002BE0D0D4F89400A368734E1968C3B2EF
:10D4400020F0FF00103BA6FB0363704E1B09F35C4A
:10D450000344A0895E68CB68B6B223EA0003C6F134
:10D460001606CB60072EC6D966490020D4F89C90DA
:10D47000D1F8703A8646074603920133C1F8703AF4
:10D480000123D9F8001098461EE059F82320142FE4
:10D490008EF0010EA2EB010C11462ADC1CF10802F1
:10D4A00048BF0CF11702BCF1070F4FEA221202F13C
:10D4B000FF3C00FA02F057DD013308FA0CFC174478
:10D4C0009E424CEA000014D39E42DED8C7F11502FA
:10D4D000C7F1140C002A08FA0CFC00FA02F208DD6D
:10D4E0001EF0010F05D001334CEA020015279E42C1
:10D4F000EAD2152F039A37D1454EC0F38423C0F3E7
:10D50000441106EB830306EB8101D3F81431D1F803
:10D5100014111B0243EA011300F01F01C0F3C430D1
:10D5200006EB810106EB8000D1F814110B43D0F813
:10D53000141143EA013383EA132181EA111101F046
:10D540000F010F2910D1C3F30F134FF6FF718B4258
:10D550000AD0B3F5606F39D0AAF80C30114658469E
:10D56000049A0DF0F7F946E7264AD2F86C3A0133EF
:10D57000C2F86C3A05B30022F0E7019A0121059E3A
:10D58000002302EB82021F4806EB421280F86C1B5C
:10D59000C0F8783BB368A03616F8901C1B6856F8A4
:10D5A0004C0C11F0020F196A14BF41EA80010143CB
:10D5B000B2421962EED1FFE649465822154840F0C2
:10D5C000F3FFD8E7002007B0BDE8F08F0C4890F8D3
:10D5D000E81401EB410100EBC101294491F89514D5
:10D5E0000D29B9D180238AF81E30B7E7054B0121F8
:10D5F000C3F8782B83F86C1BDEE600BF2C000020FC
:10D600005817012024110020ABAAAAAAD46005084B
:10D6100018FB0408381C00202DE9F0410746DFF80C
:10D620006080FFF7CDFD154C4FF0E0250646D8F899
:10D630000430C3F30803EBB9EFF31183D3B9D4F883
:10D640002834A969D4F828249342F8D1D4F8282F93
:10D650009142F4D8D4F820CB4FF47A7202FB0CF04C
:10D66000401AB0FBFCF002FB0300831BBB42DED37D
:10D67000BDE8F081FFF764FCF7E700BF5817012011
:10D6800000ED00E02DE9F041AA4C92B094F87863E7
:10D69000002E00F0088294F84C335A1E082A00F23B
:10D6A0007A81DFE812F033006E00BB0078014B0195
:10D6B00088011B007801090039F04AFB002840F07E
:10D6C000CA82D4F83C33D4F82824FA33934280F049
:10D6D0005F81FBF7CFF994F84C33DEE739F038FB84
:10D6E0000028EED0D4F848330022012B84F84023E0
:10D6F00040F2E282D4F84423013B08210132C4F80D
:10D70000483384F84C13C4F844230EE10021084642
:10D71000FBF776FAD4F88023C5B2136A002BFCD14C
:10D720000A20FFF779FFD4F8883313B11A689B8871
:10D730009361012D40F02C81002740F2AB110820AD
:10D7400084F84173FBF75CFAC0B2052800F003824D
:10D75000012800F0E081D4F88023136A002BFCD16B
:10D760000A20FFF759FFD4F8883313B11A689B8851
:10D77000936194F84133002B00F09582022384F8E2
:10D780004C3394F8415300213720A5F10205FBF7F3
:10D7900037FA2920B5FA85F56D09AD072946FBF75B
:10D7A0002FFAD4F88023C5B2136A002BFCD10A20CB
:10D7B000FFF732FFD4F8883313B11A689B8893615E
:10D7C000002D40F0E58094F84133022B00F00D82EB
:10D7D0000021092084F84253FBF712FA002800F0D8
:10D7E000BF810025D4F88023136A002BFCD10A20C6
:10D7F000FFF712FFD4F8883313B11A689B8893613E
:10D80000002D00F0C58000210A20FBF7F9F9C0B215
:10D81000002840F0D981032384F84C33102103A859
:10D82000FBF748FA002840F0B380BDF80D309DF8B2
:10D830000C205BBA9DF8111062F307009DF80F20D1
:10D84000A4F854339DF8193062F30F209DF810208E
:10D850001B019DF8145062F317409DF81A20DBB2AB
:10D8600061F31F60DDF8151043EA121302F00F0296
:10D8700009BAC4F8560303F5FA6384F86423C4F8BC
:10D880005C132909A4F86233BDF81230D4F8802360
:10D89000A4F85A3305F00F0384F8601384F8613359
:10D8A000136A002BFCD10A20FFF7B6FED4F88833A8
:10D8B00013B11A689B88936194F84233B3B94FF45B
:10D8C00000711020FBF79CF9D4F88023C5B2136ACD
:10D8D000002BFCD10A20FFF79FFED4F8883313B148
:10D8E0001A689B889361002D7FF4F3AED4F830342E
:10D8F00011499A08B1EB930F4FF0020306D2520878
